{
  "_format": "hh-sol-artifact-1",
  "contractName": "Registrar",
  "sourceName": "contracts/core/Registrar.sol",
  "abi": [
    {
      "inputs": [
        {
          "internalType": "address",
          "name": "registrationVerifier_",
          "type": "address"
        }
      ],
      "stateMutability": "nonpayable",
      "type": "constructor"
    },
    {
      "inputs": [],
      "name": "InvalidChainId",
      "type": "error"
    },
    {
      "inputs": [],
      "name": "InvalidProof",
      "type": "error"
    },
    {
      "inputs": [],
      "name": "InvalidRegistrationHash",
      "type": "error"
    },
    {
      "inputs": [],
      "name": "InvalidSender",
      "type": "error"
    },
    {
      "inputs": [],
      "name": "UserAlreadyRegistered",
      "type": "error"
    },
    {
      "anonymous": false,
      "inputs": [
        {
          "indexed": true,
          "internalType": "address",
          "name": "user",
          "type": "address"
        },
        {
          "components": [
            {
              "internalType": "uint256",
              "name": "x",
              "type": "uint256"
            },
            {
              "internalType": "uint256",
              "name": "y",
              "type": "uint256"
            }
          ],
          "indexed": false,
          "internalType": "struct Point",
          "name": "publicKey",
          "type": "tuple"
        }
      ],
      "name": "Register",
      "type": "event"
    },
    {
      "inputs": [
        {
          "internalType": "address",
          "name": "user",
          "type": "address"
        }
      ],
      "name": "getUserPublicKey",
      "outputs": [
        {
          "internalType": "uint256[2]",
          "name": "publicKey",
          "type": "uint256[2]"
        }
      ],
      "stateMutability": "view",
      "type": "function"
    },
    {
      "inputs": [
        {
          "internalType": "uint256",
          "name": "registrationHash",
          "type": "uint256"
        }
      ],
      "name": "isRegistered",
      "outputs": [
        {
          "internalType": "bool",
          "name": "isRegistered",
          "type": "bool"
        }
      ],
      "stateMutability": "view",
      "type": "function"
    },
    {
      "inputs": [
        {
          "internalType": "address",
          "name": "user",
          "type": "address"
        }
      ],
      "name": "isUserRegistered",
      "outputs": [
        {
          "internalType": "bool",
          "name": "",
          "type": "bool"
        }
      ],
      "stateMutability": "view",
      "type": "function"
    },
    {
      "inputs": [
        {
          "components": [
            {
              "components": [
                {
                  "internalType": "uint256[2]",
                  "name": "a",
                  "type": "uint256[2]"
                },
                {
                  "internalType": "uint256[2][2]",
                  "name": "b",
                  "type": "uint256[2][2]"
                },
                {
                  "internalType": "uint256[2]",
                  "name": "c",
                  "type": "uint256[2]"
                }
              ],
              "internalType": "struct ProofPoints",
              "name": "proofPoints",
              "type": "tuple"
            },
            {
              "internalType": "uint256[5]",
              "name": "publicSignals",
              "type": "uint256[5]"
            }
          ],
          "internalType": "struct RegisterProof",
          "name": "proof",
          "type": "tuple"
        }
      ],
      "name": "register",
      "outputs": [],
      "stateMutability": "nonpayable",
      "type": "function"
    },
    {
      "inputs": [],
      "name": "registrationVerifier",
      "outputs": [
        {
          "internalType": "contract IRegistrationVerifier",
          "name": "",
          "type": "address"
        }
      ],
      "stateMutability": "view",
      "type": "function"
    },
    {
      "inputs": [
        {
          "internalType": "address",
          "name": "userAddress",
          "type": "address"
        }
      ],
      "name": "userPublicKeys",
      "outputs": [
        {
          "internalType": "uint256",
          "name": "x",
          "type": "uint256"
        },
        {
          "internalType": "uint256",
          "name": "y",
          "type": "uint256"
        }
      ],
      "stateMutability": "view",
      "type": "function"
    }
  ],
  "bytecode": "0x608034607057601f61072638819003918201601f19168301916001600160401b03831184841017607557808492602094604052833981010312607057516001600160a01b03811690819003607057600080546001600160a01b03191691909117905560405161069a908161008c8239f35b600080fd5b634e487b7160e01b600052604160045260246000fdfe6080604052600436101561001257600080fd5b60003560e01c806311231fe0146104f8578063163f7522146104bf57806337729b5c146101045780634cd1f470146100bd578063579a69881461008c576392d05a851461005e57600080fd5b34610087576000366003190112610087576000546040516001600160a01b039091168152602090f35b600080fd5b34610087576020366003190112610087576004356000526002602052602060ff604060002054166040519015158152f35b34610087576020366003190112610087576004356001600160a01b038116908190036100875760005260016020526040806000206001815491015482519182526020820152f35b34610087576101a036600319011261008757600061012136610628565b60408101516001600160a01b031690338290036104b057606081015146036104a1576080810151907f30644e72e131a029b85045b68181585d2833e84879b9709143e1f593f000000182101561049257818452600260205260ff60408520541680610483575b61047457600260051b9160405161019e84826105ca565b8036604411610470576004905b604482106104605750506040938451906101c586836105ca565b813660c4116103ce576000906044905b60c482106103e65750506103d2576101ef865191826105ca565b8036610104116103ce5760c4905b61010482106103be5750509161023b9261021636610628565b9060018060a01b038a54169388519586946334baeab960e01b86526004860190610570565b8a604485015b600282106103775750505061025a9060c4840190610570565b8861010483015b6005821061035d575050506101a4816020935afa908115610353578691610314575b501561030557907fa29f706235c83d457380cf21ecc4ba909fa846879eea28d1b12e4e3b82aa7590929160208251920151908351926102c184610598565b8352602083019182528587526001602052838720835181556001835191015586526002602052828620600160ff19825416179055825191518252516020820152a280f35b6309bde33960e01b8552600485fd5b90506020813d60201161034b575b8161032f602093836105ca565b81010312610347575180151581036103475786610283565b8580fd5b3d9150610322565b84513d88823e3d90fd5b829350602080916001939451815201930191018492610261565b9091929394508983518d839190915b600283106103a557505050602090600192019301910186949392610241565b815181528d935060019092019160209182019101610386565b81358152602091820191016101fd565b8880fd5b634e487b7160e01b88526041600452602488fd5b36601f8301121561045c578261044857885161040285826105ca565b808a840136811161044457918b9285949294905b80821061042e575050815292019160200190506101d5565b813586526020958601958e955090910190610416565b8d80fd5b634e487b7160e01b8b52604160045260248bfd5b8a80fd5b81358152602091820191016101ab565b8680fd5b634f2532fb60e11b8452600484fd5b5061048d836105ec565b610187565b638c45c0ad60e01b8452600484fd5b633d23e4d160e11b8352600483fd5b636edaef2f60e11b8352600483fd5b34610087576020366003190112610087576004356001600160a01b0381168103610087576104ee6020916105ec565b6040519015158152f35b34610087576020366003190112610087576004356001600160a01b038116908190036100875760409081805161052e82826105ca565b36903781519061053d82610598565b8060005260016020528260002054825260005260016020526001826000200154602082015261056e82518092610570565bf35b906000905b6002821061058257505050565b6020806001928551815201930191019091610575565b6040810190811067ffffffffffffffff8211176105b457604052565b634e487b7160e01b600052604160045260246000fd5b90601f8019910116810190811067ffffffffffffffff8211176105b457604052565b6001600160a01b031660008181526001602052604090205415159081610610575090565b90506000526001602052600160406000200154151590565b906040519161063860a0846105ca565b82906101a41161008757610104905b6101a48210610654575050565b813581526020918201910161064756fea264697066735822122050a2695e28c333823ec10ecf9e4147e058f8193705ecacee7ba8f183d668f73764736f6c634300081b0033",
  "linkReferences": {},
  "deployedLinkReferences": {}
}