{
  "_format": "hh-sol-artifact-1",
  "contractName": "RegistrationCircuitGroth16Verifier",
  "sourceName": "contracts/verifiers/RegistrationCircuitGroth16Verifier.sol",
  "abi": [
    {
      "inputs": [],
      "name": "ALPHA_X",
      "outputs": [
        {
          "internalType": "uint256",
          "name": "",
          "type": "uint256"
        }
      ],
      "stateMutability": "view",
      "type": "function"
    },
    {
      "inputs": [],
      "name": "ALPHA_Y",
      "outputs": [
        {
          "internalType": "uint256",
          "name": "",
          "type": "uint256"
        }
      ],
      "stateMutability": "view",
      "type": "function"
    },
    {
      "inputs": [],
      "name": "BASE_FIELD_SIZE",
      "outputs": [
        {
          "internalType": "uint256",
          "name": "",
          "type": "uint256"
        }
      ],
      "stateMutability": "view",
      "type": "function"
    },
    {
      "inputs": [],
      "name": "BETA_X1",
      "outputs": [
        {
          "internalType": "uint256",
          "name": "",
          "type": "uint256"
        }
      ],
      "stateMutability": "view",
      "type": "function"
    },
    {
      "inputs": [],
      "name": "BETA_X2",
      "outputs": [
        {
          "internalType": "uint256",
          "name": "",
          "type": "uint256"
        }
      ],
      "stateMutability": "view",
      "type": "function"
    },
    {
      "inputs": [],
      "name": "BETA_Y1",
      "outputs": [
        {
          "internalType": "uint256",
          "name": "",
          "type": "uint256"
        }
      ],
      "stateMutability": "view",
      "type": "function"
    },
    {
      "inputs": [],
      "name": "BETA_Y2",
      "outputs": [
        {
          "internalType": "uint256",
          "name": "",
          "type": "uint256"
        }
      ],
      "stateMutability": "view",
      "type": "function"
    },
    {
      "inputs": [],
      "name": "DELTA_X1",
      "outputs": [
        {
          "internalType": "uint256",
          "name": "",
          "type": "uint256"
        }
      ],
      "stateMutability": "view",
      "type": "function"
    },
    {
      "inputs": [],
      "name": "DELTA_X2",
      "outputs": [
        {
          "internalType": "uint256",
          "name": "",
          "type": "uint256"
        }
      ],
      "stateMutability": "view",
      "type": "function"
    },
    {
      "inputs": [],
      "name": "DELTA_Y1",
      "outputs": [
        {
          "internalType": "uint256",
          "name": "",
          "type": "uint256"
        }
      ],
      "stateMutability": "view",
      "type": "function"
    },
    {
      "inputs": [],
      "name": "DELTA_Y2",
      "outputs": [
        {
          "internalType": "uint256",
          "name": "",
          "type": "uint256"
        }
      ],
      "stateMutability": "view",
      "type": "function"
    },
    {
      "inputs": [],
      "name": "GAMMA_X1",
      "outputs": [
        {
          "internalType": "uint256",
          "name": "",
          "type": "uint256"
        }
      ],
      "stateMutability": "view",
      "type": "function"
    },
    {
      "inputs": [],
      "name": "GAMMA_X2",
      "outputs": [
        {
          "internalType": "uint256",
          "name": "",
          "type": "uint256"
        }
      ],
      "stateMutability": "view",
      "type": "function"
    },
    {
      "inputs": [],
      "name": "GAMMA_Y1",
      "outputs": [
        {
          "internalType": "uint256",
          "name": "",
          "type": "uint256"
        }
      ],
      "stateMutability": "view",
      "type": "function"
    },
    {
      "inputs": [],
      "name": "GAMMA_Y2",
      "outputs": [
        {
          "internalType": "uint256",
          "name": "",
          "type": "uint256"
        }
      ],
      "stateMutability": "view",
      "type": "function"
    },
    {
      "inputs": [],
      "name": "IC0_X",
      "outputs": [
        {
          "internalType": "uint256",
          "name": "",
          "type": "uint256"
        }
      ],
      "stateMutability": "view",
      "type": "function"
    },
    {
      "inputs": [],
      "name": "IC0_Y",
      "outputs": [
        {
          "internalType": "uint256",
          "name": "",
          "type": "uint256"
        }
      ],
      "stateMutability": "view",
      "type": "function"
    },
    {
      "inputs": [],
      "name": "IC1_X",
      "outputs": [
        {
          "internalType": "uint256",
          "name": "",
          "type": "uint256"
        }
      ],
      "stateMutability": "view",
      "type": "function"
    },
    {
      "inputs": [],
      "name": "IC1_Y",
      "outputs": [
        {
          "internalType": "uint256",
          "name": "",
          "type": "uint256"
        }
      ],
      "stateMutability": "view",
      "type": "function"
    },
    {
      "inputs": [],
      "name": "IC2_X",
      "outputs": [
        {
          "internalType": "uint256",
          "name": "",
          "type": "uint256"
        }
      ],
      "stateMutability": "view",
      "type": "function"
    },
    {
      "inputs": [],
      "name": "IC2_Y",
      "outputs": [
        {
          "internalType": "uint256",
          "name": "",
          "type": "uint256"
        }
      ],
      "stateMutability": "view",
      "type": "function"
    },
    {
      "inputs": [],
      "name": "IC3_X",
      "outputs": [
        {
          "internalType": "uint256",
          "name": "",
          "type": "uint256"
        }
      ],
      "stateMutability": "view",
      "type": "function"
    },
    {
      "inputs": [],
      "name": "IC3_Y",
      "outputs": [
        {
          "internalType": "uint256",
          "name": "",
          "type": "uint256"
        }
      ],
      "stateMutability": "view",
      "type": "function"
    },
    {
      "inputs": [],
      "name": "IC4_X",
      "outputs": [
        {
          "internalType": "uint256",
          "name": "",
          "type": "uint256"
        }
      ],
      "stateMutability": "view",
      "type": "function"
    },
    {
      "inputs": [],
      "name": "IC4_Y",
      "outputs": [
        {
          "internalType": "uint256",
          "name": "",
          "type": "uint256"
        }
      ],
      "stateMutability": "view",
      "type": "function"
    },
    {
      "inputs": [],
      "name": "IC5_X",
      "outputs": [
        {
          "internalType": "uint256",
          "name": "",
          "type": "uint256"
        }
      ],
      "stateMutability": "view",
      "type": "function"
    },
    {
      "inputs": [],
      "name": "IC5_Y",
      "outputs": [
        {
          "internalType": "uint256",
          "name": "",
          "type": "uint256"
        }
      ],
      "stateMutability": "view",
      "type": "function"
    },
    {
      "inputs": [],
      "name": "P_TOTAL_SIZE",
      "outputs": [
        {
          "internalType": "uint256",
          "name": "",
          "type": "uint256"
        }
      ],
      "stateMutability": "view",
      "type": "function"
    },
    {
      "inputs": [],
      "name": "SCALAR_FIELD_SIZE",
      "outputs": [
        {
          "internalType": "uint256",
          "name": "",
          "type": "uint256"
        }
      ],
      "stateMutability": "view",
      "type": "function"
    },
    {
      "inputs": [
        {
          "internalType": "uint256[2]",
          "name": "pointA_",
          "type": "uint256[2]"
        },
        {
          "internalType": "uint256[2][2]",
          "name": "pointB_",
          "type": "uint256[2][2]"
        },
        {
          "internalType": "uint256[2]",
          "name": "pointC_",
          "type": "uint256[2]"
        },
        {
          "internalType": "uint256[5]",
          "name": "publicSignals_",
          "type": "uint256[5]"
        }
      ],
      "name": "verifyProof",
      "outputs": [
        {
          "internalType": "bool",
          "name": "verified_",
          "type": "bool"
        }
      ],
      "stateMutability": "view",
      "type": "function"
    }
  ],
  "bytecode": "0x60808060405234601557610fdd908161001b8239f35b600080fdfe6080604052600436101561001257600080fd5b60003560e01c80630cbb35c3146101e35780630ddec475146101de5780631c4d4406146101d957806324934a11146101d457806334baeab9146101cf5780633a9e6a4d146101935780634234a1d6146101ca5780634e890b27146101c557806350def905146101c05780636336ec6c146101bb5780636a5935a7146101b6578063742797c4146101b15780637fdf8fc1146101ac578063839a60d0146101a7578063898611fd146101a2578063901660c41461017f578063a1978c3c1461019d578063a6aca97614610198578063acb419361461018e578063b936325c14610193578063cc9c92ae1461018e578063d1fb02a314610189578063d663b36514610184578063d70a63cc1461017f578063dc05a8221461017a578063dce4200414610175578063dd924b4714610170578063dfcf46f014610166578063eedee58f1461016b5763f7a65aae1461016657600080fd5b610890565b6108cb565b610855565b61081a565b6107df565b61069b565b6107a4565b610769565b61072e565b61044d565b610711565b6106d6565b610660565b610625565b6105ea565b6105af565b610574565b610539565b6104fe565b6104c3565b610488565b6103b8565b610287565b61024c565b610223565b3461021e57600036600319011261021e5760206040517f0fcd73b4d56ad4343796dd9bb0d9419df09630f5a5ff272f3fa342bd21f30cab8152f35b600080fd5b3461021e57600036600319011261021e576020604051600080516020610f888339815191528152f35b3461021e57600036600319011261021e5760206040517f1739c1b1a457a8c7313123d24d2f9192f896b7c63eea05a9d57f06547ad0cec88152f35b3461021e57600036600319011261021e5760206040517f1b9caf3c3e2a7c82c5044e3b3a899f4f0d28dbf174e1aecb9439457809038d898152f35b6040519190601f01601f1916820167ffffffffffffffff8111838210176102e857604052565b634e487b7160e01b600052604160045260246000fd5b919061030a60406102c2565b9283906040810192831161021e57905b82821061032657505050565b813581526020918201910161031a565b806023121561021e5761034a9060046102fe565b90565b8060e3121561021e5761034a9060c46102fe565b9080601f8301121561021e5761034a916102fe565b80610123121561021e5761038a60a06102c2565b9081906101a41161021e57610104905b6101a482106103a857505090565b813581526020918201910161039a565b3461021e576101a036600319011261021e576103d336610336565b366063121561021e576040906103e8826102c2565b803660c41161021e576044905b60c48210610434576104308561041f868661040f3661034d565b9061041936610376565b92610ee4565b905190151581529081906020820190565b0390f35b602085916104423685610361565b8152019101906103f5565b3461021e57600036600319011261021e5760206040517f090689d0585ff075ec9e99ad690c3395bc4b313370b38ef355acdadcd122975b8152f35b3461021e57600036600319011261021e5760206040517f111b373426ca420c28b4d961ce43ab1d0e1b9d920e2dacd7d599899f99898abf8152f35b3461021e57600036600319011261021e5760206040517f19f60169a288d40a348beae483883e0662cfe6568d7832651fd8a3dfb9e209408152f35b3461021e57600036600319011261021e5760206040517f0fbbf302a37db8760933e668a0193081abc7e55928ac52a1c11152a41bc43b408152f35b3461021e57600036600319011261021e5760206040517f08da6a8e5ea2b88d10825e21e347174a990e91e12d969378db3ecd51b57a84a68152f35b3461021e57600036600319011261021e5760206040517f14bedd503c37ceb061d8ec60209fe345ce89830a19230301f076caff004d19268152f35b3461021e57600036600319011261021e5760206040517f18a229d1869f207508d63165df3dfd7786a5102e81a198dac3961381c01c1e788152f35b3461021e57600036600319011261021e5760206040517f0e187847ad4c798374d0d6732bf501847dd68bc0e071241e0213bc7fc13db7ab8152f35b3461021e57600036600319011261021e5760206040517f30644e72e131a029b85045b68181585d97816a916871ca8d3c208c16d87cfd478152f35b3461021e57600036600319011261021e5760206040517f20b3b6fc6cc9533c632002184004ff49b38be27f7b1788fba2e1e4a83932e67e8152f35b3461021e57600036600319011261021e5760206040517f198e9393920d483a7260bfb731fb5d25f1aa493335a9e71297e485b7aef312c28152f35b3461021e57600036600319011261021e5760206040517f2310bf279ed58b4cf463bdf369764c452845353f114fb503f036279c81517a388152f35b3461021e57600036600319011261021e5760206040516103008152f35b3461021e57600036600319011261021e5760206040517f12c85ea5db8c6deb4aab71808dcb408fe3d1e7690c43d37b4ce6cc0166fa7daa8152f35b3461021e57600036600319011261021e5760206040517f2d4d9aa7e302d9df41749d5507949d05dbea33fbb16c643b22f599a2be6df2e28152f35b3461021e57600036600319011261021e5760206040517f2118e76180d9d07274294c2182e4e00958b9fca9db1c51156e85a4b8cde5e1f58152f35b3461021e57600036600319011261021e5760206040517f0967032fcbf776d1afc985f88877f182d38480a653f2decaa9794cbc3bf3060c8152f35b3461021e57600036600319011261021e5760206040517f050ac0b65e5989b8446764d184d7d6ec3b6169c457171cbad5c3c0c1468c71778152f35b3461021e57600036600319011261021e5760206040517f304cfbd1e08a704a99f5e847d93f8c3caafddec46b7a0d379da69a4d112346a78152f35b3461021e57600036600319011261021e5760206040517f1800deef121f1e76426a00665e5c4479674322d4f75edadd46debd5cd992f6ed8152f35b3461021e57600036600319011261021e5760206040517f06ebaca996f58376a9fe3ca5c859caa794c21f107f2a5b2d1f0941c2f4f7d6f88152f35b9190604090818401907f2118e76180d9d07274294c2182e4e00958b9fca9db1c51156e85a4b8cde5e1f582527f2310bf279ed58b4cf463bdf369764c452845353f114fb503f036279c81517a38606086015260808501526060816007611770fa3d15151691821561098557604091925060808160066096fa3d15151690565b50565b9190604090818401907f050ac0b65e5989b8446764d184d7d6ec3b6169c457171cbad5c3c0c1468c717782527f0fcd73b4d56ad4343796dd9bb0d9419df09630f5a5ff272f3fa342bd21f30cab606086015260808501526060816007611770fa3d15151691821561098557604091925060808160066096fa3d15151690565b9190604090818401907f111b373426ca420c28b4d961ce43ab1d0e1b9d920e2dacd7d599899f99898abf82527f0fbbf302a37db8760933e668a0193081abc7e55928ac52a1c11152a41bc43b40606086015260808501526060816007611770fa3d15151691821561098557604091925060808160066096fa3d15151690565b9190604090818401907f06ebaca996f58376a9fe3ca5c859caa794c21f107f2a5b2d1f0941c2f4f7d6f882527f19f60169a288d40a348beae483883e0662cfe6568d7832651fd8a3dfb9e20940606086015260808501526060816007611770fa3d15151691821561098557604091925060808160066096fa3d15151690565b9190604090818401907f20b3b6fc6cc9533c632002184004ff49b38be27f7b1788fba2e1e4a83932e67e82527f1b9caf3c3e2a7c82c5044e3b3a899f4f0d28dbf174e1aecb9439457809038d89606086015260808501526060816007611770fa3d15151691821561098557604091925060808160066096fa3d15151690565b9091926000907f08da6a8e5ea2b88d10825e21e347174a990e91e12d969378db3ecd51b57a84a686527f18a229d1869f207508d63165df3dfd7786a5102e81a198dac3961381c01c1e786020870152610bde815187610906565b15610edb57610bf1602082015187610988565b15610edb57610c04604082015187610a07565b15610edb57610c17606082015187610a86565b15610edb576080610c2a91015186610b05565b15610ed3575060208093927f30644e72e131a029b85045b68181585d97816a916871ca8d3c208c16d87cfd478280947f198e9393920d483a7260bfb731fb5d25f1aa493335a9e71297e485b7aef312c260408a01527f1800deef121f1e76426a00665e5c4479674322d4f75edadd46debd5cd992f6ed60608a01527f090689d0585ff075ec9e99ad690c3395bc4b313370b38ef355acdadcd122975b60808a01527f12c85ea5db8c6deb4aab71808dcb408fe3d1e7690c43d37b4ce6cc0166fa7daa60a08a0152805160c08a0152015181030660e08701528051516101008701528181510151610120870152018051516101408601525101516101608401527f2d4d9aa7e302d9df41749d5507949d05dbea33fbb16c643b22f599a2be6df2e26101808401527f14bedd503c37ceb061d8ec60209fe345ce89830a19230301f076caff004d19266101a08401527f0967032fcbf776d1afc985f88877f182d38480a653f2decaa9794cbc3bf3060c6101c08401527f0e187847ad4c798374d0d6732bf501847dd68bc0e071241e0213bc7fc13db7ab6101e08401527f304cfbd1e08a704a99f5e847d93f8c3caafddec46b7a0d379da69a4d112346a76102008401527f1739c1b1a457a8c7313123d24d2f9192f896b7c63eea05a9d57f06547ad0cec8610220840152805161024084015201516102608201527f198e9393920d483a7260bfb731fb5d25f1aa493335a9e71297e485b7aef312c26102808201527f1800deef121f1e76426a00665e5c4479674322d4f75edadd46debd5cd992f6ed6102a08201527f090689d0585ff075ec9e99ad690c3395bc4b313370b38ef355acdadcd122975b6102c08201527f12c85ea5db8c6deb4aab71808dcb408fe3d1e7690c43d37b4ce6cc0166fa7daa6102e08201526020816103008160086202c308fa90511690565b949350505050565b50949350505050565b939290916040519261030084016040526001600080516020610f88833981519152845110600080516020610f8883398151915260208601511016600080516020610f8883398151915260408601511016600080516020610f888339815191526060860151101616600080516020610f888339815191526080850151101695861519610f71575b5050505050565b610f7c959650610b84565b903880808080610f6a56fe30644e72e131a029b85045b68181585d2833e84879b9709143e1f593f0000001a2646970667358221220150ef1442c486761d2b489465f8b3effafef306698f9f3ed4a660e55e43cd1c664736f6c634300081b0033",
  "linkReferences": {},
  "deployedLinkReferences": {}
}