{"contracts/verifiers/MintCircuitGroth16Verifier.sol":{"MintCircuitGroth16Verifier":{"abi":[{"inputs":[],"name":"ALPHA_X","outputs":[{"internalType":"uint256","name":"","type":"uint256"}],"stateMutability":"view","type":"function"},{"inputs":[],"name":"ALPHA_Y","outputs":[{"internalType":"uint256","name":"","type":"uint256"}],"stateMutability":"view","type":"function"},{"inputs":[],"name":"BASE_FIELD_SIZE","outputs":[{"internalType":"uint256","name":"","type":"uint256"}],"stateMutability":"view","type":"function"},{"inputs":[],"name":"BETA_X1","outputs":[{"internalType":"uint256","name":"","type":"uint256"}],"stateMutability":"view","type":"function"},{"inputs":[],"name":"BETA_X2","outputs":[{"internalType":"uint256","name":"","type":"uint256"}],"stateMutability":"view","type":"function"},{"inputs":[],"name":"BETA_Y1","outputs":[{"internalType":"uint256","name":"","type":"uint256"}],"stateMutability":"view","type":"function"},{"inputs":[],"name":"BETA_Y2","outputs":[{"internalType":"uint256","name":"","type":"uint256"}],"stateMutability":"view","type":"function"},{"inputs":[],"name":"DELTA_X1","outputs":[{"internalType":"uint256","name":"","type":"uint256"}],"stateMutability":"view","type":"function"},{"inputs":[],"name":"DELTA_X2","outputs":[{"internalType":"uint256","name":"","type":"uint256"}],"stateMutability":"view","type":"function"},{"inputs":[],"name":"DELTA_Y1","outputs":[{"internalType":"uint256","name":"","type":"uint256"}],"stateMutability":"view","type":"function"},{"inputs":[],"name":"DELTA_Y2","outputs":[{"internalType":"uint256","name":"","type":"uint256"}],"stateMutability":"view","type":"function"},{"inputs":[],"name":"GAMMA_X1","outputs":[{"internalType":"uint256","name":"","type":"uint256"}],"stateMutability":"view","type":"function"},{"inputs":[],"name":"GAMMA_X2","outputs":[{"internalType":"uint256","name":"","type":"uint256"}],"stateMutability":"view","type":"function"},{"inputs":[],"name":"GAMMA_Y1","outputs":[{"internalType":"uint256","name":"","type":"uint256"}],"stateMutability":"view","type":"function"},{"inputs":[],"name":"GAMMA_Y2","outputs":[{"internalType":"uint256","name":"","type":"uint256"}],"stateMutability":"view","type":"function"},{"inputs":[],"name":"IC0_X","outputs":[{"internalType":"uint256","name":"","type":"uint256"}],"stateMutability":"view","type":"function"},{"inputs":[],"name":"IC0_Y","outputs":[{"internalType":"uint256","name":"","type":"uint256"}],"stateMutability":"view","type":"function"},{"inputs":[],"name":"IC10_X","outputs":[{"internalType":"uint256","name":"","type":"uint256"}],"stateMutability":"view","type":"function"},{"inputs":[],"name":"IC10_Y","outputs":[{"internalType":"uint256","name":"","type":"uint256"}],"stateMutability":"view","type":"function"},{"inputs":[],"name":"IC11_X","outputs":[{"internalType":"uint256","name":"","type":"uint256"}],"stateMutability":"view","type":"function"},{"inputs":[],"name":"IC11_Y","outputs":[{"internalType":"uint256","name":"","type":"uint256"}],"stateMutability":"view","type":"function"},{"inputs":[],"name":"IC12_X","outputs":[{"internalType":"uint256","name":"","type":"uint256"}],"stateMutability":"view","type":"function"},{"inputs":[],"name":"IC12_Y","outputs":[{"internalType":"uint256","name":"","type":"uint256"}],"stateMutability":"view","type":"function"},{"inputs":[],"name":"IC13_X","outputs":[{"internalType":"uint256","name":"","type":"uint256"}],"stateMutability":"view","type":"function"},{"inputs":[],"name":"IC13_Y","outputs":[{"internalType":"uint256","name":"","type":"uint256"}],"stateMutability":"view","type":"function"},{"inputs":[],"name":"IC14_X","outputs":[{"internalType":"uint256","name":"","type":"uint256"}],"stateMutability":"view","type":"function"},{"inputs":[],"name":"IC14_Y","outputs":[{"internalType":"uint256","name":"","type":"uint256"}],"stateMutability":"view","type":"function"},{"inputs":[],"name":"IC15_X","outputs":[{"internalType":"uint256","name":"","type":"uint256"}],"stateMutability":"view","type":"function"},{"inputs":[],"name":"IC15_Y","outputs":[{"internalType":"uint256","name":"","type":"uint256"}],"stateMutability":"view","type":"function"},{"inputs":[],"name":"IC16_X","outputs":[{"internalType":"uint256","name":"","type":"uint256"}],"stateMutability":"view","type":"function"},{"inputs":[],"name":"IC16_Y","outputs":[{"internalType":"uint256","name":"","type":"uint256"}],"stateMutability":"view","type":"function"},{"inputs":[],"name":"IC17_X","outputs":[{"internalType":"uint256","name":"","type":"uint256"}],"stateMutability":"view","type":"function"},{"inputs":[],"name":"IC17_Y","outputs":[{"internalType":"uint256","name":"","type":"uint256"}],"stateMutability":"view","type":"function"},{"inputs":[],"name":"IC18_X","outputs":[{"internalType":"uint256","name":"","type":"uint256"}],"stateMutability":"view","type":"function"},{"inputs":[],"name":"IC18_Y","outputs":[{"internalType":"uint256","name":"","type":"uint256"}],"stateMutability":"view","type":"function"},{"inputs":[],"name":"IC19_X","outputs":[{"internalType":"uint256","name":"","type":"uint256"}],"stateMutability":"view","type":"function"},{"inputs":[],"name":"IC19_Y","outputs":[{"internalType":"uint256","name":"","type":"uint256"}],"stateMutability":"view","type":"function"},{"inputs":[],"name":"IC1_X","outputs":[{"internalType":"uint256","name":"","type":"uint256"}],"stateMutability":"view","type":"function"},{"inputs":[],"name":"IC1_Y","outputs":[{"internalType":"uint256","name":"","type":"uint256"}],"stateMutability":"view","type":"function"},{"inputs":[],"name":"IC20_X","outputs":[{"internalType":"uint256","name":"","type":"uint256"}],"stateMutability":"view","type":"function"},{"inputs":[],"name":"IC20_Y","outputs":[{"internalType":"uint256","name":"","type":"uint256"}],"stateMutability":"view","type":"function"},{"inputs":[],"name":"IC21_X","outputs":[{"internalType":"uint256","name":"","type":"uint256"}],"stateMutability":"view","type":"function"},{"inputs":[],"name":"IC21_Y","outputs":[{"internalType":"uint256","name":"","type":"uint256"}],"stateMutability":"view","type":"function"},{"inputs":[],"name":"IC22_X","outputs":[{"internalType":"uint256","name":"","type":"uint256"}],"stateMutability":"view","type":"function"},{"inputs":[],"name":"IC22_Y","outputs":[{"internalType":"uint256","name":"","type":"uint256"}],"stateMutability":"view","type":"function"},{"inputs":[],"name":"IC23_X","outputs":[{"internalType":"uint256","name":"","type":"uint256"}],"stateMutability":"view","type":"function"},{"inputs":[],"name":"IC23_Y","outputs":[{"internalType":"uint256","name":"","type":"uint256"}],"stateMutability":"view","type":"function"},{"inputs":[],"name":"IC24_X","outputs":[{"internalType":"uint256","name":"","type":"uint256"}],"stateMutability":"view","type":"function"},{"inputs":[],"name":"IC24_Y","outputs":[{"internalType":"uint256","name":"","type":"uint256"}],"stateMutability":"view","type":"function"},{"inputs":[],"name":"IC2_X","outputs":[{"internalType":"uint256","name":"","type":"uint256"}],"stateMutability":"view","type":"function"},{"inputs":[],"name":"IC2_Y","outputs":[{"internalType":"uint256","name":"","type":"uint256"}],"stateMutability":"view","type":"function"},{"inputs":[],"name":"IC3_X","outputs":[{"internalType":"uint256","name":"","type":"uint256"}],"stateMutability":"view","type":"function"},{"inputs":[],"name":"IC3_Y","outputs":[{"internalType":"uint256","name":"","type":"uint256"}],"stateMutability":"view","type":"function"},{"inputs":[],"name":"IC4_X","outputs":[{"internalType":"uint256","name":"","type":"uint256"}],"stateMutability":"view","type":"function"},{"inputs":[],"name":"IC4_Y","outputs":[{"internalType":"uint256","name":"","type":"uint256"}],"stateMutability":"view","type":"function"},{"inputs":[],"name":"IC5_X","outputs":[{"internalType":"uint256","name":"","type":"uint256"}],"stateMutability":"view","type":"function"},{"inputs":[],"name":"IC5_Y","outputs":[{"internalType":"uint256","name":"","type":"uint256"}],"stateMutability":"view","type":"function"},{"inputs":[],"name":"IC6_X","outputs":[{"internalType":"uint256","name":"","type":"uint256"}],"stateMutability":"view","type":"function"},{"inputs":[],"name":"IC6_Y","outputs":[{"internalType":"uint256","name":"","type":"uint256"}],"stateMutability":"view","type":"function"},{"inputs":[],"name":"IC7_X","outputs":[{"internalType":"uint256","name":"","type":"uint256"}],"stateMutability":"view","type":"function"},{"inputs":[],"name":"IC7_Y","outputs":[{"internalType":"uint256","name":"","type":"uint256"}],"stateMutability":"view","type":"function"},{"inputs":[],"name":"IC8_X","outputs":[{"internalType":"uint256","name":"","type":"uint256"}],"stateMutability":"view","type":"function"},{"inputs":[],"name":"IC8_Y","outputs":[{"internalType":"uint256","name":"","type":"uint256"}],"stateMutability":"view","type":"function"},{"inputs":[],"name":"IC9_X","outputs":[{"internalType":"uint256","name":"","type":"uint256"}],"stateMutability":"view","type":"function"},{"inputs":[],"name":"IC9_Y","outputs":[{"internalType":"uint256","name":"","type":"uint256"}],"stateMutability":"view","type":"function"},{"inputs":[],"name":"P_TOTAL_SIZE","outputs":[{"internalType":"uint256","name":"","type":"uint256"}],"stateMutability":"view","type":"function"},{"inputs":[],"name":"SCALAR_FIELD_SIZE","outputs":[{"internalType":"uint256","name":"","type":"uint256"}],"stateMutability":"view","type":"function"},{"inputs":[{"internalType":"uint256[2]","name":"pointA_","type":"uint256[2]"},{"internalType":"uint256[2][2]","name":"pointB_","type":"uint256[2][2]"},{"internalType":"uint256[2]","name":"pointC_","type":"uint256[2]"},{"internalType":"uint256[24]","name":"publicSignals_","type":"uint256[24]"}],"name":"verifyProof","outputs":[{"internalType":"bool","name":"verified_","type":"bool"}],"stateMutability":"view","type":"function"}],"evm":{"bytecode":{"linkReferences":{},"object":"608080604052346015576126eb908161001b8239f35b600080fdfe6080604052600436101561001257600080fd5b60003560e01c8063020206541461044357806308cceecf1461043e5780630c99ab7c146104395780630cbb35c3146104345780630ddec4751461042f5780630de199a51461042a5780631077f5441461042557806311fbfe66146104205780631c4d44061461041b57806324934a1114610416578063286f014b1461041157806328e446951461040c5780632c0556ed146104075780632d527448146104025780632dacca56146103fd57806330c1731c146103f857806331aa5e26146103f357806332148d47146103ee57806336b397dc146103e957806339637503146103e45780633a9e6a4d1461036c57806341fe6a9a146103df5780634234a1d6146103da57806345ce05a8146103d55780634b750a92146103d05780634d01c5a0146103cb5780634e528e9f146103c65780634e890b27146103c157806350def905146103bc57806359b396b5146103b75780635bf9f093146103b25780636076d7ed146103ad5780636336ec6c146103a85780636a5935a7146103a357806373354b601461039e578063742797c4146103995780637fdf8fc114610394578063839a60d01461038f578063898611fd1461038a578063901660c414610349578063924f0a1514610385578063a127ed8614610380578063a1978c3c1461037b578063a6aca97614610376578063acb419361461035d578063aed4334914610371578063b936325c1461036c578063ba68817514610367578063bf48189e14610362578063cc9c92ae1461035d578063d0fdd6af14610358578063d1fb02a314610353578063d663b3651461034e578063d70a63cc14610349578063d7aa472a14610344578063d8c710e01461033f578063dacb4e691461033a578063dc05a82214610335578063dce4200414610330578063dd924b471461032b578063dfcf46f014610308578063e11e8ee214610326578063e834dbdd14610321578063e848dd6f1461031c578063eb38888b14610317578063eeb9f2e414610312578063eedee58f1461030d5763f7a65aae1461030857600080fd5b61129d565b6113fe565b6113c3565b611388565b61134e565b611313565b6112d8565b611262565b611227565b6111ec565b6111b1565b611176565b61113b565b610e95565b611100565b6110c5565b61108a565b610f9e565b61104f565b611014565b6108e3565b610fd9565b610f81565b610f46565b610f0b565b610ed0565b610e5a565b610e1f565b610de4565b610da9565b610d6e565b610d33565b610cf8565b610cbd565b610c82565b610c47565b610c0c565b610bd1565b610b96565b610b01565b6109cf565b610994565b610959565b61091e565b6108a8565b61086d565b610832565b6107f7565b6107bc565b610781565b610746565b61070b565b6106d0565b610695565b61065a565b61061f565b6105e4565b6105a9565b61056f565b610534565b6104f9565b6104be565b610483565b3461047e57600036600319011261047e5760206040517f055e94309540a584545a2b1943e1fa6d6f3fa6575e1fdfcd7c46cb9f625dcb998152f35b600080fd5b3461047e57600036600319011261047e5760206040517f184a4c79ede95722e4bc75a9e2129c68913cf53bf0434afb2401add99c84e37c8152f35b3461047e57600036600319011261047e5760206040517f14267c8fff65137d54c38dcdc86443fd8506601db683d68535f3ff94e648accb8152f35b3461047e57600036600319011261047e5760206040517f07b31d3d89ba21bdaf376f1f739b3608d372345447a29f5a3705282fc3fcc4918152f35b3461047e57600036600319011261047e5760206040517f30644e72e131a029b85045b68181585d2833e84879b9709143e1f593f00000018152f35b3461047e57600036600319011261047e5760206040517ede0d739e1cf434dbe75c21e88c54326e183e9646efd5f9cbd5562a847515768152f35b3461047e57600036600319011261047e5760206040517f0d2f11e1df72fb415b17f4b37c7f00bf88c6f1687256fc2e1ec2fa610bec9b908152f35b3461047e57600036600319011261047e5760206040517f2bf41e7d2a81b2f6d9b7afcf060c5378042bd234ea3bf02b15d7e33717490afc8152f35b3461047e57600036600319011261047e5760206040517f1739c1b1a457a8c7313123d24d2f9192f896b7c63eea05a9d57f06547ad0cec88152f35b3461047e57600036600319011261047e5760206040517f2078a5d9f938b2ea67e4f636be9e685121d03a4d3cbc8b011831e7d7fc6573368152f35b3461047e57600036600319011261047e5760206040517f09908ea9fd743c383603eeb038332496671b8514ed31e2705aa8a29dc63e8be68152f35b3461047e57600036600319011261047e5760206040517f1bd03c1b7c02b082329f20674a684cd95cc0c481905140eb0d7d8b6e125819de8152f35b3461047e57600036600319011261047e5760206040517f24237dda85a0741345683f9001739d0e4b5c6f6b61b7bfd0102cc934a947edae8152f35b3461047e57600036600319011261047e5760206040517f2ed57b4ab48879bc6a30d2247ba01eff979e049b5522b513cb0abb65f36a8db18152f35b3461047e57600036600319011261047e5760206040517f2a9db361d4314094878b3c10bdac537954f27f7854e6e1f084450130bd8a8af88152f35b3461047e57600036600319011261047e5760206040517f24bf9afa2425faea005bc5cc509eb51d9f648ed24b59dfc1f016fcc8d9eade0d8152f35b3461047e57600036600319011261047e5760206040517f0c7ac804d9b9bea28c49bbc545a4ae26b1a3c1d8f23577120e77f6095ee394a78152f35b3461047e57600036600319011261047e5760206040517f2eb2501674bb64ef0efda3b061faa56ad771e55dd4296eb2a0adaa5dc74092d38152f35b3461047e57600036600319011261047e5760206040517f1f1530e92027b80ecd82fa1eeab105f6dd267f0ceb71649ab822fee789ae75f38152f35b3461047e57600036600319011261047e5760206040517f0e51b16f7f2f99de84098ebba1f1d3417c7bc9c6a5efa1993396c126e1543b7a8152f35b3461047e57600036600319011261047e5760206040517f090689d0585ff075ec9e99ad690c3395bc4b313370b38ef355acdadcd122975b8152f35b3461047e57600036600319011261047e5760206040517f24af836781114c83725edadda0aae456b73adb0cd7cdd0ab7e0cb2c46256a2768152f35b3461047e57600036600319011261047e5760206040517f2fe76200b1ee9dbb795a42bc9ddd5c85b829d46fdaae050f4a6a5cca945cb4aa8152f35b3461047e57600036600319011261047e5760206040517f05fad4fc403de2af20771e759fa2729262c189477cd3d3616d8dce926aa3a5b58152f35b3461047e57600036600319011261047e5760206040517f1a3774f449f2b1ab74b10b2f786b76a70c7dcffcf42920c2a248aacc6042e0908152f35b6040519190601f01601f1916820167ffffffffffffffff811183821017610a3057604052565b634e487b7160e01b600052604160045260246000fd5b9190610a526040610a0a565b9283906040810192831161047e57905b828210610a6e57505050565b8135815260209182019101610a62565b806023121561047e57610a92906004610a46565b90565b8060e3121561047e57610a929060c4610a46565b9080601f8301121561047e57610a9291610a46565b80610123121561047e57610ad3610300610a0a565b9081906104041161047e57610104905b6104048210610af157505090565b8135815260209182019101610ae3565b3461047e5761040036600319011261047e57610b1c36610a7e565b366063121561047e57604090610b3182610a0a565b803660c41161047e576044905b60c48210610b7d57610b7985610b688686610b5836610a95565b90610b6236610abe565b92612520565b905190151581529081906020820190565b0390f35b60208591610b8b3685610aa9565b815201910190610b3e565b3461047e57600036600319011261047e5760206040517f0258cce5e15404e5e1b1695dfd58b3a3be26c1a7eef93775f7b3b77b63da11fb8152f35b3461047e57600036600319011261047e5760206040517f085eaa09c8ae7d24bc814123a9c44391eb5f8a407d47e4b0336c158ef6e443888152f35b3461047e57600036600319011261047e5760206040517f1ae026c0599b1a9a709f240c46f449ad2fe995775550a45e18835932bd71fd618152f35b3461047e57600036600319011261047e5760206040517f27d7b535d6a9c83c064ba6c0b29328a1455048cb7c187b4d64df853cb14c81a38152f35b3461047e57600036600319011261047e5760206040517f01e812a57d6d5026220d869b64d56e415bc0cf9d0b10a994035061f4319d80678152f35b3461047e57600036600319011261047e5760206040517f2149668511f2da35cb3b5e44d2abb568f819008742c189b4a6bdfd0be56666b18152f35b3461047e57600036600319011261047e5760206040517f1660cb6f46896e4a26c4e10c0e1cd83a36d4524a18883008ab4820ce4035e7638152f35b3461047e57600036600319011261047e5760206040517f14bedd503c37ceb061d8ec60209fe345ce89830a19230301f076caff004d19268152f35b3461047e57600036600319011261047e5760206040517f1d79623aa57462efda609ec71d972a1ee11b077f6f0331ee2d8f3e479fa6f3038152f35b3461047e57600036600319011261047e5760206040517f0e23819dbe544e4eef2ba90baf05052e01346100615d2f1eb4389d0fa8467ae28152f35b3461047e57600036600319011261047e5760206040517f0e187847ad4c798374d0d6732bf501847dd68bc0e071241e0213bc7fc13db7ab8152f35b3461047e57600036600319011261047e5760206040517f30644e72e131a029b85045b68181585d97816a916871ca8d3c208c16d87cfd478152f35b3461047e57600036600319011261047e5760206040517f2ef7dc19472f4c5a11b7b26fc2a118e4417618e7c7f18391c05a202bcf0c1b8c8152f35b3461047e57600036600319011261047e5760206040517f198e9393920d483a7260bfb731fb5d25f1aa493335a9e71297e485b7aef312c28152f35b3461047e57600036600319011261047e5760206040517f2e236666fe18ed18253a1d13443c816545c632f44b7ff16880aae4f88d26f7d78152f35b3461047e57600036600319011261047e5760206040517f2674561d11378ba989471653ac0beb60fd51587f4b8b7c9b970f81d0117ccf138152f35b3461047e57600036600319011261047e5760206040517f14c15a03f789a78f4a7905e01dad3a3f6f98f963568f5c8cde2b4e48c5ea20f78152f35b3461047e57600036600319011261047e5760206040516103008152f35b3461047e57600036600319011261047e5760206040517f12c85ea5db8c6deb4aab71808dcb408fe3d1e7690c43d37b4ce6cc0166fa7daa8152f35b3461047e57600036600319011261047e5760206040517f2f527ced9fdf4d4852ff9d25ed3aa213fa5a1f6cd293bb538721e9620dbaef698152f35b3461047e57600036600319011261047e5760206040517f26541b41faea776f2c39021d7ca86627c5939528301225b1ab82125c5d4d83708152f35b3461047e57600036600319011261047e5760206040517f085a38ade53fa5e091e072e566c400ac5b151f64bf819ea772d5109dd6566cdd8152f35b3461047e57600036600319011261047e5760206040517f0c284a7fe138d4cdc90f91bd16cd11331c02dc7f31f53b63d06538f5556b3e128152f35b3461047e57600036600319011261047e5760206040517f2d4d9aa7e302d9df41749d5507949d05dbea33fbb16c643b22f599a2be6df2e28152f35b3461047e57600036600319011261047e5760206040517f0c59fee267aa8005ced7734a590e95422026d6f4b36b724599d3b053ef6d83c38152f35b3461047e57600036600319011261047e5760206040517f2d735f27514dc246ed5610045b5417db14fc400ec46bba4a490f28618b1e1f1b8152f35b3461047e57600036600319011261047e5760206040517f1e8a25a871ef1cb921aecab28e7ca4d955a190e165485166c2b7a6342632eae58152f35b3461047e57600036600319011261047e5760206040517f288b4cb73b78d003b31c475b5691202cd0bbc3bc0f592d37b6a4bd8a782819838152f35b3461047e57600036600319011261047e5760206040517f0967032fcbf776d1afc985f88877f182d38480a653f2decaa9794cbc3bf3060c8152f35b3461047e57600036600319011261047e5760206040517f2aef93881c2dc3eaa42c2640f418591d8aacdc383c6b06688d5bd96d430d128f8152f35b3461047e57600036600319011261047e5760206040517f304cfbd1e08a704a99f5e847d93f8c3caafddec46b7a0d379da69a4d112346a78152f35b3461047e57600036600319011261047e5760206040517f1800deef121f1e76426a00665e5c4479674322d4f75edadd46debd5cd992f6ed8152f35b3461047e57600036600319011261047e5760206040517f1e08792193298dc465a34b5f6147c17773c8deb3c4cef904e1cda6459fd0fa4e8152f35b3461047e57600036600319011261047e5760206040517f2baff3dca18fd73b6cfeb57356c3f5f080fc4e8295ba9e10f065aed85591d7898152f35b3461047e57600036600319011261047e5760206040517e48c18a515eb7212fa829d19fad606602d5c614c19b50830521d4a613b5adef8152f35b3461047e57600036600319011261047e5760206040517f1b45ae2cf143545db9a131f50578847cb5be75d367da42f7d813df838355ff178152f35b3461047e57600036600319011261047e5760206040517f2cf831bff6c50dcf5b3bf4668c774ae002817b5eb91ff7659c6291745fdabdea8152f35b3461047e57600036600319011261047e5760206040517f253483399961a54479888bd619a7f8763aaec837e423f0fc87fb87874a5caa838152f35b7f30644e72e131a029b85045b68181585d2833e84879b9709143e1f593f00000011190565b9190604090818401907f0c59fee267aa8005ced7734a590e95422026d6f4b36b724599d3b053ef6d83c382527f14c15a03f789a78f4a7905e01dad3a3f6f98f963568f5c8cde2b4e48c5ea20f7606086015260808501526060816007611770fa3d1515169182156114dd57604091925060808160066096fa3d15151690565b50565b9190604090818401907f2aef93881c2dc3eaa42c2640f418591d8aacdc383c6b06688d5bd96d430d128f82527f07b31d3d89ba21bdaf376f1f739b3608d372345447a29f5a3705282fc3fcc491606086015260808501526060816007611770fa3d1515169182156114dd57604091925060808160066096fa3d15151690565b9190604090818401907f2fe76200b1ee9dbb795a42bc9ddd5c85b829d46fdaae050f4a6a5cca945cb4aa82527f1ae026c0599b1a9a709f240c46f449ad2fe995775550a45e18835932bd71fd61606086015260808501526060816007611770fa3d1515169182156114dd57604091925060808160066096fa3d15151690565b9190604090818401907f253483399961a54479888bd619a7f8763aaec837e423f0fc87fb87874a5caa8382527f085eaa09c8ae7d24bc814123a9c44391eb5f8a407d47e4b0336c158ef6e44388606086015260808501526060816007611770fa3d1515169182156114dd57604091925060808160066096fa3d15151690565b9190604090818401907f2ef7dc19472f4c5a11b7b26fc2a118e4417618e7c7f18391c05a202bcf0c1b8c82527f2078a5d9f938b2ea67e4f636be9e685121d03a4d3cbc8b011831e7d7fc657336606086015260808501526060816007611770fa3d1515169182156114dd57604091925060808160066096fa3d15151690565b9190604090818401907f2f527ced9fdf4d4852ff9d25ed3aa213fa5a1f6cd293bb538721e9620dbaef6982527f085a38ade53fa5e091e072e566c400ac5b151f64bf819ea772d5109dd6566cdd606086015260808501526060816007611770fa3d1515169182156114dd57604091925060808160066096fa3d15151690565b9190604090818401907f0c7ac804d9b9bea28c49bbc545a4ae26b1a3c1d8f23577120e77f6095ee394a782527f24237dda85a0741345683f9001739d0e4b5c6f6b61b7bfd0102cc934a947edae606086015260808501526060816007611770fa3d1515169182156114dd57604091925060808160066096fa3d15151690565b9190604090818401907f24af836781114c83725edadda0aae456b73adb0cd7cdd0ab7e0cb2c46256a27682527f2a9db361d4314094878b3c10bdac537954f27f7854e6e1f084450130bd8a8af8606086015260808501526060816007611770fa3d1515169182156114dd57604091925060808160066096fa3d15151690565b9190604090818401907f288b4cb73b78d003b31c475b5691202cd0bbc3bc0f592d37b6a4bd8a7828198382527f1bd03c1b7c02b082329f20674a684cd95cc0c481905140eb0d7d8b6e125819de606086015260808501526060816007611770fa3d1515169182156114dd57604091925060808160066096fa3d15151690565b9190604090818401907f2bf41e7d2a81b2f6d9b7afcf060c5378042bd234ea3bf02b15d7e33717490afc82527e48c18a515eb7212fa829d19fad606602d5c614c19b50830521d4a613b5adef606086015260808501526060816007611770fa3d1515169182156114dd57604091925060808160066096fa3d15151690565b9190604090818401907f0e51b16f7f2f99de84098ebba1f1d3417c7bc9c6a5efa1993396c126e1543b7a82527f1d79623aa57462efda609ec71d972a1ee11b077f6f0331ee2d8f3e479fa6f303606086015260808501526060816007611770fa3d1515169182156114dd57604091925060808160066096fa3d15151690565b9190604090818401907f2674561d11378ba989471653ac0beb60fd51587f4b8b7c9b970f81d0117ccf1382527f26541b41faea776f2c39021d7ca86627c5939528301225b1ab82125c5d4d8370606086015260808501526060816007611770fa3d1515169182156114dd57604091925060808160066096fa3d15151690565b9190604090818401907f1f1530e92027b80ecd82fa1eeab105f6dd267f0ceb71649ab822fee789ae75f382527f0d2f11e1df72fb415b17f4b37c7f00bf88c6f1687256fc2e1ec2fa610bec9b90606086015260808501526060816007611770fa3d1515169182156114dd57604091925060808160066096fa3d15151690565b9190604090818401907f1e8a25a871ef1cb921aecab28e7ca4d955a190e165485166c2b7a6342632eae582527f2baff3dca18fd73b6cfeb57356c3f5f080fc4e8295ba9e10f065aed85591d789606086015260808501526060816007611770fa3d1515169182156114dd57604091925060808160066096fa3d15151690565b9190604090818401907f1a3774f449f2b1ab74b10b2f786b76a70c7dcffcf42920c2a248aacc6042e09082527f24bf9afa2425faea005bc5cc509eb51d9f648ed24b59dfc1f016fcc8d9eade0d606086015260808501526060816007611770fa3d1515169182156114dd57604091925060808160066096fa3d15151690565b9190604090818401907f1e08792193298dc465a34b5f6147c17773c8deb3c4cef904e1cda6459fd0fa4e82527f2eb2501674bb64ef0efda3b061faa56ad771e55dd4296eb2a0adaa5dc74092d3606086015260808501526060816007611770fa3d1515169182156114dd57604091925060808160066096fa3d15151690565b9190604090818401907f09908ea9fd743c383603eeb038332496671b8514ed31e2705aa8a29dc63e8be682527f2ed57b4ab48879bc6a30d2247ba01eff979e049b5522b513cb0abb65f36a8db1606086015260808501526060816007611770fa3d1515169182156114dd57604091925060808160066096fa3d15151690565b9190604090818401907f05fad4fc403de2af20771e759fa2729262c189477cd3d3616d8dce926aa3a5b582527f0c284a7fe138d4cdc90f91bd16cd11331c02dc7f31f53b63d06538f5556b3e12606086015260808501526060816007611770fa3d1515169182156114dd57604091925060808160066096fa3d15151690565b9190604090818401907f27d7b535d6a9c83c064ba6c0b29328a1455048cb7c187b4d64df853cb14c81a382527f2149668511f2da35cb3b5e44d2abb568f819008742c189b4a6bdfd0be56666b1606086015260808501526060816007611770fa3d1515169182156114dd57604091925060808160066096fa3d15151690565b9190604090818401907f055e94309540a584545a2b1943e1fa6d6f3fa6575e1fdfcd7c46cb9f625dcb9982527f01e812a57d6d5026220d869b64d56e415bc0cf9d0b10a994035061f4319d8067606086015260808501526060816007611770fa3d1515169182156114dd57604091925060808160066096fa3d15151690565b9190604090818401907f2d735f27514dc246ed5610045b5417db14fc400ec46bba4a490f28618b1e1f1b82527f0258cce5e15404e5e1b1695dfd58b3a3be26c1a7eef93775f7b3b77b63da11fb606086015260808501526060816007611770fa3d1515169182156114dd57604091925060808160066096fa3d15151690565b9190604090818401907f14267c8fff65137d54c38dcdc86443fd8506601db683d68535f3ff94e648accb82527f2e236666fe18ed18253a1d13443c816545c632f44b7ff16880aae4f88d26f7d7606086015260808501526060816007611770fa3d1515169182156114dd57604091925060808160066096fa3d15151690565b9190604090818401907ede0d739e1cf434dbe75c21e88c54326e183e9646efd5f9cbd5562a8475157682527f184a4c79ede95722e4bc75a9e2129c68913cf53bf0434afb2401add99c84e37c606086015260808501526060816007611770fa3d1515169182156114dd57604091925060808160066096fa3d15151690565b9190604090818401907f1b45ae2cf143545db9a131f50578847cb5be75d367da42f7d813df838355ff1782527f2cf831bff6c50dcf5b3bf4668c774ae002817b5eb91ff7659c6291745fdabdea606086015260808501526060816007611770fa3d1515169182156114dd57604091925060808160066096fa3d15151690565b9091926000907f1660cb6f46896e4a26c4e10c0e1cd83a36d4524a18883008ab4820ce4035e76386527f0e23819dbe544e4eef2ba90baf05052e01346100615d2f1eb4389d0fa8467ae260208701526120a181518761145e565b15612517576120b46020820151876114e0565b15612517576120c760408201518761155f565b15612517576120da6060820151876115de565b15612517576120ed60808201518761165d565b156125175761210060a0820151876116dc565b156125175761211360c08201518761175b565b156125175761212660e0820151876117da565b156125175761213a61010082015187611859565b156125175761214e610120820151876118d8565b156125175761216261014082015187611956565b1561251757612176610160820151876119d5565b156125175761218a61018082015187611a54565b156125175761219e6101a082015187611ad3565b15612517576121b26101c082015187611b52565b15612517576121c66101e082015187611bd1565b15612517576121da61020082015187611c50565b15612517576121ee61022082015187611ccf565b156125175761220261024082015187611d4e565b156125175761221661026082015187611dcd565b156125175761222a61028082015187611e4c565b156125175761223e6102a082015187611ecb565b15612517576122526102c082015187611f4a565b15612517576102e061226691015186611fc8565b1561250f575060208093927f30644e72e131a029b85045b68181585d97816a916871ca8d3c208c16d87cfd478280947f198e9393920d483a7260bfb731fb5d25f1aa493335a9e71297e485b7aef312c260408a01527f1800deef121f1e76426a00665e5c4479674322d4f75edadd46debd5cd992f6ed60608a01527f090689d0585ff075ec9e99ad690c3395bc4b313370b38ef355acdadcd122975b60808a01527f12c85ea5db8c6deb4aab71808dcb408fe3d1e7690c43d37b4ce6cc0166fa7daa60a08a0152805160c08a0152015181030660e08701528051516101008701528181510151610120870152018051516101408601525101516101608401527f2d4d9aa7e302d9df41749d5507949d05dbea33fbb16c643b22f599a2be6df2e26101808401527f14bedd503c37ceb061d8ec60209fe345ce89830a19230301f076caff004d19266101a08401527f0967032fcbf776d1afc985f88877f182d38480a653f2decaa9794cbc3bf3060c6101c08401527f0e187847ad4c798374d0d6732bf501847dd68bc0e071241e0213bc7fc13db7ab6101e08401527f304cfbd1e08a704a99f5e847d93f8c3caafddec46b7a0d379da69a4d112346a76102008401527f1739c1b1a457a8c7313123d24d2f9192f896b7c63eea05a9d57f06547ad0cec8610220840152805161024084015201516102608201527f198e9393920d483a7260bfb731fb5d25f1aa493335a9e71297e485b7aef312c26102808201527f1800deef121f1e76426a00665e5c4479674322d4f75edadd46debd5cd992f6ed6102a08201527f090689d0585ff075ec9e99ad690c3395bc4b313370b38ef355acdadcd122975b6102c08201527f12c85ea5db8c6deb4aab71808dcb408fe3d1e7690c43d37b4ce6cc0166fa7daa6102e08201526020816103008160086202c308fa90511690565b949350505050565b50949350505050565b93929091604051926103008401604052600161253c8451611439565b6125496020860151611439565b166125576040860151611439565b166125656060860151611439565b16166125746080850151611439565b1661258260a0850151611439565b1661259060c0850151611439565b1661259e60e0850151611439565b166125ad610100850151611439565b166125bc610120850151611439565b166125cb610140850151611439565b166125da610160850151611439565b166125e9610180850151611439565b166125f86101a0850151611439565b166126076101c0850151611439565b166126166101e0850151611439565b16612625610200850151611439565b16612634610220850151611439565b16612643610240850151611439565b16612652610260850151611439565b16612661610280850151611439565b166126706102a0850151611439565b1661267f6102c0850151611439565b1661268e6102e0850151611439565b169586151961269f575b5050505050565b6126aa959650612047565b90388080808061269856fea2646970667358221220970890b8405db134ac5879ee8e75313dfd3e11a7594d899454200356088f049564736f6c634300081b0033","opcodes":"PUSH1 0x80 DUP1 PUSH1 0x40 MSTORE CALLVALUE PUSH1 0x15 JUMPI PUSH2 0x26EB SWAP1 DUP2 PUSH2 0x1B DUP3 CODECOPY RETURN JUMPDEST PUSH1 0x0 DUP1 REVERT INVALID PUSH1 0x80 PUSH1 0x40 MSTORE PUSH1 0x4 CALLDATASIZE LT ISZERO PUSH2 0x12 JUMPI PUSH1 0x0 DUP1 REVERT JUMPDEST PUSH1 0x0 CALLDATALOAD PUSH1 0xE0 SHR DUP1 PUSH4 0x2020654 EQ PUSH2 0x443 JUMPI DUP1 PUSH4 0x8CCEECF EQ PUSH2 0x43E JUMPI DUP1 PUSH4 0xC99AB7C EQ PUSH2 0x439 JUMPI DUP1 PUSH4 0xCBB35C3 EQ PUSH2 0x434 JUMPI DUP1 PUSH4 0xDDEC475 EQ PUSH2 0x42F JUMPI DUP1 PUSH4 0xDE199A5 EQ PUSH2 0x42A JUMPI DUP1 PUSH4 0x1077F544 EQ PUSH2 0x425 JUMPI DUP1 PUSH4 0x11FBFE66 EQ PUSH2 0x420 JUMPI DUP1 PUSH4 0x1C4D4406 EQ PUSH2 0x41B JUMPI DUP1 PUSH4 0x24934A11 EQ PUSH2 0x416 JUMPI DUP1 PUSH4 0x286F014B EQ PUSH2 0x411 JUMPI DUP1 PUSH4 0x28E44695 EQ PUSH2 0x40C JUMPI DUP1 PUSH4 0x2C0556ED EQ PUSH2 0x407 JUMPI DUP1 PUSH4 0x2D527448 EQ PUSH2 0x402 JUMPI DUP1 PUSH4 0x2DACCA56 EQ PUSH2 0x3FD JUMPI DUP1 PUSH4 0x30C1731C EQ PUSH2 0x3F8 JUMPI DUP1 PUSH4 0x31AA5E26 EQ PUSH2 0x3F3 JUMPI DUP1 PUSH4 0x32148D47 EQ PUSH2 0x3EE JUMPI DUP1 PUSH4 0x36B397DC EQ PUSH2 0x3E9 JUMPI DUP1 PUSH4 0x39637503 EQ PUSH2 0x3E4 JUMPI DUP1 PUSH4 0x3A9E6A4D EQ PUSH2 0x36C JUMPI DUP1 PUSH4 0x41FE6A9A EQ PUSH2 0x3DF JUMPI DUP1 PUSH4 0x4234A1D6 EQ PUSH2 0x3DA JUMPI DUP1 PUSH4 0x45CE05A8 EQ PUSH2 0x3D5 JUMPI DUP1 PUSH4 0x4B750A92 EQ PUSH2 0x3D0 JUMPI DUP1 PUSH4 0x4D01C5A0 EQ PUSH2 0x3CB JUMPI DUP1 PUSH4 0x4E528E9F EQ PUSH2 0x3C6 JUMPI DUP1 PUSH4 0x4E890B27 EQ PUSH2 0x3C1 JUMPI DUP1 PUSH4 0x50DEF905 EQ PUSH2 0x3BC JUMPI DUP1 PUSH4 0x59B396B5 EQ PUSH2 0x3B7 JUMPI DUP1 PUSH4 0x5BF9F093 EQ PUSH2 0x3B2 JUMPI DUP1 PUSH4 0x6076D7ED EQ PUSH2 0x3AD JUMPI DUP1 PUSH4 0x6336EC6C EQ PUSH2 0x3A8 JUMPI DUP1 PUSH4 0x6A5935A7 EQ PUSH2 0x3A3 JUMPI DUP1 PUSH4 0x73354B60 EQ PUSH2 0x39E JUMPI DUP1 PUSH4 0x742797C4 EQ PUSH2 0x399 JUMPI DUP1 PUSH4 0x7FDF8FC1 EQ PUSH2 0x394 JUMPI DUP1 PUSH4 0x839A60D0 EQ PUSH2 0x38F JUMPI DUP1 PUSH4 0x898611FD EQ PUSH2 0x38A JUMPI DUP1 PUSH4 0x901660C4 EQ PUSH2 0x349 JUMPI DUP1 PUSH4 0x924F0A15 EQ PUSH2 0x385 JUMPI DUP1 PUSH4 0xA127ED86 EQ PUSH2 0x380 JUMPI DUP1 PUSH4 0xA1978C3C EQ PUSH2 0x37B JUMPI DUP1 PUSH4 0xA6ACA976 EQ PUSH2 0x376 JUMPI DUP1 PUSH4 0xACB41936 EQ PUSH2 0x35D JUMPI DUP1 PUSH4 0xAED43349 EQ PUSH2 0x371 JUMPI DUP1 PUSH4 0xB936325C EQ PUSH2 0x36C JUMPI DUP1 PUSH4 0xBA688175 EQ PUSH2 0x367 JUMPI DUP1 PUSH4 0xBF48189E EQ PUSH2 0x362 JUMPI DUP1 PUSH4 0xCC9C92AE EQ PUSH2 0x35D JUMPI DUP1 PUSH4 0xD0FDD6AF EQ PUSH2 0x358 JUMPI DUP1 PUSH4 0xD1FB02A3 EQ PUSH2 0x353 JUMPI DUP1 PUSH4 0xD663B365 EQ PUSH2 0x34E JUMPI DUP1 PUSH4 0xD70A63CC EQ PUSH2 0x349 JUMPI DUP1 PUSH4 0xD7AA472A EQ PUSH2 0x344 JUMPI DUP1 PUSH4 0xD8C710E0 EQ PUSH2 0x33F JUMPI DUP1 PUSH4 0xDACB4E69 EQ PUSH2 0x33A JUMPI DUP1 PUSH4 0xDC05A822 EQ PUSH2 0x335 JUMPI DUP1 PUSH4 0xDCE42004 EQ PUSH2 0x330 JUMPI DUP1 PUSH4 0xDD924B47 EQ PUSH2 0x32B JUMPI DUP1 PUSH4 0xDFCF46F0 EQ PUSH2 0x308 JUMPI DUP1 PUSH4 0xE11E8EE2 EQ PUSH2 0x326 JUMPI DUP1 PUSH4 0xE834DBDD EQ PUSH2 0x321 JUMPI DUP1 PUSH4 0xE848DD6F EQ PUSH2 0x31C JUMPI DUP1 PUSH4 0xEB38888B EQ PUSH2 0x317 JUMPI DUP1 PUSH4 0xEEB9F2E4 EQ PUSH2 0x312 JUMPI DUP1 PUSH4 0xEEDEE58F EQ PUSH2 0x30D JUMPI PUSH4 0xF7A65AAE EQ PUSH2 0x308 JUMPI PUSH1 0x0 DUP1 REVERT JUMPDEST PUSH2 0x129D JUMP JUMPDEST PUSH2 0x13FE JUMP JUMPDEST PUSH2 0x13C3 JUMP JUMPDEST PUSH2 0x1388 JUMP JUMPDEST PUSH2 0x134E JUMP JUMPDEST PUSH2 0x1313 JUMP JUMPDEST PUSH2 0x12D8 JUMP JUMPDEST PUSH2 0x1262 JUMP JUMPDEST PUSH2 0x1227 JUMP JUMPDEST PUSH2 0x11EC JUMP JUMPDEST PUSH2 0x11B1 JUMP JUMPDEST PUSH2 0x1176 JUMP JUMPDEST PUSH2 0x113B JUMP JUMPDEST PUSH2 0xE95 JUMP JUMPDEST PUSH2 0x1100 JUMP JUMPDEST PUSH2 0x10C5 JUMP JUMPDEST PUSH2 0x108A JUMP JUMPDEST PUSH2 0xF9E JUMP JUMPDEST PUSH2 0x104F JUMP JUMPDEST PUSH2 0x1014 JUMP JUMPDEST PUSH2 0x8E3 JUMP JUMPDEST PUSH2 0xFD9 JUMP JUMPDEST PUSH2 0xF81 JUMP JUMPDEST PUSH2 0xF46 JUMP JUMPDEST PUSH2 0xF0B JUMP JUMPDEST PUSH2 0xED0 JUMP JUMPDEST PUSH2 0xE5A JUMP JUMPDEST PUSH2 0xE1F JUMP JUMPDEST PUSH2 0xDE4 JUMP JUMPDEST PUSH2 0xDA9 JUMP JUMPDEST PUSH2 0xD6E JUMP JUMPDEST PUSH2 0xD33 JUMP JUMPDEST PUSH2 0xCF8 JUMP JUMPDEST PUSH2 0xCBD JUMP JUMPDEST PUSH2 0xC82 JUMP JUMPDEST PUSH2 0xC47 JUMP JUMPDEST PUSH2 0xC0C JUMP JUMPDEST PUSH2 0xBD1 JUMP JUMPDEST PUSH2 0xB96 JUMP JUMPDEST PUSH2 0xB01 JUMP JUMPDEST PUSH2 0x9CF JUMP JUMPDEST PUSH2 0x994 JUMP JUMPDEST PUSH2 0x959 JUMP JUMPDEST PUSH2 0x91E JUMP JUMPDEST PUSH2 0x8A8 JUMP JUMPDEST PUSH2 0x86D JUMP JUMPDEST PUSH2 0x832 JUMP JUMPDEST PUSH2 0x7F7 JUMP JUMPDEST PUSH2 0x7BC JUMP JUMPDEST PUSH2 0x781 JUMP JUMPDEST PUSH2 0x746 JUMP JUMPDEST PUSH2 0x70B JUMP JUMPDEST PUSH2 0x6D0 JUMP JUMPDEST PUSH2 0x695 JUMP JUMPDEST PUSH2 0x65A JUMP JUMPDEST PUSH2 0x61F JUMP JUMPDEST PUSH2 0x5E4 JUMP JUMPDEST PUSH2 0x5A9 JUMP JUMPDEST PUSH2 0x56F JUMP JUMPDEST PUSH2 0x534 JUMP JUMPDEST PUSH2 0x4F9 JUMP JUMPDEST PUSH2 0x4BE JUMP JUMPDEST PUSH2 0x483 JUMP JUMPDEST CALLVALUE PUSH2 0x47E JUMPI PUSH1 0x0 CALLDATASIZE PUSH1 0x3 NOT ADD SLT PUSH2 0x47E JUMPI PUSH1 0x20 PUSH1 0x40 MLOAD PUSH32 0x55E94309540A584545A2B1943E1FA6D6F3FA6575E1FDFCD7C46CB9F625DCB99 DUP2 MSTORE RETURN JUMPDEST PUSH1 0x0 DUP1 REVERT JUMPDEST CALLVALUE PUSH2 0x47E JUMPI PUSH1 0x0 CALLDATASIZE PUSH1 0x3 NOT ADD SLT PUSH2 0x47E JUMPI PUSH1 0x20 PUSH1 0x40 MLOAD PUSH32 0x184A4C79EDE95722E4BC75A9E2129C68913CF53BF0434AFB2401ADD99C84E37C DUP2 MSTORE RETURN JUMPDEST CALLVALUE PUSH2 0x47E JUMPI PUSH1 0x0 CALLDATASIZE PUSH1 0x3 NOT ADD SLT PUSH2 0x47E JUMPI PUSH1 0x20 PUSH1 0x40 MLOAD PUSH32 0x14267C8FFF65137D54C38DCDC86443FD8506601DB683D68535F3FF94E648ACCB DUP2 MSTORE RETURN JUMPDEST CALLVALUE PUSH2 0x47E JUMPI PUSH1 0x0 CALLDATASIZE PUSH1 0x3 NOT ADD SLT PUSH2 0x47E JUMPI PUSH1 0x20 PUSH1 0x40 MLOAD PUSH32 0x7B31D3D89BA21BDAF376F1F739B3608D372345447A29F5A3705282FC3FCC491 DUP2 MSTORE RETURN JUMPDEST CALLVALUE PUSH2 0x47E JUMPI PUSH1 0x0 CALLDATASIZE PUSH1 0x3 NOT ADD SLT PUSH2 0x47E JUMPI PUSH1 0x20 PUSH1 0x40 MLOAD PUSH32 0x30644E72E131A029B85045B68181585D2833E84879B9709143E1F593F0000001 DUP2 MSTORE RETURN JUMPDEST CALLVALUE PUSH2 0x47E JUMPI PUSH1 0x0 CALLDATASIZE PUSH1 0x3 NOT ADD SLT PUSH2 0x47E JUMPI PUSH1 0x20 PUSH1 0x40 MLOAD PUSH31 0xDE0D739E1CF434DBE75C21E88C54326E183E9646EFD5F9CBD5562A84751576 DUP2 MSTORE RETURN JUMPDEST CALLVALUE PUSH2 0x47E JUMPI PUSH1 0x0 CALLDATASIZE PUSH1 0x3 NOT ADD SLT PUSH2 0x47E JUMPI PUSH1 0x20 PUSH1 0x40 MLOAD PUSH32 0xD2F11E1DF72FB415B17F4B37C7F00BF88C6F1687256FC2E1EC2FA610BEC9B90 DUP2 MSTORE RETURN JUMPDEST CALLVALUE PUSH2 0x47E JUMPI PUSH1 0x0 CALLDATASIZE PUSH1 0x3 NOT ADD SLT PUSH2 0x47E JUMPI PUSH1 0x20 PUSH1 0x40 MLOAD PUSH32 0x2BF41E7D2A81B2F6D9B7AFCF060C5378042BD234EA3BF02B15D7E33717490AFC DUP2 MSTORE RETURN JUMPDEST CALLVALUE PUSH2 0x47E JUMPI PUSH1 0x0 CALLDATASIZE PUSH1 0x3 NOT ADD SLT PUSH2 0x47E JUMPI PUSH1 0x20 PUSH1 0x40 MLOAD PUSH32 0x1739C1B1A457A8C7313123D24D2F9192F896B7C63EEA05A9D57F06547AD0CEC8 DUP2 MSTORE RETURN JUMPDEST CALLVALUE PUSH2 0x47E JUMPI PUSH1 0x0 CALLDATASIZE PUSH1 0x3 NOT ADD SLT PUSH2 0x47E JUMPI PUSH1 0x20 PUSH1 0x40 MLOAD PUSH32 0x2078A5D9F938B2EA67E4F636BE9E685121D03A4D3CBC8B011831E7D7FC657336 DUP2 MSTORE RETURN JUMPDEST CALLVALUE PUSH2 0x47E JUMPI PUSH1 0x0 CALLDATASIZE PUSH1 0x3 NOT ADD SLT PUSH2 0x47E JUMPI PUSH1 0x20 PUSH1 0x40 MLOAD PUSH32 0x9908EA9FD743C383603EEB038332496671B8514ED31E2705AA8A29DC63E8BE6 DUP2 MSTORE RETURN JUMPDEST CALLVALUE PUSH2 0x47E JUMPI PUSH1 0x0 CALLDATASIZE PUSH1 0x3 NOT ADD SLT PUSH2 0x47E JUMPI PUSH1 0x20 PUSH1 0x40 MLOAD PUSH32 0x1BD03C1B7C02B082329F20674A684CD95CC0C481905140EB0D7D8B6E125819DE DUP2 MSTORE RETURN JUMPDEST CALLVALUE PUSH2 0x47E JUMPI PUSH1 0x0 CALLDATASIZE PUSH1 0x3 NOT ADD SLT PUSH2 0x47E JUMPI PUSH1 0x20 PUSH1 0x40 MLOAD PUSH32 0x24237DDA85A0741345683F9001739D0E4B5C6F6B61B7BFD0102CC934A947EDAE DUP2 MSTORE RETURN JUMPDEST CALLVALUE PUSH2 0x47E JUMPI PUSH1 0x0 CALLDATASIZE PUSH1 0x3 NOT ADD SLT PUSH2 0x47E JUMPI PUSH1 0x20 PUSH1 0x40 MLOAD PUSH32 0x2ED57B4AB48879BC6A30D2247BA01EFF979E049B5522B513CB0ABB65F36A8DB1 DUP2 MSTORE RETURN JUMPDEST CALLVALUE PUSH2 0x47E JUMPI PUSH1 0x0 CALLDATASIZE PUSH1 0x3 NOT ADD SLT PUSH2 0x47E JUMPI PUSH1 0x20 PUSH1 0x40 MLOAD PUSH32 0x2A9DB361D4314094878B3C10BDAC537954F27F7854E6E1F084450130BD8A8AF8 DUP2 MSTORE RETURN JUMPDEST CALLVALUE PUSH2 0x47E JUMPI PUSH1 0x0 CALLDATASIZE PUSH1 0x3 NOT ADD SLT PUSH2 0x47E JUMPI PUSH1 0x20 PUSH1 0x40 MLOAD PUSH32 0x24BF9AFA2425FAEA005BC5CC509EB51D9F648ED24B59DFC1F016FCC8D9EADE0D DUP2 MSTORE RETURN JUMPDEST CALLVALUE PUSH2 0x47E JUMPI PUSH1 0x0 CALLDATASIZE PUSH1 0x3 NOT ADD SLT PUSH2 0x47E JUMPI PUSH1 0x20 PUSH1 0x40 MLOAD PUSH32 0xC7AC804D9B9BEA28C49BBC545A4AE26B1A3C1D8F23577120E77F6095EE394A7 DUP2 MSTORE RETURN JUMPDEST CALLVALUE PUSH2 0x47E JUMPI PUSH1 0x0 CALLDATASIZE PUSH1 0x3 NOT ADD SLT PUSH2 0x47E JUMPI PUSH1 0x20 PUSH1 0x40 MLOAD PUSH32 0x2EB2501674BB64EF0EFDA3B061FAA56AD771E55DD4296EB2A0ADAA5DC74092D3 DUP2 MSTORE RETURN JUMPDEST CALLVALUE PUSH2 0x47E JUMPI PUSH1 0x0 CALLDATASIZE PUSH1 0x3 NOT ADD SLT PUSH2 0x47E JUMPI PUSH1 0x20 PUSH1 0x40 MLOAD PUSH32 0x1F1530E92027B80ECD82FA1EEAB105F6DD267F0CEB71649AB822FEE789AE75F3 DUP2 MSTORE RETURN JUMPDEST CALLVALUE PUSH2 0x47E JUMPI PUSH1 0x0 CALLDATASIZE PUSH1 0x3 NOT ADD SLT PUSH2 0x47E JUMPI PUSH1 0x20 PUSH1 0x40 MLOAD PUSH32 0xE51B16F7F2F99DE84098EBBA1F1D3417C7BC9C6A5EFA1993396C126E1543B7A DUP2 MSTORE RETURN JUMPDEST CALLVALUE PUSH2 0x47E JUMPI PUSH1 0x0 CALLDATASIZE PUSH1 0x3 NOT ADD SLT PUSH2 0x47E JUMPI PUSH1 0x20 PUSH1 0x40 MLOAD PUSH32 0x90689D0585FF075EC9E99AD690C3395BC4B313370B38EF355ACDADCD122975B DUP2 MSTORE RETURN JUMPDEST CALLVALUE PUSH2 0x47E JUMPI PUSH1 0x0 CALLDATASIZE PUSH1 0x3 NOT ADD SLT PUSH2 0x47E JUMPI PUSH1 0x20 PUSH1 0x40 MLOAD PUSH32 0x24AF836781114C83725EDADDA0AAE456B73ADB0CD7CDD0AB7E0CB2C46256A276 DUP2 MSTORE RETURN JUMPDEST CALLVALUE PUSH2 0x47E JUMPI PUSH1 0x0 CALLDATASIZE PUSH1 0x3 NOT ADD SLT PUSH2 0x47E JUMPI PUSH1 0x20 PUSH1 0x40 MLOAD PUSH32 0x2FE76200B1EE9DBB795A42BC9DDD5C85B829D46FDAAE050F4A6A5CCA945CB4AA DUP2 MSTORE RETURN JUMPDEST CALLVALUE PUSH2 0x47E JUMPI PUSH1 0x0 CALLDATASIZE PUSH1 0x3 NOT ADD SLT PUSH2 0x47E JUMPI PUSH1 0x20 PUSH1 0x40 MLOAD PUSH32 0x5FAD4FC403DE2AF20771E759FA2729262C189477CD3D3616D8DCE926AA3A5B5 DUP2 MSTORE RETURN JUMPDEST CALLVALUE PUSH2 0x47E JUMPI PUSH1 0x0 CALLDATASIZE PUSH1 0x3 NOT ADD SLT PUSH2 0x47E JUMPI PUSH1 0x20 PUSH1 0x40 MLOAD PUSH32 0x1A3774F449F2B1AB74B10B2F786B76A70C7DCFFCF42920C2A248AACC6042E090 DUP2 MSTORE RETURN JUMPDEST PUSH1 0x40 MLOAD SWAP2 SWAP1 PUSH1 0x1F ADD PUSH1 0x1F NOT AND DUP3 ADD PUSH8 0xFFFFFFFFFFFFFFFF DUP2 GT DUP4 DUP3 LT OR PUSH2 0xA30 JUMPI PUSH1 0x40 MSTORE JUMP JUMPDEST PUSH4 0x4E487B71 PUSH1 0xE0 SHL PUSH1 0x0 MSTORE PUSH1 0x41 PUSH1 0x4 MSTORE PUSH1 0x24 PUSH1 0x0 REVERT JUMPDEST SWAP2 SWAP1 PUSH2 0xA52 PUSH1 0x40 PUSH2 0xA0A JUMP JUMPDEST SWAP3 DUP4 SWAP1 PUSH1 0x40 DUP2 ADD SWAP3 DUP4 GT PUSH2 0x47E JUMPI SWAP1 JUMPDEST DUP3 DUP3 LT PUSH2 0xA6E JUMPI POP POP POP JUMP JUMPDEST DUP2 CALLDATALOAD DUP2 MSTORE PUSH1 0x20 SWAP2 DUP3 ADD SWAP2 ADD PUSH2 0xA62 JUMP JUMPDEST DUP1 PUSH1 0x23 SLT ISZERO PUSH2 0x47E JUMPI PUSH2 0xA92 SWAP1 PUSH1 0x4 PUSH2 0xA46 JUMP JUMPDEST SWAP1 JUMP JUMPDEST DUP1 PUSH1 0xE3 SLT ISZERO PUSH2 0x47E JUMPI PUSH2 0xA92 SWAP1 PUSH1 0xC4 PUSH2 0xA46 JUMP JUMPDEST SWAP1 DUP1 PUSH1 0x1F DUP4 ADD SLT ISZERO PUSH2 0x47E JUMPI PUSH2 0xA92 SWAP2 PUSH2 0xA46 JUMP JUMPDEST DUP1 PUSH2 0x123 SLT ISZERO PUSH2 0x47E JUMPI PUSH2 0xAD3 PUSH2 0x300 PUSH2 0xA0A JUMP JUMPDEST SWAP1 DUP2 SWAP1 PUSH2 0x404 GT PUSH2 0x47E JUMPI PUSH2 0x104 SWAP1 JUMPDEST PUSH2 0x404 DUP3 LT PUSH2 0xAF1 JUMPI POP POP SWAP1 JUMP JUMPDEST DUP2 CALLDATALOAD DUP2 MSTORE PUSH1 0x20 SWAP2 DUP3 ADD SWAP2 ADD PUSH2 0xAE3 JUMP JUMPDEST CALLVALUE PUSH2 0x47E JUMPI PUSH2 0x400 CALLDATASIZE PUSH1 0x3 NOT ADD SLT PUSH2 0x47E JUMPI PUSH2 0xB1C CALLDATASIZE PUSH2 0xA7E JUMP JUMPDEST CALLDATASIZE PUSH1 0x63 SLT ISZERO PUSH2 0x47E JUMPI PUSH1 0x40 SWAP1 PUSH2 0xB31 DUP3 PUSH2 0xA0A JUMP JUMPDEST DUP1 CALLDATASIZE PUSH1 0xC4 GT PUSH2 0x47E JUMPI PUSH1 0x44 SWAP1 JUMPDEST PUSH1 0xC4 DUP3 LT PUSH2 0xB7D JUMPI PUSH2 0xB79 DUP6 PUSH2 0xB68 DUP7 DUP7 PUSH2 0xB58 CALLDATASIZE PUSH2 0xA95 JUMP JUMPDEST SWAP1 PUSH2 0xB62 CALLDATASIZE PUSH2 0xABE JUMP JUMPDEST SWAP3 PUSH2 0x2520 JUMP JUMPDEST SWAP1 MLOAD SWAP1 ISZERO ISZERO DUP2 MSTORE SWAP1 DUP2 SWAP1 PUSH1 0x20 DUP3 ADD SWAP1 JUMP JUMPDEST SUB SWAP1 RETURN JUMPDEST PUSH1 0x20 DUP6 SWAP2 PUSH2 0xB8B CALLDATASIZE DUP6 PUSH2 0xAA9 JUMP JUMPDEST DUP2 MSTORE ADD SWAP2 ADD SWAP1 PUSH2 0xB3E JUMP JUMPDEST CALLVALUE PUSH2 0x47E JUMPI PUSH1 0x0 CALLDATASIZE PUSH1 0x3 NOT ADD SLT PUSH2 0x47E JUMPI PUSH1 0x20 PUSH1 0x40 MLOAD PUSH32 0x258CCE5E15404E5E1B1695DFD58B3A3BE26C1A7EEF93775F7B3B77B63DA11FB DUP2 MSTORE RETURN JUMPDEST CALLVALUE PUSH2 0x47E JUMPI PUSH1 0x0 CALLDATASIZE PUSH1 0x3 NOT ADD SLT PUSH2 0x47E JUMPI PUSH1 0x20 PUSH1 0x40 MLOAD PUSH32 0x85EAA09C8AE7D24BC814123A9C44391EB5F8A407D47E4B0336C158EF6E44388 DUP2 MSTORE RETURN JUMPDEST CALLVALUE PUSH2 0x47E JUMPI PUSH1 0x0 CALLDATASIZE PUSH1 0x3 NOT ADD SLT PUSH2 0x47E JUMPI PUSH1 0x20 PUSH1 0x40 MLOAD PUSH32 0x1AE026C0599B1A9A709F240C46F449AD2FE995775550A45E18835932BD71FD61 DUP2 MSTORE RETURN JUMPDEST CALLVALUE PUSH2 0x47E JUMPI PUSH1 0x0 CALLDATASIZE PUSH1 0x3 NOT ADD SLT PUSH2 0x47E JUMPI PUSH1 0x20 PUSH1 0x40 MLOAD PUSH32 0x27D7B535D6A9C83C064BA6C0B29328A1455048CB7C187B4D64DF853CB14C81A3 DUP2 MSTORE RETURN JUMPDEST CALLVALUE PUSH2 0x47E JUMPI PUSH1 0x0 CALLDATASIZE PUSH1 0x3 NOT ADD SLT PUSH2 0x47E JUMPI PUSH1 0x20 PUSH1 0x40 MLOAD PUSH32 0x1E812A57D6D5026220D869B64D56E415BC0CF9D0B10A994035061F4319D8067 DUP2 MSTORE RETURN JUMPDEST CALLVALUE PUSH2 0x47E JUMPI PUSH1 0x0 CALLDATASIZE PUSH1 0x3 NOT ADD SLT PUSH2 0x47E JUMPI PUSH1 0x20 PUSH1 0x40 MLOAD PUSH32 0x2149668511F2DA35CB3B5E44D2ABB568F819008742C189B4A6BDFD0BE56666B1 DUP2 MSTORE RETURN JUMPDEST CALLVALUE PUSH2 0x47E JUMPI PUSH1 0x0 CALLDATASIZE PUSH1 0x3 NOT ADD SLT PUSH2 0x47E JUMPI PUSH1 0x20 PUSH1 0x40 MLOAD PUSH32 0x1660CB6F46896E4A26C4E10C0E1CD83A36D4524A18883008AB4820CE4035E763 DUP2 MSTORE RETURN JUMPDEST CALLVALUE PUSH2 0x47E JUMPI PUSH1 0x0 CALLDATASIZE PUSH1 0x3 NOT ADD SLT PUSH2 0x47E JUMPI PUSH1 0x20 PUSH1 0x40 MLOAD PUSH32 0x14BEDD503C37CEB061D8EC60209FE345CE89830A19230301F076CAFF004D1926 DUP2 MSTORE RETURN JUMPDEST CALLVALUE PUSH2 0x47E JUMPI PUSH1 0x0 CALLDATASIZE PUSH1 0x3 NOT ADD SLT PUSH2 0x47E JUMPI PUSH1 0x20 PUSH1 0x40 MLOAD PUSH32 0x1D79623AA57462EFDA609EC71D972A1EE11B077F6F0331EE2D8F3E479FA6F303 DUP2 MSTORE RETURN JUMPDEST CALLVALUE PUSH2 0x47E JUMPI PUSH1 0x0 CALLDATASIZE PUSH1 0x3 NOT ADD SLT PUSH2 0x47E JUMPI PUSH1 0x20 PUSH1 0x40 MLOAD PUSH32 0xE23819DBE544E4EEF2BA90BAF05052E01346100615D2F1EB4389D0FA8467AE2 DUP2 MSTORE RETURN JUMPDEST CALLVALUE PUSH2 0x47E JUMPI PUSH1 0x0 CALLDATASIZE PUSH1 0x3 NOT ADD SLT PUSH2 0x47E JUMPI PUSH1 0x20 PUSH1 0x40 MLOAD PUSH32 0xE187847AD4C798374D0D6732BF501847DD68BC0E071241E0213BC7FC13DB7AB DUP2 MSTORE RETURN JUMPDEST CALLVALUE PUSH2 0x47E JUMPI PUSH1 0x0 CALLDATASIZE PUSH1 0x3 NOT ADD SLT PUSH2 0x47E JUMPI PUSH1 0x20 PUSH1 0x40 MLOAD PUSH32 0x30644E72E131A029B85045B68181585D97816A916871CA8D3C208C16D87CFD47 DUP2 MSTORE RETURN JUMPDEST CALLVALUE PUSH2 0x47E JUMPI PUSH1 0x0 CALLDATASIZE PUSH1 0x3 NOT ADD SLT PUSH2 0x47E JUMPI PUSH1 0x20 PUSH1 0x40 MLOAD PUSH32 0x2EF7DC19472F4C5A11B7B26FC2A118E4417618E7C7F18391C05A202BCF0C1B8C DUP2 MSTORE RETURN JUMPDEST CALLVALUE PUSH2 0x47E JUMPI PUSH1 0x0 CALLDATASIZE PUSH1 0x3 NOT ADD SLT PUSH2 0x47E JUMPI PUSH1 0x20 PUSH1 0x40 MLOAD PUSH32 0x198E9393920D483A7260BFB731FB5D25F1AA493335A9E71297E485B7AEF312C2 DUP2 MSTORE RETURN JUMPDEST CALLVALUE PUSH2 0x47E JUMPI PUSH1 0x0 CALLDATASIZE PUSH1 0x3 NOT ADD SLT PUSH2 0x47E JUMPI PUSH1 0x20 PUSH1 0x40 MLOAD PUSH32 0x2E236666FE18ED18253A1D13443C816545C632F44B7FF16880AAE4F88D26F7D7 DUP2 MSTORE RETURN JUMPDEST CALLVALUE PUSH2 0x47E JUMPI PUSH1 0x0 CALLDATASIZE PUSH1 0x3 NOT ADD SLT PUSH2 0x47E JUMPI PUSH1 0x20 PUSH1 0x40 MLOAD PUSH32 0x2674561D11378BA989471653AC0BEB60FD51587F4B8B7C9B970F81D0117CCF13 DUP2 MSTORE RETURN JUMPDEST CALLVALUE PUSH2 0x47E JUMPI PUSH1 0x0 CALLDATASIZE PUSH1 0x3 NOT ADD SLT PUSH2 0x47E JUMPI PUSH1 0x20 PUSH1 0x40 MLOAD PUSH32 0x14C15A03F789A78F4A7905E01DAD3A3F6F98F963568F5C8CDE2B4E48C5EA20F7 DUP2 MSTORE RETURN JUMPDEST CALLVALUE PUSH2 0x47E JUMPI PUSH1 0x0 CALLDATASIZE PUSH1 0x3 NOT ADD SLT PUSH2 0x47E JUMPI PUSH1 0x20 PUSH1 0x40 MLOAD PUSH2 0x300 DUP2 MSTORE RETURN JUMPDEST CALLVALUE PUSH2 0x47E JUMPI PUSH1 0x0 CALLDATASIZE PUSH1 0x3 NOT ADD SLT PUSH2 0x47E JUMPI PUSH1 0x20 PUSH1 0x40 MLOAD PUSH32 0x12C85EA5DB8C6DEB4AAB71808DCB408FE3D1E7690C43D37B4CE6CC0166FA7DAA DUP2 MSTORE RETURN JUMPDEST CALLVALUE PUSH2 0x47E JUMPI PUSH1 0x0 CALLDATASIZE PUSH1 0x3 NOT ADD SLT PUSH2 0x47E JUMPI PUSH1 0x20 PUSH1 0x40 MLOAD PUSH32 0x2F527CED9FDF4D4852FF9D25ED3AA213FA5A1F6CD293BB538721E9620DBAEF69 DUP2 MSTORE RETURN JUMPDEST CALLVALUE PUSH2 0x47E JUMPI PUSH1 0x0 CALLDATASIZE PUSH1 0x3 NOT ADD SLT PUSH2 0x47E JUMPI PUSH1 0x20 PUSH1 0x40 MLOAD PUSH32 0x26541B41FAEA776F2C39021D7CA86627C5939528301225B1AB82125C5D4D8370 DUP2 MSTORE RETURN JUMPDEST CALLVALUE PUSH2 0x47E JUMPI PUSH1 0x0 CALLDATASIZE PUSH1 0x3 NOT ADD SLT PUSH2 0x47E JUMPI PUSH1 0x20 PUSH1 0x40 MLOAD PUSH32 0x85A38ADE53FA5E091E072E566C400AC5B151F64BF819EA772D5109DD6566CDD DUP2 MSTORE RETURN JUMPDEST CALLVALUE PUSH2 0x47E JUMPI PUSH1 0x0 CALLDATASIZE PUSH1 0x3 NOT ADD SLT PUSH2 0x47E JUMPI PUSH1 0x20 PUSH1 0x40 MLOAD PUSH32 0xC284A7FE138D4CDC90F91BD16CD11331C02DC7F31F53B63D06538F5556B3E12 DUP2 MSTORE RETURN JUMPDEST CALLVALUE PUSH2 0x47E JUMPI PUSH1 0x0 CALLDATASIZE PUSH1 0x3 NOT ADD SLT PUSH2 0x47E JUMPI PUSH1 0x20 PUSH1 0x40 MLOAD PUSH32 0x2D4D9AA7E302D9DF41749D5507949D05DBEA33FBB16C643B22F599A2BE6DF2E2 DUP2 MSTORE RETURN JUMPDEST CALLVALUE PUSH2 0x47E JUMPI PUSH1 0x0 CALLDATASIZE PUSH1 0x3 NOT ADD SLT PUSH2 0x47E JUMPI PUSH1 0x20 PUSH1 0x40 MLOAD PUSH32 0xC59FEE267AA8005CED7734A590E95422026D6F4B36B724599D3B053EF6D83C3 DUP2 MSTORE RETURN JUMPDEST CALLVALUE PUSH2 0x47E JUMPI PUSH1 0x0 CALLDATASIZE PUSH1 0x3 NOT ADD SLT PUSH2 0x47E JUMPI PUSH1 0x20 PUSH1 0x40 MLOAD PUSH32 0x2D735F27514DC246ED5610045B5417DB14FC400EC46BBA4A490F28618B1E1F1B DUP2 MSTORE RETURN JUMPDEST CALLVALUE PUSH2 0x47E JUMPI PUSH1 0x0 CALLDATASIZE PUSH1 0x3 NOT ADD SLT PUSH2 0x47E JUMPI PUSH1 0x20 PUSH1 0x40 MLOAD PUSH32 0x1E8A25A871EF1CB921AECAB28E7CA4D955A190E165485166C2B7A6342632EAE5 DUP2 MSTORE RETURN JUMPDEST CALLVALUE PUSH2 0x47E JUMPI PUSH1 0x0 CALLDATASIZE PUSH1 0x3 NOT ADD SLT PUSH2 0x47E JUMPI PUSH1 0x20 PUSH1 0x40 MLOAD PUSH32 0x288B4CB73B78D003B31C475B5691202CD0BBC3BC0F592D37B6A4BD8A78281983 DUP2 MSTORE RETURN JUMPDEST CALLVALUE PUSH2 0x47E JUMPI PUSH1 0x0 CALLDATASIZE PUSH1 0x3 NOT ADD SLT PUSH2 0x47E JUMPI PUSH1 0x20 PUSH1 0x40 MLOAD PUSH32 0x967032FCBF776D1AFC985F88877F182D38480A653F2DECAA9794CBC3BF3060C DUP2 MSTORE RETURN JUMPDEST CALLVALUE PUSH2 0x47E JUMPI PUSH1 0x0 CALLDATASIZE PUSH1 0x3 NOT ADD SLT PUSH2 0x47E JUMPI PUSH1 0x20 PUSH1 0x40 MLOAD PUSH32 0x2AEF93881C2DC3EAA42C2640F418591D8AACDC383C6B06688D5BD96D430D128F DUP2 MSTORE RETURN JUMPDEST CALLVALUE PUSH2 0x47E JUMPI PUSH1 0x0 CALLDATASIZE PUSH1 0x3 NOT ADD SLT PUSH2 0x47E JUMPI PUSH1 0x20 PUSH1 0x40 MLOAD PUSH32 0x304CFBD1E08A704A99F5E847D93F8C3CAAFDDEC46B7A0D379DA69A4D112346A7 DUP2 MSTORE RETURN JUMPDEST CALLVALUE PUSH2 0x47E JUMPI PUSH1 0x0 CALLDATASIZE PUSH1 0x3 NOT ADD SLT PUSH2 0x47E JUMPI PUSH1 0x20 PUSH1 0x40 MLOAD PUSH32 0x1800DEEF121F1E76426A00665E5C4479674322D4F75EDADD46DEBD5CD992F6ED DUP2 MSTORE RETURN JUMPDEST CALLVALUE PUSH2 0x47E JUMPI PUSH1 0x0 CALLDATASIZE PUSH1 0x3 NOT ADD SLT PUSH2 0x47E JUMPI PUSH1 0x20 PUSH1 0x40 MLOAD PUSH32 0x1E08792193298DC465A34B5F6147C17773C8DEB3C4CEF904E1CDA6459FD0FA4E DUP2 MSTORE RETURN JUMPDEST CALLVALUE PUSH2 0x47E JUMPI PUSH1 0x0 CALLDATASIZE PUSH1 0x3 NOT ADD SLT PUSH2 0x47E JUMPI PUSH1 0x20 PUSH1 0x40 MLOAD PUSH32 0x2BAFF3DCA18FD73B6CFEB57356C3F5F080FC4E8295BA9E10F065AED85591D789 DUP2 MSTORE RETURN JUMPDEST CALLVALUE PUSH2 0x47E JUMPI PUSH1 0x0 CALLDATASIZE PUSH1 0x3 NOT ADD SLT PUSH2 0x47E JUMPI PUSH1 0x20 PUSH1 0x40 MLOAD PUSH31 0x48C18A515EB7212FA829D19FAD606602D5C614C19B50830521D4A613B5ADEF DUP2 MSTORE RETURN JUMPDEST CALLVALUE PUSH2 0x47E JUMPI PUSH1 0x0 CALLDATASIZE PUSH1 0x3 NOT ADD SLT PUSH2 0x47E JUMPI PUSH1 0x20 PUSH1 0x40 MLOAD PUSH32 0x1B45AE2CF143545DB9A131F50578847CB5BE75D367DA42F7D813DF838355FF17 DUP2 MSTORE RETURN JUMPDEST CALLVALUE PUSH2 0x47E JUMPI PUSH1 0x0 CALLDATASIZE PUSH1 0x3 NOT ADD SLT PUSH2 0x47E JUMPI PUSH1 0x20 PUSH1 0x40 MLOAD PUSH32 0x2CF831BFF6C50DCF5B3BF4668C774AE002817B5EB91FF7659C6291745FDABDEA DUP2 MSTORE RETURN JUMPDEST CALLVALUE PUSH2 0x47E JUMPI PUSH1 0x0 CALLDATASIZE PUSH1 0x3 NOT ADD SLT PUSH2 0x47E JUMPI PUSH1 0x20 PUSH1 0x40 MLOAD PUSH32 0x253483399961A54479888BD619A7F8763AAEC837E423F0FC87FB87874A5CAA83 DUP2 MSTORE RETURN JUMPDEST PUSH32 0x30644E72E131A029B85045B68181585D2833E84879B9709143E1F593F0000001 GT SWAP1 JUMP JUMPDEST SWAP2 SWAP1 PUSH1 0x40 SWAP1 DUP2 DUP5 ADD SWAP1 PUSH32 0xC59FEE267AA8005CED7734A590E95422026D6F4B36B724599D3B053EF6D83C3 DUP3 MSTORE PUSH32 0x14C15A03F789A78F4A7905E01DAD3A3F6F98F963568F5C8CDE2B4E48C5EA20F7 PUSH1 0x60 DUP7 ADD MSTORE PUSH1 0x80 DUP6 ADD MSTORE PUSH1 0x60 DUP2 PUSH1 0x7 PUSH2 0x1770 STATICCALL RETURNDATASIZE ISZERO ISZERO AND SWAP2 DUP3 ISZERO PUSH2 0x14DD JUMPI PUSH1 0x40 SWAP2 SWAP3 POP PUSH1 0x80 DUP2 PUSH1 0x6 PUSH1 0x96 STATICCALL RETURNDATASIZE ISZERO ISZERO AND SWAP1 JUMP JUMPDEST POP JUMP JUMPDEST SWAP2 SWAP1 PUSH1 0x40 SWAP1 DUP2 DUP5 ADD SWAP1 PUSH32 0x2AEF93881C2DC3EAA42C2640F418591D8AACDC383C6B06688D5BD96D430D128F DUP3 MSTORE PUSH32 0x7B31D3D89BA21BDAF376F1F739B3608D372345447A29F5A3705282FC3FCC491 PUSH1 0x60 DUP7 ADD MSTORE PUSH1 0x80 DUP6 ADD MSTORE PUSH1 0x60 DUP2 PUSH1 0x7 PUSH2 0x1770 STATICCALL RETURNDATASIZE ISZERO ISZERO AND SWAP2 DUP3 ISZERO PUSH2 0x14DD JUMPI PUSH1 0x40 SWAP2 SWAP3 POP PUSH1 0x80 DUP2 PUSH1 0x6 PUSH1 0x96 STATICCALL RETURNDATASIZE ISZERO ISZERO AND SWAP1 JUMP JUMPDEST SWAP2 SWAP1 PUSH1 0x40 SWAP1 DUP2 DUP5 ADD SWAP1 PUSH32 0x2FE76200B1EE9DBB795A42BC9DDD5C85B829D46FDAAE050F4A6A5CCA945CB4AA DUP3 MSTORE PUSH32 0x1AE026C0599B1A9A709F240C46F449AD2FE995775550A45E18835932BD71FD61 PUSH1 0x60 DUP7 ADD MSTORE PUSH1 0x80 DUP6 ADD MSTORE PUSH1 0x60 DUP2 PUSH1 0x7 PUSH2 0x1770 STATICCALL RETURNDATASIZE ISZERO ISZERO AND SWAP2 DUP3 ISZERO PUSH2 0x14DD JUMPI PUSH1 0x40 SWAP2 SWAP3 POP PUSH1 0x80 DUP2 PUSH1 0x6 PUSH1 0x96 STATICCALL RETURNDATASIZE ISZERO ISZERO AND SWAP1 JUMP JUMPDEST SWAP2 SWAP1 PUSH1 0x40 SWAP1 DUP2 DUP5 ADD SWAP1 PUSH32 0x253483399961A54479888BD619A7F8763AAEC837E423F0FC87FB87874A5CAA83 DUP3 MSTORE PUSH32 0x85EAA09C8AE7D24BC814123A9C44391EB5F8A407D47E4B0336C158EF6E44388 PUSH1 0x60 DUP7 ADD MSTORE PUSH1 0x80 DUP6 ADD MSTORE PUSH1 0x60 DUP2 PUSH1 0x7 PUSH2 0x1770 STATICCALL RETURNDATASIZE ISZERO ISZERO AND SWAP2 DUP3 ISZERO PUSH2 0x14DD JUMPI PUSH1 0x40 SWAP2 SWAP3 POP PUSH1 0x80 DUP2 PUSH1 0x6 PUSH1 0x96 STATICCALL RETURNDATASIZE ISZERO ISZERO AND SWAP1 JUMP JUMPDEST SWAP2 SWAP1 PUSH1 0x40 SWAP1 DUP2 DUP5 ADD SWAP1 PUSH32 0x2EF7DC19472F4C5A11B7B26FC2A118E4417618E7C7F18391C05A202BCF0C1B8C DUP3 MSTORE PUSH32 0x2078A5D9F938B2EA67E4F636BE9E685121D03A4D3CBC8B011831E7D7FC657336 PUSH1 0x60 DUP7 ADD MSTORE PUSH1 0x80 DUP6 ADD MSTORE PUSH1 0x60 DUP2 PUSH1 0x7 PUSH2 0x1770 STATICCALL RETURNDATASIZE ISZERO ISZERO AND SWAP2 DUP3 ISZERO PUSH2 0x14DD JUMPI PUSH1 0x40 SWAP2 SWAP3 POP PUSH1 0x80 DUP2 PUSH1 0x6 PUSH1 0x96 STATICCALL RETURNDATASIZE ISZERO ISZERO AND SWAP1 JUMP JUMPDEST SWAP2 SWAP1 PUSH1 0x40 SWAP1 DUP2 DUP5 ADD SWAP1 PUSH32 0x2F527CED9FDF4D4852FF9D25ED3AA213FA5A1F6CD293BB538721E9620DBAEF69 DUP3 MSTORE PUSH32 0x85A38ADE53FA5E091E072E566C400AC5B151F64BF819EA772D5109DD6566CDD PUSH1 0x60 DUP7 ADD MSTORE PUSH1 0x80 DUP6 ADD MSTORE PUSH1 0x60 DUP2 PUSH1 0x7 PUSH2 0x1770 STATICCALL RETURNDATASIZE ISZERO ISZERO AND SWAP2 DUP3 ISZERO PUSH2 0x14DD JUMPI PUSH1 0x40 SWAP2 SWAP3 POP PUSH1 0x80 DUP2 PUSH1 0x6 PUSH1 0x96 STATICCALL RETURNDATASIZE ISZERO ISZERO AND SWAP1 JUMP JUMPDEST SWAP2 SWAP1 PUSH1 0x40 SWAP1 DUP2 DUP5 ADD SWAP1 PUSH32 0xC7AC804D9B9BEA28C49BBC545A4AE26B1A3C1D8F23577120E77F6095EE394A7 DUP3 MSTORE PUSH32 0x24237DDA85A0741345683F9001739D0E4B5C6F6B61B7BFD0102CC934A947EDAE PUSH1 0x60 DUP7 ADD MSTORE PUSH1 0x80 DUP6 ADD MSTORE PUSH1 0x60 DUP2 PUSH1 0x7 PUSH2 0x1770 STATICCALL RETURNDATASIZE ISZERO ISZERO AND SWAP2 DUP3 ISZERO PUSH2 0x14DD JUMPI PUSH1 0x40 SWAP2 SWAP3 POP PUSH1 0x80 DUP2 PUSH1 0x6 PUSH1 0x96 STATICCALL RETURNDATASIZE ISZERO ISZERO AND SWAP1 JUMP JUMPDEST SWAP2 SWAP1 PUSH1 0x40 SWAP1 DUP2 DUP5 ADD SWAP1 PUSH32 0x24AF836781114C83725EDADDA0AAE456B73ADB0CD7CDD0AB7E0CB2C46256A276 DUP3 MSTORE PUSH32 0x2A9DB361D4314094878B3C10BDAC537954F27F7854E6E1F084450130BD8A8AF8 PUSH1 0x60 DUP7 ADD MSTORE PUSH1 0x80 DUP6 ADD MSTORE PUSH1 0x60 DUP2 PUSH1 0x7 PUSH2 0x1770 STATICCALL RETURNDATASIZE ISZERO ISZERO AND SWAP2 DUP3 ISZERO PUSH2 0x14DD JUMPI PUSH1 0x40 SWAP2 SWAP3 POP PUSH1 0x80 DUP2 PUSH1 0x6 PUSH1 0x96 STATICCALL RETURNDATASIZE ISZERO ISZERO AND SWAP1 JUMP JUMPDEST SWAP2 SWAP1 PUSH1 0x40 SWAP1 DUP2 DUP5 ADD SWAP1 PUSH32 0x288B4CB73B78D003B31C475B5691202CD0BBC3BC0F592D37B6A4BD8A78281983 DUP3 MSTORE PUSH32 0x1BD03C1B7C02B082329F20674A684CD95CC0C481905140EB0D7D8B6E125819DE PUSH1 0x60 DUP7 ADD MSTORE PUSH1 0x80 DUP6 ADD MSTORE PUSH1 0x60 DUP2 PUSH1 0x7 PUSH2 0x1770 STATICCALL RETURNDATASIZE ISZERO ISZERO AND SWAP2 DUP3 ISZERO PUSH2 0x14DD JUMPI PUSH1 0x40 SWAP2 SWAP3 POP PUSH1 0x80 DUP2 PUSH1 0x6 PUSH1 0x96 STATICCALL RETURNDATASIZE ISZERO ISZERO AND SWAP1 JUMP JUMPDEST SWAP2 SWAP1 PUSH1 0x40 SWAP1 DUP2 DUP5 ADD SWAP1 PUSH32 0x2BF41E7D2A81B2F6D9B7AFCF060C5378042BD234EA3BF02B15D7E33717490AFC DUP3 MSTORE PUSH31 0x48C18A515EB7212FA829D19FAD606602D5C614C19B50830521D4A613B5ADEF PUSH1 0x60 DUP7 ADD MSTORE PUSH1 0x80 DUP6 ADD MSTORE PUSH1 0x60 DUP2 PUSH1 0x7 PUSH2 0x1770 STATICCALL RETURNDATASIZE ISZERO ISZERO AND SWAP2 DUP3 ISZERO PUSH2 0x14DD JUMPI PUSH1 0x40 SWAP2 SWAP3 POP PUSH1 0x80 DUP2 PUSH1 0x6 PUSH1 0x96 STATICCALL RETURNDATASIZE ISZERO ISZERO AND SWAP1 JUMP JUMPDEST SWAP2 SWAP1 PUSH1 0x40 SWAP1 DUP2 DUP5 ADD SWAP1 PUSH32 0xE51B16F7F2F99DE84098EBBA1F1D3417C7BC9C6A5EFA1993396C126E1543B7A DUP3 MSTORE PUSH32 0x1D79623AA57462EFDA609EC71D972A1EE11B077F6F0331EE2D8F3E479FA6F303 PUSH1 0x60 DUP7 ADD MSTORE PUSH1 0x80 DUP6 ADD MSTORE PUSH1 0x60 DUP2 PUSH1 0x7 PUSH2 0x1770 STATICCALL RETURNDATASIZE ISZERO ISZERO AND SWAP2 DUP3 ISZERO PUSH2 0x14DD JUMPI PUSH1 0x40 SWAP2 SWAP3 POP PUSH1 0x80 DUP2 PUSH1 0x6 PUSH1 0x96 STATICCALL RETURNDATASIZE ISZERO ISZERO AND SWAP1 JUMP JUMPDEST SWAP2 SWAP1 PUSH1 0x40 SWAP1 DUP2 DUP5 ADD SWAP1 PUSH32 0x2674561D11378BA989471653AC0BEB60FD51587F4B8B7C9B970F81D0117CCF13 DUP3 MSTORE PUSH32 0x26541B41FAEA776F2C39021D7CA86627C5939528301225B1AB82125C5D4D8370 PUSH1 0x60 DUP7 ADD MSTORE PUSH1 0x80 DUP6 ADD MSTORE PUSH1 0x60 DUP2 PUSH1 0x7 PUSH2 0x1770 STATICCALL RETURNDATASIZE ISZERO ISZERO AND SWAP2 DUP3 ISZERO PUSH2 0x14DD JUMPI PUSH1 0x40 SWAP2 SWAP3 POP PUSH1 0x80 DUP2 PUSH1 0x6 PUSH1 0x96 STATICCALL RETURNDATASIZE ISZERO ISZERO AND SWAP1 JUMP JUMPDEST SWAP2 SWAP1 PUSH1 0x40 SWAP1 DUP2 DUP5 ADD SWAP1 PUSH32 0x1F1530E92027B80ECD82FA1EEAB105F6DD267F0CEB71649AB822FEE789AE75F3 DUP3 MSTORE PUSH32 0xD2F11E1DF72FB415B17F4B37C7F00BF88C6F1687256FC2E1EC2FA610BEC9B90 PUSH1 0x60 DUP7 ADD MSTORE PUSH1 0x80 DUP6 ADD MSTORE PUSH1 0x60 DUP2 PUSH1 0x7 PUSH2 0x1770 STATICCALL RETURNDATASIZE ISZERO ISZERO AND SWAP2 DUP3 ISZERO PUSH2 0x14DD JUMPI PUSH1 0x40 SWAP2 SWAP3 POP PUSH1 0x80 DUP2 PUSH1 0x6 PUSH1 0x96 STATICCALL RETURNDATASIZE ISZERO ISZERO AND SWAP1 JUMP JUMPDEST SWAP2 SWAP1 PUSH1 0x40 SWAP1 DUP2 DUP5 ADD SWAP1 PUSH32 0x1E8A25A871EF1CB921AECAB28E7CA4D955A190E165485166C2B7A6342632EAE5 DUP3 MSTORE PUSH32 0x2BAFF3DCA18FD73B6CFEB57356C3F5F080FC4E8295BA9E10F065AED85591D789 PUSH1 0x60 DUP7 ADD MSTORE PUSH1 0x80 DUP6 ADD MSTORE PUSH1 0x60 DUP2 PUSH1 0x7 PUSH2 0x1770 STATICCALL RETURNDATASIZE ISZERO ISZERO AND SWAP2 DUP3 ISZERO PUSH2 0x14DD JUMPI PUSH1 0x40 SWAP2 SWAP3 POP PUSH1 0x80 DUP2 PUSH1 0x6 PUSH1 0x96 STATICCALL RETURNDATASIZE ISZERO ISZERO AND SWAP1 JUMP JUMPDEST SWAP2 SWAP1 PUSH1 0x40 SWAP1 DUP2 DUP5 ADD SWAP1 PUSH32 0x1A3774F449F2B1AB74B10B2F786B76A70C7DCFFCF42920C2A248AACC6042E090 DUP3 MSTORE PUSH32 0x24BF9AFA2425FAEA005BC5CC509EB51D9F648ED24B59DFC1F016FCC8D9EADE0D PUSH1 0x60 DUP7 ADD MSTORE PUSH1 0x80 DUP6 ADD MSTORE PUSH1 0x60 DUP2 PUSH1 0x7 PUSH2 0x1770 STATICCALL RETURNDATASIZE ISZERO ISZERO AND SWAP2 DUP3 ISZERO PUSH2 0x14DD JUMPI PUSH1 0x40 SWAP2 SWAP3 POP PUSH1 0x80 DUP2 PUSH1 0x6 PUSH1 0x96 STATICCALL RETURNDATASIZE ISZERO ISZERO AND SWAP1 JUMP JUMPDEST SWAP2 SWAP1 PUSH1 0x40 SWAP1 DUP2 DUP5 ADD SWAP1 PUSH32 0x1E08792193298DC465A34B5F6147C17773C8DEB3C4CEF904E1CDA6459FD0FA4E DUP3 MSTORE PUSH32 0x2EB2501674BB64EF0EFDA3B061FAA56AD771E55DD4296EB2A0ADAA5DC74092D3 PUSH1 0x60 DUP7 ADD MSTORE PUSH1 0x80 DUP6 ADD MSTORE PUSH1 0x60 DUP2 PUSH1 0x7 PUSH2 0x1770 STATICCALL RETURNDATASIZE ISZERO ISZERO AND SWAP2 DUP3 ISZERO PUSH2 0x14DD JUMPI PUSH1 0x40 SWAP2 SWAP3 POP PUSH1 0x80 DUP2 PUSH1 0x6 PUSH1 0x96 STATICCALL RETURNDATASIZE ISZERO ISZERO AND SWAP1 JUMP JUMPDEST SWAP2 SWAP1 PUSH1 0x40 SWAP1 DUP2 DUP5 ADD SWAP1 PUSH32 0x9908EA9FD743C383603EEB038332496671B8514ED31E2705AA8A29DC63E8BE6 DUP3 MSTORE PUSH32 0x2ED57B4AB48879BC6A30D2247BA01EFF979E049B5522B513CB0ABB65F36A8DB1 PUSH1 0x60 DUP7 ADD MSTORE PUSH1 0x80 DUP6 ADD MSTORE PUSH1 0x60 DUP2 PUSH1 0x7 PUSH2 0x1770 STATICCALL RETURNDATASIZE ISZERO ISZERO AND SWAP2 DUP3 ISZERO PUSH2 0x14DD JUMPI PUSH1 0x40 SWAP2 SWAP3 POP PUSH1 0x80 DUP2 PUSH1 0x6 PUSH1 0x96 STATICCALL RETURNDATASIZE ISZERO ISZERO AND SWAP1 JUMP JUMPDEST SWAP2 SWAP1 PUSH1 0x40 SWAP1 DUP2 DUP5 ADD SWAP1 PUSH32 0x5FAD4FC403DE2AF20771E759FA2729262C189477CD3D3616D8DCE926AA3A5B5 DUP3 MSTORE PUSH32 0xC284A7FE138D4CDC90F91BD16CD11331C02DC7F31F53B63D06538F5556B3E12 PUSH1 0x60 DUP7 ADD MSTORE PUSH1 0x80 DUP6 ADD MSTORE PUSH1 0x60 DUP2 PUSH1 0x7 PUSH2 0x1770 STATICCALL RETURNDATASIZE ISZERO ISZERO AND SWAP2 DUP3 ISZERO PUSH2 0x14DD JUMPI PUSH1 0x40 SWAP2 SWAP3 POP PUSH1 0x80 DUP2 PUSH1 0x6 PUSH1 0x96 STATICCALL RETURNDATASIZE ISZERO ISZERO AND SWAP1 JUMP JUMPDEST SWAP2 SWAP1 PUSH1 0x40 SWAP1 DUP2 DUP5 ADD SWAP1 PUSH32 0x27D7B535D6A9C83C064BA6C0B29328A1455048CB7C187B4D64DF853CB14C81A3 DUP3 MSTORE PUSH32 0x2149668511F2DA35CB3B5E44D2ABB568F819008742C189B4A6BDFD0BE56666B1 PUSH1 0x60 DUP7 ADD MSTORE PUSH1 0x80 DUP6 ADD MSTORE PUSH1 0x60 DUP2 PUSH1 0x7 PUSH2 0x1770 STATICCALL RETURNDATASIZE ISZERO ISZERO AND SWAP2 DUP3 ISZERO PUSH2 0x14DD JUMPI PUSH1 0x40 SWAP2 SWAP3 POP PUSH1 0x80 DUP2 PUSH1 0x6 PUSH1 0x96 STATICCALL RETURNDATASIZE ISZERO ISZERO AND SWAP1 JUMP JUMPDEST SWAP2 SWAP1 PUSH1 0x40 SWAP1 DUP2 DUP5 ADD SWAP1 PUSH32 0x55E94309540A584545A2B1943E1FA6D6F3FA6575E1FDFCD7C46CB9F625DCB99 DUP3 MSTORE PUSH32 0x1E812A57D6D5026220D869B64D56E415BC0CF9D0B10A994035061F4319D8067 PUSH1 0x60 DUP7 ADD MSTORE PUSH1 0x80 DUP6 ADD MSTORE PUSH1 0x60 DUP2 PUSH1 0x7 PUSH2 0x1770 STATICCALL RETURNDATASIZE ISZERO ISZERO AND SWAP2 DUP3 ISZERO PUSH2 0x14DD JUMPI PUSH1 0x40 SWAP2 SWAP3 POP PUSH1 0x80 DUP2 PUSH1 0x6 PUSH1 0x96 STATICCALL RETURNDATASIZE ISZERO ISZERO AND SWAP1 JUMP JUMPDEST SWAP2 SWAP1 PUSH1 0x40 SWAP1 DUP2 DUP5 ADD SWAP1 PUSH32 0x2D735F27514DC246ED5610045B5417DB14FC400EC46BBA4A490F28618B1E1F1B DUP3 MSTORE PUSH32 0x258CCE5E15404E5E1B1695DFD58B3A3BE26C1A7EEF93775F7B3B77B63DA11FB PUSH1 0x60 DUP7 ADD MSTORE PUSH1 0x80 DUP6 ADD MSTORE PUSH1 0x60 DUP2 PUSH1 0x7 PUSH2 0x1770 STATICCALL RETURNDATASIZE ISZERO ISZERO AND SWAP2 DUP3 ISZERO PUSH2 0x14DD JUMPI PUSH1 0x40 SWAP2 SWAP3 POP PUSH1 0x80 DUP2 PUSH1 0x6 PUSH1 0x96 STATICCALL RETURNDATASIZE ISZERO ISZERO AND SWAP1 JUMP JUMPDEST SWAP2 SWAP1 PUSH1 0x40 SWAP1 DUP2 DUP5 ADD SWAP1 PUSH32 0x14267C8FFF65137D54C38DCDC86443FD8506601DB683D68535F3FF94E648ACCB DUP3 MSTORE PUSH32 0x2E236666FE18ED18253A1D13443C816545C632F44B7FF16880AAE4F88D26F7D7 PUSH1 0x60 DUP7 ADD MSTORE PUSH1 0x80 DUP6 ADD MSTORE PUSH1 0x60 DUP2 PUSH1 0x7 PUSH2 0x1770 STATICCALL RETURNDATASIZE ISZERO ISZERO AND SWAP2 DUP3 ISZERO PUSH2 0x14DD JUMPI PUSH1 0x40 SWAP2 SWAP3 POP PUSH1 0x80 DUP2 PUSH1 0x6 PUSH1 0x96 STATICCALL RETURNDATASIZE ISZERO ISZERO AND SWAP1 JUMP JUMPDEST SWAP2 SWAP1 PUSH1 0x40 SWAP1 DUP2 DUP5 ADD SWAP1 PUSH31 0xDE0D739E1CF434DBE75C21E88C54326E183E9646EFD5F9CBD5562A84751576 DUP3 MSTORE PUSH32 0x184A4C79EDE95722E4BC75A9E2129C68913CF53BF0434AFB2401ADD99C84E37C PUSH1 0x60 DUP7 ADD MSTORE PUSH1 0x80 DUP6 ADD MSTORE PUSH1 0x60 DUP2 PUSH1 0x7 PUSH2 0x1770 STATICCALL RETURNDATASIZE ISZERO ISZERO AND SWAP2 DUP3 ISZERO PUSH2 0x14DD JUMPI PUSH1 0x40 SWAP2 SWAP3 POP PUSH1 0x80 DUP2 PUSH1 0x6 PUSH1 0x96 STATICCALL RETURNDATASIZE ISZERO ISZERO AND SWAP1 JUMP JUMPDEST SWAP2 SWAP1 PUSH1 0x40 SWAP1 DUP2 DUP5 ADD SWAP1 PUSH32 0x1B45AE2CF143545DB9A131F50578847CB5BE75D367DA42F7D813DF838355FF17 DUP3 MSTORE PUSH32 0x2CF831BFF6C50DCF5B3BF4668C774AE002817B5EB91FF7659C6291745FDABDEA PUSH1 0x60 DUP7 ADD MSTORE PUSH1 0x80 DUP6 ADD MSTORE PUSH1 0x60 DUP2 PUSH1 0x7 PUSH2 0x1770 STATICCALL RETURNDATASIZE ISZERO ISZERO AND SWAP2 DUP3 ISZERO PUSH2 0x14DD JUMPI PUSH1 0x40 SWAP2 SWAP3 POP PUSH1 0x80 DUP2 PUSH1 0x6 PUSH1 0x96 STATICCALL RETURNDATASIZE ISZERO ISZERO AND SWAP1 JUMP JUMPDEST SWAP1 SWAP2 SWAP3 PUSH1 0x0 SWAP1 PUSH32 0x1660CB6F46896E4A26C4E10C0E1CD83A36D4524A18883008AB4820CE4035E763 DUP7 MSTORE PUSH32 0xE23819DBE544E4EEF2BA90BAF05052E01346100615D2F1EB4389D0FA8467AE2 PUSH1 0x20 DUP8 ADD MSTORE PUSH2 0x20A1 DUP2 MLOAD DUP8 PUSH2 0x145E JUMP JUMPDEST ISZERO PUSH2 0x2517 JUMPI PUSH2 0x20B4 PUSH1 0x20 DUP3 ADD MLOAD DUP8 PUSH2 0x14E0 JUMP JUMPDEST ISZERO PUSH2 0x2517 JUMPI PUSH2 0x20C7 PUSH1 0x40 DUP3 ADD MLOAD DUP8 PUSH2 0x155F JUMP JUMPDEST ISZERO PUSH2 0x2517 JUMPI PUSH2 0x20DA PUSH1 0x60 DUP3 ADD MLOAD DUP8 PUSH2 0x15DE JUMP JUMPDEST ISZERO PUSH2 0x2517 JUMPI PUSH2 0x20ED PUSH1 0x80 DUP3 ADD MLOAD DUP8 PUSH2 0x165D JUMP JUMPDEST ISZERO PUSH2 0x2517 JUMPI PUSH2 0x2100 PUSH1 0xA0 DUP3 ADD MLOAD DUP8 PUSH2 0x16DC JUMP JUMPDEST ISZERO PUSH2 0x2517 JUMPI PUSH2 0x2113 PUSH1 0xC0 DUP3 ADD MLOAD DUP8 PUSH2 0x175B JUMP JUMPDEST ISZERO PUSH2 0x2517 JUMPI PUSH2 0x2126 PUSH1 0xE0 DUP3 ADD MLOAD DUP8 PUSH2 0x17DA JUMP JUMPDEST ISZERO PUSH2 0x2517 JUMPI PUSH2 0x213A PUSH2 0x100 DUP3 ADD MLOAD DUP8 PUSH2 0x1859 JUMP JUMPDEST ISZERO PUSH2 0x2517 JUMPI PUSH2 0x214E PUSH2 0x120 DUP3 ADD MLOAD DUP8 PUSH2 0x18D8 JUMP JUMPDEST ISZERO PUSH2 0x2517 JUMPI PUSH2 0x2162 PUSH2 0x140 DUP3 ADD MLOAD DUP8 PUSH2 0x1956 JUMP JUMPDEST ISZERO PUSH2 0x2517 JUMPI PUSH2 0x2176 PUSH2 0x160 DUP3 ADD MLOAD DUP8 PUSH2 0x19D5 JUMP JUMPDEST ISZERO PUSH2 0x2517 JUMPI PUSH2 0x218A PUSH2 0x180 DUP3 ADD MLOAD DUP8 PUSH2 0x1A54 JUMP JUMPDEST ISZERO PUSH2 0x2517 JUMPI PUSH2 0x219E PUSH2 0x1A0 DUP3 ADD MLOAD DUP8 PUSH2 0x1AD3 JUMP JUMPDEST ISZERO PUSH2 0x2517 JUMPI PUSH2 0x21B2 PUSH2 0x1C0 DUP3 ADD MLOAD DUP8 PUSH2 0x1B52 JUMP JUMPDEST ISZERO PUSH2 0x2517 JUMPI PUSH2 0x21C6 PUSH2 0x1E0 DUP3 ADD MLOAD DUP8 PUSH2 0x1BD1 JUMP JUMPDEST ISZERO PUSH2 0x2517 JUMPI PUSH2 0x21DA PUSH2 0x200 DUP3 ADD MLOAD DUP8 PUSH2 0x1C50 JUMP JUMPDEST ISZERO PUSH2 0x2517 JUMPI PUSH2 0x21EE PUSH2 0x220 DUP3 ADD MLOAD DUP8 PUSH2 0x1CCF JUMP JUMPDEST ISZERO PUSH2 0x2517 JUMPI PUSH2 0x2202 PUSH2 0x240 DUP3 ADD MLOAD DUP8 PUSH2 0x1D4E JUMP JUMPDEST ISZERO PUSH2 0x2517 JUMPI PUSH2 0x2216 PUSH2 0x260 DUP3 ADD MLOAD DUP8 PUSH2 0x1DCD JUMP JUMPDEST ISZERO PUSH2 0x2517 JUMPI PUSH2 0x222A PUSH2 0x280 DUP3 ADD MLOAD DUP8 PUSH2 0x1E4C JUMP JUMPDEST ISZERO PUSH2 0x2517 JUMPI PUSH2 0x223E PUSH2 0x2A0 DUP3 ADD MLOAD DUP8 PUSH2 0x1ECB JUMP JUMPDEST ISZERO PUSH2 0x2517 JUMPI PUSH2 0x2252 PUSH2 0x2C0 DUP3 ADD MLOAD DUP8 PUSH2 0x1F4A JUMP JUMPDEST ISZERO PUSH2 0x2517 JUMPI PUSH2 0x2E0 PUSH2 0x2266 SWAP2 ADD MLOAD DUP7 PUSH2 0x1FC8 JUMP JUMPDEST ISZERO PUSH2 0x250F JUMPI POP PUSH1 0x20 DUP1 SWAP4 SWAP3 PUSH32 0x30644E72E131A029B85045B68181585D97816A916871CA8D3C208C16D87CFD47 DUP3 DUP1 SWAP5 PUSH32 0x198E9393920D483A7260BFB731FB5D25F1AA493335A9E71297E485B7AEF312C2 PUSH1 0x40 DUP11 ADD MSTORE PUSH32 0x1800DEEF121F1E76426A00665E5C4479674322D4F75EDADD46DEBD5CD992F6ED PUSH1 0x60 DUP11 ADD MSTORE PUSH32 0x90689D0585FF075EC9E99AD690C3395BC4B313370B38EF355ACDADCD122975B PUSH1 0x80 DUP11 ADD MSTORE PUSH32 0x12C85EA5DB8C6DEB4AAB71808DCB408FE3D1E7690C43D37B4CE6CC0166FA7DAA PUSH1 0xA0 DUP11 ADD MSTORE DUP1 MLOAD PUSH1 0xC0 DUP11 ADD MSTORE ADD MLOAD DUP2 SUB MOD PUSH1 0xE0 DUP8 ADD MSTORE DUP1 MLOAD MLOAD PUSH2 0x100 DUP8 ADD MSTORE DUP2 DUP2 MLOAD ADD MLOAD PUSH2 0x120 DUP8 ADD MSTORE ADD DUP1 MLOAD MLOAD PUSH2 0x140 DUP7 ADD MSTORE MLOAD ADD MLOAD PUSH2 0x160 DUP5 ADD MSTORE PUSH32 0x2D4D9AA7E302D9DF41749D5507949D05DBEA33FBB16C643B22F599A2BE6DF2E2 PUSH2 0x180 DUP5 ADD MSTORE PUSH32 0x14BEDD503C37CEB061D8EC60209FE345CE89830A19230301F076CAFF004D1926 PUSH2 0x1A0 DUP5 ADD MSTORE PUSH32 0x967032FCBF776D1AFC985F88877F182D38480A653F2DECAA9794CBC3BF3060C PUSH2 0x1C0 DUP5 ADD MSTORE PUSH32 0xE187847AD4C798374D0D6732BF501847DD68BC0E071241E0213BC7FC13DB7AB PUSH2 0x1E0 DUP5 ADD MSTORE PUSH32 0x304CFBD1E08A704A99F5E847D93F8C3CAAFDDEC46B7A0D379DA69A4D112346A7 PUSH2 0x200 DUP5 ADD MSTORE PUSH32 0x1739C1B1A457A8C7313123D24D2F9192F896B7C63EEA05A9D57F06547AD0CEC8 PUSH2 0x220 DUP5 ADD MSTORE DUP1 MLOAD PUSH2 0x240 DUP5 ADD MSTORE ADD MLOAD PUSH2 0x260 DUP3 ADD MSTORE PUSH32 0x198E9393920D483A7260BFB731FB5D25F1AA493335A9E71297E485B7AEF312C2 PUSH2 0x280 DUP3 ADD MSTORE PUSH32 0x1800DEEF121F1E76426A00665E5C4479674322D4F75EDADD46DEBD5CD992F6ED PUSH2 0x2A0 DUP3 ADD MSTORE PUSH32 0x90689D0585FF075EC9E99AD690C3395BC4B313370B38EF355ACDADCD122975B PUSH2 0x2C0 DUP3 ADD MSTORE PUSH32 0x12C85EA5DB8C6DEB4AAB71808DCB408FE3D1E7690C43D37B4CE6CC0166FA7DAA PUSH2 0x2E0 DUP3 ADD MSTORE PUSH1 0x20 DUP2 PUSH2 0x300 DUP2 PUSH1 0x8 PUSH3 0x2C308 STATICCALL SWAP1 MLOAD AND SWAP1 JUMP JUMPDEST SWAP5 SWAP4 POP POP POP POP JUMP JUMPDEST POP SWAP5 SWAP4 POP POP POP POP JUMP JUMPDEST SWAP4 SWAP3 SWAP1 SWAP2 PUSH1 0x40 MLOAD SWAP3 PUSH2 0x300 DUP5 ADD PUSH1 0x40 MSTORE PUSH1 0x1 PUSH2 0x253C DUP5 MLOAD PUSH2 0x1439 JUMP JUMPDEST PUSH2 0x2549 PUSH1 0x20 DUP7 ADD MLOAD PUSH2 0x1439 JUMP JUMPDEST AND PUSH2 0x2557 PUSH1 0x40 DUP7 ADD MLOAD PUSH2 0x1439 JUMP JUMPDEST AND PUSH2 0x2565 PUSH1 0x60 DUP7 ADD MLOAD PUSH2 0x1439 JUMP JUMPDEST AND AND PUSH2 0x2574 PUSH1 0x80 DUP6 ADD MLOAD PUSH2 0x1439 JUMP JUMPDEST AND PUSH2 0x2582 PUSH1 0xA0 DUP6 ADD MLOAD PUSH2 0x1439 JUMP JUMPDEST AND PUSH2 0x2590 PUSH1 0xC0 DUP6 ADD MLOAD PUSH2 0x1439 JUMP JUMPDEST AND PUSH2 0x259E PUSH1 0xE0 DUP6 ADD MLOAD PUSH2 0x1439 JUMP JUMPDEST AND PUSH2 0x25AD PUSH2 0x100 DUP6 ADD MLOAD PUSH2 0x1439 JUMP JUMPDEST AND PUSH2 0x25BC PUSH2 0x120 DUP6 ADD MLOAD PUSH2 0x1439 JUMP JUMPDEST AND PUSH2 0x25CB PUSH2 0x140 DUP6 ADD MLOAD PUSH2 0x1439 JUMP JUMPDEST AND PUSH2 0x25DA PUSH2 0x160 DUP6 ADD MLOAD PUSH2 0x1439 JUMP JUMPDEST AND PUSH2 0x25E9 PUSH2 0x180 DUP6 ADD MLOAD PUSH2 0x1439 JUMP JUMPDEST AND PUSH2 0x25F8 PUSH2 0x1A0 DUP6 ADD MLOAD PUSH2 0x1439 JUMP JUMPDEST AND PUSH2 0x2607 PUSH2 0x1C0 DUP6 ADD MLOAD PUSH2 0x1439 JUMP JUMPDEST AND PUSH2 0x2616 PUSH2 0x1E0 DUP6 ADD MLOAD PUSH2 0x1439 JUMP JUMPDEST AND PUSH2 0x2625 PUSH2 0x200 DUP6 ADD MLOAD PUSH2 0x1439 JUMP JUMPDEST AND PUSH2 0x2634 PUSH2 0x220 DUP6 ADD MLOAD PUSH2 0x1439 JUMP JUMPDEST AND PUSH2 0x2643 PUSH2 0x240 DUP6 ADD MLOAD PUSH2 0x1439 JUMP JUMPDEST AND PUSH2 0x2652 PUSH2 0x260 DUP6 ADD MLOAD PUSH2 0x1439 JUMP JUMPDEST AND PUSH2 0x2661 PUSH2 0x280 DUP6 ADD MLOAD PUSH2 0x1439 JUMP JUMPDEST AND PUSH2 0x2670 PUSH2 0x2A0 DUP6 ADD MLOAD PUSH2 0x1439 JUMP JUMPDEST AND PUSH2 0x267F PUSH2 0x2C0 DUP6 ADD MLOAD PUSH2 0x1439 JUMP JUMPDEST AND PUSH2 0x268E PUSH2 0x2E0 DUP6 ADD MLOAD PUSH2 0x1439 JUMP JUMPDEST AND SWAP6 DUP7 ISZERO NOT PUSH2 0x269F JUMPI JUMPDEST POP POP POP POP POP JUMP JUMPDEST PUSH2 0x26AA SWAP6 SWAP7 POP PUSH2 0x2047 JUMP JUMPDEST SWAP1 CODESIZE DUP1 DUP1 DUP1 DUP1 PUSH2 0x2698 JUMP INVALID LOG2 PUSH5 0x6970667358 0x22 SLT KECCAK256 SWAP8 ADDMOD SWAP1 0xB8 BLOCKHASH TSTORE 0xB1 CALLVALUE 0xAC PC PUSH26 0xEE8E75313DFD3E11A7594D899454200356088F049564736F6C63 NUMBER STOP ADDMOD SHL STOP CALLER "},"methodIdentifiers":{"ALPHA_X()":"d1fb02a3","ALPHA_Y()":"6a5935a7","BASE_FIELD_SIZE()":"839a60d0","BETA_X1()":"dc05a822","BETA_X2()":"7fdf8fc1","BETA_Y1()":"dd924b47","BETA_Y2()":"1c4d4406","DELTA_X1()":"d70a63cc","DELTA_X2()":"f7a65aae","DELTA_Y1()":"b936325c","DELTA_Y2()":"cc9c92ae","GAMMA_X1()":"901660c4","GAMMA_X2()":"dfcf46f0","GAMMA_Y1()":"3a9e6a4d","GAMMA_Y2()":"acb41936","IC0_X()":"6336ec6c","IC0_Y()":"742797c4","IC10_X()":"11fbfe66","IC10_Y()":"e848dd6f","IC11_X()":"39637503","IC11_Y()":"73354b60","IC12_X()":"a127ed86","IC12_Y()":"ba688175","IC13_X()":"36b397dc","IC13_Y()":"1077f544","IC14_X()":"d8c710e0","IC14_Y()":"e834dbdd","IC15_X()":"4b750a92","IC15_Y()":"30c1731c","IC16_X()":"e11e8ee2","IC16_Y()":"32148d47","IC17_X()":"286f014b","IC17_Y()":"2d527448","IC18_X()":"45ce05a8","IC18_Y()":"d0fdd6af","IC19_X()":"59b396b5","IC19_Y()":"6076d7ed","IC1_X()":"d663b365","IC1_Y()":"a1978c3c","IC20_X()":"02020654","IC20_Y()":"5bf9f093","IC21_X()":"d7aa472a","IC21_Y()":"4e528e9f","IC22_X()":"0c99ab7c","IC22_Y()":"924f0a15","IC23_X()":"0de199a5","IC23_Y()":"08cceecf","IC24_X()":"eb38888b","IC24_Y()":"eeb9f2e4","IC2_X()":"dce42004","IC2_Y()":"0cbb35c3","IC3_X()":"4234a1d6","IC3_Y()":"50def905","IC4_X()":"eedee58f","IC4_Y()":"4e890b27","IC5_X()":"898611fd","IC5_Y()":"24934a11","IC6_X()":"aed43349","IC6_Y()":"bf48189e","IC7_X()":"31aa5e26","IC7_Y()":"2c0556ed","IC8_X()":"41fe6a9a","IC8_Y()":"2dacca56","IC9_X()":"dacb4e69","IC9_Y()":"28e44695","P_TOTAL_SIZE()":"a6aca976","SCALAR_FIELD_SIZE()":"0ddec475","verifyProof(uint256[2],uint256[2][2],uint256[2],uint256[24])":"4d01c5a0"}}}}}