{"contracts/verifiers/BurnCircuitGroth16Verifier.sol":{"BurnCircuitGroth16Verifier":{"abi":[{"inputs":[],"name":"ALPHA_X","outputs":[{"internalType":"uint256","name":"","type":"uint256"}],"stateMutability":"view","type":"function"},{"inputs":[],"name":"ALPHA_Y","outputs":[{"internalType":"uint256","name":"","type":"uint256"}],"stateMutability":"view","type":"function"},{"inputs":[],"name":"BASE_FIELD_SIZE","outputs":[{"internalType":"uint256","name":"","type":"uint256"}],"stateMutability":"view","type":"function"},{"inputs":[],"name":"BETA_X1","outputs":[{"internalType":"uint256","name":"","type":"uint256"}],"stateMutability":"view","type":"function"},{"inputs":[],"name":"BETA_X2","outputs":[{"internalType":"uint256","name":"","type":"uint256"}],"stateMutability":"view","type":"function"},{"inputs":[],"name":"BETA_Y1","outputs":[{"internalType":"uint256","name":"","type":"uint256"}],"stateMutability":"view","type":"function"},{"inputs":[],"name":"BETA_Y2","outputs":[{"internalType":"uint256","name":"","type":"uint256"}],"stateMutability":"view","type":"function"},{"inputs":[],"name":"DELTA_X1","outputs":[{"internalType":"uint256","name":"","type":"uint256"}],"stateMutability":"view","type":"function"},{"inputs":[],"name":"DELTA_X2","outputs":[{"internalType":"uint256","name":"","type":"uint256"}],"stateMutability":"view","type":"function"},{"inputs":[],"name":"DELTA_Y1","outputs":[{"internalType":"uint256","name":"","type":"uint256"}],"stateMutability":"view","type":"function"},{"inputs":[],"name":"DELTA_Y2","outputs":[{"internalType":"uint256","name":"","type":"uint256"}],"stateMutability":"view","type":"function"},{"inputs":[],"name":"GAMMA_X1","outputs":[{"internalType":"uint256","name":"","type":"uint256"}],"stateMutability":"view","type":"function"},{"inputs":[],"name":"GAMMA_X2","outputs":[{"internalType":"uint256","name":"","type":"uint256"}],"stateMutability":"view","type":"function"},{"inputs":[],"name":"GAMMA_Y1","outputs":[{"internalType":"uint256","name":"","type":"uint256"}],"stateMutability":"view","type":"function"},{"inputs":[],"name":"GAMMA_Y2","outputs":[{"internalType":"uint256","name":"","type":"uint256"}],"stateMutability":"view","type":"function"},{"inputs":[],"name":"IC0_X","outputs":[{"internalType":"uint256","name":"","type":"uint256"}],"stateMutability":"view","type":"function"},{"inputs":[],"name":"IC0_Y","outputs":[{"internalType":"uint256","name":"","type":"uint256"}],"stateMutability":"view","type":"function"},{"inputs":[],"name":"IC10_X","outputs":[{"internalType":"uint256","name":"","type":"uint256"}],"stateMutability":"view","type":"function"},{"inputs":[],"name":"IC10_Y","outputs":[{"internalType":"uint256","name":"","type":"uint256"}],"stateMutability":"view","type":"function"},{"inputs":[],"name":"IC11_X","outputs":[{"internalType":"uint256","name":"","type":"uint256"}],"stateMutability":"view","type":"function"},{"inputs":[],"name":"IC11_Y","outputs":[{"internalType":"uint256","name":"","type":"uint256"}],"stateMutability":"view","type":"function"},{"inputs":[],"name":"IC12_X","outputs":[{"internalType":"uint256","name":"","type":"uint256"}],"stateMutability":"view","type":"function"},{"inputs":[],"name":"IC12_Y","outputs":[{"internalType":"uint256","name":"","type":"uint256"}],"stateMutability":"view","type":"function"},{"inputs":[],"name":"IC13_X","outputs":[{"internalType":"uint256","name":"","type":"uint256"}],"stateMutability":"view","type":"function"},{"inputs":[],"name":"IC13_Y","outputs":[{"internalType":"uint256","name":"","type":"uint256"}],"stateMutability":"view","type":"function"},{"inputs":[],"name":"IC14_X","outputs":[{"internalType":"uint256","name":"","type":"uint256"}],"stateMutability":"view","type":"function"},{"inputs":[],"name":"IC14_Y","outputs":[{"internalType":"uint256","name":"","type":"uint256"}],"stateMutability":"view","type":"function"},{"inputs":[],"name":"IC15_X","outputs":[{"internalType":"uint256","name":"","type":"uint256"}],"stateMutability":"view","type":"function"},{"inputs":[],"name":"IC15_Y","outputs":[{"internalType":"uint256","name":"","type":"uint256"}],"stateMutability":"view","type":"function"},{"inputs":[],"name":"IC16_X","outputs":[{"internalType":"uint256","name":"","type":"uint256"}],"stateMutability":"view","type":"function"},{"inputs":[],"name":"IC16_Y","outputs":[{"internalType":"uint256","name":"","type":"uint256"}],"stateMutability":"view","type":"function"},{"inputs":[],"name":"IC17_X","outputs":[{"internalType":"uint256","name":"","type":"uint256"}],"stateMutability":"view","type":"function"},{"inputs":[],"name":"IC17_Y","outputs":[{"internalType":"uint256","name":"","type":"uint256"}],"stateMutability":"view","type":"function"},{"inputs":[],"name":"IC18_X","outputs":[{"internalType":"uint256","name":"","type":"uint256"}],"stateMutability":"view","type":"function"},{"inputs":[],"name":"IC18_Y","outputs":[{"internalType":"uint256","name":"","type":"uint256"}],"stateMutability":"view","type":"function"},{"inputs":[],"name":"IC19_X","outputs":[{"internalType":"uint256","name":"","type":"uint256"}],"stateMutability":"view","type":"function"},{"inputs":[],"name":"IC19_Y","outputs":[{"internalType":"uint256","name":"","type":"uint256"}],"stateMutability":"view","type":"function"},{"inputs":[],"name":"IC1_X","outputs":[{"internalType":"uint256","name":"","type":"uint256"}],"stateMutability":"view","type":"function"},{"inputs":[],"name":"IC1_Y","outputs":[{"internalType":"uint256","name":"","type":"uint256"}],"stateMutability":"view","type":"function"},{"inputs":[],"name":"IC2_X","outputs":[{"internalType":"uint256","name":"","type":"uint256"}],"stateMutability":"view","type":"function"},{"inputs":[],"name":"IC2_Y","outputs":[{"internalType":"uint256","name":"","type":"uint256"}],"stateMutability":"view","type":"function"},{"inputs":[],"name":"IC3_X","outputs":[{"internalType":"uint256","name":"","type":"uint256"}],"stateMutability":"view","type":"function"},{"inputs":[],"name":"IC3_Y","outputs":[{"internalType":"uint256","name":"","type":"uint256"}],"stateMutability":"view","type":"function"},{"inputs":[],"name":"IC4_X","outputs":[{"internalType":"uint256","name":"","type":"uint256"}],"stateMutability":"view","type":"function"},{"inputs":[],"name":"IC4_Y","outputs":[{"internalType":"uint256","name":"","type":"uint256"}],"stateMutability":"view","type":"function"},{"inputs":[],"name":"IC5_X","outputs":[{"internalType":"uint256","name":"","type":"uint256"}],"stateMutability":"view","type":"function"},{"inputs":[],"name":"IC5_Y","outputs":[{"internalType":"uint256","name":"","type":"uint256"}],"stateMutability":"view","type":"function"},{"inputs":[],"name":"IC6_X","outputs":[{"internalType":"uint256","name":"","type":"uint256"}],"stateMutability":"view","type":"function"},{"inputs":[],"name":"IC6_Y","outputs":[{"internalType":"uint256","name":"","type":"uint256"}],"stateMutability":"view","type":"function"},{"inputs":[],"name":"IC7_X","outputs":[{"internalType":"uint256","name":"","type":"uint256"}],"stateMutability":"view","type":"function"},{"inputs":[],"name":"IC7_Y","outputs":[{"internalType":"uint256","name":"","type":"uint256"}],"stateMutability":"view","type":"function"},{"inputs":[],"name":"IC8_X","outputs":[{"internalType":"uint256","name":"","type":"uint256"}],"stateMutability":"view","type":"function"},{"inputs":[],"name":"IC8_Y","outputs":[{"internalType":"uint256","name":"","type":"uint256"}],"stateMutability":"view","type":"function"},{"inputs":[],"name":"IC9_X","outputs":[{"internalType":"uint256","name":"","type":"uint256"}],"stateMutability":"view","type":"function"},{"inputs":[],"name":"IC9_Y","outputs":[{"internalType":"uint256","name":"","type":"uint256"}],"stateMutability":"view","type":"function"},{"inputs":[],"name":"P_TOTAL_SIZE","outputs":[{"internalType":"uint256","name":"","type":"uint256"}],"stateMutability":"view","type":"function"},{"inputs":[],"name":"SCALAR_FIELD_SIZE","outputs":[{"internalType":"uint256","name":"","type":"uint256"}],"stateMutability":"view","type":"function"},{"inputs":[{"internalType":"uint256[2]","name":"pointA_","type":"uint256[2]"},{"internalType":"uint256[2][2]","name":"pointB_","type":"uint256[2][2]"},{"internalType":"uint256[2]","name":"pointC_","type":"uint256[2]"},{"internalType":"uint256[19]","name":"publicSignals_","type":"uint256[19]"}],"name":"verifyProof","outputs":[{"internalType":"bool","name":"verified_","type":"bool"}],"stateMutability":"view","type":"function"}],"evm":{"bytecode":{"linkReferences":{},"object":"608080604052346015576120d7908161001b8239f35b600080fdfe6080604052600436101561001257600080fd5b60003560e01c80630cbb35c3146103a35780630ddec4751461039e5780631077f5441461039957806311fbfe66146103945780631c4d44061461038f57806324934a111461038a578063286f014b1461038557806328e44695146103805780632c0556ed1461037b5780632d527448146103765780632dacca561461037157806330c1731c1461036c57806331aa5e261461036757806332148d471461036257806336b397dc1461035d57806339637503146103585780633a9e6a4d146102f457806341fe6a9a146103535780634234a1d61461034e57806345ce05a8146103495780634b750a92146103445780634e890b271461033f57806350def9051461033a57806359b396b5146103355780636076d7ed146103305780636336ec6c1461032b5780636a5935a71461032657806373354b6014610321578063742797c41461031c5780637fdf8fc114610317578063839a60d014610312578063898611fd1461030d578063901660c4146102d1578063a127ed8614610308578063a1978c3c14610303578063a6aca976146102fe578063acb41936146102e5578063aed43349146102f9578063b936325c146102f4578063ba688175146102ef578063bf48189e146102ea578063cc9c92ae146102e5578063d0fdd6af146102e0578063d1fb02a3146102db578063d663b365146102d6578063d70a63cc146102d1578063d8c710e0146102cc578063dacb4e69146102c7578063dc05a822146102c2578063dce42004146102bd578063dd924b47146102b8578063dfcf46f01461029a578063e11e8ee2146102b3578063e834dbdd146102ae578063e848dd6f146102a9578063eedee58f146102a4578063f3f22e721461029f5763f7a65aae1461029a57600080fd5b610e9a565b6110b8565b610f86565b610f4b565b610f10565b610ed5565b610e5f565b610e24565b610de9565b610dae565b610d73565b610b08565b610d38565b610cfd565b610cc2565b610bd6565b610c87565b610c4c565b610758565b610c11565b610bb9565b610b7e565b610b43565b610acd565b610a92565b610a57565b610a1c565b6109e1565b6109a6565b61096b565b610930565b6108f5565b6108ba565b61087f565b610844565b610809565b6107ce565b610793565b61071d565b6106e2565b6106a7565b61066c565b610631565b6105f6565b6105bb565b610580565b610545565b61050a565b6104cf565b610494565b610459565b61041e565b6103e3565b346103de5760003660031901126103de5760206040517f1a6f31985823e8e281e8a1b7bc47604aa2b23fbe9c4c19fe2928907dcb60aed18152f35b600080fd5b346103de5760003660031901126103de5760206040517f30644e72e131a029b85045b68181585d2833e84879b9709143e1f593f00000018152f35b346103de5760003660031901126103de5760206040517f0f381af4e8dca656dc4ab15192a48144b5ecaf35dfe0aa1b28b5fec89d16677a8152f35b346103de5760003660031901126103de5760206040517f1722c20a350b2b01fc016833d50fbec27d0d6def6a46a6be65e23de2178d69e08152f35b346103de5760003660031901126103de5760206040517f1739c1b1a457a8c7313123d24d2f9192f896b7c63eea05a9d57f06547ad0cec88152f35b346103de5760003660031901126103de5760206040517f2f425e310751a0560cbd9d75e24903a3005256ce1adc4bf7abf3ee3bfd572f6b8152f35b346103de5760003660031901126103de5760206040517f101cc19783d55570b972975aaab245ab05482c4d09cce7725f6ee219a6d016a48152f35b346103de5760003660031901126103de5760206040517f1cd74c3562ec6b1353e29235142fecf0bfdedb0d9bf2e03c0ee6efd9862b7a578152f35b346103de5760003660031901126103de5760206040517f0e7e2398ddfc9f394d0dcd593a43a78277870b42ded7f16db7ec267d226034958152f35b346103de5760003660031901126103de5760206040517f2ed92781bc0dff7f19dcc7e1ab2f70504ec5a0cfd5da318b2f1b84b998e8aef88152f35b346103de5760003660031901126103de5760206040517f2094fbb34cb4aea2d1f952e5449b0475795f29aa650928a7d6a90cca04b5ce258152f35b346103de5760003660031901126103de5760206040517f2172ea49c516c3370da43abfd50c0693955ea12353021d63cdf9fcc12f29d8c18152f35b346103de5760003660031901126103de5760206040517f16c2a38109ae61abc4542c335f9af05b2ac40d2c84ac8162f01ac469754b88938152f35b346103de5760003660031901126103de5760206040517f2736a1a5dc6805d17813812cf5cbbc969bf589abc3b1c37dfa38ffc5f5dd44728152f35b346103de5760003660031901126103de5760206040517f2bbfb0d23f2df476a41623db79f40ea22a838f94358c91ac813899cbfc73df058152f35b346103de5760003660031901126103de5760206040517f01a62145e119040115d1c69dff7ebb122d28fae54d5e732a9192ecaaa0ecd6af8152f35b346103de5760003660031901126103de5760206040517f090689d0585ff075ec9e99ad690c3395bc4b313370b38ef355acdadcd122975b8152f35b346103de5760003660031901126103de5760206040517f09cd22924dc4053c5838f4f1a32528c2fae8157bf9e338b1c34f90a9ac2fea408152f35b346103de5760003660031901126103de5760206040517f15bdf85bc11a6f64356c5f7fd68eee8ef9c79a8ca121fc22105ac0309fa4230c8152f35b346103de5760003660031901126103de5760206040517f29b84884b36312f1195719ee5bf01064eb7a5c32b84c7c33b4f60f5bd926e2df8152f35b346103de5760003660031901126103de5760206040517f15de6e95a9e6c3671b71dff3078d2db3c6a4eced673f7ee90bdbd5877d9022618152f35b346103de5760003660031901126103de5760206040517f25fe86c1b27fe9726b396f9ada601521ae1c8ba893c2a27231f6471288dc4e988152f35b346103de5760003660031901126103de5760206040517f0d3ba8d188e44cc4c01d1e3e2bbcdc667d0f83aa13a7cf62434d945569d7d71b8152f35b346103de5760003660031901126103de5760206040517f0578a6b18ce5cb28d296ff4b3ca749c655679ef0e674603e15e241669d1e24758152f35b346103de5760003660031901126103de5760206040517f1a15f97cd3a15d3c89c1fb870cb24fc6ca6cd6202871ab3ad2448482407b09b78152f35b346103de5760003660031901126103de5760206040517f0f41ed44cc532f837df89e45f9d11b986b429e395dfea658900c66c9b5ba76698152f35b346103de5760003660031901126103de5760206040517f14bedd503c37ceb061d8ec60209fe345ce89830a19230301f076caff004d19268152f35b346103de5760003660031901126103de5760206040517f18f1f301bbd51b2138107439115e22b3cb8f5606f5885a1b85f583b5be69a56d8152f35b346103de5760003660031901126103de5760206040517f2576002d08abb868a9a4355dd9598b87f246f91cae80e0beac3e1c3a49b5eb6f8152f35b346103de5760003660031901126103de5760206040517f0e187847ad4c798374d0d6732bf501847dd68bc0e071241e0213bc7fc13db7ab8152f35b346103de5760003660031901126103de5760206040517f30644e72e131a029b85045b68181585d97816a916871ca8d3c208c16d87cfd478152f35b346103de5760003660031901126103de5760206040517f26c1713bfd28a58d03b54226ac559770c4d2596da2489e5ee513e83748a6d00e8152f35b346103de5760003660031901126103de5760206040517f198e9393920d483a7260bfb731fb5d25f1aa493335a9e71297e485b7aef312c28152f35b346103de5760003660031901126103de5760206040517f27a3c7c1fcab288dbed6e5e2203c764a2493d24fc9677d3a95f5085f6b8896648152f35b346103de5760003660031901126103de5760206040517f0ee669a9caad1ff91dcc4a42e26a430ac4f16d122e7f087114e3e3dc1fb6ad2c8152f35b346103de5760003660031901126103de5760206040516103008152f35b346103de5760003660031901126103de5760206040517f12c85ea5db8c6deb4aab71808dcb408fe3d1e7690c43d37b4ce6cc0166fa7daa8152f35b346103de5760003660031901126103de5760206040517f04945e260baa10be164297853f665ff40f6ceb9970007f3d91499ba268c2477d8152f35b346103de5760003660031901126103de5760206040517f2b8ae68e29d7fc58f608c37caab2877326061e4746dfedd3f1a720683d706cdb8152f35b346103de5760003660031901126103de5760206040517f0302417b0cd0e3360cdadd133ba973f0526806e6e9dfccaefadfcff62e67bd7f8152f35b346103de5760003660031901126103de5760206040517f2fbe747655d747d81576ee1853d32399c80b3efeb1adc8e6ade15af6c889d69c8152f35b346103de5760003660031901126103de5760206040517f2d4d9aa7e302d9df41749d5507949d05dbea33fbb16c643b22f599a2be6df2e28152f35b346103de5760003660031901126103de5760206040517f2797a3325b1939e4b2189dadf30a5ccdd73849197f025745e1ed6d4c8d19d8bf8152f35b346103de5760003660031901126103de5760206040517f0d4d12b3392b53fb9e5506111fb12264e0bd8b8d3a850294464bb5dae0cec3b38152f35b346103de5760003660031901126103de5760206040517f206aec841b991e8d3be7f077c4a141727236727e4cba0db16c994c83b2fb805b8152f35b346103de5760003660031901126103de5760206040517f0967032fcbf776d1afc985f88877f182d38480a653f2decaa9794cbc3bf3060c8152f35b346103de5760003660031901126103de5760206040517f01b1b7abb17466abdd146b31737d077a3d3225a46a3d5f99500fb03550ff3f7e8152f35b346103de5760003660031901126103de5760206040517f304cfbd1e08a704a99f5e847d93f8c3caafddec46b7a0d379da69a4d112346a78152f35b346103de5760003660031901126103de5760206040517f1800deef121f1e76426a00665e5c4479674322d4f75edadd46debd5cd992f6ed8152f35b346103de5760003660031901126103de5760206040517f14de701db9a371d99c794203f8f6c8da451f72c65b0d8ad4823cd4ffd7ffbf248152f35b346103de5760003660031901126103de5760206040517f2ee154cf49e1417ef0990a8b687dd18927d1284c0e7bc9c1fea7ff466a3ff5568152f35b346103de5760003660031901126103de5760206040517f26166593d1566790abf19370ced679ac966ee160e858d992b542de181670737b8152f35b346103de5760003660031901126103de5760206040517f20c7ead8285a73bbc68e3c6e7dae7461a012316d3da0bdbfd11da6fefb03446f8152f35b6040519190601f01601f1916820167ffffffffffffffff811183821017610fe757604052565b634e487b7160e01b600052604160045260246000fd5b91906110096040610fc1565b928390604081019283116103de57905b82821061102557505050565b8135815260209182019101611019565b80602312156103de57611049906004610ffd565b90565b8060e312156103de576110499060c4610ffd565b9080601f830112156103de5761104991610ffd565b8061012312156103de5761108a610260610fc1565b908190610364116103de57610104905b61036482106110a857505090565b813581526020918201910161109a565b346103de576103603660031901126103de576110d336611035565b36606312156103de576040906110e882610fc1565b803660c4116103de576044905b60c48210611134576111308561111f868661110f3661104c565b9061111936611075565b92611f57565b905190151581529081906020820190565b0390f35b602085916111423685611060565b8152019101906110f5565b7f30644e72e131a029b85045b68181585d2833e84879b9709143e1f593f00000011190565b9190604090818401907f2797a3325b1939e4b2189dadf30a5ccdd73849197f025745e1ed6d4c8d19d8bf82527f0ee669a9caad1ff91dcc4a42e26a430ac4f16d122e7f087114e3e3dc1fb6ad2c606086015260808501526060816007611770fa3d1515169182156111f157604091925060808160066096fa3d15151690565b50565b9190604090818401907f01b1b7abb17466abdd146b31737d077a3d3225a46a3d5f99500fb03550ff3f7e82527f1a6f31985823e8e281e8a1b7bc47604aa2b23fbe9c4c19fe2928907dcb60aed1606086015260808501526060816007611770fa3d1515169182156111f157604091925060808160066096fa3d15151690565b9190604090818401907f15bdf85bc11a6f64356c5f7fd68eee8ef9c79a8ca121fc22105ac0309fa4230c82527f0d3ba8d188e44cc4c01d1e3e2bbcdc667d0f83aa13a7cf62434d945569d7d71b606086015260808501526060816007611770fa3d1515169182156111f157604091925060808160066096fa3d15151690565b9190604090818401907f20c7ead8285a73bbc68e3c6e7dae7461a012316d3da0bdbfd11da6fefb03446f82527f25fe86c1b27fe9726b396f9ada601521ae1c8ba893c2a27231f6471288dc4e98606086015260808501526060816007611770fa3d1515169182156111f157604091925060808160066096fa3d15151690565b9190604090818401907f26c1713bfd28a58d03b54226ac559770c4d2596da2489e5ee513e83748a6d00e82527f2f425e310751a0560cbd9d75e24903a3005256ce1adc4bf7abf3ee3bfd572f6b606086015260808501526060816007611770fa3d1515169182156111f157604091925060808160066096fa3d15151690565b9190604090818401907f04945e260baa10be164297853f665ff40f6ceb9970007f3d91499ba268c2477d82527f0302417b0cd0e3360cdadd133ba973f0526806e6e9dfccaefadfcff62e67bd7f606086015260808501526060816007611770fa3d1515169182156111f157604091925060808160066096fa3d15151690565b9190604090818401907f16c2a38109ae61abc4542c335f9af05b2ac40d2c84ac8162f01ac469754b889382527f0e7e2398ddfc9f394d0dcd593a43a78277870b42ded7f16db7ec267d22603495606086015260808501526060816007611770fa3d1515169182156111f157604091925060808160066096fa3d15151690565b9190604090818401907f09cd22924dc4053c5838f4f1a32528c2fae8157bf9e338b1c34f90a9ac2fea4082527f2094fbb34cb4aea2d1f952e5449b0475795f29aa650928a7d6a90cca04b5ce25606086015260808501526060816007611770fa3d1515169182156111f157604091925060808160066096fa3d15151690565b9190604090818401907f206aec841b991e8d3be7f077c4a141727236727e4cba0db16c994c83b2fb805b82527f1cd74c3562ec6b1353e29235142fecf0bfdedb0d9bf2e03c0ee6efd9862b7a57606086015260808501526060816007611770fa3d1515169182156111f157604091925060808160066096fa3d15151690565b9190604090818401907f1722c20a350b2b01fc016833d50fbec27d0d6def6a46a6be65e23de2178d69e082527f26166593d1566790abf19370ced679ac966ee160e858d992b542de181670737b606086015260808501526060816007611770fa3d1515169182156111f157604091925060808160066096fa3d15151690565b9190604090818401907f01a62145e119040115d1c69dff7ebb122d28fae54d5e732a9192ecaaa0ecd6af82527f18f1f301bbd51b2138107439115e22b3cb8f5606f5885a1b85f583b5be69a56d606086015260808501526060816007611770fa3d1515169182156111f157604091925060808160066096fa3d15151690565b9190604090818401907f27a3c7c1fcab288dbed6e5e2203c764a2493d24fc9677d3a95f5085f6b88966482527f2b8ae68e29d7fc58f608c37caab2877326061e4746dfedd3f1a720683d706cdb606086015260808501526060816007611770fa3d1515169182156111f157604091925060808160066096fa3d15151690565b9190604090818401907f2bbfb0d23f2df476a41623db79f40ea22a838f94358c91ac813899cbfc73df0582527f0f381af4e8dca656dc4ab15192a48144b5ecaf35dfe0aa1b28b5fec89d16677a606086015260808501526060816007611770fa3d1515169182156111f157604091925060808160066096fa3d15151690565b9190604090818401907f0d4d12b3392b53fb9e5506111fb12264e0bd8b8d3a850294464bb5dae0cec3b382527f2ee154cf49e1417ef0990a8b687dd18927d1284c0e7bc9c1fea7ff466a3ff556606086015260808501526060816007611770fa3d1515169182156111f157604091925060808160066096fa3d15151690565b9190604090818401907f15de6e95a9e6c3671b71dff3078d2db3c6a4eced673f7ee90bdbd5877d90226182527f2172ea49c516c3370da43abfd50c0693955ea12353021d63cdf9fcc12f29d8c1606086015260808501526060816007611770fa3d1515169182156111f157604091925060808160066096fa3d15151690565b9190604090818401907f14de701db9a371d99c794203f8f6c8da451f72c65b0d8ad4823cd4ffd7ffbf2482527f2736a1a5dc6805d17813812cf5cbbc969bf589abc3b1c37dfa38ffc5f5dd4472606086015260808501526060816007611770fa3d1515169182156111f157604091925060808160066096fa3d15151690565b9190604090818401907f101cc19783d55570b972975aaab245ab05482c4d09cce7725f6ee219a6d016a482527f2ed92781bc0dff7f19dcc7e1ab2f70504ec5a0cfd5da318b2f1b84b998e8aef8606086015260808501526060816007611770fa3d1515169182156111f157604091925060808160066096fa3d15151690565b9190604090818401907f29b84884b36312f1195719ee5bf01064eb7a5c32b84c7c33b4f60f5bd926e2df82527f2fbe747655d747d81576ee1853d32399c80b3efeb1adc8e6ade15af6c889d69c606086015260808501526060816007611770fa3d1515169182156111f157604091925060808160066096fa3d15151690565b9190604090818401907f0578a6b18ce5cb28d296ff4b3ca749c655679ef0e674603e15e241669d1e247582527f1a15f97cd3a15d3c89c1fb870cb24fc6ca6cd6202871ab3ad2448482407b09b7606086015260808501526060816007611770fa3d1515169182156111f157604091925060808160066096fa3d15151690565b9091926000907f0f41ed44cc532f837df89e45f9d11b986b429e395dfea658900c66c9b5ba766986527f2576002d08abb868a9a4355dd9598b87f246f91cae80e0beac3e1c3a49b5eb6f6020870152611b3c815187611172565b15611f4e57611b4f6020820151876111f4565b15611f4e57611b62604082015187611273565b15611f4e57611b756060820151876112f2565b15611f4e57611b88608082015187611371565b15611f4e57611b9b60a0820151876113f0565b15611f4e57611bae60c08201518761146f565b15611f4e57611bc160e0820151876114ee565b15611f4e57611bd56101008201518761156d565b15611f4e57611be9610120820151876115ec565b15611f4e57611bfd6101408201518761166b565b15611f4e57611c11610160820151876116ea565b15611f4e57611c2561018082015187611769565b15611f4e57611c396101a0820151876117e8565b15611f4e57611c4d6101c082015187611867565b15611f4e57611c616101e0820151876118e6565b15611f4e57611c7561020082015187611965565b15611f4e57611c89610220820151876119e4565b15611f4e57610240611c9d91015186611a63565b15611f46575060208093927f30644e72e131a029b85045b68181585d97816a916871ca8d3c208c16d87cfd478280947f198e9393920d483a7260bfb731fb5d25f1aa493335a9e71297e485b7aef312c260408a01527f1800deef121f1e76426a00665e5c4479674322d4f75edadd46debd5cd992f6ed60608a01527f090689d0585ff075ec9e99ad690c3395bc4b313370b38ef355acdadcd122975b60808a01527f12c85ea5db8c6deb4aab71808dcb408fe3d1e7690c43d37b4ce6cc0166fa7daa60a08a0152805160c08a0152015181030660e08701528051516101008701528181510151610120870152018051516101408601525101516101608401527f2d4d9aa7e302d9df41749d5507949d05dbea33fbb16c643b22f599a2be6df2e26101808401527f14bedd503c37ceb061d8ec60209fe345ce89830a19230301f076caff004d19266101a08401527f0967032fcbf776d1afc985f88877f182d38480a653f2decaa9794cbc3bf3060c6101c08401527f0e187847ad4c798374d0d6732bf501847dd68bc0e071241e0213bc7fc13db7ab6101e08401527f304cfbd1e08a704a99f5e847d93f8c3caafddec46b7a0d379da69a4d112346a76102008401527f1739c1b1a457a8c7313123d24d2f9192f896b7c63eea05a9d57f06547ad0cec8610220840152805161024084015201516102608201527f198e9393920d483a7260bfb731fb5d25f1aa493335a9e71297e485b7aef312c26102808201527f1800deef121f1e76426a00665e5c4479674322d4f75edadd46debd5cd992f6ed6102a08201527f090689d0585ff075ec9e99ad690c3395bc4b313370b38ef355acdadcd122975b6102c08201527f12c85ea5db8c6deb4aab71808dcb408fe3d1e7690c43d37b4ce6cc0166fa7daa6102e08201526020816103008160086202c308fa90511690565b949350505050565b50949350505050565b939290916040519261030084016040526001611f73845161114d565b611f80602086015161114d565b16611f8e604086015161114d565b16611f9c606086015161114d565b1616611fab608085015161114d565b16611fb960a085015161114d565b16611fc760c085015161114d565b16611fd560e085015161114d565b16611fe461010085015161114d565b16611ff361012085015161114d565b1661200261014085015161114d565b1661201161016085015161114d565b1661202061018085015161114d565b1661202f6101a085015161114d565b1661203e6101c085015161114d565b1661204d6101e085015161114d565b1661205c61020085015161114d565b1661206b61022085015161114d565b1661207a61024085015161114d565b169586151961208b575b5050505050565b612096959650611ae2565b90388080808061208456fea2646970667358221220dc23726ad1dbe452c3270e1c080c763359dfdf748f749a2cd5f8c5e12a2270ab64736f6c634300081b0033","opcodes":"PUSH1 0x80 DUP1 PUSH1 0x40 MSTORE CALLVALUE PUSH1 0x15 JUMPI PUSH2 0x20D7 SWAP1 DUP2 PUSH2 0x1B DUP3 CODECOPY RETURN JUMPDEST PUSH1 0x0 DUP1 REVERT INVALID PUSH1 0x80 PUSH1 0x40 MSTORE PUSH1 0x4 CALLDATASIZE LT ISZERO PUSH2 0x12 JUMPI PUSH1 0x0 DUP1 REVERT JUMPDEST PUSH1 0x0 CALLDATALOAD PUSH1 0xE0 SHR DUP1 PUSH4 0xCBB35C3 EQ PUSH2 0x3A3 JUMPI DUP1 PUSH4 0xDDEC475 EQ PUSH2 0x39E JUMPI DUP1 PUSH4 0x1077F544 EQ PUSH2 0x399 JUMPI DUP1 PUSH4 0x11FBFE66 EQ PUSH2 0x394 JUMPI DUP1 PUSH4 0x1C4D4406 EQ PUSH2 0x38F JUMPI DUP1 PUSH4 0x24934A11 EQ PUSH2 0x38A JUMPI DUP1 PUSH4 0x286F014B EQ PUSH2 0x385 JUMPI DUP1 PUSH4 0x28E44695 EQ PUSH2 0x380 JUMPI DUP1 PUSH4 0x2C0556ED EQ PUSH2 0x37B JUMPI DUP1 PUSH4 0x2D527448 EQ PUSH2 0x376 JUMPI DUP1 PUSH4 0x2DACCA56 EQ PUSH2 0x371 JUMPI DUP1 PUSH4 0x30C1731C EQ PUSH2 0x36C JUMPI DUP1 PUSH4 0x31AA5E26 EQ PUSH2 0x367 JUMPI DUP1 PUSH4 0x32148D47 EQ PUSH2 0x362 JUMPI DUP1 PUSH4 0x36B397DC EQ PUSH2 0x35D JUMPI DUP1 PUSH4 0x39637503 EQ PUSH2 0x358 JUMPI DUP1 PUSH4 0x3A9E6A4D EQ PUSH2 0x2F4 JUMPI DUP1 PUSH4 0x41FE6A9A EQ PUSH2 0x353 JUMPI DUP1 PUSH4 0x4234A1D6 EQ PUSH2 0x34E JUMPI DUP1 PUSH4 0x45CE05A8 EQ PUSH2 0x349 JUMPI DUP1 PUSH4 0x4B750A92 EQ PUSH2 0x344 JUMPI DUP1 PUSH4 0x4E890B27 EQ PUSH2 0x33F JUMPI DUP1 PUSH4 0x50DEF905 EQ PUSH2 0x33A JUMPI DUP1 PUSH4 0x59B396B5 EQ PUSH2 0x335 JUMPI DUP1 PUSH4 0x6076D7ED EQ PUSH2 0x330 JUMPI DUP1 PUSH4 0x6336EC6C EQ PUSH2 0x32B JUMPI DUP1 PUSH4 0x6A5935A7 EQ PUSH2 0x326 JUMPI DUP1 PUSH4 0x73354B60 EQ PUSH2 0x321 JUMPI DUP1 PUSH4 0x742797C4 EQ PUSH2 0x31C JUMPI DUP1 PUSH4 0x7FDF8FC1 EQ PUSH2 0x317 JUMPI DUP1 PUSH4 0x839A60D0 EQ PUSH2 0x312 JUMPI DUP1 PUSH4 0x898611FD EQ PUSH2 0x30D JUMPI DUP1 PUSH4 0x901660C4 EQ PUSH2 0x2D1 JUMPI DUP1 PUSH4 0xA127ED86 EQ PUSH2 0x308 JUMPI DUP1 PUSH4 0xA1978C3C EQ PUSH2 0x303 JUMPI DUP1 PUSH4 0xA6ACA976 EQ PUSH2 0x2FE JUMPI DUP1 PUSH4 0xACB41936 EQ PUSH2 0x2E5 JUMPI DUP1 PUSH4 0xAED43349 EQ PUSH2 0x2F9 JUMPI DUP1 PUSH4 0xB936325C EQ PUSH2 0x2F4 JUMPI DUP1 PUSH4 0xBA688175 EQ PUSH2 0x2EF JUMPI DUP1 PUSH4 0xBF48189E EQ PUSH2 0x2EA JUMPI DUP1 PUSH4 0xCC9C92AE EQ PUSH2 0x2E5 JUMPI DUP1 PUSH4 0xD0FDD6AF EQ PUSH2 0x2E0 JUMPI DUP1 PUSH4 0xD1FB02A3 EQ PUSH2 0x2DB JUMPI DUP1 PUSH4 0xD663B365 EQ PUSH2 0x2D6 JUMPI DUP1 PUSH4 0xD70A63CC EQ PUSH2 0x2D1 JUMPI DUP1 PUSH4 0xD8C710E0 EQ PUSH2 0x2CC JUMPI DUP1 PUSH4 0xDACB4E69 EQ PUSH2 0x2C7 JUMPI DUP1 PUSH4 0xDC05A822 EQ PUSH2 0x2C2 JUMPI DUP1 PUSH4 0xDCE42004 EQ PUSH2 0x2BD JUMPI DUP1 PUSH4 0xDD924B47 EQ PUSH2 0x2B8 JUMPI DUP1 PUSH4 0xDFCF46F0 EQ PUSH2 0x29A JUMPI DUP1 PUSH4 0xE11E8EE2 EQ PUSH2 0x2B3 JUMPI DUP1 PUSH4 0xE834DBDD EQ PUSH2 0x2AE JUMPI DUP1 PUSH4 0xE848DD6F EQ PUSH2 0x2A9 JUMPI DUP1 PUSH4 0xEEDEE58F EQ PUSH2 0x2A4 JUMPI DUP1 PUSH4 0xF3F22E72 EQ PUSH2 0x29F JUMPI PUSH4 0xF7A65AAE EQ PUSH2 0x29A JUMPI PUSH1 0x0 DUP1 REVERT JUMPDEST PUSH2 0xE9A JUMP JUMPDEST PUSH2 0x10B8 JUMP JUMPDEST PUSH2 0xF86 JUMP JUMPDEST PUSH2 0xF4B JUMP JUMPDEST PUSH2 0xF10 JUMP JUMPDEST PUSH2 0xED5 JUMP JUMPDEST PUSH2 0xE5F JUMP JUMPDEST PUSH2 0xE24 JUMP JUMPDEST PUSH2 0xDE9 JUMP JUMPDEST PUSH2 0xDAE JUMP JUMPDEST PUSH2 0xD73 JUMP JUMPDEST PUSH2 0xB08 JUMP JUMPDEST PUSH2 0xD38 JUMP JUMPDEST PUSH2 0xCFD JUMP JUMPDEST PUSH2 0xCC2 JUMP JUMPDEST PUSH2 0xBD6 JUMP JUMPDEST PUSH2 0xC87 JUMP JUMPDEST PUSH2 0xC4C JUMP JUMPDEST PUSH2 0x758 JUMP JUMPDEST PUSH2 0xC11 JUMP JUMPDEST PUSH2 0xBB9 JUMP JUMPDEST PUSH2 0xB7E JUMP JUMPDEST PUSH2 0xB43 JUMP JUMPDEST PUSH2 0xACD JUMP JUMPDEST PUSH2 0xA92 JUMP JUMPDEST PUSH2 0xA57 JUMP JUMPDEST PUSH2 0xA1C JUMP JUMPDEST PUSH2 0x9E1 JUMP JUMPDEST PUSH2 0x9A6 JUMP JUMPDEST PUSH2 0x96B JUMP JUMPDEST PUSH2 0x930 JUMP JUMPDEST PUSH2 0x8F5 JUMP JUMPDEST PUSH2 0x8BA JUMP JUMPDEST PUSH2 0x87F JUMP JUMPDEST PUSH2 0x844 JUMP JUMPDEST PUSH2 0x809 JUMP JUMPDEST PUSH2 0x7CE JUMP JUMPDEST PUSH2 0x793 JUMP JUMPDEST PUSH2 0x71D JUMP JUMPDEST PUSH2 0x6E2 JUMP JUMPDEST PUSH2 0x6A7 JUMP JUMPDEST PUSH2 0x66C JUMP JUMPDEST PUSH2 0x631 JUMP JUMPDEST PUSH2 0x5F6 JUMP JUMPDEST PUSH2 0x5BB JUMP JUMPDEST PUSH2 0x580 JUMP JUMPDEST PUSH2 0x545 JUMP JUMPDEST PUSH2 0x50A JUMP JUMPDEST PUSH2 0x4CF JUMP JUMPDEST PUSH2 0x494 JUMP JUMPDEST PUSH2 0x459 JUMP JUMPDEST PUSH2 0x41E JUMP JUMPDEST PUSH2 0x3E3 JUMP JUMPDEST CALLVALUE PUSH2 0x3DE JUMPI PUSH1 0x0 CALLDATASIZE PUSH1 0x3 NOT ADD SLT PUSH2 0x3DE JUMPI PUSH1 0x20 PUSH1 0x40 MLOAD PUSH32 0x1A6F31985823E8E281E8A1B7BC47604AA2B23FBE9C4C19FE2928907DCB60AED1 DUP2 MSTORE RETURN JUMPDEST PUSH1 0x0 DUP1 REVERT JUMPDEST CALLVALUE PUSH2 0x3DE JUMPI PUSH1 0x0 CALLDATASIZE PUSH1 0x3 NOT ADD SLT PUSH2 0x3DE JUMPI PUSH1 0x20 PUSH1 0x40 MLOAD PUSH32 0x30644E72E131A029B85045B68181585D2833E84879B9709143E1F593F0000001 DUP2 MSTORE RETURN JUMPDEST CALLVALUE PUSH2 0x3DE JUMPI PUSH1 0x0 CALLDATASIZE PUSH1 0x3 NOT ADD SLT PUSH2 0x3DE JUMPI PUSH1 0x20 PUSH1 0x40 MLOAD PUSH32 0xF381AF4E8DCA656DC4AB15192A48144B5ECAF35DFE0AA1B28B5FEC89D16677A DUP2 MSTORE RETURN JUMPDEST CALLVALUE PUSH2 0x3DE JUMPI PUSH1 0x0 CALLDATASIZE PUSH1 0x3 NOT ADD SLT PUSH2 0x3DE JUMPI PUSH1 0x20 PUSH1 0x40 MLOAD PUSH32 0x1722C20A350B2B01FC016833D50FBEC27D0D6DEF6A46A6BE65E23DE2178D69E0 DUP2 MSTORE RETURN JUMPDEST CALLVALUE PUSH2 0x3DE JUMPI PUSH1 0x0 CALLDATASIZE PUSH1 0x3 NOT ADD SLT PUSH2 0x3DE JUMPI PUSH1 0x20 PUSH1 0x40 MLOAD PUSH32 0x1739C1B1A457A8C7313123D24D2F9192F896B7C63EEA05A9D57F06547AD0CEC8 DUP2 MSTORE RETURN JUMPDEST CALLVALUE PUSH2 0x3DE JUMPI PUSH1 0x0 CALLDATASIZE PUSH1 0x3 NOT ADD SLT PUSH2 0x3DE JUMPI PUSH1 0x20 PUSH1 0x40 MLOAD PUSH32 0x2F425E310751A0560CBD9D75E24903A3005256CE1ADC4BF7ABF3EE3BFD572F6B DUP2 MSTORE RETURN JUMPDEST CALLVALUE PUSH2 0x3DE JUMPI PUSH1 0x0 CALLDATASIZE PUSH1 0x3 NOT ADD SLT PUSH2 0x3DE JUMPI PUSH1 0x20 PUSH1 0x40 MLOAD PUSH32 0x101CC19783D55570B972975AAAB245AB05482C4D09CCE7725F6EE219A6D016A4 DUP2 MSTORE RETURN JUMPDEST CALLVALUE PUSH2 0x3DE JUMPI PUSH1 0x0 CALLDATASIZE PUSH1 0x3 NOT ADD SLT PUSH2 0x3DE JUMPI PUSH1 0x20 PUSH1 0x40 MLOAD PUSH32 0x1CD74C3562EC6B1353E29235142FECF0BFDEDB0D9BF2E03C0EE6EFD9862B7A57 DUP2 MSTORE RETURN JUMPDEST CALLVALUE PUSH2 0x3DE JUMPI PUSH1 0x0 CALLDATASIZE PUSH1 0x3 NOT ADD SLT PUSH2 0x3DE JUMPI PUSH1 0x20 PUSH1 0x40 MLOAD PUSH32 0xE7E2398DDFC9F394D0DCD593A43A78277870B42DED7F16DB7EC267D22603495 DUP2 MSTORE RETURN JUMPDEST CALLVALUE PUSH2 0x3DE JUMPI PUSH1 0x0 CALLDATASIZE PUSH1 0x3 NOT ADD SLT PUSH2 0x3DE JUMPI PUSH1 0x20 PUSH1 0x40 MLOAD PUSH32 0x2ED92781BC0DFF7F19DCC7E1AB2F70504EC5A0CFD5DA318B2F1B84B998E8AEF8 DUP2 MSTORE RETURN JUMPDEST CALLVALUE PUSH2 0x3DE JUMPI PUSH1 0x0 CALLDATASIZE PUSH1 0x3 NOT ADD SLT PUSH2 0x3DE JUMPI PUSH1 0x20 PUSH1 0x40 MLOAD PUSH32 0x2094FBB34CB4AEA2D1F952E5449B0475795F29AA650928A7D6A90CCA04B5CE25 DUP2 MSTORE RETURN JUMPDEST CALLVALUE PUSH2 0x3DE JUMPI PUSH1 0x0 CALLDATASIZE PUSH1 0x3 NOT ADD SLT PUSH2 0x3DE JUMPI PUSH1 0x20 PUSH1 0x40 MLOAD PUSH32 0x2172EA49C516C3370DA43ABFD50C0693955EA12353021D63CDF9FCC12F29D8C1 DUP2 MSTORE RETURN JUMPDEST CALLVALUE PUSH2 0x3DE JUMPI PUSH1 0x0 CALLDATASIZE PUSH1 0x3 NOT ADD SLT PUSH2 0x3DE JUMPI PUSH1 0x20 PUSH1 0x40 MLOAD PUSH32 0x16C2A38109AE61ABC4542C335F9AF05B2AC40D2C84AC8162F01AC469754B8893 DUP2 MSTORE RETURN JUMPDEST CALLVALUE PUSH2 0x3DE JUMPI PUSH1 0x0 CALLDATASIZE PUSH1 0x3 NOT ADD SLT PUSH2 0x3DE JUMPI PUSH1 0x20 PUSH1 0x40 MLOAD PUSH32 0x2736A1A5DC6805D17813812CF5CBBC969BF589ABC3B1C37DFA38FFC5F5DD4472 DUP2 MSTORE RETURN JUMPDEST CALLVALUE PUSH2 0x3DE JUMPI PUSH1 0x0 CALLDATASIZE PUSH1 0x3 NOT ADD SLT PUSH2 0x3DE JUMPI PUSH1 0x20 PUSH1 0x40 MLOAD PUSH32 0x2BBFB0D23F2DF476A41623DB79F40EA22A838F94358C91AC813899CBFC73DF05 DUP2 MSTORE RETURN JUMPDEST CALLVALUE PUSH2 0x3DE JUMPI PUSH1 0x0 CALLDATASIZE PUSH1 0x3 NOT ADD SLT PUSH2 0x3DE JUMPI PUSH1 0x20 PUSH1 0x40 MLOAD PUSH32 0x1A62145E119040115D1C69DFF7EBB122D28FAE54D5E732A9192ECAAA0ECD6AF DUP2 MSTORE RETURN JUMPDEST CALLVALUE PUSH2 0x3DE JUMPI PUSH1 0x0 CALLDATASIZE PUSH1 0x3 NOT ADD SLT PUSH2 0x3DE JUMPI PUSH1 0x20 PUSH1 0x40 MLOAD PUSH32 0x90689D0585FF075EC9E99AD690C3395BC4B313370B38EF355ACDADCD122975B DUP2 MSTORE RETURN JUMPDEST CALLVALUE PUSH2 0x3DE JUMPI PUSH1 0x0 CALLDATASIZE PUSH1 0x3 NOT ADD SLT PUSH2 0x3DE JUMPI PUSH1 0x20 PUSH1 0x40 MLOAD PUSH32 0x9CD22924DC4053C5838F4F1A32528C2FAE8157BF9E338B1C34F90A9AC2FEA40 DUP2 MSTORE RETURN JUMPDEST CALLVALUE PUSH2 0x3DE JUMPI PUSH1 0x0 CALLDATASIZE PUSH1 0x3 NOT ADD SLT PUSH2 0x3DE JUMPI PUSH1 0x20 PUSH1 0x40 MLOAD PUSH32 0x15BDF85BC11A6F64356C5F7FD68EEE8EF9C79A8CA121FC22105AC0309FA4230C DUP2 MSTORE RETURN JUMPDEST CALLVALUE PUSH2 0x3DE JUMPI PUSH1 0x0 CALLDATASIZE PUSH1 0x3 NOT ADD SLT PUSH2 0x3DE JUMPI PUSH1 0x20 PUSH1 0x40 MLOAD PUSH32 0x29B84884B36312F1195719EE5BF01064EB7A5C32B84C7C33B4F60F5BD926E2DF DUP2 MSTORE RETURN JUMPDEST CALLVALUE PUSH2 0x3DE JUMPI PUSH1 0x0 CALLDATASIZE PUSH1 0x3 NOT ADD SLT PUSH2 0x3DE JUMPI PUSH1 0x20 PUSH1 0x40 MLOAD PUSH32 0x15DE6E95A9E6C3671B71DFF3078D2DB3C6A4ECED673F7EE90BDBD5877D902261 DUP2 MSTORE RETURN JUMPDEST CALLVALUE PUSH2 0x3DE JUMPI PUSH1 0x0 CALLDATASIZE PUSH1 0x3 NOT ADD SLT PUSH2 0x3DE JUMPI PUSH1 0x20 PUSH1 0x40 MLOAD PUSH32 0x25FE86C1B27FE9726B396F9ADA601521AE1C8BA893C2A27231F6471288DC4E98 DUP2 MSTORE RETURN JUMPDEST CALLVALUE PUSH2 0x3DE JUMPI PUSH1 0x0 CALLDATASIZE PUSH1 0x3 NOT ADD SLT PUSH2 0x3DE JUMPI PUSH1 0x20 PUSH1 0x40 MLOAD PUSH32 0xD3BA8D188E44CC4C01D1E3E2BBCDC667D0F83AA13A7CF62434D945569D7D71B DUP2 MSTORE RETURN JUMPDEST CALLVALUE PUSH2 0x3DE JUMPI PUSH1 0x0 CALLDATASIZE PUSH1 0x3 NOT ADD SLT PUSH2 0x3DE JUMPI PUSH1 0x20 PUSH1 0x40 MLOAD PUSH32 0x578A6B18CE5CB28D296FF4B3CA749C655679EF0E674603E15E241669D1E2475 DUP2 MSTORE RETURN JUMPDEST CALLVALUE PUSH2 0x3DE JUMPI PUSH1 0x0 CALLDATASIZE PUSH1 0x3 NOT ADD SLT PUSH2 0x3DE JUMPI PUSH1 0x20 PUSH1 0x40 MLOAD PUSH32 0x1A15F97CD3A15D3C89C1FB870CB24FC6CA6CD6202871AB3AD2448482407B09B7 DUP2 MSTORE RETURN JUMPDEST CALLVALUE PUSH2 0x3DE JUMPI PUSH1 0x0 CALLDATASIZE PUSH1 0x3 NOT ADD SLT PUSH2 0x3DE JUMPI PUSH1 0x20 PUSH1 0x40 MLOAD PUSH32 0xF41ED44CC532F837DF89E45F9D11B986B429E395DFEA658900C66C9B5BA7669 DUP2 MSTORE RETURN JUMPDEST CALLVALUE PUSH2 0x3DE JUMPI PUSH1 0x0 CALLDATASIZE PUSH1 0x3 NOT ADD SLT PUSH2 0x3DE JUMPI PUSH1 0x20 PUSH1 0x40 MLOAD PUSH32 0x14BEDD503C37CEB061D8EC60209FE345CE89830A19230301F076CAFF004D1926 DUP2 MSTORE RETURN JUMPDEST CALLVALUE PUSH2 0x3DE JUMPI PUSH1 0x0 CALLDATASIZE PUSH1 0x3 NOT ADD SLT PUSH2 0x3DE JUMPI PUSH1 0x20 PUSH1 0x40 MLOAD PUSH32 0x18F1F301BBD51B2138107439115E22B3CB8F5606F5885A1B85F583B5BE69A56D DUP2 MSTORE RETURN JUMPDEST CALLVALUE PUSH2 0x3DE JUMPI PUSH1 0x0 CALLDATASIZE PUSH1 0x3 NOT ADD SLT PUSH2 0x3DE JUMPI PUSH1 0x20 PUSH1 0x40 MLOAD PUSH32 0x2576002D08ABB868A9A4355DD9598B87F246F91CAE80E0BEAC3E1C3A49B5EB6F DUP2 MSTORE RETURN JUMPDEST CALLVALUE PUSH2 0x3DE JUMPI PUSH1 0x0 CALLDATASIZE PUSH1 0x3 NOT ADD SLT PUSH2 0x3DE JUMPI PUSH1 0x20 PUSH1 0x40 MLOAD PUSH32 0xE187847AD4C798374D0D6732BF501847DD68BC0E071241E0213BC7FC13DB7AB DUP2 MSTORE RETURN JUMPDEST CALLVALUE PUSH2 0x3DE JUMPI PUSH1 0x0 CALLDATASIZE PUSH1 0x3 NOT ADD SLT PUSH2 0x3DE JUMPI PUSH1 0x20 PUSH1 0x40 MLOAD PUSH32 0x30644E72E131A029B85045B68181585D97816A916871CA8D3C208C16D87CFD47 DUP2 MSTORE RETURN JUMPDEST CALLVALUE PUSH2 0x3DE JUMPI PUSH1 0x0 CALLDATASIZE PUSH1 0x3 NOT ADD SLT PUSH2 0x3DE JUMPI PUSH1 0x20 PUSH1 0x40 MLOAD PUSH32 0x26C1713BFD28A58D03B54226AC559770C4D2596DA2489E5EE513E83748A6D00E DUP2 MSTORE RETURN JUMPDEST CALLVALUE PUSH2 0x3DE JUMPI PUSH1 0x0 CALLDATASIZE PUSH1 0x3 NOT ADD SLT PUSH2 0x3DE JUMPI PUSH1 0x20 PUSH1 0x40 MLOAD PUSH32 0x198E9393920D483A7260BFB731FB5D25F1AA493335A9E71297E485B7AEF312C2 DUP2 MSTORE RETURN JUMPDEST CALLVALUE PUSH2 0x3DE JUMPI PUSH1 0x0 CALLDATASIZE PUSH1 0x3 NOT ADD SLT PUSH2 0x3DE JUMPI PUSH1 0x20 PUSH1 0x40 MLOAD PUSH32 0x27A3C7C1FCAB288DBED6E5E2203C764A2493D24FC9677D3A95F5085F6B889664 DUP2 MSTORE RETURN JUMPDEST CALLVALUE PUSH2 0x3DE JUMPI PUSH1 0x0 CALLDATASIZE PUSH1 0x3 NOT ADD SLT PUSH2 0x3DE JUMPI PUSH1 0x20 PUSH1 0x40 MLOAD PUSH32 0xEE669A9CAAD1FF91DCC4A42E26A430AC4F16D122E7F087114E3E3DC1FB6AD2C DUP2 MSTORE RETURN JUMPDEST CALLVALUE PUSH2 0x3DE JUMPI PUSH1 0x0 CALLDATASIZE PUSH1 0x3 NOT ADD SLT PUSH2 0x3DE JUMPI PUSH1 0x20 PUSH1 0x40 MLOAD PUSH2 0x300 DUP2 MSTORE RETURN JUMPDEST CALLVALUE PUSH2 0x3DE JUMPI PUSH1 0x0 CALLDATASIZE PUSH1 0x3 NOT ADD SLT PUSH2 0x3DE JUMPI PUSH1 0x20 PUSH1 0x40 MLOAD PUSH32 0x12C85EA5DB8C6DEB4AAB71808DCB408FE3D1E7690C43D37B4CE6CC0166FA7DAA DUP2 MSTORE RETURN JUMPDEST CALLVALUE PUSH2 0x3DE JUMPI PUSH1 0x0 CALLDATASIZE PUSH1 0x3 NOT ADD SLT PUSH2 0x3DE JUMPI PUSH1 0x20 PUSH1 0x40 MLOAD PUSH32 0x4945E260BAA10BE164297853F665FF40F6CEB9970007F3D91499BA268C2477D DUP2 MSTORE RETURN JUMPDEST CALLVALUE PUSH2 0x3DE JUMPI PUSH1 0x0 CALLDATASIZE PUSH1 0x3 NOT ADD SLT PUSH2 0x3DE JUMPI PUSH1 0x20 PUSH1 0x40 MLOAD PUSH32 0x2B8AE68E29D7FC58F608C37CAAB2877326061E4746DFEDD3F1A720683D706CDB DUP2 MSTORE RETURN JUMPDEST CALLVALUE PUSH2 0x3DE JUMPI PUSH1 0x0 CALLDATASIZE PUSH1 0x3 NOT ADD SLT PUSH2 0x3DE JUMPI PUSH1 0x20 PUSH1 0x40 MLOAD PUSH32 0x302417B0CD0E3360CDADD133BA973F0526806E6E9DFCCAEFADFCFF62E67BD7F DUP2 MSTORE RETURN JUMPDEST CALLVALUE PUSH2 0x3DE JUMPI PUSH1 0x0 CALLDATASIZE PUSH1 0x3 NOT ADD SLT PUSH2 0x3DE JUMPI PUSH1 0x20 PUSH1 0x40 MLOAD PUSH32 0x2FBE747655D747D81576EE1853D32399C80B3EFEB1ADC8E6ADE15AF6C889D69C DUP2 MSTORE RETURN JUMPDEST CALLVALUE PUSH2 0x3DE JUMPI PUSH1 0x0 CALLDATASIZE PUSH1 0x3 NOT ADD SLT PUSH2 0x3DE JUMPI PUSH1 0x20 PUSH1 0x40 MLOAD PUSH32 0x2D4D9AA7E302D9DF41749D5507949D05DBEA33FBB16C643B22F599A2BE6DF2E2 DUP2 MSTORE RETURN JUMPDEST CALLVALUE PUSH2 0x3DE JUMPI PUSH1 0x0 CALLDATASIZE PUSH1 0x3 NOT ADD SLT PUSH2 0x3DE JUMPI PUSH1 0x20 PUSH1 0x40 MLOAD PUSH32 0x2797A3325B1939E4B2189DADF30A5CCDD73849197F025745E1ED6D4C8D19D8BF DUP2 MSTORE RETURN JUMPDEST CALLVALUE PUSH2 0x3DE JUMPI PUSH1 0x0 CALLDATASIZE PUSH1 0x3 NOT ADD SLT PUSH2 0x3DE JUMPI PUSH1 0x20 PUSH1 0x40 MLOAD PUSH32 0xD4D12B3392B53FB9E5506111FB12264E0BD8B8D3A850294464BB5DAE0CEC3B3 DUP2 MSTORE RETURN JUMPDEST CALLVALUE PUSH2 0x3DE JUMPI PUSH1 0x0 CALLDATASIZE PUSH1 0x3 NOT ADD SLT PUSH2 0x3DE JUMPI PUSH1 0x20 PUSH1 0x40 MLOAD PUSH32 0x206AEC841B991E8D3BE7F077C4A141727236727E4CBA0DB16C994C83B2FB805B DUP2 MSTORE RETURN JUMPDEST CALLVALUE PUSH2 0x3DE JUMPI PUSH1 0x0 CALLDATASIZE PUSH1 0x3 NOT ADD SLT PUSH2 0x3DE JUMPI PUSH1 0x20 PUSH1 0x40 MLOAD PUSH32 0x967032FCBF776D1AFC985F88877F182D38480A653F2DECAA9794CBC3BF3060C DUP2 MSTORE RETURN JUMPDEST CALLVALUE PUSH2 0x3DE JUMPI PUSH1 0x0 CALLDATASIZE PUSH1 0x3 NOT ADD SLT PUSH2 0x3DE JUMPI PUSH1 0x20 PUSH1 0x40 MLOAD PUSH32 0x1B1B7ABB17466ABDD146B31737D077A3D3225A46A3D5F99500FB03550FF3F7E DUP2 MSTORE RETURN JUMPDEST CALLVALUE PUSH2 0x3DE JUMPI PUSH1 0x0 CALLDATASIZE PUSH1 0x3 NOT ADD SLT PUSH2 0x3DE JUMPI PUSH1 0x20 PUSH1 0x40 MLOAD PUSH32 0x304CFBD1E08A704A99F5E847D93F8C3CAAFDDEC46B7A0D379DA69A4D112346A7 DUP2 MSTORE RETURN JUMPDEST CALLVALUE PUSH2 0x3DE JUMPI PUSH1 0x0 CALLDATASIZE PUSH1 0x3 NOT ADD SLT PUSH2 0x3DE JUMPI PUSH1 0x20 PUSH1 0x40 MLOAD PUSH32 0x1800DEEF121F1E76426A00665E5C4479674322D4F75EDADD46DEBD5CD992F6ED DUP2 MSTORE RETURN JUMPDEST CALLVALUE PUSH2 0x3DE JUMPI PUSH1 0x0 CALLDATASIZE PUSH1 0x3 NOT ADD SLT PUSH2 0x3DE JUMPI PUSH1 0x20 PUSH1 0x40 MLOAD PUSH32 0x14DE701DB9A371D99C794203F8F6C8DA451F72C65B0D8AD4823CD4FFD7FFBF24 DUP2 MSTORE RETURN JUMPDEST CALLVALUE PUSH2 0x3DE JUMPI PUSH1 0x0 CALLDATASIZE PUSH1 0x3 NOT ADD SLT PUSH2 0x3DE JUMPI PUSH1 0x20 PUSH1 0x40 MLOAD PUSH32 0x2EE154CF49E1417EF0990A8B687DD18927D1284C0E7BC9C1FEA7FF466A3FF556 DUP2 MSTORE RETURN JUMPDEST CALLVALUE PUSH2 0x3DE JUMPI PUSH1 0x0 CALLDATASIZE PUSH1 0x3 NOT ADD SLT PUSH2 0x3DE JUMPI PUSH1 0x20 PUSH1 0x40 MLOAD PUSH32 0x26166593D1566790ABF19370CED679AC966EE160E858D992B542DE181670737B DUP2 MSTORE RETURN JUMPDEST CALLVALUE PUSH2 0x3DE JUMPI PUSH1 0x0 CALLDATASIZE PUSH1 0x3 NOT ADD SLT PUSH2 0x3DE JUMPI PUSH1 0x20 PUSH1 0x40 MLOAD PUSH32 0x20C7EAD8285A73BBC68E3C6E7DAE7461A012316D3DA0BDBFD11DA6FEFB03446F DUP2 MSTORE RETURN JUMPDEST PUSH1 0x40 MLOAD SWAP2 SWAP1 PUSH1 0x1F ADD PUSH1 0x1F NOT AND DUP3 ADD PUSH8 0xFFFFFFFFFFFFFFFF DUP2 GT DUP4 DUP3 LT OR PUSH2 0xFE7 JUMPI PUSH1 0x40 MSTORE JUMP JUMPDEST PUSH4 0x4E487B71 PUSH1 0xE0 SHL PUSH1 0x0 MSTORE PUSH1 0x41 PUSH1 0x4 MSTORE PUSH1 0x24 PUSH1 0x0 REVERT JUMPDEST SWAP2 SWAP1 PUSH2 0x1009 PUSH1 0x40 PUSH2 0xFC1 JUMP JUMPDEST SWAP3 DUP4 SWAP1 PUSH1 0x40 DUP2 ADD SWAP3 DUP4 GT PUSH2 0x3DE JUMPI SWAP1 JUMPDEST DUP3 DUP3 LT PUSH2 0x1025 JUMPI POP POP POP JUMP JUMPDEST DUP2 CALLDATALOAD DUP2 MSTORE PUSH1 0x20 SWAP2 DUP3 ADD SWAP2 ADD PUSH2 0x1019 JUMP JUMPDEST DUP1 PUSH1 0x23 SLT ISZERO PUSH2 0x3DE JUMPI PUSH2 0x1049 SWAP1 PUSH1 0x4 PUSH2 0xFFD JUMP JUMPDEST SWAP1 JUMP JUMPDEST DUP1 PUSH1 0xE3 SLT ISZERO PUSH2 0x3DE JUMPI PUSH2 0x1049 SWAP1 PUSH1 0xC4 PUSH2 0xFFD JUMP JUMPDEST SWAP1 DUP1 PUSH1 0x1F DUP4 ADD SLT ISZERO PUSH2 0x3DE JUMPI PUSH2 0x1049 SWAP2 PUSH2 0xFFD JUMP JUMPDEST DUP1 PUSH2 0x123 SLT ISZERO PUSH2 0x3DE JUMPI PUSH2 0x108A PUSH2 0x260 PUSH2 0xFC1 JUMP JUMPDEST SWAP1 DUP2 SWAP1 PUSH2 0x364 GT PUSH2 0x3DE JUMPI PUSH2 0x104 SWAP1 JUMPDEST PUSH2 0x364 DUP3 LT PUSH2 0x10A8 JUMPI POP POP SWAP1 JUMP JUMPDEST DUP2 CALLDATALOAD DUP2 MSTORE PUSH1 0x20 SWAP2 DUP3 ADD SWAP2 ADD PUSH2 0x109A JUMP JUMPDEST CALLVALUE PUSH2 0x3DE JUMPI PUSH2 0x360 CALLDATASIZE PUSH1 0x3 NOT ADD SLT PUSH2 0x3DE JUMPI PUSH2 0x10D3 CALLDATASIZE PUSH2 0x1035 JUMP JUMPDEST CALLDATASIZE PUSH1 0x63 SLT ISZERO PUSH2 0x3DE JUMPI PUSH1 0x40 SWAP1 PUSH2 0x10E8 DUP3 PUSH2 0xFC1 JUMP JUMPDEST DUP1 CALLDATASIZE PUSH1 0xC4 GT PUSH2 0x3DE JUMPI PUSH1 0x44 SWAP1 JUMPDEST PUSH1 0xC4 DUP3 LT PUSH2 0x1134 JUMPI PUSH2 0x1130 DUP6 PUSH2 0x111F DUP7 DUP7 PUSH2 0x110F CALLDATASIZE PUSH2 0x104C JUMP JUMPDEST SWAP1 PUSH2 0x1119 CALLDATASIZE PUSH2 0x1075 JUMP JUMPDEST SWAP3 PUSH2 0x1F57 JUMP JUMPDEST SWAP1 MLOAD SWAP1 ISZERO ISZERO DUP2 MSTORE SWAP1 DUP2 SWAP1 PUSH1 0x20 DUP3 ADD SWAP1 JUMP JUMPDEST SUB SWAP1 RETURN JUMPDEST PUSH1 0x20 DUP6 SWAP2 PUSH2 0x1142 CALLDATASIZE DUP6 PUSH2 0x1060 JUMP JUMPDEST DUP2 MSTORE ADD SWAP2 ADD SWAP1 PUSH2 0x10F5 JUMP JUMPDEST PUSH32 0x30644E72E131A029B85045B68181585D2833E84879B9709143E1F593F0000001 GT SWAP1 JUMP JUMPDEST SWAP2 SWAP1 PUSH1 0x40 SWAP1 DUP2 DUP5 ADD SWAP1 PUSH32 0x2797A3325B1939E4B2189DADF30A5CCDD73849197F025745E1ED6D4C8D19D8BF DUP3 MSTORE PUSH32 0xEE669A9CAAD1FF91DCC4A42E26A430AC4F16D122E7F087114E3E3DC1FB6AD2C PUSH1 0x60 DUP7 ADD MSTORE PUSH1 0x80 DUP6 ADD MSTORE PUSH1 0x60 DUP2 PUSH1 0x7 PUSH2 0x1770 STATICCALL RETURNDATASIZE ISZERO ISZERO AND SWAP2 DUP3 ISZERO PUSH2 0x11F1 JUMPI PUSH1 0x40 SWAP2 SWAP3 POP PUSH1 0x80 DUP2 PUSH1 0x6 PUSH1 0x96 STATICCALL RETURNDATASIZE ISZERO ISZERO AND SWAP1 JUMP JUMPDEST POP JUMP JUMPDEST SWAP2 SWAP1 PUSH1 0x40 SWAP1 DUP2 DUP5 ADD SWAP1 PUSH32 0x1B1B7ABB17466ABDD146B31737D077A3D3225A46A3D5F99500FB03550FF3F7E DUP3 MSTORE PUSH32 0x1A6F31985823E8E281E8A1B7BC47604AA2B23FBE9C4C19FE2928907DCB60AED1 PUSH1 0x60 DUP7 ADD MSTORE PUSH1 0x80 DUP6 ADD MSTORE PUSH1 0x60 DUP2 PUSH1 0x7 PUSH2 0x1770 STATICCALL RETURNDATASIZE ISZERO ISZERO AND SWAP2 DUP3 ISZERO PUSH2 0x11F1 JUMPI PUSH1 0x40 SWAP2 SWAP3 POP PUSH1 0x80 DUP2 PUSH1 0x6 PUSH1 0x96 STATICCALL RETURNDATASIZE ISZERO ISZERO AND SWAP1 JUMP JUMPDEST SWAP2 SWAP1 PUSH1 0x40 SWAP1 DUP2 DUP5 ADD SWAP1 PUSH32 0x15BDF85BC11A6F64356C5F7FD68EEE8EF9C79A8CA121FC22105AC0309FA4230C DUP3 MSTORE PUSH32 0xD3BA8D188E44CC4C01D1E3E2BBCDC667D0F83AA13A7CF62434D945569D7D71B PUSH1 0x60 DUP7 ADD MSTORE PUSH1 0x80 DUP6 ADD MSTORE PUSH1 0x60 DUP2 PUSH1 0x7 PUSH2 0x1770 STATICCALL RETURNDATASIZE ISZERO ISZERO AND SWAP2 DUP3 ISZERO PUSH2 0x11F1 JUMPI PUSH1 0x40 SWAP2 SWAP3 POP PUSH1 0x80 DUP2 PUSH1 0x6 PUSH1 0x96 STATICCALL RETURNDATASIZE ISZERO ISZERO AND SWAP1 JUMP JUMPDEST SWAP2 SWAP1 PUSH1 0x40 SWAP1 DUP2 DUP5 ADD SWAP1 PUSH32 0x20C7EAD8285A73BBC68E3C6E7DAE7461A012316D3DA0BDBFD11DA6FEFB03446F DUP3 MSTORE PUSH32 0x25FE86C1B27FE9726B396F9ADA601521AE1C8BA893C2A27231F6471288DC4E98 PUSH1 0x60 DUP7 ADD MSTORE PUSH1 0x80 DUP6 ADD MSTORE PUSH1 0x60 DUP2 PUSH1 0x7 PUSH2 0x1770 STATICCALL RETURNDATASIZE ISZERO ISZERO AND SWAP2 DUP3 ISZERO PUSH2 0x11F1 JUMPI PUSH1 0x40 SWAP2 SWAP3 POP PUSH1 0x80 DUP2 PUSH1 0x6 PUSH1 0x96 STATICCALL RETURNDATASIZE ISZERO ISZERO AND SWAP1 JUMP JUMPDEST SWAP2 SWAP1 PUSH1 0x40 SWAP1 DUP2 DUP5 ADD SWAP1 PUSH32 0x26C1713BFD28A58D03B54226AC559770C4D2596DA2489E5EE513E83748A6D00E DUP3 MSTORE PUSH32 0x2F425E310751A0560CBD9D75E24903A3005256CE1ADC4BF7ABF3EE3BFD572F6B PUSH1 0x60 DUP7 ADD MSTORE PUSH1 0x80 DUP6 ADD MSTORE PUSH1 0x60 DUP2 PUSH1 0x7 PUSH2 0x1770 STATICCALL RETURNDATASIZE ISZERO ISZERO AND SWAP2 DUP3 ISZERO PUSH2 0x11F1 JUMPI PUSH1 0x40 SWAP2 SWAP3 POP PUSH1 0x80 DUP2 PUSH1 0x6 PUSH1 0x96 STATICCALL RETURNDATASIZE ISZERO ISZERO AND SWAP1 JUMP JUMPDEST SWAP2 SWAP1 PUSH1 0x40 SWAP1 DUP2 DUP5 ADD SWAP1 PUSH32 0x4945E260BAA10BE164297853F665FF40F6CEB9970007F3D91499BA268C2477D DUP3 MSTORE PUSH32 0x302417B0CD0E3360CDADD133BA973F0526806E6E9DFCCAEFADFCFF62E67BD7F PUSH1 0x60 DUP7 ADD MSTORE PUSH1 0x80 DUP6 ADD MSTORE PUSH1 0x60 DUP2 PUSH1 0x7 PUSH2 0x1770 STATICCALL RETURNDATASIZE ISZERO ISZERO AND SWAP2 DUP3 ISZERO PUSH2 0x11F1 JUMPI PUSH1 0x40 SWAP2 SWAP3 POP PUSH1 0x80 DUP2 PUSH1 0x6 PUSH1 0x96 STATICCALL RETURNDATASIZE ISZERO ISZERO AND SWAP1 JUMP JUMPDEST SWAP2 SWAP1 PUSH1 0x40 SWAP1 DUP2 DUP5 ADD SWAP1 PUSH32 0x16C2A38109AE61ABC4542C335F9AF05B2AC40D2C84AC8162F01AC469754B8893 DUP3 MSTORE PUSH32 0xE7E2398DDFC9F394D0DCD593A43A78277870B42DED7F16DB7EC267D22603495 PUSH1 0x60 DUP7 ADD MSTORE PUSH1 0x80 DUP6 ADD MSTORE PUSH1 0x60 DUP2 PUSH1 0x7 PUSH2 0x1770 STATICCALL RETURNDATASIZE ISZERO ISZERO AND SWAP2 DUP3 ISZERO PUSH2 0x11F1 JUMPI PUSH1 0x40 SWAP2 SWAP3 POP PUSH1 0x80 DUP2 PUSH1 0x6 PUSH1 0x96 STATICCALL RETURNDATASIZE ISZERO ISZERO AND SWAP1 JUMP JUMPDEST SWAP2 SWAP1 PUSH1 0x40 SWAP1 DUP2 DUP5 ADD SWAP1 PUSH32 0x9CD22924DC4053C5838F4F1A32528C2FAE8157BF9E338B1C34F90A9AC2FEA40 DUP3 MSTORE PUSH32 0x2094FBB34CB4AEA2D1F952E5449B0475795F29AA650928A7D6A90CCA04B5CE25 PUSH1 0x60 DUP7 ADD MSTORE PUSH1 0x80 DUP6 ADD MSTORE PUSH1 0x60 DUP2 PUSH1 0x7 PUSH2 0x1770 STATICCALL RETURNDATASIZE ISZERO ISZERO AND SWAP2 DUP3 ISZERO PUSH2 0x11F1 JUMPI PUSH1 0x40 SWAP2 SWAP3 POP PUSH1 0x80 DUP2 PUSH1 0x6 PUSH1 0x96 STATICCALL RETURNDATASIZE ISZERO ISZERO AND SWAP1 JUMP JUMPDEST SWAP2 SWAP1 PUSH1 0x40 SWAP1 DUP2 DUP5 ADD SWAP1 PUSH32 0x206AEC841B991E8D3BE7F077C4A141727236727E4CBA0DB16C994C83B2FB805B DUP3 MSTORE PUSH32 0x1CD74C3562EC6B1353E29235142FECF0BFDEDB0D9BF2E03C0EE6EFD9862B7A57 PUSH1 0x60 DUP7 ADD MSTORE PUSH1 0x80 DUP6 ADD MSTORE PUSH1 0x60 DUP2 PUSH1 0x7 PUSH2 0x1770 STATICCALL RETURNDATASIZE ISZERO ISZERO AND SWAP2 DUP3 ISZERO PUSH2 0x11F1 JUMPI PUSH1 0x40 SWAP2 SWAP3 POP PUSH1 0x80 DUP2 PUSH1 0x6 PUSH1 0x96 STATICCALL RETURNDATASIZE ISZERO ISZERO AND SWAP1 JUMP JUMPDEST SWAP2 SWAP1 PUSH1 0x40 SWAP1 DUP2 DUP5 ADD SWAP1 PUSH32 0x1722C20A350B2B01FC016833D50FBEC27D0D6DEF6A46A6BE65E23DE2178D69E0 DUP3 MSTORE PUSH32 0x26166593D1566790ABF19370CED679AC966EE160E858D992B542DE181670737B PUSH1 0x60 DUP7 ADD MSTORE PUSH1 0x80 DUP6 ADD MSTORE PUSH1 0x60 DUP2 PUSH1 0x7 PUSH2 0x1770 STATICCALL RETURNDATASIZE ISZERO ISZERO AND SWAP2 DUP3 ISZERO PUSH2 0x11F1 JUMPI PUSH1 0x40 SWAP2 SWAP3 POP PUSH1 0x80 DUP2 PUSH1 0x6 PUSH1 0x96 STATICCALL RETURNDATASIZE ISZERO ISZERO AND SWAP1 JUMP JUMPDEST SWAP2 SWAP1 PUSH1 0x40 SWAP1 DUP2 DUP5 ADD SWAP1 PUSH32 0x1A62145E119040115D1C69DFF7EBB122D28FAE54D5E732A9192ECAAA0ECD6AF DUP3 MSTORE PUSH32 0x18F1F301BBD51B2138107439115E22B3CB8F5606F5885A1B85F583B5BE69A56D PUSH1 0x60 DUP7 ADD MSTORE PUSH1 0x80 DUP6 ADD MSTORE PUSH1 0x60 DUP2 PUSH1 0x7 PUSH2 0x1770 STATICCALL RETURNDATASIZE ISZERO ISZERO AND SWAP2 DUP3 ISZERO PUSH2 0x11F1 JUMPI PUSH1 0x40 SWAP2 SWAP3 POP PUSH1 0x80 DUP2 PUSH1 0x6 PUSH1 0x96 STATICCALL RETURNDATASIZE ISZERO ISZERO AND SWAP1 JUMP JUMPDEST SWAP2 SWAP1 PUSH1 0x40 SWAP1 DUP2 DUP5 ADD SWAP1 PUSH32 0x27A3C7C1FCAB288DBED6E5E2203C764A2493D24FC9677D3A95F5085F6B889664 DUP3 MSTORE PUSH32 0x2B8AE68E29D7FC58F608C37CAAB2877326061E4746DFEDD3F1A720683D706CDB PUSH1 0x60 DUP7 ADD MSTORE PUSH1 0x80 DUP6 ADD MSTORE PUSH1 0x60 DUP2 PUSH1 0x7 PUSH2 0x1770 STATICCALL RETURNDATASIZE ISZERO ISZERO AND SWAP2 DUP3 ISZERO PUSH2 0x11F1 JUMPI PUSH1 0x40 SWAP2 SWAP3 POP PUSH1 0x80 DUP2 PUSH1 0x6 PUSH1 0x96 STATICCALL RETURNDATASIZE ISZERO ISZERO AND SWAP1 JUMP JUMPDEST SWAP2 SWAP1 PUSH1 0x40 SWAP1 DUP2 DUP5 ADD SWAP1 PUSH32 0x2BBFB0D23F2DF476A41623DB79F40EA22A838F94358C91AC813899CBFC73DF05 DUP3 MSTORE PUSH32 0xF381AF4E8DCA656DC4AB15192A48144B5ECAF35DFE0AA1B28B5FEC89D16677A PUSH1 0x60 DUP7 ADD MSTORE PUSH1 0x80 DUP6 ADD MSTORE PUSH1 0x60 DUP2 PUSH1 0x7 PUSH2 0x1770 STATICCALL RETURNDATASIZE ISZERO ISZERO AND SWAP2 DUP3 ISZERO PUSH2 0x11F1 JUMPI PUSH1 0x40 SWAP2 SWAP3 POP PUSH1 0x80 DUP2 PUSH1 0x6 PUSH1 0x96 STATICCALL RETURNDATASIZE ISZERO ISZERO AND SWAP1 JUMP JUMPDEST SWAP2 SWAP1 PUSH1 0x40 SWAP1 DUP2 DUP5 ADD SWAP1 PUSH32 0xD4D12B3392B53FB9E5506111FB12264E0BD8B8D3A850294464BB5DAE0CEC3B3 DUP3 MSTORE PUSH32 0x2EE154CF49E1417EF0990A8B687DD18927D1284C0E7BC9C1FEA7FF466A3FF556 PUSH1 0x60 DUP7 ADD MSTORE PUSH1 0x80 DUP6 ADD MSTORE PUSH1 0x60 DUP2 PUSH1 0x7 PUSH2 0x1770 STATICCALL RETURNDATASIZE ISZERO ISZERO AND SWAP2 DUP3 ISZERO PUSH2 0x11F1 JUMPI PUSH1 0x40 SWAP2 SWAP3 POP PUSH1 0x80 DUP2 PUSH1 0x6 PUSH1 0x96 STATICCALL RETURNDATASIZE ISZERO ISZERO AND SWAP1 JUMP JUMPDEST SWAP2 SWAP1 PUSH1 0x40 SWAP1 DUP2 DUP5 ADD SWAP1 PUSH32 0x15DE6E95A9E6C3671B71DFF3078D2DB3C6A4ECED673F7EE90BDBD5877D902261 DUP3 MSTORE PUSH32 0x2172EA49C516C3370DA43ABFD50C0693955EA12353021D63CDF9FCC12F29D8C1 PUSH1 0x60 DUP7 ADD MSTORE PUSH1 0x80 DUP6 ADD MSTORE PUSH1 0x60 DUP2 PUSH1 0x7 PUSH2 0x1770 STATICCALL RETURNDATASIZE ISZERO ISZERO AND SWAP2 DUP3 ISZERO PUSH2 0x11F1 JUMPI PUSH1 0x40 SWAP2 SWAP3 POP PUSH1 0x80 DUP2 PUSH1 0x6 PUSH1 0x96 STATICCALL RETURNDATASIZE ISZERO ISZERO AND SWAP1 JUMP JUMPDEST SWAP2 SWAP1 PUSH1 0x40 SWAP1 DUP2 DUP5 ADD SWAP1 PUSH32 0x14DE701DB9A371D99C794203F8F6C8DA451F72C65B0D8AD4823CD4FFD7FFBF24 DUP3 MSTORE PUSH32 0x2736A1A5DC6805D17813812CF5CBBC969BF589ABC3B1C37DFA38FFC5F5DD4472 PUSH1 0x60 DUP7 ADD MSTORE PUSH1 0x80 DUP6 ADD MSTORE PUSH1 0x60 DUP2 PUSH1 0x7 PUSH2 0x1770 STATICCALL RETURNDATASIZE ISZERO ISZERO AND SWAP2 DUP3 ISZERO PUSH2 0x11F1 JUMPI PUSH1 0x40 SWAP2 SWAP3 POP PUSH1 0x80 DUP2 PUSH1 0x6 PUSH1 0x96 STATICCALL RETURNDATASIZE ISZERO ISZERO AND SWAP1 JUMP JUMPDEST SWAP2 SWAP1 PUSH1 0x40 SWAP1 DUP2 DUP5 ADD SWAP1 PUSH32 0x101CC19783D55570B972975AAAB245AB05482C4D09CCE7725F6EE219A6D016A4 DUP3 MSTORE PUSH32 0x2ED92781BC0DFF7F19DCC7E1AB2F70504EC5A0CFD5DA318B2F1B84B998E8AEF8 PUSH1 0x60 DUP7 ADD MSTORE PUSH1 0x80 DUP6 ADD MSTORE PUSH1 0x60 DUP2 PUSH1 0x7 PUSH2 0x1770 STATICCALL RETURNDATASIZE ISZERO ISZERO AND SWAP2 DUP3 ISZERO PUSH2 0x11F1 JUMPI PUSH1 0x40 SWAP2 SWAP3 POP PUSH1 0x80 DUP2 PUSH1 0x6 PUSH1 0x96 STATICCALL RETURNDATASIZE ISZERO ISZERO AND SWAP1 JUMP JUMPDEST SWAP2 SWAP1 PUSH1 0x40 SWAP1 DUP2 DUP5 ADD SWAP1 PUSH32 0x29B84884B36312F1195719EE5BF01064EB7A5C32B84C7C33B4F60F5BD926E2DF DUP3 MSTORE PUSH32 0x2FBE747655D747D81576EE1853D32399C80B3EFEB1ADC8E6ADE15AF6C889D69C PUSH1 0x60 DUP7 ADD MSTORE PUSH1 0x80 DUP6 ADD MSTORE PUSH1 0x60 DUP2 PUSH1 0x7 PUSH2 0x1770 STATICCALL RETURNDATASIZE ISZERO ISZERO AND SWAP2 DUP3 ISZERO PUSH2 0x11F1 JUMPI PUSH1 0x40 SWAP2 SWAP3 POP PUSH1 0x80 DUP2 PUSH1 0x6 PUSH1 0x96 STATICCALL RETURNDATASIZE ISZERO ISZERO AND SWAP1 JUMP JUMPDEST SWAP2 SWAP1 PUSH1 0x40 SWAP1 DUP2 DUP5 ADD SWAP1 PUSH32 0x578A6B18CE5CB28D296FF4B3CA749C655679EF0E674603E15E241669D1E2475 DUP3 MSTORE PUSH32 0x1A15F97CD3A15D3C89C1FB870CB24FC6CA6CD6202871AB3AD2448482407B09B7 PUSH1 0x60 DUP7 ADD MSTORE PUSH1 0x80 DUP6 ADD MSTORE PUSH1 0x60 DUP2 PUSH1 0x7 PUSH2 0x1770 STATICCALL RETURNDATASIZE ISZERO ISZERO AND SWAP2 DUP3 ISZERO PUSH2 0x11F1 JUMPI PUSH1 0x40 SWAP2 SWAP3 POP PUSH1 0x80 DUP2 PUSH1 0x6 PUSH1 0x96 STATICCALL RETURNDATASIZE ISZERO ISZERO AND SWAP1 JUMP JUMPDEST SWAP1 SWAP2 SWAP3 PUSH1 0x0 SWAP1 PUSH32 0xF41ED44CC532F837DF89E45F9D11B986B429E395DFEA658900C66C9B5BA7669 DUP7 MSTORE PUSH32 0x2576002D08ABB868A9A4355DD9598B87F246F91CAE80E0BEAC3E1C3A49B5EB6F PUSH1 0x20 DUP8 ADD MSTORE PUSH2 0x1B3C DUP2 MLOAD DUP8 PUSH2 0x1172 JUMP JUMPDEST ISZERO PUSH2 0x1F4E JUMPI PUSH2 0x1B4F PUSH1 0x20 DUP3 ADD MLOAD DUP8 PUSH2 0x11F4 JUMP JUMPDEST ISZERO PUSH2 0x1F4E JUMPI PUSH2 0x1B62 PUSH1 0x40 DUP3 ADD MLOAD DUP8 PUSH2 0x1273 JUMP JUMPDEST ISZERO PUSH2 0x1F4E JUMPI PUSH2 0x1B75 PUSH1 0x60 DUP3 ADD MLOAD DUP8 PUSH2 0x12F2 JUMP JUMPDEST ISZERO PUSH2 0x1F4E JUMPI PUSH2 0x1B88 PUSH1 0x80 DUP3 ADD MLOAD DUP8 PUSH2 0x1371 JUMP JUMPDEST ISZERO PUSH2 0x1F4E JUMPI PUSH2 0x1B9B PUSH1 0xA0 DUP3 ADD MLOAD DUP8 PUSH2 0x13F0 JUMP JUMPDEST ISZERO PUSH2 0x1F4E JUMPI PUSH2 0x1BAE PUSH1 0xC0 DUP3 ADD MLOAD DUP8 PUSH2 0x146F JUMP JUMPDEST ISZERO PUSH2 0x1F4E JUMPI PUSH2 0x1BC1 PUSH1 0xE0 DUP3 ADD MLOAD DUP8 PUSH2 0x14EE JUMP JUMPDEST ISZERO PUSH2 0x1F4E JUMPI PUSH2 0x1BD5 PUSH2 0x100 DUP3 ADD MLOAD DUP8 PUSH2 0x156D JUMP JUMPDEST ISZERO PUSH2 0x1F4E JUMPI PUSH2 0x1BE9 PUSH2 0x120 DUP3 ADD MLOAD DUP8 PUSH2 0x15EC JUMP JUMPDEST ISZERO PUSH2 0x1F4E JUMPI PUSH2 0x1BFD PUSH2 0x140 DUP3 ADD MLOAD DUP8 PUSH2 0x166B JUMP JUMPDEST ISZERO PUSH2 0x1F4E JUMPI PUSH2 0x1C11 PUSH2 0x160 DUP3 ADD MLOAD DUP8 PUSH2 0x16EA JUMP JUMPDEST ISZERO PUSH2 0x1F4E JUMPI PUSH2 0x1C25 PUSH2 0x180 DUP3 ADD MLOAD DUP8 PUSH2 0x1769 JUMP JUMPDEST ISZERO PUSH2 0x1F4E JUMPI PUSH2 0x1C39 PUSH2 0x1A0 DUP3 ADD MLOAD DUP8 PUSH2 0x17E8 JUMP JUMPDEST ISZERO PUSH2 0x1F4E JUMPI PUSH2 0x1C4D PUSH2 0x1C0 DUP3 ADD MLOAD DUP8 PUSH2 0x1867 JUMP JUMPDEST ISZERO PUSH2 0x1F4E JUMPI PUSH2 0x1C61 PUSH2 0x1E0 DUP3 ADD MLOAD DUP8 PUSH2 0x18E6 JUMP JUMPDEST ISZERO PUSH2 0x1F4E JUMPI PUSH2 0x1C75 PUSH2 0x200 DUP3 ADD MLOAD DUP8 PUSH2 0x1965 JUMP JUMPDEST ISZERO PUSH2 0x1F4E JUMPI PUSH2 0x1C89 PUSH2 0x220 DUP3 ADD MLOAD DUP8 PUSH2 0x19E4 JUMP JUMPDEST ISZERO PUSH2 0x1F4E JUMPI PUSH2 0x240 PUSH2 0x1C9D SWAP2 ADD MLOAD DUP7 PUSH2 0x1A63 JUMP JUMPDEST ISZERO PUSH2 0x1F46 JUMPI POP PUSH1 0x20 DUP1 SWAP4 SWAP3 PUSH32 0x30644E72E131A029B85045B68181585D97816A916871CA8D3C208C16D87CFD47 DUP3 DUP1 SWAP5 PUSH32 0x198E9393920D483A7260BFB731FB5D25F1AA493335A9E71297E485B7AEF312C2 PUSH1 0x40 DUP11 ADD MSTORE PUSH32 0x1800DEEF121F1E76426A00665E5C4479674322D4F75EDADD46DEBD5CD992F6ED PUSH1 0x60 DUP11 ADD MSTORE PUSH32 0x90689D0585FF075EC9E99AD690C3395BC4B313370B38EF355ACDADCD122975B PUSH1 0x80 DUP11 ADD MSTORE PUSH32 0x12C85EA5DB8C6DEB4AAB71808DCB408FE3D1E7690C43D37B4CE6CC0166FA7DAA PUSH1 0xA0 DUP11 ADD MSTORE DUP1 MLOAD PUSH1 0xC0 DUP11 ADD MSTORE ADD MLOAD DUP2 SUB MOD PUSH1 0xE0 DUP8 ADD MSTORE DUP1 MLOAD MLOAD PUSH2 0x100 DUP8 ADD MSTORE DUP2 DUP2 MLOAD ADD MLOAD PUSH2 0x120 DUP8 ADD MSTORE ADD DUP1 MLOAD MLOAD PUSH2 0x140 DUP7 ADD MSTORE MLOAD ADD MLOAD PUSH2 0x160 DUP5 ADD MSTORE PUSH32 0x2D4D9AA7E302D9DF41749D5507949D05DBEA33FBB16C643B22F599A2BE6DF2E2 PUSH2 0x180 DUP5 ADD MSTORE PUSH32 0x14BEDD503C37CEB061D8EC60209FE345CE89830A19230301F076CAFF004D1926 PUSH2 0x1A0 DUP5 ADD MSTORE PUSH32 0x967032FCBF776D1AFC985F88877F182D38480A653F2DECAA9794CBC3BF3060C PUSH2 0x1C0 DUP5 ADD MSTORE PUSH32 0xE187847AD4C798374D0D6732BF501847DD68BC0E071241E0213BC7FC13DB7AB PUSH2 0x1E0 DUP5 ADD MSTORE PUSH32 0x304CFBD1E08A704A99F5E847D93F8C3CAAFDDEC46B7A0D379DA69A4D112346A7 PUSH2 0x200 DUP5 ADD MSTORE PUSH32 0x1739C1B1A457A8C7313123D24D2F9192F896B7C63EEA05A9D57F06547AD0CEC8 PUSH2 0x220 DUP5 ADD MSTORE DUP1 MLOAD PUSH2 0x240 DUP5 ADD MSTORE ADD MLOAD PUSH2 0x260 DUP3 ADD MSTORE PUSH32 0x198E9393920D483A7260BFB731FB5D25F1AA493335A9E71297E485B7AEF312C2 PUSH2 0x280 DUP3 ADD MSTORE PUSH32 0x1800DEEF121F1E76426A00665E5C4479674322D4F75EDADD46DEBD5CD992F6ED PUSH2 0x2A0 DUP3 ADD MSTORE PUSH32 0x90689D0585FF075EC9E99AD690C3395BC4B313370B38EF355ACDADCD122975B PUSH2 0x2C0 DUP3 ADD MSTORE PUSH32 0x12C85EA5DB8C6DEB4AAB71808DCB408FE3D1E7690C43D37B4CE6CC0166FA7DAA PUSH2 0x2E0 DUP3 ADD MSTORE PUSH1 0x20 DUP2 PUSH2 0x300 DUP2 PUSH1 0x8 PUSH3 0x2C308 STATICCALL SWAP1 MLOAD AND SWAP1 JUMP JUMPDEST SWAP5 SWAP4 POP POP POP POP JUMP JUMPDEST POP SWAP5 SWAP4 POP POP POP POP JUMP JUMPDEST SWAP4 SWAP3 SWAP1 SWAP2 PUSH1 0x40 MLOAD SWAP3 PUSH2 0x300 DUP5 ADD PUSH1 0x40 MSTORE PUSH1 0x1 PUSH2 0x1F73 DUP5 MLOAD PUSH2 0x114D JUMP JUMPDEST PUSH2 0x1F80 PUSH1 0x20 DUP7 ADD MLOAD PUSH2 0x114D JUMP JUMPDEST AND PUSH2 0x1F8E PUSH1 0x40 DUP7 ADD MLOAD PUSH2 0x114D JUMP JUMPDEST AND PUSH2 0x1F9C PUSH1 0x60 DUP7 ADD MLOAD PUSH2 0x114D JUMP JUMPDEST AND AND PUSH2 0x1FAB PUSH1 0x80 DUP6 ADD MLOAD PUSH2 0x114D JUMP JUMPDEST AND PUSH2 0x1FB9 PUSH1 0xA0 DUP6 ADD MLOAD PUSH2 0x114D JUMP JUMPDEST AND PUSH2 0x1FC7 PUSH1 0xC0 DUP6 ADD MLOAD PUSH2 0x114D JUMP JUMPDEST AND PUSH2 0x1FD5 PUSH1 0xE0 DUP6 ADD MLOAD PUSH2 0x114D JUMP JUMPDEST AND PUSH2 0x1FE4 PUSH2 0x100 DUP6 ADD MLOAD PUSH2 0x114D JUMP JUMPDEST AND PUSH2 0x1FF3 PUSH2 0x120 DUP6 ADD MLOAD PUSH2 0x114D JUMP JUMPDEST AND PUSH2 0x2002 PUSH2 0x140 DUP6 ADD MLOAD PUSH2 0x114D JUMP JUMPDEST AND PUSH2 0x2011 PUSH2 0x160 DUP6 ADD MLOAD PUSH2 0x114D JUMP JUMPDEST AND PUSH2 0x2020 PUSH2 0x180 DUP6 ADD MLOAD PUSH2 0x114D JUMP JUMPDEST AND PUSH2 0x202F PUSH2 0x1A0 DUP6 ADD MLOAD PUSH2 0x114D JUMP JUMPDEST AND PUSH2 0x203E PUSH2 0x1C0 DUP6 ADD MLOAD PUSH2 0x114D JUMP JUMPDEST AND PUSH2 0x204D PUSH2 0x1E0 DUP6 ADD MLOAD PUSH2 0x114D JUMP JUMPDEST AND PUSH2 0x205C PUSH2 0x200 DUP6 ADD MLOAD PUSH2 0x114D JUMP JUMPDEST AND PUSH2 0x206B PUSH2 0x220 DUP6 ADD MLOAD PUSH2 0x114D JUMP JUMPDEST AND PUSH2 0x207A PUSH2 0x240 DUP6 ADD MLOAD PUSH2 0x114D JUMP JUMPDEST AND SWAP6 DUP7 ISZERO NOT PUSH2 0x208B JUMPI JUMPDEST POP POP POP POP POP JUMP JUMPDEST PUSH2 0x2096 SWAP6 SWAP7 POP PUSH2 0x1AE2 JUMP JUMPDEST SWAP1 CODESIZE DUP1 DUP1 DUP1 DUP1 PUSH2 0x2084 JUMP INVALID LOG2 PUSH5 0x6970667358 0x22 SLT KECCAK256 0xDC 0x23 PUSH19 0x6AD1DBE452C3270E1C080C763359DFDF748F74 SWAP11 0x2C 0xD5 0xF8 0xC5 0xE1 0x2A 0x22 PUSH17 0xAB64736F6C634300081B00330000000000 "},"methodIdentifiers":{"ALPHA_X()":"d1fb02a3","ALPHA_Y()":"6a5935a7","BASE_FIELD_SIZE()":"839a60d0","BETA_X1()":"dc05a822","BETA_X2()":"7fdf8fc1","BETA_Y1()":"dd924b47","BETA_Y2()":"1c4d4406","DELTA_X1()":"d70a63cc","DELTA_X2()":"f7a65aae","DELTA_Y1()":"b936325c","DELTA_Y2()":"cc9c92ae","GAMMA_X1()":"901660c4","GAMMA_X2()":"dfcf46f0","GAMMA_Y1()":"3a9e6a4d","GAMMA_Y2()":"acb41936","IC0_X()":"6336ec6c","IC0_Y()":"742797c4","IC10_X()":"11fbfe66","IC10_Y()":"e848dd6f","IC11_X()":"39637503","IC11_Y()":"73354b60","IC12_X()":"a127ed86","IC12_Y()":"ba688175","IC13_X()":"36b397dc","IC13_Y()":"1077f544","IC14_X()":"d8c710e0","IC14_Y()":"e834dbdd","IC15_X()":"4b750a92","IC15_Y()":"30c1731c","IC16_X()":"e11e8ee2","IC16_Y()":"32148d47","IC17_X()":"286f014b","IC17_Y()":"2d527448","IC18_X()":"45ce05a8","IC18_Y()":"d0fdd6af","IC19_X()":"59b396b5","IC19_Y()":"6076d7ed","IC1_X()":"d663b365","IC1_Y()":"a1978c3c","IC2_X()":"dce42004","IC2_Y()":"0cbb35c3","IC3_X()":"4234a1d6","IC3_Y()":"50def905","IC4_X()":"eedee58f","IC4_Y()":"4e890b27","IC5_X()":"898611fd","IC5_Y()":"24934a11","IC6_X()":"aed43349","IC6_Y()":"bf48189e","IC7_X()":"31aa5e26","IC7_Y()":"2c0556ed","IC8_X()":"41fe6a9a","IC8_Y()":"2dacca56","IC9_X()":"dacb4e69","IC9_Y()":"28e44695","P_TOTAL_SIZE()":"a6aca976","SCALAR_FIELD_SIZE()":"0ddec475","verifyProof(uint256[2],uint256[2][2],uint256[2],uint256[19])":"f3f22e72"}}}}}