{"contracts/verifiers/RegistrationCircuitGroth16Verifier.sol":{"RegistrationCircuitGroth16Verifier":{"abi":[{"inputs":[],"name":"ALPHA_X","outputs":[{"internalType":"uint256","name":"","type":"uint256"}],"stateMutability":"view","type":"function"},{"inputs":[],"name":"ALPHA_Y","outputs":[{"internalType":"uint256","name":"","type":"uint256"}],"stateMutability":"view","type":"function"},{"inputs":[],"name":"BASE_FIELD_SIZE","outputs":[{"internalType":"uint256","name":"","type":"uint256"}],"stateMutability":"view","type":"function"},{"inputs":[],"name":"BETA_X1","outputs":[{"internalType":"uint256","name":"","type":"uint256"}],"stateMutability":"view","type":"function"},{"inputs":[],"name":"BETA_X2","outputs":[{"internalType":"uint256","name":"","type":"uint256"}],"stateMutability":"view","type":"function"},{"inputs":[],"name":"BETA_Y1","outputs":[{"internalType":"uint256","name":"","type":"uint256"}],"stateMutability":"view","type":"function"},{"inputs":[],"name":"BETA_Y2","outputs":[{"internalType":"uint256","name":"","type":"uint256"}],"stateMutability":"view","type":"function"},{"inputs":[],"name":"DELTA_X1","outputs":[{"internalType":"uint256","name":"","type":"uint256"}],"stateMutability":"view","type":"function"},{"inputs":[],"name":"DELTA_X2","outputs":[{"internalType":"uint256","name":"","type":"uint256"}],"stateMutability":"view","type":"function"},{"inputs":[],"name":"DELTA_Y1","outputs":[{"internalType":"uint256","name":"","type":"uint256"}],"stateMutability":"view","type":"function"},{"inputs":[],"name":"DELTA_Y2","outputs":[{"internalType":"uint256","name":"","type":"uint256"}],"stateMutability":"view","type":"function"},{"inputs":[],"name":"GAMMA_X1","outputs":[{"internalType":"uint256","name":"","type":"uint256"}],"stateMutability":"view","type":"function"},{"inputs":[],"name":"GAMMA_X2","outputs":[{"internalType":"uint256","name":"","type":"uint256"}],"stateMutability":"view","type":"function"},{"inputs":[],"name":"GAMMA_Y1","outputs":[{"internalType":"uint256","name":"","type":"uint256"}],"stateMutability":"view","type":"function"},{"inputs":[],"name":"GAMMA_Y2","outputs":[{"internalType":"uint256","name":"","type":"uint256"}],"stateMutability":"view","type":"function"},{"inputs":[],"name":"IC0_X","outputs":[{"internalType":"uint256","name":"","type":"uint256"}],"stateMutability":"view","type":"function"},{"inputs":[],"name":"IC0_Y","outputs":[{"internalType":"uint256","name":"","type":"uint256"}],"stateMutability":"view","type":"function"},{"inputs":[],"name":"IC1_X","outputs":[{"internalType":"uint256","name":"","type":"uint256"}],"stateMutability":"view","type":"function"},{"inputs":[],"name":"IC1_Y","outputs":[{"internalType":"uint256","name":"","type":"uint256"}],"stateMutability":"view","type":"function"},{"inputs":[],"name":"IC2_X","outputs":[{"internalType":"uint256","name":"","type":"uint256"}],"stateMutability":"view","type":"function"},{"inputs":[],"name":"IC2_Y","outputs":[{"internalType":"uint256","name":"","type":"uint256"}],"stateMutability":"view","type":"function"},{"inputs":[],"name":"IC3_X","outputs":[{"internalType":"uint256","name":"","type":"uint256"}],"stateMutability":"view","type":"function"},{"inputs":[],"name":"IC3_Y","outputs":[{"internalType":"uint256","name":"","type":"uint256"}],"stateMutability":"view","type":"function"},{"inputs":[],"name":"IC4_X","outputs":[{"internalType":"uint256","name":"","type":"uint256"}],"stateMutability":"view","type":"function"},{"inputs":[],"name":"IC4_Y","outputs":[{"internalType":"uint256","name":"","type":"uint256"}],"stateMutability":"view","type":"function"},{"inputs":[],"name":"IC5_X","outputs":[{"internalType":"uint256","name":"","type":"uint256"}],"stateMutability":"view","type":"function"},{"inputs":[],"name":"IC5_Y","outputs":[{"internalType":"uint256","name":"","type":"uint256"}],"stateMutability":"view","type":"function"},{"inputs":[],"name":"P_TOTAL_SIZE","outputs":[{"internalType":"uint256","name":"","type":"uint256"}],"stateMutability":"view","type":"function"},{"inputs":[],"name":"SCALAR_FIELD_SIZE","outputs":[{"internalType":"uint256","name":"","type":"uint256"}],"stateMutability":"view","type":"function"},{"inputs":[{"internalType":"uint256[2]","name":"pointA_","type":"uint256[2]"},{"internalType":"uint256[2][2]","name":"pointB_","type":"uint256[2][2]"},{"internalType":"uint256[2]","name":"pointC_","type":"uint256[2]"},{"internalType":"uint256[5]","name":"publicSignals_","type":"uint256[5]"}],"name":"verifyProof","outputs":[{"internalType":"bool","name":"verified_","type":"bool"}],"stateMutability":"view","type":"function"}],"evm":{"bytecode":{"linkReferences":{},"object":"60808060405234601557610fdd908161001b8239f35b600080fdfe6080604052600436101561001257600080fd5b60003560e01c80630cbb35c3146101e35780630ddec475146101de5780631c4d4406146101d957806324934a11146101d457806334baeab9146101cf5780633a9e6a4d146101935780634234a1d6146101ca5780634e890b27146101c557806350def905146101c05780636336ec6c146101bb5780636a5935a7146101b6578063742797c4146101b15780637fdf8fc1146101ac578063839a60d0146101a7578063898611fd146101a2578063901660c41461017f578063a1978c3c1461019d578063a6aca97614610198578063acb419361461018e578063b936325c14610193578063cc9c92ae1461018e578063d1fb02a314610189578063d663b36514610184578063d70a63cc1461017f578063dc05a8221461017a578063dce4200414610175578063dd924b4714610170578063dfcf46f014610166578063eedee58f1461016b5763f7a65aae1461016657600080fd5b610890565b6108cb565b610855565b61081a565b6107df565b61069b565b6107a4565b610769565b61072e565b61044d565b610711565b6106d6565b610660565b610625565b6105ea565b6105af565b610574565b610539565b6104fe565b6104c3565b610488565b6103b8565b610287565b61024c565b610223565b3461021e57600036600319011261021e5760206040517f0fcd73b4d56ad4343796dd9bb0d9419df09630f5a5ff272f3fa342bd21f30cab8152f35b600080fd5b3461021e57600036600319011261021e576020604051600080516020610f888339815191528152f35b3461021e57600036600319011261021e5760206040517f1739c1b1a457a8c7313123d24d2f9192f896b7c63eea05a9d57f06547ad0cec88152f35b3461021e57600036600319011261021e5760206040517f1b9caf3c3e2a7c82c5044e3b3a899f4f0d28dbf174e1aecb9439457809038d898152f35b6040519190601f01601f1916820167ffffffffffffffff8111838210176102e857604052565b634e487b7160e01b600052604160045260246000fd5b919061030a60406102c2565b9283906040810192831161021e57905b82821061032657505050565b813581526020918201910161031a565b806023121561021e5761034a9060046102fe565b90565b8060e3121561021e5761034a9060c46102fe565b9080601f8301121561021e5761034a916102fe565b80610123121561021e5761038a60a06102c2565b9081906101a41161021e57610104905b6101a482106103a857505090565b813581526020918201910161039a565b3461021e576101a036600319011261021e576103d336610336565b366063121561021e576040906103e8826102c2565b803660c41161021e576044905b60c48210610434576104308561041f868661040f3661034d565b9061041936610376565b92610ee4565b905190151581529081906020820190565b0390f35b602085916104423685610361565b8152019101906103f5565b3461021e57600036600319011261021e5760206040517f090689d0585ff075ec9e99ad690c3395bc4b313370b38ef355acdadcd122975b8152f35b3461021e57600036600319011261021e5760206040517f111b373426ca420c28b4d961ce43ab1d0e1b9d920e2dacd7d599899f99898abf8152f35b3461021e57600036600319011261021e5760206040517f19f60169a288d40a348beae483883e0662cfe6568d7832651fd8a3dfb9e209408152f35b3461021e57600036600319011261021e5760206040517f0fbbf302a37db8760933e668a0193081abc7e55928ac52a1c11152a41bc43b408152f35b3461021e57600036600319011261021e5760206040517f08da6a8e5ea2b88d10825e21e347174a990e91e12d969378db3ecd51b57a84a68152f35b3461021e57600036600319011261021e5760206040517f14bedd503c37ceb061d8ec60209fe345ce89830a19230301f076caff004d19268152f35b3461021e57600036600319011261021e5760206040517f18a229d1869f207508d63165df3dfd7786a5102e81a198dac3961381c01c1e788152f35b3461021e57600036600319011261021e5760206040517f0e187847ad4c798374d0d6732bf501847dd68bc0e071241e0213bc7fc13db7ab8152f35b3461021e57600036600319011261021e5760206040517f30644e72e131a029b85045b68181585d97816a916871ca8d3c208c16d87cfd478152f35b3461021e57600036600319011261021e5760206040517f20b3b6fc6cc9533c632002184004ff49b38be27f7b1788fba2e1e4a83932e67e8152f35b3461021e57600036600319011261021e5760206040517f198e9393920d483a7260bfb731fb5d25f1aa493335a9e71297e485b7aef312c28152f35b3461021e57600036600319011261021e5760206040517f2310bf279ed58b4cf463bdf369764c452845353f114fb503f036279c81517a388152f35b3461021e57600036600319011261021e5760206040516103008152f35b3461021e57600036600319011261021e5760206040517f12c85ea5db8c6deb4aab71808dcb408fe3d1e7690c43d37b4ce6cc0166fa7daa8152f35b3461021e57600036600319011261021e5760206040517f2d4d9aa7e302d9df41749d5507949d05dbea33fbb16c643b22f599a2be6df2e28152f35b3461021e57600036600319011261021e5760206040517f2118e76180d9d07274294c2182e4e00958b9fca9db1c51156e85a4b8cde5e1f58152f35b3461021e57600036600319011261021e5760206040517f0967032fcbf776d1afc985f88877f182d38480a653f2decaa9794cbc3bf3060c8152f35b3461021e57600036600319011261021e5760206040517f050ac0b65e5989b8446764d184d7d6ec3b6169c457171cbad5c3c0c1468c71778152f35b3461021e57600036600319011261021e5760206040517f304cfbd1e08a704a99f5e847d93f8c3caafddec46b7a0d379da69a4d112346a78152f35b3461021e57600036600319011261021e5760206040517f1800deef121f1e76426a00665e5c4479674322d4f75edadd46debd5cd992f6ed8152f35b3461021e57600036600319011261021e5760206040517f06ebaca996f58376a9fe3ca5c859caa794c21f107f2a5b2d1f0941c2f4f7d6f88152f35b9190604090818401907f2118e76180d9d07274294c2182e4e00958b9fca9db1c51156e85a4b8cde5e1f582527f2310bf279ed58b4cf463bdf369764c452845353f114fb503f036279c81517a38606086015260808501526060816007611770fa3d15151691821561098557604091925060808160066096fa3d15151690565b50565b9190604090818401907f050ac0b65e5989b8446764d184d7d6ec3b6169c457171cbad5c3c0c1468c717782527f0fcd73b4d56ad4343796dd9bb0d9419df09630f5a5ff272f3fa342bd21f30cab606086015260808501526060816007611770fa3d15151691821561098557604091925060808160066096fa3d15151690565b9190604090818401907f111b373426ca420c28b4d961ce43ab1d0e1b9d920e2dacd7d599899f99898abf82527f0fbbf302a37db8760933e668a0193081abc7e55928ac52a1c11152a41bc43b40606086015260808501526060816007611770fa3d15151691821561098557604091925060808160066096fa3d15151690565b9190604090818401907f06ebaca996f58376a9fe3ca5c859caa794c21f107f2a5b2d1f0941c2f4f7d6f882527f19f60169a288d40a348beae483883e0662cfe6568d7832651fd8a3dfb9e20940606086015260808501526060816007611770fa3d15151691821561098557604091925060808160066096fa3d15151690565b9190604090818401907f20b3b6fc6cc9533c632002184004ff49b38be27f7b1788fba2e1e4a83932e67e82527f1b9caf3c3e2a7c82c5044e3b3a899f4f0d28dbf174e1aecb9439457809038d89606086015260808501526060816007611770fa3d15151691821561098557604091925060808160066096fa3d15151690565b9091926000907f08da6a8e5ea2b88d10825e21e347174a990e91e12d969378db3ecd51b57a84a686527f18a229d1869f207508d63165df3dfd7786a5102e81a198dac3961381c01c1e786020870152610bde815187610906565b15610edb57610bf1602082015187610988565b15610edb57610c04604082015187610a07565b15610edb57610c17606082015187610a86565b15610edb576080610c2a91015186610b05565b15610ed3575060208093927f30644e72e131a029b85045b68181585d97816a916871ca8d3c208c16d87cfd478280947f198e9393920d483a7260bfb731fb5d25f1aa493335a9e71297e485b7aef312c260408a01527f1800deef121f1e76426a00665e5c4479674322d4f75edadd46debd5cd992f6ed60608a01527f090689d0585ff075ec9e99ad690c3395bc4b313370b38ef355acdadcd122975b60808a01527f12c85ea5db8c6deb4aab71808dcb408fe3d1e7690c43d37b4ce6cc0166fa7daa60a08a0152805160c08a0152015181030660e08701528051516101008701528181510151610120870152018051516101408601525101516101608401527f2d4d9aa7e302d9df41749d5507949d05dbea33fbb16c643b22f599a2be6df2e26101808401527f14bedd503c37ceb061d8ec60209fe345ce89830a19230301f076caff004d19266101a08401527f0967032fcbf776d1afc985f88877f182d38480a653f2decaa9794cbc3bf3060c6101c08401527f0e187847ad4c798374d0d6732bf501847dd68bc0e071241e0213bc7fc13db7ab6101e08401527f304cfbd1e08a704a99f5e847d93f8c3caafddec46b7a0d379da69a4d112346a76102008401527f1739c1b1a457a8c7313123d24d2f9192f896b7c63eea05a9d57f06547ad0cec8610220840152805161024084015201516102608201527f198e9393920d483a7260bfb731fb5d25f1aa493335a9e71297e485b7aef312c26102808201527f1800deef121f1e76426a00665e5c4479674322d4f75edadd46debd5cd992f6ed6102a08201527f090689d0585ff075ec9e99ad690c3395bc4b313370b38ef355acdadcd122975b6102c08201527f12c85ea5db8c6deb4aab71808dcb408fe3d1e7690c43d37b4ce6cc0166fa7daa6102e08201526020816103008160086202c308fa90511690565b949350505050565b50949350505050565b939290916040519261030084016040526001600080516020610f88833981519152845110600080516020610f8883398151915260208601511016600080516020610f8883398151915260408601511016600080516020610f888339815191526060860151101616600080516020610f888339815191526080850151101695861519610f71575b5050505050565b610f7c959650610b84565b903880808080610f6a56fe30644e72e131a029b85045b68181585d2833e84879b9709143e1f593f0000001a2646970667358221220150ef1442c486761d2b489465f8b3effafef306698f9f3ed4a660e55e43cd1c664736f6c634300081b0033","opcodes":"PUSH1 0x80 DUP1 PUSH1 0x40 MSTORE CALLVALUE PUSH1 0x15 JUMPI PUSH2 0xFDD SWAP1 DUP2 PUSH2 0x1B DUP3 CODECOPY RETURN JUMPDEST PUSH1 0x0 DUP1 REVERT INVALID PUSH1 0x80 PUSH1 0x40 MSTORE PUSH1 0x4 CALLDATASIZE LT ISZERO PUSH2 0x12 JUMPI PUSH1 0x0 DUP1 REVERT JUMPDEST PUSH1 0x0 CALLDATALOAD PUSH1 0xE0 SHR DUP1 PUSH4 0xCBB35C3 EQ PUSH2 0x1E3 JUMPI DUP1 PUSH4 0xDDEC475 EQ PUSH2 0x1DE JUMPI DUP1 PUSH4 0x1C4D4406 EQ PUSH2 0x1D9 JUMPI DUP1 PUSH4 0x24934A11 EQ PUSH2 0x1D4 JUMPI DUP1 PUSH4 0x34BAEAB9 EQ PUSH2 0x1CF JUMPI DUP1 PUSH4 0x3A9E6A4D EQ PUSH2 0x193 JUMPI DUP1 PUSH4 0x4234A1D6 EQ PUSH2 0x1CA JUMPI DUP1 PUSH4 0x4E890B27 EQ PUSH2 0x1C5 JUMPI DUP1 PUSH4 0x50DEF905 EQ PUSH2 0x1C0 JUMPI DUP1 PUSH4 0x6336EC6C EQ PUSH2 0x1BB JUMPI DUP1 PUSH4 0x6A5935A7 EQ PUSH2 0x1B6 JUMPI DUP1 PUSH4 0x742797C4 EQ PUSH2 0x1B1 JUMPI DUP1 PUSH4 0x7FDF8FC1 EQ PUSH2 0x1AC JUMPI DUP1 PUSH4 0x839A60D0 EQ PUSH2 0x1A7 JUMPI DUP1 PUSH4 0x898611FD EQ PUSH2 0x1A2 JUMPI DUP1 PUSH4 0x901660C4 EQ PUSH2 0x17F JUMPI DUP1 PUSH4 0xA1978C3C EQ PUSH2 0x19D JUMPI DUP1 PUSH4 0xA6ACA976 EQ PUSH2 0x198 JUMPI DUP1 PUSH4 0xACB41936 EQ PUSH2 0x18E JUMPI DUP1 PUSH4 0xB936325C EQ PUSH2 0x193 JUMPI DUP1 PUSH4 0xCC9C92AE EQ PUSH2 0x18E JUMPI DUP1 PUSH4 0xD1FB02A3 EQ PUSH2 0x189 JUMPI DUP1 PUSH4 0xD663B365 EQ PUSH2 0x184 JUMPI DUP1 PUSH4 0xD70A63CC EQ PUSH2 0x17F JUMPI DUP1 PUSH4 0xDC05A822 EQ PUSH2 0x17A JUMPI DUP1 PUSH4 0xDCE42004 EQ PUSH2 0x175 JUMPI DUP1 PUSH4 0xDD924B47 EQ PUSH2 0x170 JUMPI DUP1 PUSH4 0xDFCF46F0 EQ PUSH2 0x166 JUMPI DUP1 PUSH4 0xEEDEE58F EQ PUSH2 0x16B JUMPI PUSH4 0xF7A65AAE EQ PUSH2 0x166 JUMPI PUSH1 0x0 DUP1 REVERT JUMPDEST PUSH2 0x890 JUMP JUMPDEST PUSH2 0x8CB JUMP JUMPDEST PUSH2 0x855 JUMP JUMPDEST PUSH2 0x81A JUMP JUMPDEST PUSH2 0x7DF JUMP JUMPDEST PUSH2 0x69B JUMP JUMPDEST PUSH2 0x7A4 JUMP JUMPDEST PUSH2 0x769 JUMP JUMPDEST PUSH2 0x72E JUMP JUMPDEST PUSH2 0x44D JUMP JUMPDEST PUSH2 0x711 JUMP JUMPDEST PUSH2 0x6D6 JUMP JUMPDEST PUSH2 0x660 JUMP JUMPDEST PUSH2 0x625 JUMP JUMPDEST PUSH2 0x5EA JUMP JUMPDEST PUSH2 0x5AF JUMP JUMPDEST PUSH2 0x574 JUMP JUMPDEST PUSH2 0x539 JUMP JUMPDEST PUSH2 0x4FE JUMP JUMPDEST PUSH2 0x4C3 JUMP JUMPDEST PUSH2 0x488 JUMP JUMPDEST PUSH2 0x3B8 JUMP JUMPDEST PUSH2 0x287 JUMP JUMPDEST PUSH2 0x24C JUMP JUMPDEST PUSH2 0x223 JUMP JUMPDEST CALLVALUE PUSH2 0x21E JUMPI PUSH1 0x0 CALLDATASIZE PUSH1 0x3 NOT ADD SLT PUSH2 0x21E JUMPI PUSH1 0x20 PUSH1 0x40 MLOAD PUSH32 0xFCD73B4D56AD4343796DD9BB0D9419DF09630F5A5FF272F3FA342BD21F30CAB DUP2 MSTORE RETURN JUMPDEST PUSH1 0x0 DUP1 REVERT JUMPDEST CALLVALUE PUSH2 0x21E JUMPI PUSH1 0x0 CALLDATASIZE PUSH1 0x3 NOT ADD SLT PUSH2 0x21E JUMPI PUSH1 0x20 PUSH1 0x40 MLOAD PUSH1 0x0 DUP1 MLOAD PUSH1 0x20 PUSH2 0xF88 DUP4 CODECOPY DUP2 MLOAD SWAP2 MSTORE DUP2 MSTORE RETURN JUMPDEST CALLVALUE PUSH2 0x21E JUMPI PUSH1 0x0 CALLDATASIZE PUSH1 0x3 NOT ADD SLT PUSH2 0x21E JUMPI PUSH1 0x20 PUSH1 0x40 MLOAD PUSH32 0x1739C1B1A457A8C7313123D24D2F9192F896B7C63EEA05A9D57F06547AD0CEC8 DUP2 MSTORE RETURN JUMPDEST CALLVALUE PUSH2 0x21E JUMPI PUSH1 0x0 CALLDATASIZE PUSH1 0x3 NOT ADD SLT PUSH2 0x21E JUMPI PUSH1 0x20 PUSH1 0x40 MLOAD PUSH32 0x1B9CAF3C3E2A7C82C5044E3B3A899F4F0D28DBF174E1AECB9439457809038D89 DUP2 MSTORE RETURN JUMPDEST PUSH1 0x40 MLOAD SWAP2 SWAP1 PUSH1 0x1F ADD PUSH1 0x1F NOT AND DUP3 ADD PUSH8 0xFFFFFFFFFFFFFFFF DUP2 GT DUP4 DUP3 LT OR PUSH2 0x2E8 JUMPI PUSH1 0x40 MSTORE JUMP JUMPDEST PUSH4 0x4E487B71 PUSH1 0xE0 SHL PUSH1 0x0 MSTORE PUSH1 0x41 PUSH1 0x4 MSTORE PUSH1 0x24 PUSH1 0x0 REVERT JUMPDEST SWAP2 SWAP1 PUSH2 0x30A PUSH1 0x40 PUSH2 0x2C2 JUMP JUMPDEST SWAP3 DUP4 SWAP1 PUSH1 0x40 DUP2 ADD SWAP3 DUP4 GT PUSH2 0x21E JUMPI SWAP1 JUMPDEST DUP3 DUP3 LT PUSH2 0x326 JUMPI POP POP POP JUMP JUMPDEST DUP2 CALLDATALOAD DUP2 MSTORE PUSH1 0x20 SWAP2 DUP3 ADD SWAP2 ADD PUSH2 0x31A JUMP JUMPDEST DUP1 PUSH1 0x23 SLT ISZERO PUSH2 0x21E JUMPI PUSH2 0x34A SWAP1 PUSH1 0x4 PUSH2 0x2FE JUMP JUMPDEST SWAP1 JUMP JUMPDEST DUP1 PUSH1 0xE3 SLT ISZERO PUSH2 0x21E JUMPI PUSH2 0x34A SWAP1 PUSH1 0xC4 PUSH2 0x2FE JUMP JUMPDEST SWAP1 DUP1 PUSH1 0x1F DUP4 ADD SLT ISZERO PUSH2 0x21E JUMPI PUSH2 0x34A SWAP2 PUSH2 0x2FE JUMP JUMPDEST DUP1 PUSH2 0x123 SLT ISZERO PUSH2 0x21E JUMPI PUSH2 0x38A PUSH1 0xA0 PUSH2 0x2C2 JUMP JUMPDEST SWAP1 DUP2 SWAP1 PUSH2 0x1A4 GT PUSH2 0x21E JUMPI PUSH2 0x104 SWAP1 JUMPDEST PUSH2 0x1A4 DUP3 LT PUSH2 0x3A8 JUMPI POP POP SWAP1 JUMP JUMPDEST DUP2 CALLDATALOAD DUP2 MSTORE PUSH1 0x20 SWAP2 DUP3 ADD SWAP2 ADD PUSH2 0x39A JUMP JUMPDEST CALLVALUE PUSH2 0x21E JUMPI PUSH2 0x1A0 CALLDATASIZE PUSH1 0x3 NOT ADD SLT PUSH2 0x21E JUMPI PUSH2 0x3D3 CALLDATASIZE PUSH2 0x336 JUMP JUMPDEST CALLDATASIZE PUSH1 0x63 SLT ISZERO PUSH2 0x21E JUMPI PUSH1 0x40 SWAP1 PUSH2 0x3E8 DUP3 PUSH2 0x2C2 JUMP JUMPDEST DUP1 CALLDATASIZE PUSH1 0xC4 GT PUSH2 0x21E JUMPI PUSH1 0x44 SWAP1 JUMPDEST PUSH1 0xC4 DUP3 LT PUSH2 0x434 JUMPI PUSH2 0x430 DUP6 PUSH2 0x41F DUP7 DUP7 PUSH2 0x40F CALLDATASIZE PUSH2 0x34D JUMP JUMPDEST SWAP1 PUSH2 0x419 CALLDATASIZE PUSH2 0x376 JUMP JUMPDEST SWAP3 PUSH2 0xEE4 JUMP JUMPDEST SWAP1 MLOAD SWAP1 ISZERO ISZERO DUP2 MSTORE SWAP1 DUP2 SWAP1 PUSH1 0x20 DUP3 ADD SWAP1 JUMP JUMPDEST SUB SWAP1 RETURN JUMPDEST PUSH1 0x20 DUP6 SWAP2 PUSH2 0x442 CALLDATASIZE DUP6 PUSH2 0x361 JUMP JUMPDEST DUP2 MSTORE ADD SWAP2 ADD SWAP1 PUSH2 0x3F5 JUMP JUMPDEST CALLVALUE PUSH2 0x21E JUMPI PUSH1 0x0 CALLDATASIZE PUSH1 0x3 NOT ADD SLT PUSH2 0x21E JUMPI PUSH1 0x20 PUSH1 0x40 MLOAD PUSH32 0x90689D0585FF075EC9E99AD690C3395BC4B313370B38EF355ACDADCD122975B DUP2 MSTORE RETURN JUMPDEST CALLVALUE PUSH2 0x21E JUMPI PUSH1 0x0 CALLDATASIZE PUSH1 0x3 NOT ADD SLT PUSH2 0x21E JUMPI PUSH1 0x20 PUSH1 0x40 MLOAD PUSH32 0x111B373426CA420C28B4D961CE43AB1D0E1B9D920E2DACD7D599899F99898ABF DUP2 MSTORE RETURN JUMPDEST CALLVALUE PUSH2 0x21E JUMPI PUSH1 0x0 CALLDATASIZE PUSH1 0x3 NOT ADD SLT PUSH2 0x21E JUMPI PUSH1 0x20 PUSH1 0x40 MLOAD PUSH32 0x19F60169A288D40A348BEAE483883E0662CFE6568D7832651FD8A3DFB9E20940 DUP2 MSTORE RETURN JUMPDEST CALLVALUE PUSH2 0x21E JUMPI PUSH1 0x0 CALLDATASIZE PUSH1 0x3 NOT ADD SLT PUSH2 0x21E JUMPI PUSH1 0x20 PUSH1 0x40 MLOAD PUSH32 0xFBBF302A37DB8760933E668A0193081ABC7E55928AC52A1C11152A41BC43B40 DUP2 MSTORE RETURN JUMPDEST CALLVALUE PUSH2 0x21E JUMPI PUSH1 0x0 CALLDATASIZE PUSH1 0x3 NOT ADD SLT PUSH2 0x21E JUMPI PUSH1 0x20 PUSH1 0x40 MLOAD PUSH32 0x8DA6A8E5EA2B88D10825E21E347174A990E91E12D969378DB3ECD51B57A84A6 DUP2 MSTORE RETURN JUMPDEST CALLVALUE PUSH2 0x21E JUMPI PUSH1 0x0 CALLDATASIZE PUSH1 0x3 NOT ADD SLT PUSH2 0x21E JUMPI PUSH1 0x20 PUSH1 0x40 MLOAD PUSH32 0x14BEDD503C37CEB061D8EC60209FE345CE89830A19230301F076CAFF004D1926 DUP2 MSTORE RETURN JUMPDEST CALLVALUE PUSH2 0x21E JUMPI PUSH1 0x0 CALLDATASIZE PUSH1 0x3 NOT ADD SLT PUSH2 0x21E JUMPI PUSH1 0x20 PUSH1 0x40 MLOAD PUSH32 0x18A229D1869F207508D63165DF3DFD7786A5102E81A198DAC3961381C01C1E78 DUP2 MSTORE RETURN JUMPDEST CALLVALUE PUSH2 0x21E JUMPI PUSH1 0x0 CALLDATASIZE PUSH1 0x3 NOT ADD SLT PUSH2 0x21E JUMPI PUSH1 0x20 PUSH1 0x40 MLOAD PUSH32 0xE187847AD4C798374D0D6732BF501847DD68BC0E071241E0213BC7FC13DB7AB DUP2 MSTORE RETURN JUMPDEST CALLVALUE PUSH2 0x21E JUMPI PUSH1 0x0 CALLDATASIZE PUSH1 0x3 NOT ADD SLT PUSH2 0x21E JUMPI PUSH1 0x20 PUSH1 0x40 MLOAD PUSH32 0x30644E72E131A029B85045B68181585D97816A916871CA8D3C208C16D87CFD47 DUP2 MSTORE RETURN JUMPDEST CALLVALUE PUSH2 0x21E JUMPI PUSH1 0x0 CALLDATASIZE PUSH1 0x3 NOT ADD SLT PUSH2 0x21E JUMPI PUSH1 0x20 PUSH1 0x40 MLOAD PUSH32 0x20B3B6FC6CC9533C632002184004FF49B38BE27F7B1788FBA2E1E4A83932E67E DUP2 MSTORE RETURN JUMPDEST CALLVALUE PUSH2 0x21E JUMPI PUSH1 0x0 CALLDATASIZE PUSH1 0x3 NOT ADD SLT PUSH2 0x21E JUMPI PUSH1 0x20 PUSH1 0x40 MLOAD PUSH32 0x198E9393920D483A7260BFB731FB5D25F1AA493335A9E71297E485B7AEF312C2 DUP2 MSTORE RETURN JUMPDEST CALLVALUE PUSH2 0x21E JUMPI PUSH1 0x0 CALLDATASIZE PUSH1 0x3 NOT ADD SLT PUSH2 0x21E JUMPI PUSH1 0x20 PUSH1 0x40 MLOAD PUSH32 0x2310BF279ED58B4CF463BDF369764C452845353F114FB503F036279C81517A38 DUP2 MSTORE RETURN JUMPDEST CALLVALUE PUSH2 0x21E JUMPI PUSH1 0x0 CALLDATASIZE PUSH1 0x3 NOT ADD SLT PUSH2 0x21E JUMPI PUSH1 0x20 PUSH1 0x40 MLOAD PUSH2 0x300 DUP2 MSTORE RETURN JUMPDEST CALLVALUE PUSH2 0x21E JUMPI PUSH1 0x0 CALLDATASIZE PUSH1 0x3 NOT ADD SLT PUSH2 0x21E JUMPI PUSH1 0x20 PUSH1 0x40 MLOAD PUSH32 0x12C85EA5DB8C6DEB4AAB71808DCB408FE3D1E7690C43D37B4CE6CC0166FA7DAA DUP2 MSTORE RETURN JUMPDEST CALLVALUE PUSH2 0x21E JUMPI PUSH1 0x0 CALLDATASIZE PUSH1 0x3 NOT ADD SLT PUSH2 0x21E JUMPI PUSH1 0x20 PUSH1 0x40 MLOAD PUSH32 0x2D4D9AA7E302D9DF41749D5507949D05DBEA33FBB16C643B22F599A2BE6DF2E2 DUP2 MSTORE RETURN JUMPDEST CALLVALUE PUSH2 0x21E JUMPI PUSH1 0x0 CALLDATASIZE PUSH1 0x3 NOT ADD SLT PUSH2 0x21E JUMPI PUSH1 0x20 PUSH1 0x40 MLOAD PUSH32 0x2118E76180D9D07274294C2182E4E00958B9FCA9DB1C51156E85A4B8CDE5E1F5 DUP2 MSTORE RETURN JUMPDEST CALLVALUE PUSH2 0x21E JUMPI PUSH1 0x0 CALLDATASIZE PUSH1 0x3 NOT ADD SLT PUSH2 0x21E JUMPI PUSH1 0x20 PUSH1 0x40 MLOAD PUSH32 0x967032FCBF776D1AFC985F88877F182D38480A653F2DECAA9794CBC3BF3060C DUP2 MSTORE RETURN JUMPDEST CALLVALUE PUSH2 0x21E JUMPI PUSH1 0x0 CALLDATASIZE PUSH1 0x3 NOT ADD SLT PUSH2 0x21E JUMPI PUSH1 0x20 PUSH1 0x40 MLOAD PUSH32 0x50AC0B65E5989B8446764D184D7D6EC3B6169C457171CBAD5C3C0C1468C7177 DUP2 MSTORE RETURN JUMPDEST CALLVALUE PUSH2 0x21E JUMPI PUSH1 0x0 CALLDATASIZE PUSH1 0x3 NOT ADD SLT PUSH2 0x21E JUMPI PUSH1 0x20 PUSH1 0x40 MLOAD PUSH32 0x304CFBD1E08A704A99F5E847D93F8C3CAAFDDEC46B7A0D379DA69A4D112346A7 DUP2 MSTORE RETURN JUMPDEST CALLVALUE PUSH2 0x21E JUMPI PUSH1 0x0 CALLDATASIZE PUSH1 0x3 NOT ADD SLT PUSH2 0x21E JUMPI PUSH1 0x20 PUSH1 0x40 MLOAD PUSH32 0x1800DEEF121F1E76426A00665E5C4479674322D4F75EDADD46DEBD5CD992F6ED DUP2 MSTORE RETURN JUMPDEST CALLVALUE PUSH2 0x21E JUMPI PUSH1 0x0 CALLDATASIZE PUSH1 0x3 NOT ADD SLT PUSH2 0x21E JUMPI PUSH1 0x20 PUSH1 0x40 MLOAD PUSH32 0x6EBACA996F58376A9FE3CA5C859CAA794C21F107F2A5B2D1F0941C2F4F7D6F8 DUP2 MSTORE RETURN JUMPDEST SWAP2 SWAP1 PUSH1 0x40 SWAP1 DUP2 DUP5 ADD SWAP1 PUSH32 0x2118E76180D9D07274294C2182E4E00958B9FCA9DB1C51156E85A4B8CDE5E1F5 DUP3 MSTORE PUSH32 0x2310BF279ED58B4CF463BDF369764C452845353F114FB503F036279C81517A38 PUSH1 0x60 DUP7 ADD MSTORE PUSH1 0x80 DUP6 ADD MSTORE PUSH1 0x60 DUP2 PUSH1 0x7 PUSH2 0x1770 STATICCALL RETURNDATASIZE ISZERO ISZERO AND SWAP2 DUP3 ISZERO PUSH2 0x985 JUMPI PUSH1 0x40 SWAP2 SWAP3 POP PUSH1 0x80 DUP2 PUSH1 0x6 PUSH1 0x96 STATICCALL RETURNDATASIZE ISZERO ISZERO AND SWAP1 JUMP JUMPDEST POP JUMP JUMPDEST SWAP2 SWAP1 PUSH1 0x40 SWAP1 DUP2 DUP5 ADD SWAP1 PUSH32 0x50AC0B65E5989B8446764D184D7D6EC3B6169C457171CBAD5C3C0C1468C7177 DUP3 MSTORE PUSH32 0xFCD73B4D56AD4343796DD9BB0D9419DF09630F5A5FF272F3FA342BD21F30CAB PUSH1 0x60 DUP7 ADD MSTORE PUSH1 0x80 DUP6 ADD MSTORE PUSH1 0x60 DUP2 PUSH1 0x7 PUSH2 0x1770 STATICCALL RETURNDATASIZE ISZERO ISZERO AND SWAP2 DUP3 ISZERO PUSH2 0x985 JUMPI PUSH1 0x40 SWAP2 SWAP3 POP PUSH1 0x80 DUP2 PUSH1 0x6 PUSH1 0x96 STATICCALL RETURNDATASIZE ISZERO ISZERO AND SWAP1 JUMP JUMPDEST SWAP2 SWAP1 PUSH1 0x40 SWAP1 DUP2 DUP5 ADD SWAP1 PUSH32 0x111B373426CA420C28B4D961CE43AB1D0E1B9D920E2DACD7D599899F99898ABF DUP3 MSTORE PUSH32 0xFBBF302A37DB8760933E668A0193081ABC7E55928AC52A1C11152A41BC43B40 PUSH1 0x60 DUP7 ADD MSTORE PUSH1 0x80 DUP6 ADD MSTORE PUSH1 0x60 DUP2 PUSH1 0x7 PUSH2 0x1770 STATICCALL RETURNDATASIZE ISZERO ISZERO AND SWAP2 DUP3 ISZERO PUSH2 0x985 JUMPI PUSH1 0x40 SWAP2 SWAP3 POP PUSH1 0x80 DUP2 PUSH1 0x6 PUSH1 0x96 STATICCALL RETURNDATASIZE ISZERO ISZERO AND SWAP1 JUMP JUMPDEST SWAP2 SWAP1 PUSH1 0x40 SWAP1 DUP2 DUP5 ADD SWAP1 PUSH32 0x6EBACA996F58376A9FE3CA5C859CAA794C21F107F2A5B2D1F0941C2F4F7D6F8 DUP3 MSTORE PUSH32 0x19F60169A288D40A348BEAE483883E0662CFE6568D7832651FD8A3DFB9E20940 PUSH1 0x60 DUP7 ADD MSTORE PUSH1 0x80 DUP6 ADD MSTORE PUSH1 0x60 DUP2 PUSH1 0x7 PUSH2 0x1770 STATICCALL RETURNDATASIZE ISZERO ISZERO AND SWAP2 DUP3 ISZERO PUSH2 0x985 JUMPI PUSH1 0x40 SWAP2 SWAP3 POP PUSH1 0x80 DUP2 PUSH1 0x6 PUSH1 0x96 STATICCALL RETURNDATASIZE ISZERO ISZERO AND SWAP1 JUMP JUMPDEST SWAP2 SWAP1 PUSH1 0x40 SWAP1 DUP2 DUP5 ADD SWAP1 PUSH32 0x20B3B6FC6CC9533C632002184004FF49B38BE27F7B1788FBA2E1E4A83932E67E DUP3 MSTORE PUSH32 0x1B9CAF3C3E2A7C82C5044E3B3A899F4F0D28DBF174E1AECB9439457809038D89 PUSH1 0x60 DUP7 ADD MSTORE PUSH1 0x80 DUP6 ADD MSTORE PUSH1 0x60 DUP2 PUSH1 0x7 PUSH2 0x1770 STATICCALL RETURNDATASIZE ISZERO ISZERO AND SWAP2 DUP3 ISZERO PUSH2 0x985 JUMPI PUSH1 0x40 SWAP2 SWAP3 POP PUSH1 0x80 DUP2 PUSH1 0x6 PUSH1 0x96 STATICCALL RETURNDATASIZE ISZERO ISZERO AND SWAP1 JUMP JUMPDEST SWAP1 SWAP2 SWAP3 PUSH1 0x0 SWAP1 PUSH32 0x8DA6A8E5EA2B88D10825E21E347174A990E91E12D969378DB3ECD51B57A84A6 DUP7 MSTORE PUSH32 0x18A229D1869F207508D63165DF3DFD7786A5102E81A198DAC3961381C01C1E78 PUSH1 0x20 DUP8 ADD MSTORE PUSH2 0xBDE DUP2 MLOAD DUP8 PUSH2 0x906 JUMP JUMPDEST ISZERO PUSH2 0xEDB JUMPI PUSH2 0xBF1 PUSH1 0x20 DUP3 ADD MLOAD DUP8 PUSH2 0x988 JUMP JUMPDEST ISZERO PUSH2 0xEDB JUMPI PUSH2 0xC04 PUSH1 0x40 DUP3 ADD MLOAD DUP8 PUSH2 0xA07 JUMP JUMPDEST ISZERO PUSH2 0xEDB JUMPI PUSH2 0xC17 PUSH1 0x60 DUP3 ADD MLOAD DUP8 PUSH2 0xA86 JUMP JUMPDEST ISZERO PUSH2 0xEDB JUMPI PUSH1 0x80 PUSH2 0xC2A SWAP2 ADD MLOAD DUP7 PUSH2 0xB05 JUMP JUMPDEST ISZERO PUSH2 0xED3 JUMPI POP PUSH1 0x20 DUP1 SWAP4 SWAP3 PUSH32 0x30644E72E131A029B85045B68181585D97816A916871CA8D3C208C16D87CFD47 DUP3 DUP1 SWAP5 PUSH32 0x198E9393920D483A7260BFB731FB5D25F1AA493335A9E71297E485B7AEF312C2 PUSH1 0x40 DUP11 ADD MSTORE PUSH32 0x1800DEEF121F1E76426A00665E5C4479674322D4F75EDADD46DEBD5CD992F6ED PUSH1 0x60 DUP11 ADD MSTORE PUSH32 0x90689D0585FF075EC9E99AD690C3395BC4B313370B38EF355ACDADCD122975B PUSH1 0x80 DUP11 ADD MSTORE PUSH32 0x12C85EA5DB8C6DEB4AAB71808DCB408FE3D1E7690C43D37B4CE6CC0166FA7DAA PUSH1 0xA0 DUP11 ADD MSTORE DUP1 MLOAD PUSH1 0xC0 DUP11 ADD MSTORE ADD MLOAD DUP2 SUB MOD PUSH1 0xE0 DUP8 ADD MSTORE DUP1 MLOAD MLOAD PUSH2 0x100 DUP8 ADD MSTORE DUP2 DUP2 MLOAD ADD MLOAD PUSH2 0x120 DUP8 ADD MSTORE ADD DUP1 MLOAD MLOAD PUSH2 0x140 DUP7 ADD MSTORE MLOAD ADD MLOAD PUSH2 0x160 DUP5 ADD MSTORE PUSH32 0x2D4D9AA7E302D9DF41749D5507949D05DBEA33FBB16C643B22F599A2BE6DF2E2 PUSH2 0x180 DUP5 ADD MSTORE PUSH32 0x14BEDD503C37CEB061D8EC60209FE345CE89830A19230301F076CAFF004D1926 PUSH2 0x1A0 DUP5 ADD MSTORE PUSH32 0x967032FCBF776D1AFC985F88877F182D38480A653F2DECAA9794CBC3BF3060C PUSH2 0x1C0 DUP5 ADD MSTORE PUSH32 0xE187847AD4C798374D0D6732BF501847DD68BC0E071241E0213BC7FC13DB7AB PUSH2 0x1E0 DUP5 ADD MSTORE PUSH32 0x304CFBD1E08A704A99F5E847D93F8C3CAAFDDEC46B7A0D379DA69A4D112346A7 PUSH2 0x200 DUP5 ADD MSTORE PUSH32 0x1739C1B1A457A8C7313123D24D2F9192F896B7C63EEA05A9D57F06547AD0CEC8 PUSH2 0x220 DUP5 ADD MSTORE DUP1 MLOAD PUSH2 0x240 DUP5 ADD MSTORE ADD MLOAD PUSH2 0x260 DUP3 ADD MSTORE PUSH32 0x198E9393920D483A7260BFB731FB5D25F1AA493335A9E71297E485B7AEF312C2 PUSH2 0x280 DUP3 ADD MSTORE PUSH32 0x1800DEEF121F1E76426A00665E5C4479674322D4F75EDADD46DEBD5CD992F6ED PUSH2 0x2A0 DUP3 ADD MSTORE PUSH32 0x90689D0585FF075EC9E99AD690C3395BC4B313370B38EF355ACDADCD122975B PUSH2 0x2C0 DUP3 ADD MSTORE PUSH32 0x12C85EA5DB8C6DEB4AAB71808DCB408FE3D1E7690C43D37B4CE6CC0166FA7DAA PUSH2 0x2E0 DUP3 ADD MSTORE PUSH1 0x20 DUP2 PUSH2 0x300 DUP2 PUSH1 0x8 PUSH3 0x2C308 STATICCALL SWAP1 MLOAD AND SWAP1 JUMP JUMPDEST SWAP5 SWAP4 POP POP POP POP JUMP JUMPDEST POP SWAP5 SWAP4 POP POP POP POP JUMP JUMPDEST SWAP4 SWAP3 SWAP1 SWAP2 PUSH1 0x40 MLOAD SWAP3 PUSH2 0x300 DUP5 ADD PUSH1 0x40 MSTORE PUSH1 0x1 PUSH1 0x0 DUP1 MLOAD PUSH1 0x20 PUSH2 0xF88 DUP4 CODECOPY DUP2 MLOAD SWAP2 MSTORE DUP5 MLOAD LT PUSH1 0x0 DUP1 MLOAD PUSH1 0x20 PUSH2 0xF88 DUP4 CODECOPY DUP2 MLOAD SWAP2 MSTORE PUSH1 0x20 DUP7 ADD MLOAD LT AND PUSH1 0x0 DUP1 MLOAD PUSH1 0x20 PUSH2 0xF88 DUP4 CODECOPY DUP2 MLOAD SWAP2 MSTORE PUSH1 0x40 DUP7 ADD MLOAD LT AND PUSH1 0x0 DUP1 MLOAD PUSH1 0x20 PUSH2 0xF88 DUP4 CODECOPY DUP2 MLOAD SWAP2 MSTORE PUSH1 0x60 DUP7 ADD MLOAD LT AND AND PUSH1 0x0 DUP1 MLOAD PUSH1 0x20 PUSH2 0xF88 DUP4 CODECOPY DUP2 MLOAD SWAP2 MSTORE PUSH1 0x80 DUP6 ADD MLOAD LT AND SWAP6 DUP7 ISZERO NOT PUSH2 0xF71 JUMPI JUMPDEST POP POP POP POP POP JUMP JUMPDEST PUSH2 0xF7C SWAP6 SWAP7 POP PUSH2 0xB84 JUMP JUMPDEST SWAP1 CODESIZE DUP1 DUP1 DUP1 DUP1 PUSH2 0xF6A JUMP INVALID ADDRESS PUSH5 0x4E72E131A0 0x29 0xB8 POP GASLIMIT 0xB6 DUP2 DUP2 PC TSTORE 0x28 CALLER 0xE8 BASEFEE PUSH26 0xB9709143E1F593F0000001A2646970667358221220150EF1442C BASEFEE PUSH8 0x61D2B489465F8B3E SELFDESTRUCT 0xAF 0xEF ADDRESS PUSH7 0x98F9F3ED4A660E SSTORE 0xE4 EXTCODECOPY 0xD1 0xC6 PUSH5 0x736F6C6343 STOP ADDMOD SHL STOP CALLER "},"methodIdentifiers":{"ALPHA_X()":"d1fb02a3","ALPHA_Y()":"6a5935a7","BASE_FIELD_SIZE()":"839a60d0","BETA_X1()":"dc05a822","BETA_X2()":"7fdf8fc1","BETA_Y1()":"dd924b47","BETA_Y2()":"1c4d4406","DELTA_X1()":"d70a63cc","DELTA_X2()":"f7a65aae","DELTA_Y1()":"b936325c","DELTA_Y2()":"cc9c92ae","GAMMA_X1()":"901660c4","GAMMA_X2()":"dfcf46f0","GAMMA_Y1()":"3a9e6a4d","GAMMA_Y2()":"acb41936","IC0_X()":"6336ec6c","IC0_Y()":"742797c4","IC1_X()":"d663b365","IC1_Y()":"a1978c3c","IC2_X()":"dce42004","IC2_Y()":"0cbb35c3","IC3_X()":"4234a1d6","IC3_Y()":"50def905","IC4_X()":"eedee58f","IC4_Y()":"4e890b27","IC5_X()":"898611fd","IC5_Y()":"24934a11","P_TOTAL_SIZE()":"a6aca976","SCALAR_FIELD_SIZE()":"0ddec475","verifyProof(uint256[2],uint256[2][2],uint256[2],uint256[5])":"34baeab9"}}}}}