{"contracts/verifiers/TransferCircuitGroth16Verifier.sol":{"TransferCircuitGroth16Verifier":{"abi":[{"inputs":[],"name":"ALPHA_X","outputs":[{"internalType":"uint256","name":"","type":"uint256"}],"stateMutability":"view","type":"function"},{"inputs":[],"name":"ALPHA_Y","outputs":[{"internalType":"uint256","name":"","type":"uint256"}],"stateMutability":"view","type":"function"},{"inputs":[],"name":"BASE_FIELD_SIZE","outputs":[{"internalType":"uint256","name":"","type":"uint256"}],"stateMutability":"view","type":"function"},{"inputs":[],"name":"BETA_X1","outputs":[{"internalType":"uint256","name":"","type":"uint256"}],"stateMutability":"view","type":"function"},{"inputs":[],"name":"BETA_X2","outputs":[{"internalType":"uint256","name":"","type":"uint256"}],"stateMutability":"view","type":"function"},{"inputs":[],"name":"BETA_Y1","outputs":[{"internalType":"uint256","name":"","type":"uint256"}],"stateMutability":"view","type":"function"},{"inputs":[],"name":"BETA_Y2","outputs":[{"internalType":"uint256","name":"","type":"uint256"}],"stateMutability":"view","type":"function"},{"inputs":[],"name":"DELTA_X1","outputs":[{"internalType":"uint256","name":"","type":"uint256"}],"stateMutability":"view","type":"function"},{"inputs":[],"name":"DELTA_X2","outputs":[{"internalType":"uint256","name":"","type":"uint256"}],"stateMutability":"view","type":"function"},{"inputs":[],"name":"DELTA_Y1","outputs":[{"internalType":"uint256","name":"","type":"uint256"}],"stateMutability":"view","type":"function"},{"inputs":[],"name":"DELTA_Y2","outputs":[{"internalType":"uint256","name":"","type":"uint256"}],"stateMutability":"view","type":"function"},{"inputs":[],"name":"GAMMA_X1","outputs":[{"internalType":"uint256","name":"","type":"uint256"}],"stateMutability":"view","type":"function"},{"inputs":[],"name":"GAMMA_X2","outputs":[{"internalType":"uint256","name":"","type":"uint256"}],"stateMutability":"view","type":"function"},{"inputs":[],"name":"GAMMA_Y1","outputs":[{"internalType":"uint256","name":"","type":"uint256"}],"stateMutability":"view","type":"function"},{"inputs":[],"name":"GAMMA_Y2","outputs":[{"internalType":"uint256","name":"","type":"uint256"}],"stateMutability":"view","type":"function"},{"inputs":[],"name":"IC0_X","outputs":[{"internalType":"uint256","name":"","type":"uint256"}],"stateMutability":"view","type":"function"},{"inputs":[],"name":"IC0_Y","outputs":[{"internalType":"uint256","name":"","type":"uint256"}],"stateMutability":"view","type":"function"},{"inputs":[],"name":"IC10_X","outputs":[{"internalType":"uint256","name":"","type":"uint256"}],"stateMutability":"view","type":"function"},{"inputs":[],"name":"IC10_Y","outputs":[{"internalType":"uint256","name":"","type":"uint256"}],"stateMutability":"view","type":"function"},{"inputs":[],"name":"IC11_X","outputs":[{"internalType":"uint256","name":"","type":"uint256"}],"stateMutability":"view","type":"function"},{"inputs":[],"name":"IC11_Y","outputs":[{"internalType":"uint256","name":"","type":"uint256"}],"stateMutability":"view","type":"function"},{"inputs":[],"name":"IC12_X","outputs":[{"internalType":"uint256","name":"","type":"uint256"}],"stateMutability":"view","type":"function"},{"inputs":[],"name":"IC12_Y","outputs":[{"internalType":"uint256","name":"","type":"uint256"}],"stateMutability":"view","type":"function"},{"inputs":[],"name":"IC13_X","outputs":[{"internalType":"uint256","name":"","type":"uint256"}],"stateMutability":"view","type":"function"},{"inputs":[],"name":"IC13_Y","outputs":[{"internalType":"uint256","name":"","type":"uint256"}],"stateMutability":"view","type":"function"},{"inputs":[],"name":"IC14_X","outputs":[{"internalType":"uint256","name":"","type":"uint256"}],"stateMutability":"view","type":"function"},{"inputs":[],"name":"IC14_Y","outputs":[{"internalType":"uint256","name":"","type":"uint256"}],"stateMutability":"view","type":"function"},{"inputs":[],"name":"IC15_X","outputs":[{"internalType":"uint256","name":"","type":"uint256"}],"stateMutability":"view","type":"function"},{"inputs":[],"name":"IC15_Y","outputs":[{"internalType":"uint256","name":"","type":"uint256"}],"stateMutability":"view","type":"function"},{"inputs":[],"name":"IC16_X","outputs":[{"internalType":"uint256","name":"","type":"uint256"}],"stateMutability":"view","type":"function"},{"inputs":[],"name":"IC16_Y","outputs":[{"internalType":"uint256","name":"","type":"uint256"}],"stateMutability":"view","type":"function"},{"inputs":[],"name":"IC17_X","outputs":[{"internalType":"uint256","name":"","type":"uint256"}],"stateMutability":"view","type":"function"},{"inputs":[],"name":"IC17_Y","outputs":[{"internalType":"uint256","name":"","type":"uint256"}],"stateMutability":"view","type":"function"},{"inputs":[],"name":"IC18_X","outputs":[{"internalType":"uint256","name":"","type":"uint256"}],"stateMutability":"view","type":"function"},{"inputs":[],"name":"IC18_Y","outputs":[{"internalType":"uint256","name":"","type":"uint256"}],"stateMutability":"view","type":"function"},{"inputs":[],"name":"IC19_X","outputs":[{"internalType":"uint256","name":"","type":"uint256"}],"stateMutability":"view","type":"function"},{"inputs":[],"name":"IC19_Y","outputs":[{"internalType":"uint256","name":"","type":"uint256"}],"stateMutability":"view","type":"function"},{"inputs":[],"name":"IC1_X","outputs":[{"internalType":"uint256","name":"","type":"uint256"}],"stateMutability":"view","type":"function"},{"inputs":[],"name":"IC1_Y","outputs":[{"internalType":"uint256","name":"","type":"uint256"}],"stateMutability":"view","type":"function"},{"inputs":[],"name":"IC20_X","outputs":[{"internalType":"uint256","name":"","type":"uint256"}],"stateMutability":"view","type":"function"},{"inputs":[],"name":"IC20_Y","outputs":[{"internalType":"uint256","name":"","type":"uint256"}],"stateMutability":"view","type":"function"},{"inputs":[],"name":"IC21_X","outputs":[{"internalType":"uint256","name":"","type":"uint256"}],"stateMutability":"view","type":"function"},{"inputs":[],"name":"IC21_Y","outputs":[{"internalType":"uint256","name":"","type":"uint256"}],"stateMutability":"view","type":"function"},{"inputs":[],"name":"IC22_X","outputs":[{"internalType":"uint256","name":"","type":"uint256"}],"stateMutability":"view","type":"function"},{"inputs":[],"name":"IC22_Y","outputs":[{"internalType":"uint256","name":"","type":"uint256"}],"stateMutability":"view","type":"function"},{"inputs":[],"name":"IC23_X","outputs":[{"internalType":"uint256","name":"","type":"uint256"}],"stateMutability":"view","type":"function"},{"inputs":[],"name":"IC23_Y","outputs":[{"internalType":"uint256","name":"","type":"uint256"}],"stateMutability":"view","type":"function"},{"inputs":[],"name":"IC24_X","outputs":[{"internalType":"uint256","name":"","type":"uint256"}],"stateMutability":"view","type":"function"},{"inputs":[],"name":"IC24_Y","outputs":[{"internalType":"uint256","name":"","type":"uint256"}],"stateMutability":"view","type":"function"},{"inputs":[],"name":"IC25_X","outputs":[{"internalType":"uint256","name":"","type":"uint256"}],"stateMutability":"view","type":"function"},{"inputs":[],"name":"IC25_Y","outputs":[{"internalType":"uint256","name":"","type":"uint256"}],"stateMutability":"view","type":"function"},{"inputs":[],"name":"IC26_X","outputs":[{"internalType":"uint256","name":"","type":"uint256"}],"stateMutability":"view","type":"function"},{"inputs":[],"name":"IC26_Y","outputs":[{"internalType":"uint256","name":"","type":"uint256"}],"stateMutability":"view","type":"function"},{"inputs":[],"name":"IC27_X","outputs":[{"internalType":"uint256","name":"","type":"uint256"}],"stateMutability":"view","type":"function"},{"inputs":[],"name":"IC27_Y","outputs":[{"internalType":"uint256","name":"","type":"uint256"}],"stateMutability":"view","type":"function"},{"inputs":[],"name":"IC28_X","outputs":[{"internalType":"uint256","name":"","type":"uint256"}],"stateMutability":"view","type":"function"},{"inputs":[],"name":"IC28_Y","outputs":[{"internalType":"uint256","name":"","type":"uint256"}],"stateMutability":"view","type":"function"},{"inputs":[],"name":"IC29_X","outputs":[{"internalType":"uint256","name":"","type":"uint256"}],"stateMutability":"view","type":"function"},{"inputs":[],"name":"IC29_Y","outputs":[{"internalType":"uint256","name":"","type":"uint256"}],"stateMutability":"view","type":"function"},{"inputs":[],"name":"IC2_X","outputs":[{"internalType":"uint256","name":"","type":"uint256"}],"stateMutability":"view","type":"function"},{"inputs":[],"name":"IC2_Y","outputs":[{"internalType":"uint256","name":"","type":"uint256"}],"stateMutability":"view","type":"function"},{"inputs":[],"name":"IC30_X","outputs":[{"internalType":"uint256","name":"","type":"uint256"}],"stateMutability":"view","type":"function"},{"inputs":[],"name":"IC30_Y","outputs":[{"internalType":"uint256","name":"","type":"uint256"}],"stateMutability":"view","type":"function"},{"inputs":[],"name":"IC31_X","outputs":[{"internalType":"uint256","name":"","type":"uint256"}],"stateMutability":"view","type":"function"},{"inputs":[],"name":"IC31_Y","outputs":[{"internalType":"uint256","name":"","type":"uint256"}],"stateMutability":"view","type":"function"},{"inputs":[],"name":"IC32_X","outputs":[{"internalType":"uint256","name":"","type":"uint256"}],"stateMutability":"view","type":"function"},{"inputs":[],"name":"IC32_Y","outputs":[{"internalType":"uint256","name":"","type":"uint256"}],"stateMutability":"view","type":"function"},{"inputs":[],"name":"IC3_X","outputs":[{"internalType":"uint256","name":"","type":"uint256"}],"stateMutability":"view","type":"function"},{"inputs":[],"name":"IC3_Y","outputs":[{"internalType":"uint256","name":"","type":"uint256"}],"stateMutability":"view","type":"function"},{"inputs":[],"name":"IC4_X","outputs":[{"internalType":"uint256","name":"","type":"uint256"}],"stateMutability":"view","type":"function"},{"inputs":[],"name":"IC4_Y","outputs":[{"internalType":"uint256","name":"","type":"uint256"}],"stateMutability":"view","type":"function"},{"inputs":[],"name":"IC5_X","outputs":[{"internalType":"uint256","name":"","type":"uint256"}],"stateMutability":"view","type":"function"},{"inputs":[],"name":"IC5_Y","outputs":[{"internalType":"uint256","name":"","type":"uint256"}],"stateMutability":"view","type":"function"},{"inputs":[],"name":"IC6_X","outputs":[{"internalType":"uint256","name":"","type":"uint256"}],"stateMutability":"view","type":"function"},{"inputs":[],"name":"IC6_Y","outputs":[{"internalType":"uint256","name":"","type":"uint256"}],"stateMutability":"view","type":"function"},{"inputs":[],"name":"IC7_X","outputs":[{"internalType":"uint256","name":"","type":"uint256"}],"stateMutability":"view","type":"function"},{"inputs":[],"name":"IC7_Y","outputs":[{"internalType":"uint256","name":"","type":"uint256"}],"stateMutability":"view","type":"function"},{"inputs":[],"name":"IC8_X","outputs":[{"internalType":"uint256","name":"","type":"uint256"}],"stateMutability":"view","type":"function"},{"inputs":[],"name":"IC8_Y","outputs":[{"internalType":"uint256","name":"","type":"uint256"}],"stateMutability":"view","type":"function"},{"inputs":[],"name":"IC9_X","outputs":[{"internalType":"uint256","name":"","type":"uint256"}],"stateMutability":"view","type":"function"},{"inputs":[],"name":"IC9_Y","outputs":[{"internalType":"uint256","name":"","type":"uint256"}],"stateMutability":"view","type":"function"},{"inputs":[],"name":"P_TOTAL_SIZE","outputs":[{"internalType":"uint256","name":"","type":"uint256"}],"stateMutability":"view","type":"function"},{"inputs":[],"name":"SCALAR_FIELD_SIZE","outputs":[{"internalType":"uint256","name":"","type":"uint256"}],"stateMutability":"view","type":"function"},{"inputs":[{"internalType":"uint256[2]","name":"pointA_","type":"uint256[2]"},{"internalType":"uint256[2][2]","name":"pointB_","type":"uint256[2][2]"},{"internalType":"uint256[2]","name":"pointC_","type":"uint256[2]"},{"internalType":"uint256[32]","name":"publicSignals_","type":"uint256[32]"}],"name":"verifyProof","outputs":[{"internalType":"bool","name":"verified_","type":"bool"}],"stateMutability":"view","type":"function"}],"evm":{"bytecode":{"linkReferences":{},"object":"608080604052346015576130a3908161001b8239f35b600080fdfe6080604052600436101561001257600080fd5b60003560e01c8063020206541461054357806308cceecf1461053e5780630c99ab7c146105395780630cbb35c3146105345780630d4866881461052f5780630ddec4751461052a5780630de199a5146105255780631077f5441461052057806311fbfe661461051b5780631c4d44061461051657806324934a1114610511578063286f014b1461050c57806328e44695146105075780632c0556ed146105025780632d527448146104fd5780632dacca56146104f857806330c1731c146104f357806331aa5e26146104ee57806332148d47146104e957806334a18522146104e457806336b397dc146104df57806339637503146104da5780633a9e6a4d146104305780633cc08b24146104d557806341fe6a9a146104d05780634234a1d6146104cb57806345ce05a8146104c65780634b750a92146104c15780634e528e9f146104bc5780634e890b27146104b757806350def905146104b257806355061a7a146104ad57806359b396b5146104a85780635bf9f093146104a35780635c01e5371461049e5780636076d7ed1461049957806361bb1795146104945780636336ec6c1461048f57806363d2f1681461048a5780636a5935a7146104855780636e8374dc1461048057806373354b601461047b578063742797c4146104765780637fdf8fc114610471578063839a60d01461046c57806385b195eb14610467578063898611fd14610462578063901660c414610408578063924f0a151461045d5780639683682614610458578063970e6037146104535780639c8b8ac51461044e578063a127ed8614610449578063a1978c3c14610444578063a6aca9761461043f578063ac6f103e1461043a578063acb419361461041c578063aed4334914610435578063b936325c14610430578063ba6881751461042b578063bf48189e14610426578063c4c642ef14610421578063cc9c92ae1461041c578063d0fdd6af14610417578063d1fb02a314610412578063d663b3651461040d578063d70a63cc14610408578063d7aa472a14610403578063d8c710e0146103fe578063dacb4e69146103f9578063dc05a822146103f4578063dce42004146103ef578063dd924b47146103ea578063dfcf46f0146103b8578063e11e8ee2146103e5578063e1e7dabb146103e0578063e5525759146103db578063e6626606146103d6578063e834dbdd146103d1578063e848dd6f146103cc578063eb38888b146103c7578063eeb9f2e4146103c2578063eedee58f146103bd5763f7a65aae146103b857600080fd5b611699565b6118aa565b611870565b611835565b6117fa565b6117c0565b611785565b61174a565b61170f565b6116d4565b61165e565b611623565b6115e8565b6115ad565b611572565b611537565b61116a565b6114fc565b6114c1565b611486565b61135f565b61144b565b611410565b6113d5565b610a58565b61139a565b611324565b611307565b6112cc565b611291565b611256565b61121b565b6111e0565b6111a5565b61112f565b6110f5565b6110ba565b61107f565b611044565b61100a565b610fcf565b610f94565b610f59565b610f1e565b610ee3565b610ea8565b610e6d565b610e32565b610df7565b610dbc565b610d81565b610d46565b610d0b565b610cd0565b610c95565b610c5a565b610c1f565b610b8a565b610a1e565b6109e3565b6109a9565b61096e565b610933565b6108f8565b6108bd565b610882565b610847565b61080c565b6107d1565b610796565b61075b565b610720565b6106e5565b6106aa565b61066f565b610634565b6105f9565b6105be565b610583565b3461057e57600036600319011261057e5760206040517f20b5f9d2929f9d1c416549f2bf4d007519ecbece59b3c0e764f31286dfe37b7c8152f35b600080fd5b3461057e57600036600319011261057e5760206040517f06afe48c571539099da5ac59491e0e203df5658ff654b250b0525ed791bde83f8152f35b3461057e57600036600319011261057e5760206040517f04f109a9043f0736c31fd7ac58c1371d9ad11830eb63341596dd6a075566c2ed8152f35b3461057e57600036600319011261057e5760206040517f2556d9fbc17cae3e3790ab6bd9d314d1954140f9d02adb59b9b48ee979a5d2308152f35b3461057e57600036600319011261057e5760206040517f229d46bb0f28980f63ed732ac9c63a8201e1911f5cb5f8110d311be0fade10aa8152f35b3461057e57600036600319011261057e5760206040517f30644e72e131a029b85045b68181585d2833e84879b9709143e1f593f00000018152f35b3461057e57600036600319011261057e5760206040517f0a9068bb86cc932e13eecb08b3f022e0bdf9f1f695929e21294033e53c919b8b8152f35b3461057e57600036600319011261057e5760206040517f288b33d9fa44f864c5c91f790fa50e5c2a698f417d260f5e9d54c0d8a1bda6ed8152f35b3461057e57600036600319011261057e5760206040517f15fd0def66442f6145179e697ddd2eb4210cd4f0ab9f648395ca60fc0a3a838f8152f35b3461057e57600036600319011261057e5760206040517f1739c1b1a457a8c7313123d24d2f9192f896b7c63eea05a9d57f06547ad0cec88152f35b3461057e57600036600319011261057e5760206040517f23fcf72fb01b297050f5a24417038f2a0a6a50dbfcac6941d430374bdf5944928152f35b3461057e57600036600319011261057e5760206040517f1f81db9c744e0cb02e4553bba155ece68cf6ade88b69514a949415ff91d22f628152f35b3461057e57600036600319011261057e5760206040517f28c652662a86080d4c5d09b938ebeed07b7a217c9b8c4cdad790a3c9dfe4c97b8152f35b3461057e57600036600319011261057e5760206040517f1f875f7286bd16986ef99bccccd27a3786a035ac93db1e683ff8d84d3a53ef7c8152f35b3461057e57600036600319011261057e5760206040517f06fa3b9bbc0f1161c019c848596cdf154e18874ac84e48ada9b26891489d80ff8152f35b3461057e57600036600319011261057e5760206040517f23c5ff4a6af434b289e8865783ec931fd1b0726bc15bca93dbe42f010d3563ea8152f35b3461057e57600036600319011261057e5760206040517f021d5de6e1e78a94e3f1ba87d967aeb0a16f428f56ff3f430397b27fb73afca48152f35b3461057e57600036600319011261057e5760206040517f2cff3b75b31a9408d6fd59ec89820a6ec62f692e03c27afe0d8a8ebba51420cc8152f35b3461057e57600036600319011261057e5760206040517f098bed6b8829c7cba186c8a05dec1296d4b567b7ac693738d5b7c779caf600a28152f35b3461057e57600036600319011261057e5760206040517e907377179f86703005860e48c37223ba67a3af40c0d92603b70d846df712f18152f35b3461057e57600036600319011261057e5760206040517f2b308bcd2e81aec22d71893e7f3c3c000af9543e66b6f0dc3b4b32858961c13b8152f35b3461057e57600036600319011261057e5760206040517e447e7b8a936665056915e9cdde693b78cdd4e5f6c573faadef8e190e71a90b8152f35b3461057e57600036600319011261057e5760206040517f090689d0585ff075ec9e99ad690c3395bc4b313370b38ef355acdadcd122975b8152f35b6040519190601f01601f1916820167ffffffffffffffff811183821017610ab957604052565b634e487b7160e01b600052604160045260246000fd5b9190610adb6040610a93565b9283906040810192831161057e57905b828210610af757505050565b8135815260209182019101610aeb565b806023121561057e57610b1b906004610acf565b90565b8060e3121561057e57610b1b9060c4610acf565b9080601f8301121561057e57610b1b91610acf565b80610123121561057e57610b5c610400610a93565b9081906105041161057e57610104905b6105048210610b7a57505090565b8135815260209182019101610b6c565b3461057e5761050036600319011261057e57610ba536610b07565b366063121561057e57604090610bba82610a93565b803660c41161057e576044905b60c48210610c0657610c0285610bf18686610be136610b1e565b90610beb36610b47565b92612e60565b905190151581529081906020820190565b0390f35b60208591610c143685610b32565b815201910190610bc7565b3461057e57600036600319011261057e5760206040517f2e8e422476c8aa10edb674c8d67cc22bb8f93f29dfc9031d52322ffbb309c66e8152f35b3461057e57600036600319011261057e5760206040517f12de9c799ecf41aecd06bb5a9180add5a574c4b444f2da65dd008f421d29c9378152f35b3461057e57600036600319011261057e5760206040517f0cfba7b3d2b6b5146f13aa9b38d237420b43d456bd551a1e95284a74d5fdc9ce8152f35b3461057e57600036600319011261057e5760206040517f114a80e01b3c8257e89901f851be4d95a86cc2d547d9270bad02e7da8dbea8698152f35b3461057e57600036600319011261057e5760206040517f19dc1ae1cb1ab8db0aea2d2666c4a413dddb3bd65ee2677bfbf709b115da552f8152f35b3461057e57600036600319011261057e5760206040517f07336b93c4558113f410c97c43cfd9ad5d2bc0e0b4cdd3eec71f4b840333958e8152f35b3461057e57600036600319011261057e5760206040517f13c7352a8f29919d93cc94bf86c8800bda20aef8797d1abc871750feff8bc3dd8152f35b3461057e57600036600319011261057e5760206040517f107a259d8f5ff4c316ff76a5fab4bcd8df012f40c60385045064477fb0c3934b8152f35b3461057e57600036600319011261057e5760206040517f28eefa9e331561e3021c05d89a7803ef9401969d098d346f05478edfa924ca3f8152f35b3461057e57600036600319011261057e5760206040517f05ffdc39e07d30c593e450f343692336797fb2b9d7928579beddf5b4314c2f288152f35b3461057e57600036600319011261057e5760206040517f078e441d5f913298eee2b136349e447b0c4ef2a5568c6393dbaf10b499d31b358152f35b3461057e57600036600319011261057e5760206040517f1c03c3897f2cfc2f0185b5e379fde762b7bd1dbd337b6095faa29f20a12a95a38152f35b3461057e57600036600319011261057e5760206040517f02f7e60587d3f233c2061fb131fbd84c3cb1d413ae5b8fae41400cb4645b0b4f8152f35b3461057e57600036600319011261057e5760206040517f187e2f19d9d1cc66cfa50a02a10b80eced78334b2bcdb24ea443bfb4a6ac9ced8152f35b3461057e57600036600319011261057e5760206040517f10c8404c7de800423f4f084eef24083c7e8bf909f56a84233cf5847507570a1d8152f35b3461057e57600036600319011261057e5760206040517f14bedd503c37ceb061d8ec60209fe345ce89830a19230301f076caff004d19268152f35b3461057e57600036600319011261057e5760206040517f08f8782826c3f003694c4122b0546b6a5a0d7f47ce4be9c09741cd1d7e6883da8152f35b3461057e57600036600319011261057e5760206040517e10904681e4eb2129062bb0d32ee1df78d16c79610196fc3e965029414d5cbb8152f35b3461057e57600036600319011261057e5760206040517f0d5b82e143fe82261e806bd844fb31c04d96ec4992ed1487c096b7092772c41d8152f35b3461057e57600036600319011261057e5760206040517f0e187847ad4c798374d0d6732bf501847dd68bc0e071241e0213bc7fc13db7ab8152f35b3461057e57600036600319011261057e5760206040517f30644e72e131a029b85045b68181585d97816a916871ca8d3c208c16d87cfd478152f35b3461057e57600036600319011261057e5760206040517e731d446be28eac35291905a299316a911ba3c0f08e9d2890e6d8988585ee4e8152f35b3461057e57600036600319011261057e5760206040517f247b88a7b1c3b2dce69247f47f696c290414de2277888bbd8b9ca36b01bc18ac8152f35b3461057e57600036600319011261057e5760206040517f198e9393920d483a7260bfb731fb5d25f1aa493335a9e71297e485b7aef312c28152f35b3461057e57600036600319011261057e5760206040517f0d724b53103d7718a13d6c815182f8ee319835c261e8e92b961f39f162a3fa9d8152f35b3461057e57600036600319011261057e5760206040517f01b514b6e343d274e0c5e3094c112cbba2d4cb29c4caaac8d23b6b3f4093090b8152f35b3461057e57600036600319011261057e5760206040517f02dc9b404f8e38e5f19eb4647a99e5502de7e8b74e549b1b1b4f66602d4c62c38152f35b3461057e57600036600319011261057e5760206040517f039ad749fee897f891546936fec6f5f035d0f8ea0468ddf897ec6e649d162be18152f35b3461057e57600036600319011261057e5760206040517f2ae069085c5956425591f6237f3b38a6e76406381a72b4e086362bf8ebd0790d8152f35b3461057e57600036600319011261057e5760206040517f0c415c50362c02920367e1c45dc5952cefa926950dae3bd6cdd0d9c9c14537e48152f35b3461057e57600036600319011261057e5760206040516103008152f35b3461057e57600036600319011261057e5760206040517f1c82cef521a0b840790f85d830cb96d5377bb7372ba7577cbb606a8affe403a78152f35b3461057e57600036600319011261057e5760206040517f12c85ea5db8c6deb4aab71808dcb408fe3d1e7690c43d37b4ce6cc0166fa7daa8152f35b3461057e57600036600319011261057e5760206040517f16f1d2a2ad4096aec237215770d14e74bb837c04448b166a41269febddc4f56f8152f35b3461057e57600036600319011261057e5760206040517f1bf082025f3757c9d01172b545483267080ccd8e4dba8cc1df9f9ee0308f23ab8152f35b3461057e57600036600319011261057e5760206040517f0f20c0fb8c72346a2d8b713008894506c97c6813fa1c0496d5b1c25f87728fd38152f35b3461057e57600036600319011261057e5760206040517f1b3d150c69189120a0d813b66bd5fa6f90d2fc49d50bae8aa34d90d9571a08f78152f35b3461057e57600036600319011261057e5760206040517f24d9dd358e13725ba0641428d2406b43479181d6208afaaa5abcb7accb37f4308152f35b3461057e57600036600319011261057e5760206040517f2d4d9aa7e302d9df41749d5507949d05dbea33fbb16c643b22f599a2be6df2e28152f35b3461057e57600036600319011261057e5760206040517f2185e663e3286b2e6013c9ab15951771ffb42646644f51113427eba2d71d45138152f35b3461057e57600036600319011261057e5760206040517f1f46e0aef5e5a33dcef3c91c6168cc7ddc121d534ba27b1b9d0f10fa4f9e799e8152f35b3461057e57600036600319011261057e5760206040517f11b4c385d2519be8eb926b757e396fa776d98d0a5fa69466f3eed4b958e6dd1e8152f35b3461057e57600036600319011261057e5760206040517f2023f14a57c38cf4dd2a01d88ff44452dd1a144627a0fbde9757548d0578af658152f35b3461057e57600036600319011261057e5760206040517f0967032fcbf776d1afc985f88877f182d38480a653f2decaa9794cbc3bf3060c8152f35b3461057e57600036600319011261057e5760206040517f264f55b7d972df8121b2f8473e161bb7afe44003c34464d2eebf29446cbdaa088152f35b3461057e57600036600319011261057e5760206040517f304cfbd1e08a704a99f5e847d93f8c3caafddec46b7a0d379da69a4d112346a78152f35b3461057e57600036600319011261057e5760206040517f1800deef121f1e76426a00665e5c4479674322d4f75edadd46debd5cd992f6ed8152f35b3461057e57600036600319011261057e5760206040517f226e31cb9ba7b28a0b157e5f39c232c0c81c0f7d3cbd7ff8662d674fb383c7d88152f35b3461057e57600036600319011261057e5760206040517f17888aa0284ff8d6a7b462ede5f31f52052e4db8fc394f0cc9c6d1ba548c21b68152f35b3461057e57600036600319011261057e5760206040517f2591ca675cb4590538f31db2fab149e7985ea042c4f57ba4ce5fcd52be095ec18152f35b3461057e57600036600319011261057e5760206040517f150c5d9bbe16b91062f765ffd9618d8337a9f8da0c3890db54be7ec391ffeb818152f35b3461057e57600036600319011261057e5760206040517e6930dfc6200db7ad8b4c58b6780100e744a535f4b8713dc43d4aa39b710a778152f35b3461057e57600036600319011261057e5760206040517f15f0312e34b132b3dbe7a824f8f9cb9d662d0a1e67c18a14a4604d93cf239f6d8152f35b3461057e57600036600319011261057e5760206040517f2d70a74b4a4be610cab3be650556d79582ae45798c4e5d740db3c378bc0ce0728152f35b3461057e57600036600319011261057e5760206040517ec7cf61488c43d82b3c607609f184ca52145a4fb28c46e4d59ea4fcf2acf2618152f35b3461057e57600036600319011261057e5760206040517f2229733e523a60e720c445d6551ec3d0890c2f5fa87b968ecb72eb5f1179bc578152f35b7f30644e72e131a029b85045b68181585d2833e84879b9709143e1f593f00000011190565b9190604090818401907f2185e663e3286b2e6013c9ab15951771ffb42646644f51113427eba2d71d451382527f0c415c50362c02920367e1c45dc5952cefa926950dae3bd6cdd0d9c9c14537e4606086015260808501526060816007611770fa3d15151691821561198957604091925060808160066096fa3d15151690565b50565b9190604090818401907f264f55b7d972df8121b2f8473e161bb7afe44003c34464d2eebf29446cbdaa0882527f2556d9fbc17cae3e3790ab6bd9d314d1954140f9d02adb59b9b48ee979a5d230606086015260808501526060816007611770fa3d15151691821561198957604091925060808160066096fa3d15151690565b9190604090818401907f12de9c799ecf41aecd06bb5a9180add5a574c4b444f2da65dd008f421d29c93782527f13c7352a8f29919d93cc94bf86c8800bda20aef8797d1abc871750feff8bc3dd606086015260808501526060816007611770fa3d15151691821561198957604091925060808160066096fa3d15151690565b9190604090818401907f2229733e523a60e720c445d6551ec3d0890c2f5fa87b968ecb72eb5f1179bc5782527f07336b93c4558113f410c97c43cfd9ad5d2bc0e0b4cdd3eec71f4b840333958e606086015260808501526060816007611770fa3d15151691821561198957604091925060808160066096fa3d15151690565b9190604090818401907f247b88a7b1c3b2dce69247f47f696c290414de2277888bbd8b9ca36b01bc18ac82527f23fcf72fb01b297050f5a24417038f2a0a6a50dbfcac6941d430374bdf594492606086015260808501526060816007611770fa3d15151691821561198957604091925060808160066096fa3d15151690565b9190604090818401907f16f1d2a2ad4096aec237215770d14e74bb837c04448b166a41269febddc4f56f82527f0f20c0fb8c72346a2d8b713008894506c97c6813fa1c0496d5b1c25f87728fd3606086015260808501526060816007611770fa3d15151691821561198957604091925060808160066096fa3d15151690565b9190604090818401907f2cff3b75b31a9408d6fd59ec89820a6ec62f692e03c27afe0d8a8ebba51420cc82527f1f875f7286bd16986ef99bccccd27a3786a035ac93db1e683ff8d84d3a53ef7c606086015260808501526060816007611770fa3d15151691821561198957604091925060808160066096fa3d15151690565b9190604090818401907f2e8e422476c8aa10edb674c8d67cc22bb8f93f29dfc9031d52322ffbb309c66e82527f23c5ff4a6af434b289e8865783ec931fd1b0726bc15bca93dbe42f010d3563ea606086015260808501526060816007611770fa3d15151691821561198957604091925060808160066096fa3d15151690565b9190604090818401907f2023f14a57c38cf4dd2a01d88ff44452dd1a144627a0fbde9757548d0578af6582527f28c652662a86080d4c5d09b938ebeed07b7a217c9b8c4cdad790a3c9dfe4c97b606086015260808501526060816007611770fa3d15151691821561198957604091925060808160066096fa3d15151690565b9190604090818401907f15fd0def66442f6145179e697ddd2eb4210cd4f0ab9f648395ca60fc0a3a838f82527f15f0312e34b132b3dbe7a824f8f9cb9d662d0a1e67c18a14a4604d93cf239f6d606086015260808501526060816007611770fa3d15151691821561198957604091925060808160066096fa3d15151690565b9190604090818401907e447e7b8a936665056915e9cdde693b78cdd4e5f6c573faadef8e190e71a90b82527e10904681e4eb2129062bb0d32ee1df78d16c79610196fc3e965029414d5cbb606086015260808501526060816007611770fa3d15151691821561198957604091925060808160066096fa3d15151690565b9190604090818401907f2ae069085c5956425591f6237f3b38a6e76406381a72b4e086362bf8ebd0790d82527f1bf082025f3757c9d01172b545483267080ccd8e4dba8cc1df9f9ee0308f23ab606086015260808501526060816007611770fa3d15151691821561198957604091925060808160066096fa3d15151690565b9190604090818401907f2b308bcd2e81aec22d71893e7f3c3c000af9543e66b6f0dc3b4b32858961c13b82527f288b33d9fa44f864c5c91f790fa50e5c2a698f417d260f5e9d54c0d8a1bda6ed606086015260808501526060816007611770fa3d15151691821561198957604091925060808160066096fa3d15151690565b9190604090818401907f11b4c385d2519be8eb926b757e396fa776d98d0a5fa69466f3eed4b958e6dd1e82527e6930dfc6200db7ad8b4c58b6780100e744a535f4b8713dc43d4aa39b710a77606086015260808501526060816007611770fa3d15151691821561198957604091925060808160066096fa3d15151690565b9190604090818401907f114a80e01b3c8257e89901f851be4d95a86cc2d547d9270bad02e7da8dbea86982527f021d5de6e1e78a94e3f1ba87d967aeb0a16f428f56ff3f430397b27fb73afca4606086015260808501526060816007611770fa3d15151691821561198957604091925060808160066096fa3d15151690565b9190604090818401907f226e31cb9ba7b28a0b157e5f39c232c0c81c0f7d3cbd7ff8662d674fb383c7d882527f098bed6b8829c7cba186c8a05dec1296d4b567b7ac693738d5b7c779caf600a2606086015260808501526060816007611770fa3d15151691821561198957604091925060808160066096fa3d15151690565b9190604090818401907f1f81db9c744e0cb02e4553bba155ece68cf6ade88b69514a949415ff91d22f6282527f06fa3b9bbc0f1161c019c848596cdf154e18874ac84e48ada9b26891489d80ff606086015260808501526060816007611770fa3d15151691821561198957604091925060808160066096fa3d15151690565b9190604090818401907f0cfba7b3d2b6b5146f13aa9b38d237420b43d456bd551a1e95284a74d5fdc9ce82527f24d9dd358e13725ba0641428d2406b43479181d6208afaaa5abcb7accb37f430606086015260808501526060816007611770fa3d15151691821561198957604091925060808160066096fa3d15151690565b9190604090818401907f28eefa9e331561e3021c05d89a7803ef9401969d098d346f05478edfa924ca3f82527f1c03c3897f2cfc2f0185b5e379fde762b7bd1dbd337b6095faa29f20a12a95a3606086015260808501526060816007611770fa3d15151691821561198957604091925060808160066096fa3d15151690565b9190604090818401907f20b5f9d2929f9d1c416549f2bf4d007519ecbece59b3c0e764f31286dfe37b7c82527f05ffdc39e07d30c593e450f343692336797fb2b9d7928579beddf5b4314c2f28606086015260808501526060816007611770fa3d15151691821561198957604091925060808160066096fa3d15151690565b9190604090818401907f1f46e0aef5e5a33dcef3c91c6168cc7ddc121d534ba27b1b9d0f10fa4f9e799e82527f19dc1ae1cb1ab8db0aea2d2666c4a413dddb3bd65ee2677bfbf709b115da552f606086015260808501526060816007611770fa3d15151691821561198957604091925060808160066096fa3d15151690565b9190604090818401907f04f109a9043f0736c31fd7ac58c1371d9ad11830eb63341596dd6a075566c2ed82527f0d724b53103d7718a13d6c815182f8ee319835c261e8e92b961f39f162a3fa9d606086015260808501526060816007611770fa3d15151691821561198957604091925060808160066096fa3d15151690565b9190604090818401907f0a9068bb86cc932e13eecb08b3f022e0bdf9f1f695929e21294033e53c919b8b82527f06afe48c571539099da5ac59491e0e203df5658ff654b250b0525ed791bde83f606086015260808501526060816007611770fa3d15151691821561198957604091925060808160066096fa3d15151690565b9190604090818401907f2d70a74b4a4be610cab3be650556d79582ae45798c4e5d740db3c378bc0ce07282527ec7cf61488c43d82b3c607609f184ca52145a4fb28c46e4d59ea4fcf2acf261606086015260808501526060816007611770fa3d15151691821561198957604091925060808160066096fa3d15151690565b9190604090818401907f1b3d150c69189120a0d813b66bd5fa6f90d2fc49d50bae8aa34d90d9571a08f782527f1c82cef521a0b840790f85d830cb96d5377bb7372ba7577cbb606a8affe403a7606086015260808501526060816007611770fa3d15151691821561198957604091925060808160066096fa3d15151690565b9190604090818401907f01b514b6e343d274e0c5e3094c112cbba2d4cb29c4caaac8d23b6b3f4093090b82527f10c8404c7de800423f4f084eef24083c7e8bf909f56a84233cf5847507570a1d606086015260808501526060816007611770fa3d15151691821561198957604091925060808160066096fa3d15151690565b9190604090818401907f229d46bb0f28980f63ed732ac9c63a8201e1911f5cb5f8110d311be0fade10aa82527f150c5d9bbe16b91062f765ffd9618d8337a9f8da0c3890db54be7ec391ffeb81606086015260808501526060816007611770fa3d15151691821561198957604091925060808160066096fa3d15151690565b9190604090818401907e731d446be28eac35291905a299316a911ba3c0f08e9d2890e6d8988585ee4e82527f107a259d8f5ff4c316ff76a5fab4bcd8df012f40c60385045064477fb0c3934b606086015260808501526060816007611770fa3d15151691821561198957604091925060808160066096fa3d15151690565b9190604090818401907f02dc9b404f8e38e5f19eb4647a99e5502de7e8b74e549b1b1b4f66602d4c62c382527f078e441d5f913298eee2b136349e447b0c4ef2a5568c6393dbaf10b499d31b35606086015260808501526060816007611770fa3d15151691821561198957604091925060808160066096fa3d15151690565b9190604090818401907f08f8782826c3f003694c4122b0546b6a5a0d7f47ce4be9c09741cd1d7e6883da82527e907377179f86703005860e48c37223ba67a3af40c0d92603b70d846df712f1606086015260808501526060816007611770fa3d15151691821561198957604091925060808160066096fa3d15151690565b9190604090818401907f2591ca675cb4590538f31db2fab149e7985ea042c4f57ba4ce5fcd52be095ec182527f039ad749fee897f891546936fec6f5f035d0f8ea0468ddf897ec6e649d162be1606086015260808501526060816007611770fa3d15151691821561198957604091925060808160066096fa3d15151690565b9190604090818401907f02f7e60587d3f233c2061fb131fbd84c3cb1d413ae5b8fae41400cb4645b0b4f82527f17888aa0284ff8d6a7b462ede5f31f52052e4db8fc394f0cc9c6d1ba548c21b6606086015260808501526060816007611770fa3d15151691821561198957604091925060808160066096fa3d15151690565b9091926000907f187e2f19d9d1cc66cfa50a02a10b80eced78334b2bcdb24ea443bfb4a6ac9ced86527f0d5b82e143fe82261e806bd844fb31c04d96ec4992ed1487c096b7092772c41d602087015261294181518761190a565b15612e575761295460208201518761198c565b15612e5757612967604082015187611a0b565b15612e575761297a606082015187611a8a565b15612e575761298d608082015187611b09565b15612e57576129a060a082015187611b88565b15612e57576129b360c082015187611c07565b15612e57576129c660e082015187611c86565b15612e57576129da61010082015187611d05565b15612e57576129ee61012082015187611d84565b15612e5757612a0261014082015187611e03565b15612e5757612a1661016082015187611e80565b15612e5757612a2a61018082015187611eff565b15612e5757612a3e6101a082015187611f7e565b15612e5757612a526101c082015187611ffc565b15612e5757612a666101e08201518761207b565b15612e5757612a7a610200820151876120fa565b15612e5757612a8e61022082015187612179565b15612e5757612aa2610240820151876121f8565b15612e5757612ab661026082015187612277565b15612e5757612aca610280820151876122f6565b15612e5757612ade6102a082015187612375565b15612e5757612af26102c0820151876123f4565b15612e5757612b066102e082015187612473565b15612e5757612b1a610300820151876124f1565b15612e5757612b2e61032082015187612570565b15612e5757612b42610340820151876125ef565b15612e5757612b566103608201518761266e565b15612e5757612b6a610380820151876126ec565b15612e5757612b7e6103a08201518761276b565b15612e5757612b926103c0820151876127e9565b15612e57576103e0612ba691015186612868565b15612e4f575060208093927f30644e72e131a029b85045b68181585d97816a916871ca8d3c208c16d87cfd478280947f198e9393920d483a7260bfb731fb5d25f1aa493335a9e71297e485b7aef312c260408a01527f1800deef121f1e76426a00665e5c4479674322d4f75edadd46debd5cd992f6ed60608a01527f090689d0585ff075ec9e99ad690c3395bc4b313370b38ef355acdadcd122975b60808a01527f12c85ea5db8c6deb4aab71808dcb408fe3d1e7690c43d37b4ce6cc0166fa7daa60a08a0152805160c08a0152015181030660e08701528051516101008701528181510151610120870152018051516101408601525101516101608401527f2d4d9aa7e302d9df41749d5507949d05dbea33fbb16c643b22f599a2be6df2e26101808401527f14bedd503c37ceb061d8ec60209fe345ce89830a19230301f076caff004d19266101a08401527f0967032fcbf776d1afc985f88877f182d38480a653f2decaa9794cbc3bf3060c6101c08401527f0e187847ad4c798374d0d6732bf501847dd68bc0e071241e0213bc7fc13db7ab6101e08401527f304cfbd1e08a704a99f5e847d93f8c3caafddec46b7a0d379da69a4d112346a76102008401527f1739c1b1a457a8c7313123d24d2f9192f896b7c63eea05a9d57f06547ad0cec8610220840152805161024084015201516102608201527f198e9393920d483a7260bfb731fb5d25f1aa493335a9e71297e485b7aef312c26102808201527f1800deef121f1e76426a00665e5c4479674322d4f75edadd46debd5cd992f6ed6102a08201527f090689d0585ff075ec9e99ad690c3395bc4b313370b38ef355acdadcd122975b6102c08201527f12c85ea5db8c6deb4aab71808dcb408fe3d1e7690c43d37b4ce6cc0166fa7daa6102e08201526020816103008160086202c308fa90511690565b949350505050565b50949350505050565b939290916040519261030084016040526001612e7c84516118e5565b612e8960208601516118e5565b16612e9760408601516118e5565b16612ea560608601516118e5565b1616612eb460808501516118e5565b16612ec260a08501516118e5565b16612ed060c08501516118e5565b16612ede60e08501516118e5565b16612eed6101008501516118e5565b16612efc6101208501516118e5565b16612f0b6101408501516118e5565b16612f1a6101608501516118e5565b16612f296101808501516118e5565b16612f386101a08501516118e5565b16612f476101c08501516118e5565b16612f566101e08501516118e5565b16612f656102008501516118e5565b16612f746102208501516118e5565b16612f836102408501516118e5565b16612f926102608501516118e5565b16612fa16102808501516118e5565b16612fb06102a08501516118e5565b16612fbf6102c08501516118e5565b16612fce6102e08501516118e5565b16612fdd6103008501516118e5565b16612fec6103208501516118e5565b16612ffb6103408501516118e5565b1661300a6103608501516118e5565b166130196103808501516118e5565b166130286103a08501516118e5565b166130376103c08501516118e5565b166130466103e08501516118e5565b1695861519613057575b5050505050565b6130629596506128e7565b90388080808061305056fea264697066735822122023db0d305c950bf49694cb921c9edf3b35dda704be34bc3ea19acea947fe89c764736f6c634300081b0033","opcodes":"PUSH1 0x80 DUP1 PUSH1 0x40 MSTORE CALLVALUE PUSH1 0x15 JUMPI PUSH2 0x30A3 SWAP1 DUP2 PUSH2 0x1B DUP3 CODECOPY RETURN JUMPDEST PUSH1 0x0 DUP1 REVERT INVALID PUSH1 0x80 PUSH1 0x40 MSTORE PUSH1 0x4 CALLDATASIZE LT ISZERO PUSH2 0x12 JUMPI PUSH1 0x0 DUP1 REVERT JUMPDEST PUSH1 0x0 CALLDATALOAD PUSH1 0xE0 SHR DUP1 PUSH4 0x2020654 EQ PUSH2 0x543 JUMPI DUP1 PUSH4 0x8CCEECF EQ PUSH2 0x53E JUMPI DUP1 PUSH4 0xC99AB7C EQ PUSH2 0x539 JUMPI DUP1 PUSH4 0xCBB35C3 EQ PUSH2 0x534 JUMPI DUP1 PUSH4 0xD486688 EQ PUSH2 0x52F JUMPI DUP1 PUSH4 0xDDEC475 EQ PUSH2 0x52A JUMPI DUP1 PUSH4 0xDE199A5 EQ PUSH2 0x525 JUMPI DUP1 PUSH4 0x1077F544 EQ PUSH2 0x520 JUMPI DUP1 PUSH4 0x11FBFE66 EQ PUSH2 0x51B JUMPI DUP1 PUSH4 0x1C4D4406 EQ PUSH2 0x516 JUMPI DUP1 PUSH4 0x24934A11 EQ PUSH2 0x511 JUMPI DUP1 PUSH4 0x286F014B EQ PUSH2 0x50C JUMPI DUP1 PUSH4 0x28E44695 EQ PUSH2 0x507 JUMPI DUP1 PUSH4 0x2C0556ED EQ PUSH2 0x502 JUMPI DUP1 PUSH4 0x2D527448 EQ PUSH2 0x4FD JUMPI DUP1 PUSH4 0x2DACCA56 EQ PUSH2 0x4F8 JUMPI DUP1 PUSH4 0x30C1731C EQ PUSH2 0x4F3 JUMPI DUP1 PUSH4 0x31AA5E26 EQ PUSH2 0x4EE JUMPI DUP1 PUSH4 0x32148D47 EQ PUSH2 0x4E9 JUMPI DUP1 PUSH4 0x34A18522 EQ PUSH2 0x4E4 JUMPI DUP1 PUSH4 0x36B397DC EQ PUSH2 0x4DF JUMPI DUP1 PUSH4 0x39637503 EQ PUSH2 0x4DA JUMPI DUP1 PUSH4 0x3A9E6A4D EQ PUSH2 0x430 JUMPI DUP1 PUSH4 0x3CC08B24 EQ PUSH2 0x4D5 JUMPI DUP1 PUSH4 0x41FE6A9A EQ PUSH2 0x4D0 JUMPI DUP1 PUSH4 0x4234A1D6 EQ PUSH2 0x4CB JUMPI DUP1 PUSH4 0x45CE05A8 EQ PUSH2 0x4C6 JUMPI DUP1 PUSH4 0x4B750A92 EQ PUSH2 0x4C1 JUMPI DUP1 PUSH4 0x4E528E9F EQ PUSH2 0x4BC JUMPI DUP1 PUSH4 0x4E890B27 EQ PUSH2 0x4B7 JUMPI DUP1 PUSH4 0x50DEF905 EQ PUSH2 0x4B2 JUMPI DUP1 PUSH4 0x55061A7A EQ PUSH2 0x4AD JUMPI DUP1 PUSH4 0x59B396B5 EQ PUSH2 0x4A8 JUMPI DUP1 PUSH4 0x5BF9F093 EQ PUSH2 0x4A3 JUMPI DUP1 PUSH4 0x5C01E537 EQ PUSH2 0x49E JUMPI DUP1 PUSH4 0x6076D7ED EQ PUSH2 0x499 JUMPI DUP1 PUSH4 0x61BB1795 EQ PUSH2 0x494 JUMPI DUP1 PUSH4 0x6336EC6C EQ PUSH2 0x48F JUMPI DUP1 PUSH4 0x63D2F168 EQ PUSH2 0x48A JUMPI DUP1 PUSH4 0x6A5935A7 EQ PUSH2 0x485 JUMPI DUP1 PUSH4 0x6E8374DC EQ PUSH2 0x480 JUMPI DUP1 PUSH4 0x73354B60 EQ PUSH2 0x47B JUMPI DUP1 PUSH4 0x742797C4 EQ PUSH2 0x476 JUMPI DUP1 PUSH4 0x7FDF8FC1 EQ PUSH2 0x471 JUMPI DUP1 PUSH4 0x839A60D0 EQ PUSH2 0x46C JUMPI DUP1 PUSH4 0x85B195EB EQ PUSH2 0x467 JUMPI DUP1 PUSH4 0x898611FD EQ PUSH2 0x462 JUMPI DUP1 PUSH4 0x901660C4 EQ PUSH2 0x408 JUMPI DUP1 PUSH4 0x924F0A15 EQ PUSH2 0x45D JUMPI DUP1 PUSH4 0x96836826 EQ PUSH2 0x458 JUMPI DUP1 PUSH4 0x970E6037 EQ PUSH2 0x453 JUMPI DUP1 PUSH4 0x9C8B8AC5 EQ PUSH2 0x44E JUMPI DUP1 PUSH4 0xA127ED86 EQ PUSH2 0x449 JUMPI DUP1 PUSH4 0xA1978C3C EQ PUSH2 0x444 JUMPI DUP1 PUSH4 0xA6ACA976 EQ PUSH2 0x43F JUMPI DUP1 PUSH4 0xAC6F103E EQ PUSH2 0x43A JUMPI DUP1 PUSH4 0xACB41936 EQ PUSH2 0x41C JUMPI DUP1 PUSH4 0xAED43349 EQ PUSH2 0x435 JUMPI DUP1 PUSH4 0xB936325C EQ PUSH2 0x430 JUMPI DUP1 PUSH4 0xBA688175 EQ PUSH2 0x42B JUMPI DUP1 PUSH4 0xBF48189E EQ PUSH2 0x426 JUMPI DUP1 PUSH4 0xC4C642EF EQ PUSH2 0x421 JUMPI DUP1 PUSH4 0xCC9C92AE EQ PUSH2 0x41C JUMPI DUP1 PUSH4 0xD0FDD6AF EQ PUSH2 0x417 JUMPI DUP1 PUSH4 0xD1FB02A3 EQ PUSH2 0x412 JUMPI DUP1 PUSH4 0xD663B365 EQ PUSH2 0x40D JUMPI DUP1 PUSH4 0xD70A63CC EQ PUSH2 0x408 JUMPI DUP1 PUSH4 0xD7AA472A EQ PUSH2 0x403 JUMPI DUP1 PUSH4 0xD8C710E0 EQ PUSH2 0x3FE JUMPI DUP1 PUSH4 0xDACB4E69 EQ PUSH2 0x3F9 JUMPI DUP1 PUSH4 0xDC05A822 EQ PUSH2 0x3F4 JUMPI DUP1 PUSH4 0xDCE42004 EQ PUSH2 0x3EF JUMPI DUP1 PUSH4 0xDD924B47 EQ PUSH2 0x3EA JUMPI DUP1 PUSH4 0xDFCF46F0 EQ PUSH2 0x3B8 JUMPI DUP1 PUSH4 0xE11E8EE2 EQ PUSH2 0x3E5 JUMPI DUP1 PUSH4 0xE1E7DABB EQ PUSH2 0x3E0 JUMPI DUP1 PUSH4 0xE5525759 EQ PUSH2 0x3DB JUMPI DUP1 PUSH4 0xE6626606 EQ PUSH2 0x3D6 JUMPI DUP1 PUSH4 0xE834DBDD EQ PUSH2 0x3D1 JUMPI DUP1 PUSH4 0xE848DD6F EQ PUSH2 0x3CC JUMPI DUP1 PUSH4 0xEB38888B EQ PUSH2 0x3C7 JUMPI DUP1 PUSH4 0xEEB9F2E4 EQ PUSH2 0x3C2 JUMPI DUP1 PUSH4 0xEEDEE58F EQ PUSH2 0x3BD JUMPI PUSH4 0xF7A65AAE EQ PUSH2 0x3B8 JUMPI PUSH1 0x0 DUP1 REVERT JUMPDEST PUSH2 0x1699 JUMP JUMPDEST PUSH2 0x18AA JUMP JUMPDEST PUSH2 0x1870 JUMP JUMPDEST PUSH2 0x1835 JUMP JUMPDEST PUSH2 0x17FA JUMP JUMPDEST PUSH2 0x17C0 JUMP JUMPDEST PUSH2 0x1785 JUMP JUMPDEST PUSH2 0x174A JUMP JUMPDEST PUSH2 0x170F JUMP JUMPDEST PUSH2 0x16D4 JUMP JUMPDEST PUSH2 0x165E JUMP JUMPDEST PUSH2 0x1623 JUMP JUMPDEST PUSH2 0x15E8 JUMP JUMPDEST PUSH2 0x15AD JUMP JUMPDEST PUSH2 0x1572 JUMP JUMPDEST PUSH2 0x1537 JUMP JUMPDEST PUSH2 0x116A JUMP JUMPDEST PUSH2 0x14FC JUMP JUMPDEST PUSH2 0x14C1 JUMP JUMPDEST PUSH2 0x1486 JUMP JUMPDEST PUSH2 0x135F JUMP JUMPDEST PUSH2 0x144B JUMP JUMPDEST PUSH2 0x1410 JUMP JUMPDEST PUSH2 0x13D5 JUMP JUMPDEST PUSH2 0xA58 JUMP JUMPDEST PUSH2 0x139A JUMP JUMPDEST PUSH2 0x1324 JUMP JUMPDEST PUSH2 0x1307 JUMP JUMPDEST PUSH2 0x12CC JUMP JUMPDEST PUSH2 0x1291 JUMP JUMPDEST PUSH2 0x1256 JUMP JUMPDEST PUSH2 0x121B JUMP JUMPDEST PUSH2 0x11E0 JUMP JUMPDEST PUSH2 0x11A5 JUMP JUMPDEST PUSH2 0x112F JUMP JUMPDEST PUSH2 0x10F5 JUMP JUMPDEST PUSH2 0x10BA JUMP JUMPDEST PUSH2 0x107F JUMP JUMPDEST PUSH2 0x1044 JUMP JUMPDEST PUSH2 0x100A JUMP JUMPDEST PUSH2 0xFCF JUMP JUMPDEST PUSH2 0xF94 JUMP JUMPDEST PUSH2 0xF59 JUMP JUMPDEST PUSH2 0xF1E JUMP JUMPDEST PUSH2 0xEE3 JUMP JUMPDEST PUSH2 0xEA8 JUMP JUMPDEST PUSH2 0xE6D JUMP JUMPDEST PUSH2 0xE32 JUMP JUMPDEST PUSH2 0xDF7 JUMP JUMPDEST PUSH2 0xDBC JUMP JUMPDEST PUSH2 0xD81 JUMP JUMPDEST PUSH2 0xD46 JUMP JUMPDEST PUSH2 0xD0B JUMP JUMPDEST PUSH2 0xCD0 JUMP JUMPDEST PUSH2 0xC95 JUMP JUMPDEST PUSH2 0xC5A JUMP JUMPDEST PUSH2 0xC1F JUMP JUMPDEST PUSH2 0xB8A JUMP JUMPDEST PUSH2 0xA1E JUMP JUMPDEST PUSH2 0x9E3 JUMP JUMPDEST PUSH2 0x9A9 JUMP JUMPDEST PUSH2 0x96E JUMP JUMPDEST PUSH2 0x933 JUMP JUMPDEST PUSH2 0x8F8 JUMP JUMPDEST PUSH2 0x8BD JUMP JUMPDEST PUSH2 0x882 JUMP JUMPDEST PUSH2 0x847 JUMP JUMPDEST PUSH2 0x80C JUMP JUMPDEST PUSH2 0x7D1 JUMP JUMPDEST PUSH2 0x796 JUMP JUMPDEST PUSH2 0x75B JUMP JUMPDEST PUSH2 0x720 JUMP JUMPDEST PUSH2 0x6E5 JUMP JUMPDEST PUSH2 0x6AA JUMP JUMPDEST PUSH2 0x66F JUMP JUMPDEST PUSH2 0x634 JUMP JUMPDEST PUSH2 0x5F9 JUMP JUMPDEST PUSH2 0x5BE JUMP JUMPDEST PUSH2 0x583 JUMP JUMPDEST CALLVALUE PUSH2 0x57E JUMPI PUSH1 0x0 CALLDATASIZE PUSH1 0x3 NOT ADD SLT PUSH2 0x57E JUMPI PUSH1 0x20 PUSH1 0x40 MLOAD PUSH32 0x20B5F9D2929F9D1C416549F2BF4D007519ECBECE59B3C0E764F31286DFE37B7C DUP2 MSTORE RETURN JUMPDEST PUSH1 0x0 DUP1 REVERT JUMPDEST CALLVALUE PUSH2 0x57E JUMPI PUSH1 0x0 CALLDATASIZE PUSH1 0x3 NOT ADD SLT PUSH2 0x57E JUMPI PUSH1 0x20 PUSH1 0x40 MLOAD PUSH32 0x6AFE48C571539099DA5AC59491E0E203DF5658FF654B250B0525ED791BDE83F DUP2 MSTORE RETURN JUMPDEST CALLVALUE PUSH2 0x57E JUMPI PUSH1 0x0 CALLDATASIZE PUSH1 0x3 NOT ADD SLT PUSH2 0x57E JUMPI PUSH1 0x20 PUSH1 0x40 MLOAD PUSH32 0x4F109A9043F0736C31FD7AC58C1371D9AD11830EB63341596DD6A075566C2ED DUP2 MSTORE RETURN JUMPDEST CALLVALUE PUSH2 0x57E JUMPI PUSH1 0x0 CALLDATASIZE PUSH1 0x3 NOT ADD SLT PUSH2 0x57E JUMPI PUSH1 0x20 PUSH1 0x40 MLOAD PUSH32 0x2556D9FBC17CAE3E3790AB6BD9D314D1954140F9D02ADB59B9B48EE979A5D230 DUP2 MSTORE RETURN JUMPDEST CALLVALUE PUSH2 0x57E JUMPI PUSH1 0x0 CALLDATASIZE PUSH1 0x3 NOT ADD SLT PUSH2 0x57E JUMPI PUSH1 0x20 PUSH1 0x40 MLOAD PUSH32 0x229D46BB0F28980F63ED732AC9C63A8201E1911F5CB5F8110D311BE0FADE10AA DUP2 MSTORE RETURN JUMPDEST CALLVALUE PUSH2 0x57E JUMPI PUSH1 0x0 CALLDATASIZE PUSH1 0x3 NOT ADD SLT PUSH2 0x57E JUMPI PUSH1 0x20 PUSH1 0x40 MLOAD PUSH32 0x30644E72E131A029B85045B68181585D2833E84879B9709143E1F593F0000001 DUP2 MSTORE RETURN JUMPDEST CALLVALUE PUSH2 0x57E JUMPI PUSH1 0x0 CALLDATASIZE PUSH1 0x3 NOT ADD SLT PUSH2 0x57E JUMPI PUSH1 0x20 PUSH1 0x40 MLOAD PUSH32 0xA9068BB86CC932E13EECB08B3F022E0BDF9F1F695929E21294033E53C919B8B DUP2 MSTORE RETURN JUMPDEST CALLVALUE PUSH2 0x57E JUMPI PUSH1 0x0 CALLDATASIZE PUSH1 0x3 NOT ADD SLT PUSH2 0x57E JUMPI PUSH1 0x20 PUSH1 0x40 MLOAD PUSH32 0x288B33D9FA44F864C5C91F790FA50E5C2A698F417D260F5E9D54C0D8A1BDA6ED DUP2 MSTORE RETURN JUMPDEST CALLVALUE PUSH2 0x57E JUMPI PUSH1 0x0 CALLDATASIZE PUSH1 0x3 NOT ADD SLT PUSH2 0x57E JUMPI PUSH1 0x20 PUSH1 0x40 MLOAD PUSH32 0x15FD0DEF66442F6145179E697DDD2EB4210CD4F0AB9F648395CA60FC0A3A838F DUP2 MSTORE RETURN JUMPDEST CALLVALUE PUSH2 0x57E JUMPI PUSH1 0x0 CALLDATASIZE PUSH1 0x3 NOT ADD SLT PUSH2 0x57E JUMPI PUSH1 0x20 PUSH1 0x40 MLOAD PUSH32 0x1739C1B1A457A8C7313123D24D2F9192F896B7C63EEA05A9D57F06547AD0CEC8 DUP2 MSTORE RETURN JUMPDEST CALLVALUE PUSH2 0x57E JUMPI PUSH1 0x0 CALLDATASIZE PUSH1 0x3 NOT ADD SLT PUSH2 0x57E JUMPI PUSH1 0x20 PUSH1 0x40 MLOAD PUSH32 0x23FCF72FB01B297050F5A24417038F2A0A6A50DBFCAC6941D430374BDF594492 DUP2 MSTORE RETURN JUMPDEST CALLVALUE PUSH2 0x57E JUMPI PUSH1 0x0 CALLDATASIZE PUSH1 0x3 NOT ADD SLT PUSH2 0x57E JUMPI PUSH1 0x20 PUSH1 0x40 MLOAD PUSH32 0x1F81DB9C744E0CB02E4553BBA155ECE68CF6ADE88B69514A949415FF91D22F62 DUP2 MSTORE RETURN JUMPDEST CALLVALUE PUSH2 0x57E JUMPI PUSH1 0x0 CALLDATASIZE PUSH1 0x3 NOT ADD SLT PUSH2 0x57E JUMPI PUSH1 0x20 PUSH1 0x40 MLOAD PUSH32 0x28C652662A86080D4C5D09B938EBEED07B7A217C9B8C4CDAD790A3C9DFE4C97B DUP2 MSTORE RETURN JUMPDEST CALLVALUE PUSH2 0x57E JUMPI PUSH1 0x0 CALLDATASIZE PUSH1 0x3 NOT ADD SLT PUSH2 0x57E JUMPI PUSH1 0x20 PUSH1 0x40 MLOAD PUSH32 0x1F875F7286BD16986EF99BCCCCD27A3786A035AC93DB1E683FF8D84D3A53EF7C DUP2 MSTORE RETURN JUMPDEST CALLVALUE PUSH2 0x57E JUMPI PUSH1 0x0 CALLDATASIZE PUSH1 0x3 NOT ADD SLT PUSH2 0x57E JUMPI PUSH1 0x20 PUSH1 0x40 MLOAD PUSH32 0x6FA3B9BBC0F1161C019C848596CDF154E18874AC84E48ADA9B26891489D80FF DUP2 MSTORE RETURN JUMPDEST CALLVALUE PUSH2 0x57E JUMPI PUSH1 0x0 CALLDATASIZE PUSH1 0x3 NOT ADD SLT PUSH2 0x57E JUMPI PUSH1 0x20 PUSH1 0x40 MLOAD PUSH32 0x23C5FF4A6AF434B289E8865783EC931FD1B0726BC15BCA93DBE42F010D3563EA DUP2 MSTORE RETURN JUMPDEST CALLVALUE PUSH2 0x57E JUMPI PUSH1 0x0 CALLDATASIZE PUSH1 0x3 NOT ADD SLT PUSH2 0x57E JUMPI PUSH1 0x20 PUSH1 0x40 MLOAD PUSH32 0x21D5DE6E1E78A94E3F1BA87D967AEB0A16F428F56FF3F430397B27FB73AFCA4 DUP2 MSTORE RETURN JUMPDEST CALLVALUE PUSH2 0x57E JUMPI PUSH1 0x0 CALLDATASIZE PUSH1 0x3 NOT ADD SLT PUSH2 0x57E JUMPI PUSH1 0x20 PUSH1 0x40 MLOAD PUSH32 0x2CFF3B75B31A9408D6FD59EC89820A6EC62F692E03C27AFE0D8A8EBBA51420CC DUP2 MSTORE RETURN JUMPDEST CALLVALUE PUSH2 0x57E JUMPI PUSH1 0x0 CALLDATASIZE PUSH1 0x3 NOT ADD SLT PUSH2 0x57E JUMPI PUSH1 0x20 PUSH1 0x40 MLOAD PUSH32 0x98BED6B8829C7CBA186C8A05DEC1296D4B567B7AC693738D5B7C779CAF600A2 DUP2 MSTORE RETURN JUMPDEST CALLVALUE PUSH2 0x57E JUMPI PUSH1 0x0 CALLDATASIZE PUSH1 0x3 NOT ADD SLT PUSH2 0x57E JUMPI PUSH1 0x20 PUSH1 0x40 MLOAD PUSH31 0x907377179F86703005860E48C37223BA67A3AF40C0D92603B70D846DF712F1 DUP2 MSTORE RETURN JUMPDEST CALLVALUE PUSH2 0x57E JUMPI PUSH1 0x0 CALLDATASIZE PUSH1 0x3 NOT ADD SLT PUSH2 0x57E JUMPI PUSH1 0x20 PUSH1 0x40 MLOAD PUSH32 0x2B308BCD2E81AEC22D71893E7F3C3C000AF9543E66B6F0DC3B4B32858961C13B DUP2 MSTORE RETURN JUMPDEST CALLVALUE PUSH2 0x57E JUMPI PUSH1 0x0 CALLDATASIZE PUSH1 0x3 NOT ADD SLT PUSH2 0x57E JUMPI PUSH1 0x20 PUSH1 0x40 MLOAD PUSH31 0x447E7B8A936665056915E9CDDE693B78CDD4E5F6C573FAADEF8E190E71A90B DUP2 MSTORE RETURN JUMPDEST CALLVALUE PUSH2 0x57E JUMPI PUSH1 0x0 CALLDATASIZE PUSH1 0x3 NOT ADD SLT PUSH2 0x57E JUMPI PUSH1 0x20 PUSH1 0x40 MLOAD PUSH32 0x90689D0585FF075EC9E99AD690C3395BC4B313370B38EF355ACDADCD122975B DUP2 MSTORE RETURN JUMPDEST PUSH1 0x40 MLOAD SWAP2 SWAP1 PUSH1 0x1F ADD PUSH1 0x1F NOT AND DUP3 ADD PUSH8 0xFFFFFFFFFFFFFFFF DUP2 GT DUP4 DUP3 LT OR PUSH2 0xAB9 JUMPI PUSH1 0x40 MSTORE JUMP JUMPDEST PUSH4 0x4E487B71 PUSH1 0xE0 SHL PUSH1 0x0 MSTORE PUSH1 0x41 PUSH1 0x4 MSTORE PUSH1 0x24 PUSH1 0x0 REVERT JUMPDEST SWAP2 SWAP1 PUSH2 0xADB PUSH1 0x40 PUSH2 0xA93 JUMP JUMPDEST SWAP3 DUP4 SWAP1 PUSH1 0x40 DUP2 ADD SWAP3 DUP4 GT PUSH2 0x57E JUMPI SWAP1 JUMPDEST DUP3 DUP3 LT PUSH2 0xAF7 JUMPI POP POP POP JUMP JUMPDEST DUP2 CALLDATALOAD DUP2 MSTORE PUSH1 0x20 SWAP2 DUP3 ADD SWAP2 ADD PUSH2 0xAEB JUMP JUMPDEST DUP1 PUSH1 0x23 SLT ISZERO PUSH2 0x57E JUMPI PUSH2 0xB1B SWAP1 PUSH1 0x4 PUSH2 0xACF JUMP JUMPDEST SWAP1 JUMP JUMPDEST DUP1 PUSH1 0xE3 SLT ISZERO PUSH2 0x57E JUMPI PUSH2 0xB1B SWAP1 PUSH1 0xC4 PUSH2 0xACF JUMP JUMPDEST SWAP1 DUP1 PUSH1 0x1F DUP4 ADD SLT ISZERO PUSH2 0x57E JUMPI PUSH2 0xB1B SWAP2 PUSH2 0xACF JUMP JUMPDEST DUP1 PUSH2 0x123 SLT ISZERO PUSH2 0x57E JUMPI PUSH2 0xB5C PUSH2 0x400 PUSH2 0xA93 JUMP JUMPDEST SWAP1 DUP2 SWAP1 PUSH2 0x504 GT PUSH2 0x57E JUMPI PUSH2 0x104 SWAP1 JUMPDEST PUSH2 0x504 DUP3 LT PUSH2 0xB7A JUMPI POP POP SWAP1 JUMP JUMPDEST DUP2 CALLDATALOAD DUP2 MSTORE PUSH1 0x20 SWAP2 DUP3 ADD SWAP2 ADD PUSH2 0xB6C JUMP JUMPDEST CALLVALUE PUSH2 0x57E JUMPI PUSH2 0x500 CALLDATASIZE PUSH1 0x3 NOT ADD SLT PUSH2 0x57E JUMPI PUSH2 0xBA5 CALLDATASIZE PUSH2 0xB07 JUMP JUMPDEST CALLDATASIZE PUSH1 0x63 SLT ISZERO PUSH2 0x57E JUMPI PUSH1 0x40 SWAP1 PUSH2 0xBBA DUP3 PUSH2 0xA93 JUMP JUMPDEST DUP1 CALLDATASIZE PUSH1 0xC4 GT PUSH2 0x57E JUMPI PUSH1 0x44 SWAP1 JUMPDEST PUSH1 0xC4 DUP3 LT PUSH2 0xC06 JUMPI PUSH2 0xC02 DUP6 PUSH2 0xBF1 DUP7 DUP7 PUSH2 0xBE1 CALLDATASIZE PUSH2 0xB1E JUMP JUMPDEST SWAP1 PUSH2 0xBEB CALLDATASIZE PUSH2 0xB47 JUMP JUMPDEST SWAP3 PUSH2 0x2E60 JUMP JUMPDEST SWAP1 MLOAD SWAP1 ISZERO ISZERO DUP2 MSTORE SWAP1 DUP2 SWAP1 PUSH1 0x20 DUP3 ADD SWAP1 JUMP JUMPDEST SUB SWAP1 RETURN JUMPDEST PUSH1 0x20 DUP6 SWAP2 PUSH2 0xC14 CALLDATASIZE DUP6 PUSH2 0xB32 JUMP JUMPDEST DUP2 MSTORE ADD SWAP2 ADD SWAP1 PUSH2 0xBC7 JUMP JUMPDEST CALLVALUE PUSH2 0x57E JUMPI PUSH1 0x0 CALLDATASIZE PUSH1 0x3 NOT ADD SLT PUSH2 0x57E JUMPI PUSH1 0x20 PUSH1 0x40 MLOAD PUSH32 0x2E8E422476C8AA10EDB674C8D67CC22BB8F93F29DFC9031D52322FFBB309C66E DUP2 MSTORE RETURN JUMPDEST CALLVALUE PUSH2 0x57E JUMPI PUSH1 0x0 CALLDATASIZE PUSH1 0x3 NOT ADD SLT PUSH2 0x57E JUMPI PUSH1 0x20 PUSH1 0x40 MLOAD PUSH32 0x12DE9C799ECF41AECD06BB5A9180ADD5A574C4B444F2DA65DD008F421D29C937 DUP2 MSTORE RETURN JUMPDEST CALLVALUE PUSH2 0x57E JUMPI PUSH1 0x0 CALLDATASIZE PUSH1 0x3 NOT ADD SLT PUSH2 0x57E JUMPI PUSH1 0x20 PUSH1 0x40 MLOAD PUSH32 0xCFBA7B3D2B6B5146F13AA9B38D237420B43D456BD551A1E95284A74D5FDC9CE DUP2 MSTORE RETURN JUMPDEST CALLVALUE PUSH2 0x57E JUMPI PUSH1 0x0 CALLDATASIZE PUSH1 0x3 NOT ADD SLT PUSH2 0x57E JUMPI PUSH1 0x20 PUSH1 0x40 MLOAD PUSH32 0x114A80E01B3C8257E89901F851BE4D95A86CC2D547D9270BAD02E7DA8DBEA869 DUP2 MSTORE RETURN JUMPDEST CALLVALUE PUSH2 0x57E JUMPI PUSH1 0x0 CALLDATASIZE PUSH1 0x3 NOT ADD SLT PUSH2 0x57E JUMPI PUSH1 0x20 PUSH1 0x40 MLOAD PUSH32 0x19DC1AE1CB1AB8DB0AEA2D2666C4A413DDDB3BD65EE2677BFBF709B115DA552F DUP2 MSTORE RETURN JUMPDEST CALLVALUE PUSH2 0x57E JUMPI PUSH1 0x0 CALLDATASIZE PUSH1 0x3 NOT ADD SLT PUSH2 0x57E JUMPI PUSH1 0x20 PUSH1 0x40 MLOAD PUSH32 0x7336B93C4558113F410C97C43CFD9AD5D2BC0E0B4CDD3EEC71F4B840333958E DUP2 MSTORE RETURN JUMPDEST CALLVALUE PUSH2 0x57E JUMPI PUSH1 0x0 CALLDATASIZE PUSH1 0x3 NOT ADD SLT PUSH2 0x57E JUMPI PUSH1 0x20 PUSH1 0x40 MLOAD PUSH32 0x13C7352A8F29919D93CC94BF86C8800BDA20AEF8797D1ABC871750FEFF8BC3DD DUP2 MSTORE RETURN JUMPDEST CALLVALUE PUSH2 0x57E JUMPI PUSH1 0x0 CALLDATASIZE PUSH1 0x3 NOT ADD SLT PUSH2 0x57E JUMPI PUSH1 0x20 PUSH1 0x40 MLOAD PUSH32 0x107A259D8F5FF4C316FF76A5FAB4BCD8DF012F40C60385045064477FB0C3934B DUP2 MSTORE RETURN JUMPDEST CALLVALUE PUSH2 0x57E JUMPI PUSH1 0x0 CALLDATASIZE PUSH1 0x3 NOT ADD SLT PUSH2 0x57E JUMPI PUSH1 0x20 PUSH1 0x40 MLOAD PUSH32 0x28EEFA9E331561E3021C05D89A7803EF9401969D098D346F05478EDFA924CA3F DUP2 MSTORE RETURN JUMPDEST CALLVALUE PUSH2 0x57E JUMPI PUSH1 0x0 CALLDATASIZE PUSH1 0x3 NOT ADD SLT PUSH2 0x57E JUMPI PUSH1 0x20 PUSH1 0x40 MLOAD PUSH32 0x5FFDC39E07D30C593E450F343692336797FB2B9D7928579BEDDF5B4314C2F28 DUP2 MSTORE RETURN JUMPDEST CALLVALUE PUSH2 0x57E JUMPI PUSH1 0x0 CALLDATASIZE PUSH1 0x3 NOT ADD SLT PUSH2 0x57E JUMPI PUSH1 0x20 PUSH1 0x40 MLOAD PUSH32 0x78E441D5F913298EEE2B136349E447B0C4EF2A5568C6393DBAF10B499D31B35 DUP2 MSTORE RETURN JUMPDEST CALLVALUE PUSH2 0x57E JUMPI PUSH1 0x0 CALLDATASIZE PUSH1 0x3 NOT ADD SLT PUSH2 0x57E JUMPI PUSH1 0x20 PUSH1 0x40 MLOAD PUSH32 0x1C03C3897F2CFC2F0185B5E379FDE762B7BD1DBD337B6095FAA29F20A12A95A3 DUP2 MSTORE RETURN JUMPDEST CALLVALUE PUSH2 0x57E JUMPI PUSH1 0x0 CALLDATASIZE PUSH1 0x3 NOT ADD SLT PUSH2 0x57E JUMPI PUSH1 0x20 PUSH1 0x40 MLOAD PUSH32 0x2F7E60587D3F233C2061FB131FBD84C3CB1D413AE5B8FAE41400CB4645B0B4F DUP2 MSTORE RETURN JUMPDEST CALLVALUE PUSH2 0x57E JUMPI PUSH1 0x0 CALLDATASIZE PUSH1 0x3 NOT ADD SLT PUSH2 0x57E JUMPI PUSH1 0x20 PUSH1 0x40 MLOAD PUSH32 0x187E2F19D9D1CC66CFA50A02A10B80ECED78334B2BCDB24EA443BFB4A6AC9CED DUP2 MSTORE RETURN JUMPDEST CALLVALUE PUSH2 0x57E JUMPI PUSH1 0x0 CALLDATASIZE PUSH1 0x3 NOT ADD SLT PUSH2 0x57E JUMPI PUSH1 0x20 PUSH1 0x40 MLOAD PUSH32 0x10C8404C7DE800423F4F084EEF24083C7E8BF909F56A84233CF5847507570A1D DUP2 MSTORE RETURN JUMPDEST CALLVALUE PUSH2 0x57E JUMPI PUSH1 0x0 CALLDATASIZE PUSH1 0x3 NOT ADD SLT PUSH2 0x57E JUMPI PUSH1 0x20 PUSH1 0x40 MLOAD PUSH32 0x14BEDD503C37CEB061D8EC60209FE345CE89830A19230301F076CAFF004D1926 DUP2 MSTORE RETURN JUMPDEST CALLVALUE PUSH2 0x57E JUMPI PUSH1 0x0 CALLDATASIZE PUSH1 0x3 NOT ADD SLT PUSH2 0x57E JUMPI PUSH1 0x20 PUSH1 0x40 MLOAD PUSH32 0x8F8782826C3F003694C4122B0546B6A5A0D7F47CE4BE9C09741CD1D7E6883DA DUP2 MSTORE RETURN JUMPDEST CALLVALUE PUSH2 0x57E JUMPI PUSH1 0x0 CALLDATASIZE PUSH1 0x3 NOT ADD SLT PUSH2 0x57E JUMPI PUSH1 0x20 PUSH1 0x40 MLOAD PUSH31 0x10904681E4EB2129062BB0D32EE1DF78D16C79610196FC3E965029414D5CBB DUP2 MSTORE RETURN JUMPDEST CALLVALUE PUSH2 0x57E JUMPI PUSH1 0x0 CALLDATASIZE PUSH1 0x3 NOT ADD SLT PUSH2 0x57E JUMPI PUSH1 0x20 PUSH1 0x40 MLOAD PUSH32 0xD5B82E143FE82261E806BD844FB31C04D96EC4992ED1487C096B7092772C41D DUP2 MSTORE RETURN JUMPDEST CALLVALUE PUSH2 0x57E JUMPI PUSH1 0x0 CALLDATASIZE PUSH1 0x3 NOT ADD SLT PUSH2 0x57E JUMPI PUSH1 0x20 PUSH1 0x40 MLOAD PUSH32 0xE187847AD4C798374D0D6732BF501847DD68BC0E071241E0213BC7FC13DB7AB DUP2 MSTORE RETURN JUMPDEST CALLVALUE PUSH2 0x57E JUMPI PUSH1 0x0 CALLDATASIZE PUSH1 0x3 NOT ADD SLT PUSH2 0x57E JUMPI PUSH1 0x20 PUSH1 0x40 MLOAD PUSH32 0x30644E72E131A029B85045B68181585D97816A916871CA8D3C208C16D87CFD47 DUP2 MSTORE RETURN JUMPDEST CALLVALUE PUSH2 0x57E JUMPI PUSH1 0x0 CALLDATASIZE PUSH1 0x3 NOT ADD SLT PUSH2 0x57E JUMPI PUSH1 0x20 PUSH1 0x40 MLOAD PUSH31 0x731D446BE28EAC35291905A299316A911BA3C0F08E9D2890E6D8988585EE4E DUP2 MSTORE RETURN JUMPDEST CALLVALUE PUSH2 0x57E JUMPI PUSH1 0x0 CALLDATASIZE PUSH1 0x3 NOT ADD SLT PUSH2 0x57E JUMPI PUSH1 0x20 PUSH1 0x40 MLOAD PUSH32 0x247B88A7B1C3B2DCE69247F47F696C290414DE2277888BBD8B9CA36B01BC18AC DUP2 MSTORE RETURN JUMPDEST CALLVALUE PUSH2 0x57E JUMPI PUSH1 0x0 CALLDATASIZE PUSH1 0x3 NOT ADD SLT PUSH2 0x57E JUMPI PUSH1 0x20 PUSH1 0x40 MLOAD PUSH32 0x198E9393920D483A7260BFB731FB5D25F1AA493335A9E71297E485B7AEF312C2 DUP2 MSTORE RETURN JUMPDEST CALLVALUE PUSH2 0x57E JUMPI PUSH1 0x0 CALLDATASIZE PUSH1 0x3 NOT ADD SLT PUSH2 0x57E JUMPI PUSH1 0x20 PUSH1 0x40 MLOAD PUSH32 0xD724B53103D7718A13D6C815182F8EE319835C261E8E92B961F39F162A3FA9D DUP2 MSTORE RETURN JUMPDEST CALLVALUE PUSH2 0x57E JUMPI PUSH1 0x0 CALLDATASIZE PUSH1 0x3 NOT ADD SLT PUSH2 0x57E JUMPI PUSH1 0x20 PUSH1 0x40 MLOAD PUSH32 0x1B514B6E343D274E0C5E3094C112CBBA2D4CB29C4CAAAC8D23B6B3F4093090B DUP2 MSTORE RETURN JUMPDEST CALLVALUE PUSH2 0x57E JUMPI PUSH1 0x0 CALLDATASIZE PUSH1 0x3 NOT ADD SLT PUSH2 0x57E JUMPI PUSH1 0x20 PUSH1 0x40 MLOAD PUSH32 0x2DC9B404F8E38E5F19EB4647A99E5502DE7E8B74E549B1B1B4F66602D4C62C3 DUP2 MSTORE RETURN JUMPDEST CALLVALUE PUSH2 0x57E JUMPI PUSH1 0x0 CALLDATASIZE PUSH1 0x3 NOT ADD SLT PUSH2 0x57E JUMPI PUSH1 0x20 PUSH1 0x40 MLOAD PUSH32 0x39AD749FEE897F891546936FEC6F5F035D0F8EA0468DDF897EC6E649D162BE1 DUP2 MSTORE RETURN JUMPDEST CALLVALUE PUSH2 0x57E JUMPI PUSH1 0x0 CALLDATASIZE PUSH1 0x3 NOT ADD SLT PUSH2 0x57E JUMPI PUSH1 0x20 PUSH1 0x40 MLOAD PUSH32 0x2AE069085C5956425591F6237F3B38A6E76406381A72B4E086362BF8EBD0790D DUP2 MSTORE RETURN JUMPDEST CALLVALUE PUSH2 0x57E JUMPI PUSH1 0x0 CALLDATASIZE PUSH1 0x3 NOT ADD SLT PUSH2 0x57E JUMPI PUSH1 0x20 PUSH1 0x40 MLOAD PUSH32 0xC415C50362C02920367E1C45DC5952CEFA926950DAE3BD6CDD0D9C9C14537E4 DUP2 MSTORE RETURN JUMPDEST CALLVALUE PUSH2 0x57E JUMPI PUSH1 0x0 CALLDATASIZE PUSH1 0x3 NOT ADD SLT PUSH2 0x57E JUMPI PUSH1 0x20 PUSH1 0x40 MLOAD PUSH2 0x300 DUP2 MSTORE RETURN JUMPDEST CALLVALUE PUSH2 0x57E JUMPI PUSH1 0x0 CALLDATASIZE PUSH1 0x3 NOT ADD SLT PUSH2 0x57E JUMPI PUSH1 0x20 PUSH1 0x40 MLOAD PUSH32 0x1C82CEF521A0B840790F85D830CB96D5377BB7372BA7577CBB606A8AFFE403A7 DUP2 MSTORE RETURN JUMPDEST CALLVALUE PUSH2 0x57E JUMPI PUSH1 0x0 CALLDATASIZE PUSH1 0x3 NOT ADD SLT PUSH2 0x57E JUMPI PUSH1 0x20 PUSH1 0x40 MLOAD PUSH32 0x12C85EA5DB8C6DEB4AAB71808DCB408FE3D1E7690C43D37B4CE6CC0166FA7DAA DUP2 MSTORE RETURN JUMPDEST CALLVALUE PUSH2 0x57E JUMPI PUSH1 0x0 CALLDATASIZE PUSH1 0x3 NOT ADD SLT PUSH2 0x57E JUMPI PUSH1 0x20 PUSH1 0x40 MLOAD PUSH32 0x16F1D2A2AD4096AEC237215770D14E74BB837C04448B166A41269FEBDDC4F56F DUP2 MSTORE RETURN JUMPDEST CALLVALUE PUSH2 0x57E JUMPI PUSH1 0x0 CALLDATASIZE PUSH1 0x3 NOT ADD SLT PUSH2 0x57E JUMPI PUSH1 0x20 PUSH1 0x40 MLOAD PUSH32 0x1BF082025F3757C9D01172B545483267080CCD8E4DBA8CC1DF9F9EE0308F23AB DUP2 MSTORE RETURN JUMPDEST CALLVALUE PUSH2 0x57E JUMPI PUSH1 0x0 CALLDATASIZE PUSH1 0x3 NOT ADD SLT PUSH2 0x57E JUMPI PUSH1 0x20 PUSH1 0x40 MLOAD PUSH32 0xF20C0FB8C72346A2D8B713008894506C97C6813FA1C0496D5B1C25F87728FD3 DUP2 MSTORE RETURN JUMPDEST CALLVALUE PUSH2 0x57E JUMPI PUSH1 0x0 CALLDATASIZE PUSH1 0x3 NOT ADD SLT PUSH2 0x57E JUMPI PUSH1 0x20 PUSH1 0x40 MLOAD PUSH32 0x1B3D150C69189120A0D813B66BD5FA6F90D2FC49D50BAE8AA34D90D9571A08F7 DUP2 MSTORE RETURN JUMPDEST CALLVALUE PUSH2 0x57E JUMPI PUSH1 0x0 CALLDATASIZE PUSH1 0x3 NOT ADD SLT PUSH2 0x57E JUMPI PUSH1 0x20 PUSH1 0x40 MLOAD PUSH32 0x24D9DD358E13725BA0641428D2406B43479181D6208AFAAA5ABCB7ACCB37F430 DUP2 MSTORE RETURN JUMPDEST CALLVALUE PUSH2 0x57E JUMPI PUSH1 0x0 CALLDATASIZE PUSH1 0x3 NOT ADD SLT PUSH2 0x57E JUMPI PUSH1 0x20 PUSH1 0x40 MLOAD PUSH32 0x2D4D9AA7E302D9DF41749D5507949D05DBEA33FBB16C643B22F599A2BE6DF2E2 DUP2 MSTORE RETURN JUMPDEST CALLVALUE PUSH2 0x57E JUMPI PUSH1 0x0 CALLDATASIZE PUSH1 0x3 NOT ADD SLT PUSH2 0x57E JUMPI PUSH1 0x20 PUSH1 0x40 MLOAD PUSH32 0x2185E663E3286B2E6013C9AB15951771FFB42646644F51113427EBA2D71D4513 DUP2 MSTORE RETURN JUMPDEST CALLVALUE PUSH2 0x57E JUMPI PUSH1 0x0 CALLDATASIZE PUSH1 0x3 NOT ADD SLT PUSH2 0x57E JUMPI PUSH1 0x20 PUSH1 0x40 MLOAD PUSH32 0x1F46E0AEF5E5A33DCEF3C91C6168CC7DDC121D534BA27B1B9D0F10FA4F9E799E DUP2 MSTORE RETURN JUMPDEST CALLVALUE PUSH2 0x57E JUMPI PUSH1 0x0 CALLDATASIZE PUSH1 0x3 NOT ADD SLT PUSH2 0x57E JUMPI PUSH1 0x20 PUSH1 0x40 MLOAD PUSH32 0x11B4C385D2519BE8EB926B757E396FA776D98D0A5FA69466F3EED4B958E6DD1E DUP2 MSTORE RETURN JUMPDEST CALLVALUE PUSH2 0x57E JUMPI PUSH1 0x0 CALLDATASIZE PUSH1 0x3 NOT ADD SLT PUSH2 0x57E JUMPI PUSH1 0x20 PUSH1 0x40 MLOAD PUSH32 0x2023F14A57C38CF4DD2A01D88FF44452DD1A144627A0FBDE9757548D0578AF65 DUP2 MSTORE RETURN JUMPDEST CALLVALUE PUSH2 0x57E JUMPI PUSH1 0x0 CALLDATASIZE PUSH1 0x3 NOT ADD SLT PUSH2 0x57E JUMPI PUSH1 0x20 PUSH1 0x40 MLOAD PUSH32 0x967032FCBF776D1AFC985F88877F182D38480A653F2DECAA9794CBC3BF3060C DUP2 MSTORE RETURN JUMPDEST CALLVALUE PUSH2 0x57E JUMPI PUSH1 0x0 CALLDATASIZE PUSH1 0x3 NOT ADD SLT PUSH2 0x57E JUMPI PUSH1 0x20 PUSH1 0x40 MLOAD PUSH32 0x264F55B7D972DF8121B2F8473E161BB7AFE44003C34464D2EEBF29446CBDAA08 DUP2 MSTORE RETURN JUMPDEST CALLVALUE PUSH2 0x57E JUMPI PUSH1 0x0 CALLDATASIZE PUSH1 0x3 NOT ADD SLT PUSH2 0x57E JUMPI PUSH1 0x20 PUSH1 0x40 MLOAD PUSH32 0x304CFBD1E08A704A99F5E847D93F8C3CAAFDDEC46B7A0D379DA69A4D112346A7 DUP2 MSTORE RETURN JUMPDEST CALLVALUE PUSH2 0x57E JUMPI PUSH1 0x0 CALLDATASIZE PUSH1 0x3 NOT ADD SLT PUSH2 0x57E JUMPI PUSH1 0x20 PUSH1 0x40 MLOAD PUSH32 0x1800DEEF121F1E76426A00665E5C4479674322D4F75EDADD46DEBD5CD992F6ED DUP2 MSTORE RETURN JUMPDEST CALLVALUE PUSH2 0x57E JUMPI PUSH1 0x0 CALLDATASIZE PUSH1 0x3 NOT ADD SLT PUSH2 0x57E JUMPI PUSH1 0x20 PUSH1 0x40 MLOAD PUSH32 0x226E31CB9BA7B28A0B157E5F39C232C0C81C0F7D3CBD7FF8662D674FB383C7D8 DUP2 MSTORE RETURN JUMPDEST CALLVALUE PUSH2 0x57E JUMPI PUSH1 0x0 CALLDATASIZE PUSH1 0x3 NOT ADD SLT PUSH2 0x57E JUMPI PUSH1 0x20 PUSH1 0x40 MLOAD PUSH32 0x17888AA0284FF8D6A7B462EDE5F31F52052E4DB8FC394F0CC9C6D1BA548C21B6 DUP2 MSTORE RETURN JUMPDEST CALLVALUE PUSH2 0x57E JUMPI PUSH1 0x0 CALLDATASIZE PUSH1 0x3 NOT ADD SLT PUSH2 0x57E JUMPI PUSH1 0x20 PUSH1 0x40 MLOAD PUSH32 0x2591CA675CB4590538F31DB2FAB149E7985EA042C4F57BA4CE5FCD52BE095EC1 DUP2 MSTORE RETURN JUMPDEST CALLVALUE PUSH2 0x57E JUMPI PUSH1 0x0 CALLDATASIZE PUSH1 0x3 NOT ADD SLT PUSH2 0x57E JUMPI PUSH1 0x20 PUSH1 0x40 MLOAD PUSH32 0x150C5D9BBE16B91062F765FFD9618D8337A9F8DA0C3890DB54BE7EC391FFEB81 DUP2 MSTORE RETURN JUMPDEST CALLVALUE PUSH2 0x57E JUMPI PUSH1 0x0 CALLDATASIZE PUSH1 0x3 NOT ADD SLT PUSH2 0x57E JUMPI PUSH1 0x20 PUSH1 0x40 MLOAD PUSH31 0x6930DFC6200DB7AD8B4C58B6780100E744A535F4B8713DC43D4AA39B710A77 DUP2 MSTORE RETURN JUMPDEST CALLVALUE PUSH2 0x57E JUMPI PUSH1 0x0 CALLDATASIZE PUSH1 0x3 NOT ADD SLT PUSH2 0x57E JUMPI PUSH1 0x20 PUSH1 0x40 MLOAD PUSH32 0x15F0312E34B132B3DBE7A824F8F9CB9D662D0A1E67C18A14A4604D93CF239F6D DUP2 MSTORE RETURN JUMPDEST CALLVALUE PUSH2 0x57E JUMPI PUSH1 0x0 CALLDATASIZE PUSH1 0x3 NOT ADD SLT PUSH2 0x57E JUMPI PUSH1 0x20 PUSH1 0x40 MLOAD PUSH32 0x2D70A74B4A4BE610CAB3BE650556D79582AE45798C4E5D740DB3C378BC0CE072 DUP2 MSTORE RETURN JUMPDEST CALLVALUE PUSH2 0x57E JUMPI PUSH1 0x0 CALLDATASIZE PUSH1 0x3 NOT ADD SLT PUSH2 0x57E JUMPI PUSH1 0x20 PUSH1 0x40 MLOAD PUSH31 0xC7CF61488C43D82B3C607609F184CA52145A4FB28C46E4D59EA4FCF2ACF261 DUP2 MSTORE RETURN JUMPDEST CALLVALUE PUSH2 0x57E JUMPI PUSH1 0x0 CALLDATASIZE PUSH1 0x3 NOT ADD SLT PUSH2 0x57E JUMPI PUSH1 0x20 PUSH1 0x40 MLOAD PUSH32 0x2229733E523A60E720C445D6551EC3D0890C2F5FA87B968ECB72EB5F1179BC57 DUP2 MSTORE RETURN JUMPDEST PUSH32 0x30644E72E131A029B85045B68181585D2833E84879B9709143E1F593F0000001 GT SWAP1 JUMP JUMPDEST SWAP2 SWAP1 PUSH1 0x40 SWAP1 DUP2 DUP5 ADD SWAP1 PUSH32 0x2185E663E3286B2E6013C9AB15951771FFB42646644F51113427EBA2D71D4513 DUP3 MSTORE PUSH32 0xC415C50362C02920367E1C45DC5952CEFA926950DAE3BD6CDD0D9C9C14537E4 PUSH1 0x60 DUP7 ADD MSTORE PUSH1 0x80 DUP6 ADD MSTORE PUSH1 0x60 DUP2 PUSH1 0x7 PUSH2 0x1770 STATICCALL RETURNDATASIZE ISZERO ISZERO AND SWAP2 DUP3 ISZERO PUSH2 0x1989 JUMPI PUSH1 0x40 SWAP2 SWAP3 POP PUSH1 0x80 DUP2 PUSH1 0x6 PUSH1 0x96 STATICCALL RETURNDATASIZE ISZERO ISZERO AND SWAP1 JUMP JUMPDEST POP JUMP JUMPDEST SWAP2 SWAP1 PUSH1 0x40 SWAP1 DUP2 DUP5 ADD SWAP1 PUSH32 0x264F55B7D972DF8121B2F8473E161BB7AFE44003C34464D2EEBF29446CBDAA08 DUP3 MSTORE PUSH32 0x2556D9FBC17CAE3E3790AB6BD9D314D1954140F9D02ADB59B9B48EE979A5D230 PUSH1 0x60 DUP7 ADD MSTORE PUSH1 0x80 DUP6 ADD MSTORE PUSH1 0x60 DUP2 PUSH1 0x7 PUSH2 0x1770 STATICCALL RETURNDATASIZE ISZERO ISZERO AND SWAP2 DUP3 ISZERO PUSH2 0x1989 JUMPI PUSH1 0x40 SWAP2 SWAP3 POP PUSH1 0x80 DUP2 PUSH1 0x6 PUSH1 0x96 STATICCALL RETURNDATASIZE ISZERO ISZERO AND SWAP1 JUMP JUMPDEST SWAP2 SWAP1 PUSH1 0x40 SWAP1 DUP2 DUP5 ADD SWAP1 PUSH32 0x12DE9C799ECF41AECD06BB5A9180ADD5A574C4B444F2DA65DD008F421D29C937 DUP3 MSTORE PUSH32 0x13C7352A8F29919D93CC94BF86C8800BDA20AEF8797D1ABC871750FEFF8BC3DD PUSH1 0x60 DUP7 ADD MSTORE PUSH1 0x80 DUP6 ADD MSTORE PUSH1 0x60 DUP2 PUSH1 0x7 PUSH2 0x1770 STATICCALL RETURNDATASIZE ISZERO ISZERO AND SWAP2 DUP3 ISZERO PUSH2 0x1989 JUMPI PUSH1 0x40 SWAP2 SWAP3 POP PUSH1 0x80 DUP2 PUSH1 0x6 PUSH1 0x96 STATICCALL RETURNDATASIZE ISZERO ISZERO AND SWAP1 JUMP JUMPDEST SWAP2 SWAP1 PUSH1 0x40 SWAP1 DUP2 DUP5 ADD SWAP1 PUSH32 0x2229733E523A60E720C445D6551EC3D0890C2F5FA87B968ECB72EB5F1179BC57 DUP3 MSTORE PUSH32 0x7336B93C4558113F410C97C43CFD9AD5D2BC0E0B4CDD3EEC71F4B840333958E PUSH1 0x60 DUP7 ADD MSTORE PUSH1 0x80 DUP6 ADD MSTORE PUSH1 0x60 DUP2 PUSH1 0x7 PUSH2 0x1770 STATICCALL RETURNDATASIZE ISZERO ISZERO AND SWAP2 DUP3 ISZERO PUSH2 0x1989 JUMPI PUSH1 0x40 SWAP2 SWAP3 POP PUSH1 0x80 DUP2 PUSH1 0x6 PUSH1 0x96 STATICCALL RETURNDATASIZE ISZERO ISZERO AND SWAP1 JUMP JUMPDEST SWAP2 SWAP1 PUSH1 0x40 SWAP1 DUP2 DUP5 ADD SWAP1 PUSH32 0x247B88A7B1C3B2DCE69247F47F696C290414DE2277888BBD8B9CA36B01BC18AC DUP3 MSTORE PUSH32 0x23FCF72FB01B297050F5A24417038F2A0A6A50DBFCAC6941D430374BDF594492 PUSH1 0x60 DUP7 ADD MSTORE PUSH1 0x80 DUP6 ADD MSTORE PUSH1 0x60 DUP2 PUSH1 0x7 PUSH2 0x1770 STATICCALL RETURNDATASIZE ISZERO ISZERO AND SWAP2 DUP3 ISZERO PUSH2 0x1989 JUMPI PUSH1 0x40 SWAP2 SWAP3 POP PUSH1 0x80 DUP2 PUSH1 0x6 PUSH1 0x96 STATICCALL RETURNDATASIZE ISZERO ISZERO AND SWAP1 JUMP JUMPDEST SWAP2 SWAP1 PUSH1 0x40 SWAP1 DUP2 DUP5 ADD SWAP1 PUSH32 0x16F1D2A2AD4096AEC237215770D14E74BB837C04448B166A41269FEBDDC4F56F DUP3 MSTORE PUSH32 0xF20C0FB8C72346A2D8B713008894506C97C6813FA1C0496D5B1C25F87728FD3 PUSH1 0x60 DUP7 ADD MSTORE PUSH1 0x80 DUP6 ADD MSTORE PUSH1 0x60 DUP2 PUSH1 0x7 PUSH2 0x1770 STATICCALL RETURNDATASIZE ISZERO ISZERO AND SWAP2 DUP3 ISZERO PUSH2 0x1989 JUMPI PUSH1 0x40 SWAP2 SWAP3 POP PUSH1 0x80 DUP2 PUSH1 0x6 PUSH1 0x96 STATICCALL RETURNDATASIZE ISZERO ISZERO AND SWAP1 JUMP JUMPDEST SWAP2 SWAP1 PUSH1 0x40 SWAP1 DUP2 DUP5 ADD SWAP1 PUSH32 0x2CFF3B75B31A9408D6FD59EC89820A6EC62F692E03C27AFE0D8A8EBBA51420CC DUP3 MSTORE PUSH32 0x1F875F7286BD16986EF99BCCCCD27A3786A035AC93DB1E683FF8D84D3A53EF7C PUSH1 0x60 DUP7 ADD MSTORE PUSH1 0x80 DUP6 ADD MSTORE PUSH1 0x60 DUP2 PUSH1 0x7 PUSH2 0x1770 STATICCALL RETURNDATASIZE ISZERO ISZERO AND SWAP2 DUP3 ISZERO PUSH2 0x1989 JUMPI PUSH1 0x40 SWAP2 SWAP3 POP PUSH1 0x80 DUP2 PUSH1 0x6 PUSH1 0x96 STATICCALL RETURNDATASIZE ISZERO ISZERO AND SWAP1 JUMP JUMPDEST SWAP2 SWAP1 PUSH1 0x40 SWAP1 DUP2 DUP5 ADD SWAP1 PUSH32 0x2E8E422476C8AA10EDB674C8D67CC22BB8F93F29DFC9031D52322FFBB309C66E DUP3 MSTORE PUSH32 0x23C5FF4A6AF434B289E8865783EC931FD1B0726BC15BCA93DBE42F010D3563EA PUSH1 0x60 DUP7 ADD MSTORE PUSH1 0x80 DUP6 ADD MSTORE PUSH1 0x60 DUP2 PUSH1 0x7 PUSH2 0x1770 STATICCALL RETURNDATASIZE ISZERO ISZERO AND SWAP2 DUP3 ISZERO PUSH2 0x1989 JUMPI PUSH1 0x40 SWAP2 SWAP3 POP PUSH1 0x80 DUP2 PUSH1 0x6 PUSH1 0x96 STATICCALL RETURNDATASIZE ISZERO ISZERO AND SWAP1 JUMP JUMPDEST SWAP2 SWAP1 PUSH1 0x40 SWAP1 DUP2 DUP5 ADD SWAP1 PUSH32 0x2023F14A57C38CF4DD2A01D88FF44452DD1A144627A0FBDE9757548D0578AF65 DUP3 MSTORE PUSH32 0x28C652662A86080D4C5D09B938EBEED07B7A217C9B8C4CDAD790A3C9DFE4C97B PUSH1 0x60 DUP7 ADD MSTORE PUSH1 0x80 DUP6 ADD MSTORE PUSH1 0x60 DUP2 PUSH1 0x7 PUSH2 0x1770 STATICCALL RETURNDATASIZE ISZERO ISZERO AND SWAP2 DUP3 ISZERO PUSH2 0x1989 JUMPI PUSH1 0x40 SWAP2 SWAP3 POP PUSH1 0x80 DUP2 PUSH1 0x6 PUSH1 0x96 STATICCALL RETURNDATASIZE ISZERO ISZERO AND SWAP1 JUMP JUMPDEST SWAP2 SWAP1 PUSH1 0x40 SWAP1 DUP2 DUP5 ADD SWAP1 PUSH32 0x15FD0DEF66442F6145179E697DDD2EB4210CD4F0AB9F648395CA60FC0A3A838F DUP3 MSTORE PUSH32 0x15F0312E34B132B3DBE7A824F8F9CB9D662D0A1E67C18A14A4604D93CF239F6D PUSH1 0x60 DUP7 ADD MSTORE PUSH1 0x80 DUP6 ADD MSTORE PUSH1 0x60 DUP2 PUSH1 0x7 PUSH2 0x1770 STATICCALL RETURNDATASIZE ISZERO ISZERO AND SWAP2 DUP3 ISZERO PUSH2 0x1989 JUMPI PUSH1 0x40 SWAP2 SWAP3 POP PUSH1 0x80 DUP2 PUSH1 0x6 PUSH1 0x96 STATICCALL RETURNDATASIZE ISZERO ISZERO AND SWAP1 JUMP JUMPDEST SWAP2 SWAP1 PUSH1 0x40 SWAP1 DUP2 DUP5 ADD SWAP1 PUSH31 0x447E7B8A936665056915E9CDDE693B78CDD4E5F6C573FAADEF8E190E71A90B DUP3 MSTORE PUSH31 0x10904681E4EB2129062BB0D32EE1DF78D16C79610196FC3E965029414D5CBB PUSH1 0x60 DUP7 ADD MSTORE PUSH1 0x80 DUP6 ADD MSTORE PUSH1 0x60 DUP2 PUSH1 0x7 PUSH2 0x1770 STATICCALL RETURNDATASIZE ISZERO ISZERO AND SWAP2 DUP3 ISZERO PUSH2 0x1989 JUMPI PUSH1 0x40 SWAP2 SWAP3 POP PUSH1 0x80 DUP2 PUSH1 0x6 PUSH1 0x96 STATICCALL RETURNDATASIZE ISZERO ISZERO AND SWAP1 JUMP JUMPDEST SWAP2 SWAP1 PUSH1 0x40 SWAP1 DUP2 DUP5 ADD SWAP1 PUSH32 0x2AE069085C5956425591F6237F3B38A6E76406381A72B4E086362BF8EBD0790D DUP3 MSTORE PUSH32 0x1BF082025F3757C9D01172B545483267080CCD8E4DBA8CC1DF9F9EE0308F23AB PUSH1 0x60 DUP7 ADD MSTORE PUSH1 0x80 DUP6 ADD MSTORE PUSH1 0x60 DUP2 PUSH1 0x7 PUSH2 0x1770 STATICCALL RETURNDATASIZE ISZERO ISZERO AND SWAP2 DUP3 ISZERO PUSH2 0x1989 JUMPI PUSH1 0x40 SWAP2 SWAP3 POP PUSH1 0x80 DUP2 PUSH1 0x6 PUSH1 0x96 STATICCALL RETURNDATASIZE ISZERO ISZERO AND SWAP1 JUMP JUMPDEST SWAP2 SWAP1 PUSH1 0x40 SWAP1 DUP2 DUP5 ADD SWAP1 PUSH32 0x2B308BCD2E81AEC22D71893E7F3C3C000AF9543E66B6F0DC3B4B32858961C13B DUP3 MSTORE PUSH32 0x288B33D9FA44F864C5C91F790FA50E5C2A698F417D260F5E9D54C0D8A1BDA6ED PUSH1 0x60 DUP7 ADD MSTORE PUSH1 0x80 DUP6 ADD MSTORE PUSH1 0x60 DUP2 PUSH1 0x7 PUSH2 0x1770 STATICCALL RETURNDATASIZE ISZERO ISZERO AND SWAP2 DUP3 ISZERO PUSH2 0x1989 JUMPI PUSH1 0x40 SWAP2 SWAP3 POP PUSH1 0x80 DUP2 PUSH1 0x6 PUSH1 0x96 STATICCALL RETURNDATASIZE ISZERO ISZERO AND SWAP1 JUMP JUMPDEST SWAP2 SWAP1 PUSH1 0x40 SWAP1 DUP2 DUP5 ADD SWAP1 PUSH32 0x11B4C385D2519BE8EB926B757E396FA776D98D0A5FA69466F3EED4B958E6DD1E DUP3 MSTORE PUSH31 0x6930DFC6200DB7AD8B4C58B6780100E744A535F4B8713DC43D4AA39B710A77 PUSH1 0x60 DUP7 ADD MSTORE PUSH1 0x80 DUP6 ADD MSTORE PUSH1 0x60 DUP2 PUSH1 0x7 PUSH2 0x1770 STATICCALL RETURNDATASIZE ISZERO ISZERO AND SWAP2 DUP3 ISZERO PUSH2 0x1989 JUMPI PUSH1 0x40 SWAP2 SWAP3 POP PUSH1 0x80 DUP2 PUSH1 0x6 PUSH1 0x96 STATICCALL RETURNDATASIZE ISZERO ISZERO AND SWAP1 JUMP JUMPDEST SWAP2 SWAP1 PUSH1 0x40 SWAP1 DUP2 DUP5 ADD SWAP1 PUSH32 0x114A80E01B3C8257E89901F851BE4D95A86CC2D547D9270BAD02E7DA8DBEA869 DUP3 MSTORE PUSH32 0x21D5DE6E1E78A94E3F1BA87D967AEB0A16F428F56FF3F430397B27FB73AFCA4 PUSH1 0x60 DUP7 ADD MSTORE PUSH1 0x80 DUP6 ADD MSTORE PUSH1 0x60 DUP2 PUSH1 0x7 PUSH2 0x1770 STATICCALL RETURNDATASIZE ISZERO ISZERO AND SWAP2 DUP3 ISZERO PUSH2 0x1989 JUMPI PUSH1 0x40 SWAP2 SWAP3 POP PUSH1 0x80 DUP2 PUSH1 0x6 PUSH1 0x96 STATICCALL RETURNDATASIZE ISZERO ISZERO AND SWAP1 JUMP JUMPDEST SWAP2 SWAP1 PUSH1 0x40 SWAP1 DUP2 DUP5 ADD SWAP1 PUSH32 0x226E31CB9BA7B28A0B157E5F39C232C0C81C0F7D3CBD7FF8662D674FB383C7D8 DUP3 MSTORE PUSH32 0x98BED6B8829C7CBA186C8A05DEC1296D4B567B7AC693738D5B7C779CAF600A2 PUSH1 0x60 DUP7 ADD MSTORE PUSH1 0x80 DUP6 ADD MSTORE PUSH1 0x60 DUP2 PUSH1 0x7 PUSH2 0x1770 STATICCALL RETURNDATASIZE ISZERO ISZERO AND SWAP2 DUP3 ISZERO PUSH2 0x1989 JUMPI PUSH1 0x40 SWAP2 SWAP3 POP PUSH1 0x80 DUP2 PUSH1 0x6 PUSH1 0x96 STATICCALL RETURNDATASIZE ISZERO ISZERO AND SWAP1 JUMP JUMPDEST SWAP2 SWAP1 PUSH1 0x40 SWAP1 DUP2 DUP5 ADD SWAP1 PUSH32 0x1F81DB9C744E0CB02E4553BBA155ECE68CF6ADE88B69514A949415FF91D22F62 DUP3 MSTORE PUSH32 0x6FA3B9BBC0F1161C019C848596CDF154E18874AC84E48ADA9B26891489D80FF PUSH1 0x60 DUP7 ADD MSTORE PUSH1 0x80 DUP6 ADD MSTORE PUSH1 0x60 DUP2 PUSH1 0x7 PUSH2 0x1770 STATICCALL RETURNDATASIZE ISZERO ISZERO AND SWAP2 DUP3 ISZERO PUSH2 0x1989 JUMPI PUSH1 0x40 SWAP2 SWAP3 POP PUSH1 0x80 DUP2 PUSH1 0x6 PUSH1 0x96 STATICCALL RETURNDATASIZE ISZERO ISZERO AND SWAP1 JUMP JUMPDEST SWAP2 SWAP1 PUSH1 0x40 SWAP1 DUP2 DUP5 ADD SWAP1 PUSH32 0xCFBA7B3D2B6B5146F13AA9B38D237420B43D456BD551A1E95284A74D5FDC9CE DUP3 MSTORE PUSH32 0x24D9DD358E13725BA0641428D2406B43479181D6208AFAAA5ABCB7ACCB37F430 PUSH1 0x60 DUP7 ADD MSTORE PUSH1 0x80 DUP6 ADD MSTORE PUSH1 0x60 DUP2 PUSH1 0x7 PUSH2 0x1770 STATICCALL RETURNDATASIZE ISZERO ISZERO AND SWAP2 DUP3 ISZERO PUSH2 0x1989 JUMPI PUSH1 0x40 SWAP2 SWAP3 POP PUSH1 0x80 DUP2 PUSH1 0x6 PUSH1 0x96 STATICCALL RETURNDATASIZE ISZERO ISZERO AND SWAP1 JUMP JUMPDEST SWAP2 SWAP1 PUSH1 0x40 SWAP1 DUP2 DUP5 ADD SWAP1 PUSH32 0x28EEFA9E331561E3021C05D89A7803EF9401969D098D346F05478EDFA924CA3F DUP3 MSTORE PUSH32 0x1C03C3897F2CFC2F0185B5E379FDE762B7BD1DBD337B6095FAA29F20A12A95A3 PUSH1 0x60 DUP7 ADD MSTORE PUSH1 0x80 DUP6 ADD MSTORE PUSH1 0x60 DUP2 PUSH1 0x7 PUSH2 0x1770 STATICCALL RETURNDATASIZE ISZERO ISZERO AND SWAP2 DUP3 ISZERO PUSH2 0x1989 JUMPI PUSH1 0x40 SWAP2 SWAP3 POP PUSH1 0x80 DUP2 PUSH1 0x6 PUSH1 0x96 STATICCALL RETURNDATASIZE ISZERO ISZERO AND SWAP1 JUMP JUMPDEST SWAP2 SWAP1 PUSH1 0x40 SWAP1 DUP2 DUP5 ADD SWAP1 PUSH32 0x20B5F9D2929F9D1C416549F2BF4D007519ECBECE59B3C0E764F31286DFE37B7C DUP3 MSTORE PUSH32 0x5FFDC39E07D30C593E450F343692336797FB2B9D7928579BEDDF5B4314C2F28 PUSH1 0x60 DUP7 ADD MSTORE PUSH1 0x80 DUP6 ADD MSTORE PUSH1 0x60 DUP2 PUSH1 0x7 PUSH2 0x1770 STATICCALL RETURNDATASIZE ISZERO ISZERO AND SWAP2 DUP3 ISZERO PUSH2 0x1989 JUMPI PUSH1 0x40 SWAP2 SWAP3 POP PUSH1 0x80 DUP2 PUSH1 0x6 PUSH1 0x96 STATICCALL RETURNDATASIZE ISZERO ISZERO AND SWAP1 JUMP JUMPDEST SWAP2 SWAP1 PUSH1 0x40 SWAP1 DUP2 DUP5 ADD SWAP1 PUSH32 0x1F46E0AEF5E5A33DCEF3C91C6168CC7DDC121D534BA27B1B9D0F10FA4F9E799E DUP3 MSTORE PUSH32 0x19DC1AE1CB1AB8DB0AEA2D2666C4A413DDDB3BD65EE2677BFBF709B115DA552F PUSH1 0x60 DUP7 ADD MSTORE PUSH1 0x80 DUP6 ADD MSTORE PUSH1 0x60 DUP2 PUSH1 0x7 PUSH2 0x1770 STATICCALL RETURNDATASIZE ISZERO ISZERO AND SWAP2 DUP3 ISZERO PUSH2 0x1989 JUMPI PUSH1 0x40 SWAP2 SWAP3 POP PUSH1 0x80 DUP2 PUSH1 0x6 PUSH1 0x96 STATICCALL RETURNDATASIZE ISZERO ISZERO AND SWAP1 JUMP JUMPDEST SWAP2 SWAP1 PUSH1 0x40 SWAP1 DUP2 DUP5 ADD SWAP1 PUSH32 0x4F109A9043F0736C31FD7AC58C1371D9AD11830EB63341596DD6A075566C2ED DUP3 MSTORE PUSH32 0xD724B53103D7718A13D6C815182F8EE319835C261E8E92B961F39F162A3FA9D PUSH1 0x60 DUP7 ADD MSTORE PUSH1 0x80 DUP6 ADD MSTORE PUSH1 0x60 DUP2 PUSH1 0x7 PUSH2 0x1770 STATICCALL RETURNDATASIZE ISZERO ISZERO AND SWAP2 DUP3 ISZERO PUSH2 0x1989 JUMPI PUSH1 0x40 SWAP2 SWAP3 POP PUSH1 0x80 DUP2 PUSH1 0x6 PUSH1 0x96 STATICCALL RETURNDATASIZE ISZERO ISZERO AND SWAP1 JUMP JUMPDEST SWAP2 SWAP1 PUSH1 0x40 SWAP1 DUP2 DUP5 ADD SWAP1 PUSH32 0xA9068BB86CC932E13EECB08B3F022E0BDF9F1F695929E21294033E53C919B8B DUP3 MSTORE PUSH32 0x6AFE48C571539099DA5AC59491E0E203DF5658FF654B250B0525ED791BDE83F PUSH1 0x60 DUP7 ADD MSTORE PUSH1 0x80 DUP6 ADD MSTORE PUSH1 0x60 DUP2 PUSH1 0x7 PUSH2 0x1770 STATICCALL RETURNDATASIZE ISZERO ISZERO AND SWAP2 DUP3 ISZERO PUSH2 0x1989 JUMPI PUSH1 0x40 SWAP2 SWAP3 POP PUSH1 0x80 DUP2 PUSH1 0x6 PUSH1 0x96 STATICCALL RETURNDATASIZE ISZERO ISZERO AND SWAP1 JUMP JUMPDEST SWAP2 SWAP1 PUSH1 0x40 SWAP1 DUP2 DUP5 ADD SWAP1 PUSH32 0x2D70A74B4A4BE610CAB3BE650556D79582AE45798C4E5D740DB3C378BC0CE072 DUP3 MSTORE PUSH31 0xC7CF61488C43D82B3C607609F184CA52145A4FB28C46E4D59EA4FCF2ACF261 PUSH1 0x60 DUP7 ADD MSTORE PUSH1 0x80 DUP6 ADD MSTORE PUSH1 0x60 DUP2 PUSH1 0x7 PUSH2 0x1770 STATICCALL RETURNDATASIZE ISZERO ISZERO AND SWAP2 DUP3 ISZERO PUSH2 0x1989 JUMPI PUSH1 0x40 SWAP2 SWAP3 POP PUSH1 0x80 DUP2 PUSH1 0x6 PUSH1 0x96 STATICCALL RETURNDATASIZE ISZERO ISZERO AND SWAP1 JUMP JUMPDEST SWAP2 SWAP1 PUSH1 0x40 SWAP1 DUP2 DUP5 ADD SWAP1 PUSH32 0x1B3D150C69189120A0D813B66BD5FA6F90D2FC49D50BAE8AA34D90D9571A08F7 DUP3 MSTORE PUSH32 0x1C82CEF521A0B840790F85D830CB96D5377BB7372BA7577CBB606A8AFFE403A7 PUSH1 0x60 DUP7 ADD MSTORE PUSH1 0x80 DUP6 ADD MSTORE PUSH1 0x60 DUP2 PUSH1 0x7 PUSH2 0x1770 STATICCALL RETURNDATASIZE ISZERO ISZERO AND SWAP2 DUP3 ISZERO PUSH2 0x1989 JUMPI PUSH1 0x40 SWAP2 SWAP3 POP PUSH1 0x80 DUP2 PUSH1 0x6 PUSH1 0x96 STATICCALL RETURNDATASIZE ISZERO ISZERO AND SWAP1 JUMP JUMPDEST SWAP2 SWAP1 PUSH1 0x40 SWAP1 DUP2 DUP5 ADD SWAP1 PUSH32 0x1B514B6E343D274E0C5E3094C112CBBA2D4CB29C4CAAAC8D23B6B3F4093090B DUP3 MSTORE PUSH32 0x10C8404C7DE800423F4F084EEF24083C7E8BF909F56A84233CF5847507570A1D PUSH1 0x60 DUP7 ADD MSTORE PUSH1 0x80 DUP6 ADD MSTORE PUSH1 0x60 DUP2 PUSH1 0x7 PUSH2 0x1770 STATICCALL RETURNDATASIZE ISZERO ISZERO AND SWAP2 DUP3 ISZERO PUSH2 0x1989 JUMPI PUSH1 0x40 SWAP2 SWAP3 POP PUSH1 0x80 DUP2 PUSH1 0x6 PUSH1 0x96 STATICCALL RETURNDATASIZE ISZERO ISZERO AND SWAP1 JUMP JUMPDEST SWAP2 SWAP1 PUSH1 0x40 SWAP1 DUP2 DUP5 ADD SWAP1 PUSH32 0x229D46BB0F28980F63ED732AC9C63A8201E1911F5CB5F8110D311BE0FADE10AA DUP3 MSTORE PUSH32 0x150C5D9BBE16B91062F765FFD9618D8337A9F8DA0C3890DB54BE7EC391FFEB81 PUSH1 0x60 DUP7 ADD MSTORE PUSH1 0x80 DUP6 ADD MSTORE PUSH1 0x60 DUP2 PUSH1 0x7 PUSH2 0x1770 STATICCALL RETURNDATASIZE ISZERO ISZERO AND SWAP2 DUP3 ISZERO PUSH2 0x1989 JUMPI PUSH1 0x40 SWAP2 SWAP3 POP PUSH1 0x80 DUP2 PUSH1 0x6 PUSH1 0x96 STATICCALL RETURNDATASIZE ISZERO ISZERO AND SWAP1 JUMP JUMPDEST SWAP2 SWAP1 PUSH1 0x40 SWAP1 DUP2 DUP5 ADD SWAP1 PUSH31 0x731D446BE28EAC35291905A299316A911BA3C0F08E9D2890E6D8988585EE4E DUP3 MSTORE PUSH32 0x107A259D8F5FF4C316FF76A5FAB4BCD8DF012F40C60385045064477FB0C3934B PUSH1 0x60 DUP7 ADD MSTORE PUSH1 0x80 DUP6 ADD MSTORE PUSH1 0x60 DUP2 PUSH1 0x7 PUSH2 0x1770 STATICCALL RETURNDATASIZE ISZERO ISZERO AND SWAP2 DUP3 ISZERO PUSH2 0x1989 JUMPI PUSH1 0x40 SWAP2 SWAP3 POP PUSH1 0x80 DUP2 PUSH1 0x6 PUSH1 0x96 STATICCALL RETURNDATASIZE ISZERO ISZERO AND SWAP1 JUMP JUMPDEST SWAP2 SWAP1 PUSH1 0x40 SWAP1 DUP2 DUP5 ADD SWAP1 PUSH32 0x2DC9B404F8E38E5F19EB4647A99E5502DE7E8B74E549B1B1B4F66602D4C62C3 DUP3 MSTORE PUSH32 0x78E441D5F913298EEE2B136349E447B0C4EF2A5568C6393DBAF10B499D31B35 PUSH1 0x60 DUP7 ADD MSTORE PUSH1 0x80 DUP6 ADD MSTORE PUSH1 0x60 DUP2 PUSH1 0x7 PUSH2 0x1770 STATICCALL RETURNDATASIZE ISZERO ISZERO AND SWAP2 DUP3 ISZERO PUSH2 0x1989 JUMPI PUSH1 0x40 SWAP2 SWAP3 POP PUSH1 0x80 DUP2 PUSH1 0x6 PUSH1 0x96 STATICCALL RETURNDATASIZE ISZERO ISZERO AND SWAP1 JUMP JUMPDEST SWAP2 SWAP1 PUSH1 0x40 SWAP1 DUP2 DUP5 ADD SWAP1 PUSH32 0x8F8782826C3F003694C4122B0546B6A5A0D7F47CE4BE9C09741CD1D7E6883DA DUP3 MSTORE PUSH31 0x907377179F86703005860E48C37223BA67A3AF40C0D92603B70D846DF712F1 PUSH1 0x60 DUP7 ADD MSTORE PUSH1 0x80 DUP6 ADD MSTORE PUSH1 0x60 DUP2 PUSH1 0x7 PUSH2 0x1770 STATICCALL RETURNDATASIZE ISZERO ISZERO AND SWAP2 DUP3 ISZERO PUSH2 0x1989 JUMPI PUSH1 0x40 SWAP2 SWAP3 POP PUSH1 0x80 DUP2 PUSH1 0x6 PUSH1 0x96 STATICCALL RETURNDATASIZE ISZERO ISZERO AND SWAP1 JUMP JUMPDEST SWAP2 SWAP1 PUSH1 0x40 SWAP1 DUP2 DUP5 ADD SWAP1 PUSH32 0x2591CA675CB4590538F31DB2FAB149E7985EA042C4F57BA4CE5FCD52BE095EC1 DUP3 MSTORE PUSH32 0x39AD749FEE897F891546936FEC6F5F035D0F8EA0468DDF897EC6E649D162BE1 PUSH1 0x60 DUP7 ADD MSTORE PUSH1 0x80 DUP6 ADD MSTORE PUSH1 0x60 DUP2 PUSH1 0x7 PUSH2 0x1770 STATICCALL RETURNDATASIZE ISZERO ISZERO AND SWAP2 DUP3 ISZERO PUSH2 0x1989 JUMPI PUSH1 0x40 SWAP2 SWAP3 POP PUSH1 0x80 DUP2 PUSH1 0x6 PUSH1 0x96 STATICCALL RETURNDATASIZE ISZERO ISZERO AND SWAP1 JUMP JUMPDEST SWAP2 SWAP1 PUSH1 0x40 SWAP1 DUP2 DUP5 ADD SWAP1 PUSH32 0x2F7E60587D3F233C2061FB131FBD84C3CB1D413AE5B8FAE41400CB4645B0B4F DUP3 MSTORE PUSH32 0x17888AA0284FF8D6A7B462EDE5F31F52052E4DB8FC394F0CC9C6D1BA548C21B6 PUSH1 0x60 DUP7 ADD MSTORE PUSH1 0x80 DUP6 ADD MSTORE PUSH1 0x60 DUP2 PUSH1 0x7 PUSH2 0x1770 STATICCALL RETURNDATASIZE ISZERO ISZERO AND SWAP2 DUP3 ISZERO PUSH2 0x1989 JUMPI PUSH1 0x40 SWAP2 SWAP3 POP PUSH1 0x80 DUP2 PUSH1 0x6 PUSH1 0x96 STATICCALL RETURNDATASIZE ISZERO ISZERO AND SWAP1 JUMP JUMPDEST SWAP1 SWAP2 SWAP3 PUSH1 0x0 SWAP1 PUSH32 0x187E2F19D9D1CC66CFA50A02A10B80ECED78334B2BCDB24EA443BFB4A6AC9CED DUP7 MSTORE PUSH32 0xD5B82E143FE82261E806BD844FB31C04D96EC4992ED1487C096B7092772C41D PUSH1 0x20 DUP8 ADD MSTORE PUSH2 0x2941 DUP2 MLOAD DUP8 PUSH2 0x190A JUMP JUMPDEST ISZERO PUSH2 0x2E57 JUMPI PUSH2 0x2954 PUSH1 0x20 DUP3 ADD MLOAD DUP8 PUSH2 0x198C JUMP JUMPDEST ISZERO PUSH2 0x2E57 JUMPI PUSH2 0x2967 PUSH1 0x40 DUP3 ADD MLOAD DUP8 PUSH2 0x1A0B JUMP JUMPDEST ISZERO PUSH2 0x2E57 JUMPI PUSH2 0x297A PUSH1 0x60 DUP3 ADD MLOAD DUP8 PUSH2 0x1A8A JUMP JUMPDEST ISZERO PUSH2 0x2E57 JUMPI PUSH2 0x298D PUSH1 0x80 DUP3 ADD MLOAD DUP8 PUSH2 0x1B09 JUMP JUMPDEST ISZERO PUSH2 0x2E57 JUMPI PUSH2 0x29A0 PUSH1 0xA0 DUP3 ADD MLOAD DUP8 PUSH2 0x1B88 JUMP JUMPDEST ISZERO PUSH2 0x2E57 JUMPI PUSH2 0x29B3 PUSH1 0xC0 DUP3 ADD MLOAD DUP8 PUSH2 0x1C07 JUMP JUMPDEST ISZERO PUSH2 0x2E57 JUMPI PUSH2 0x29C6 PUSH1 0xE0 DUP3 ADD MLOAD DUP8 PUSH2 0x1C86 JUMP JUMPDEST ISZERO PUSH2 0x2E57 JUMPI PUSH2 0x29DA PUSH2 0x100 DUP3 ADD MLOAD DUP8 PUSH2 0x1D05 JUMP JUMPDEST ISZERO PUSH2 0x2E57 JUMPI PUSH2 0x29EE PUSH2 0x120 DUP3 ADD MLOAD DUP8 PUSH2 0x1D84 JUMP JUMPDEST ISZERO PUSH2 0x2E57 JUMPI PUSH2 0x2A02 PUSH2 0x140 DUP3 ADD MLOAD DUP8 PUSH2 0x1E03 JUMP JUMPDEST ISZERO PUSH2 0x2E57 JUMPI PUSH2 0x2A16 PUSH2 0x160 DUP3 ADD MLOAD DUP8 PUSH2 0x1E80 JUMP JUMPDEST ISZERO PUSH2 0x2E57 JUMPI PUSH2 0x2A2A PUSH2 0x180 DUP3 ADD MLOAD DUP8 PUSH2 0x1EFF JUMP JUMPDEST ISZERO PUSH2 0x2E57 JUMPI PUSH2 0x2A3E PUSH2 0x1A0 DUP3 ADD MLOAD DUP8 PUSH2 0x1F7E JUMP JUMPDEST ISZERO PUSH2 0x2E57 JUMPI PUSH2 0x2A52 PUSH2 0x1C0 DUP3 ADD MLOAD DUP8 PUSH2 0x1FFC JUMP JUMPDEST ISZERO PUSH2 0x2E57 JUMPI PUSH2 0x2A66 PUSH2 0x1E0 DUP3 ADD MLOAD DUP8 PUSH2 0x207B JUMP JUMPDEST ISZERO PUSH2 0x2E57 JUMPI PUSH2 0x2A7A PUSH2 0x200 DUP3 ADD MLOAD DUP8 PUSH2 0x20FA JUMP JUMPDEST ISZERO PUSH2 0x2E57 JUMPI PUSH2 0x2A8E PUSH2 0x220 DUP3 ADD MLOAD DUP8 PUSH2 0x2179 JUMP JUMPDEST ISZERO PUSH2 0x2E57 JUMPI PUSH2 0x2AA2 PUSH2 0x240 DUP3 ADD MLOAD DUP8 PUSH2 0x21F8 JUMP JUMPDEST ISZERO PUSH2 0x2E57 JUMPI PUSH2 0x2AB6 PUSH2 0x260 DUP3 ADD MLOAD DUP8 PUSH2 0x2277 JUMP JUMPDEST ISZERO PUSH2 0x2E57 JUMPI PUSH2 0x2ACA PUSH2 0x280 DUP3 ADD MLOAD DUP8 PUSH2 0x22F6 JUMP JUMPDEST ISZERO PUSH2 0x2E57 JUMPI PUSH2 0x2ADE PUSH2 0x2A0 DUP3 ADD MLOAD DUP8 PUSH2 0x2375 JUMP JUMPDEST ISZERO PUSH2 0x2E57 JUMPI PUSH2 0x2AF2 PUSH2 0x2C0 DUP3 ADD MLOAD DUP8 PUSH2 0x23F4 JUMP JUMPDEST ISZERO PUSH2 0x2E57 JUMPI PUSH2 0x2B06 PUSH2 0x2E0 DUP3 ADD MLOAD DUP8 PUSH2 0x2473 JUMP JUMPDEST ISZERO PUSH2 0x2E57 JUMPI PUSH2 0x2B1A PUSH2 0x300 DUP3 ADD MLOAD DUP8 PUSH2 0x24F1 JUMP JUMPDEST ISZERO PUSH2 0x2E57 JUMPI PUSH2 0x2B2E PUSH2 0x320 DUP3 ADD MLOAD DUP8 PUSH2 0x2570 JUMP JUMPDEST ISZERO PUSH2 0x2E57 JUMPI PUSH2 0x2B42 PUSH2 0x340 DUP3 ADD MLOAD DUP8 PUSH2 0x25EF JUMP JUMPDEST ISZERO PUSH2 0x2E57 JUMPI PUSH2 0x2B56 PUSH2 0x360 DUP3 ADD MLOAD DUP8 PUSH2 0x266E JUMP JUMPDEST ISZERO PUSH2 0x2E57 JUMPI PUSH2 0x2B6A PUSH2 0x380 DUP3 ADD MLOAD DUP8 PUSH2 0x26EC JUMP JUMPDEST ISZERO PUSH2 0x2E57 JUMPI PUSH2 0x2B7E PUSH2 0x3A0 DUP3 ADD MLOAD DUP8 PUSH2 0x276B JUMP JUMPDEST ISZERO PUSH2 0x2E57 JUMPI PUSH2 0x2B92 PUSH2 0x3C0 DUP3 ADD MLOAD DUP8 PUSH2 0x27E9 JUMP JUMPDEST ISZERO PUSH2 0x2E57 JUMPI PUSH2 0x3E0 PUSH2 0x2BA6 SWAP2 ADD MLOAD DUP7 PUSH2 0x2868 JUMP JUMPDEST ISZERO PUSH2 0x2E4F JUMPI POP PUSH1 0x20 DUP1 SWAP4 SWAP3 PUSH32 0x30644E72E131A029B85045B68181585D97816A916871CA8D3C208C16D87CFD47 DUP3 DUP1 SWAP5 PUSH32 0x198E9393920D483A7260BFB731FB5D25F1AA493335A9E71297E485B7AEF312C2 PUSH1 0x40 DUP11 ADD MSTORE PUSH32 0x1800DEEF121F1E76426A00665E5C4479674322D4F75EDADD46DEBD5CD992F6ED PUSH1 0x60 DUP11 ADD MSTORE PUSH32 0x90689D0585FF075EC9E99AD690C3395BC4B313370B38EF355ACDADCD122975B PUSH1 0x80 DUP11 ADD MSTORE PUSH32 0x12C85EA5DB8C6DEB4AAB71808DCB408FE3D1E7690C43D37B4CE6CC0166FA7DAA PUSH1 0xA0 DUP11 ADD MSTORE DUP1 MLOAD PUSH1 0xC0 DUP11 ADD MSTORE ADD MLOAD DUP2 SUB MOD PUSH1 0xE0 DUP8 ADD MSTORE DUP1 MLOAD MLOAD PUSH2 0x100 DUP8 ADD MSTORE DUP2 DUP2 MLOAD ADD MLOAD PUSH2 0x120 DUP8 ADD MSTORE ADD DUP1 MLOAD MLOAD PUSH2 0x140 DUP7 ADD MSTORE MLOAD ADD MLOAD PUSH2 0x160 DUP5 ADD MSTORE PUSH32 0x2D4D9AA7E302D9DF41749D5507949D05DBEA33FBB16C643B22F599A2BE6DF2E2 PUSH2 0x180 DUP5 ADD MSTORE PUSH32 0x14BEDD503C37CEB061D8EC60209FE345CE89830A19230301F076CAFF004D1926 PUSH2 0x1A0 DUP5 ADD MSTORE PUSH32 0x967032FCBF776D1AFC985F88877F182D38480A653F2DECAA9794CBC3BF3060C PUSH2 0x1C0 DUP5 ADD MSTORE PUSH32 0xE187847AD4C798374D0D6732BF501847DD68BC0E071241E0213BC7FC13DB7AB PUSH2 0x1E0 DUP5 ADD MSTORE PUSH32 0x304CFBD1E08A704A99F5E847D93F8C3CAAFDDEC46B7A0D379DA69A4D112346A7 PUSH2 0x200 DUP5 ADD MSTORE PUSH32 0x1739C1B1A457A8C7313123D24D2F9192F896B7C63EEA05A9D57F06547AD0CEC8 PUSH2 0x220 DUP5 ADD MSTORE DUP1 MLOAD PUSH2 0x240 DUP5 ADD MSTORE ADD MLOAD PUSH2 0x260 DUP3 ADD MSTORE PUSH32 0x198E9393920D483A7260BFB731FB5D25F1AA493335A9E71297E485B7AEF312C2 PUSH2 0x280 DUP3 ADD MSTORE PUSH32 0x1800DEEF121F1E76426A00665E5C4479674322D4F75EDADD46DEBD5CD992F6ED PUSH2 0x2A0 DUP3 ADD MSTORE PUSH32 0x90689D0585FF075EC9E99AD690C3395BC4B313370B38EF355ACDADCD122975B PUSH2 0x2C0 DUP3 ADD MSTORE PUSH32 0x12C85EA5DB8C6DEB4AAB71808DCB408FE3D1E7690C43D37B4CE6CC0166FA7DAA PUSH2 0x2E0 DUP3 ADD MSTORE PUSH1 0x20 DUP2 PUSH2 0x300 DUP2 PUSH1 0x8 PUSH3 0x2C308 STATICCALL SWAP1 MLOAD AND SWAP1 JUMP JUMPDEST SWAP5 SWAP4 POP POP POP POP JUMP JUMPDEST POP SWAP5 SWAP4 POP POP POP POP JUMP JUMPDEST SWAP4 SWAP3 SWAP1 SWAP2 PUSH1 0x40 MLOAD SWAP3 PUSH2 0x300 DUP5 ADD PUSH1 0x40 MSTORE PUSH1 0x1 PUSH2 0x2E7C DUP5 MLOAD PUSH2 0x18E5 JUMP JUMPDEST PUSH2 0x2E89 PUSH1 0x20 DUP7 ADD MLOAD PUSH2 0x18E5 JUMP JUMPDEST AND PUSH2 0x2E97 PUSH1 0x40 DUP7 ADD MLOAD PUSH2 0x18E5 JUMP JUMPDEST AND PUSH2 0x2EA5 PUSH1 0x60 DUP7 ADD MLOAD PUSH2 0x18E5 JUMP JUMPDEST AND AND PUSH2 0x2EB4 PUSH1 0x80 DUP6 ADD MLOAD PUSH2 0x18E5 JUMP JUMPDEST AND PUSH2 0x2EC2 PUSH1 0xA0 DUP6 ADD MLOAD PUSH2 0x18E5 JUMP JUMPDEST AND PUSH2 0x2ED0 PUSH1 0xC0 DUP6 ADD MLOAD PUSH2 0x18E5 JUMP JUMPDEST AND PUSH2 0x2EDE PUSH1 0xE0 DUP6 ADD MLOAD PUSH2 0x18E5 JUMP JUMPDEST AND PUSH2 0x2EED PUSH2 0x100 DUP6 ADD MLOAD PUSH2 0x18E5 JUMP JUMPDEST AND PUSH2 0x2EFC PUSH2 0x120 DUP6 ADD MLOAD PUSH2 0x18E5 JUMP JUMPDEST AND PUSH2 0x2F0B PUSH2 0x140 DUP6 ADD MLOAD PUSH2 0x18E5 JUMP JUMPDEST AND PUSH2 0x2F1A PUSH2 0x160 DUP6 ADD MLOAD PUSH2 0x18E5 JUMP JUMPDEST AND PUSH2 0x2F29 PUSH2 0x180 DUP6 ADD MLOAD PUSH2 0x18E5 JUMP JUMPDEST AND PUSH2 0x2F38 PUSH2 0x1A0 DUP6 ADD MLOAD PUSH2 0x18E5 JUMP JUMPDEST AND PUSH2 0x2F47 PUSH2 0x1C0 DUP6 ADD MLOAD PUSH2 0x18E5 JUMP JUMPDEST AND PUSH2 0x2F56 PUSH2 0x1E0 DUP6 ADD MLOAD PUSH2 0x18E5 JUMP JUMPDEST AND PUSH2 0x2F65 PUSH2 0x200 DUP6 ADD MLOAD PUSH2 0x18E5 JUMP JUMPDEST AND PUSH2 0x2F74 PUSH2 0x220 DUP6 ADD MLOAD PUSH2 0x18E5 JUMP JUMPDEST AND PUSH2 0x2F83 PUSH2 0x240 DUP6 ADD MLOAD PUSH2 0x18E5 JUMP JUMPDEST AND PUSH2 0x2F92 PUSH2 0x260 DUP6 ADD MLOAD PUSH2 0x18E5 JUMP JUMPDEST AND PUSH2 0x2FA1 PUSH2 0x280 DUP6 ADD MLOAD PUSH2 0x18E5 JUMP JUMPDEST AND PUSH2 0x2FB0 PUSH2 0x2A0 DUP6 ADD MLOAD PUSH2 0x18E5 JUMP JUMPDEST AND PUSH2 0x2FBF PUSH2 0x2C0 DUP6 ADD MLOAD PUSH2 0x18E5 JUMP JUMPDEST AND PUSH2 0x2FCE PUSH2 0x2E0 DUP6 ADD MLOAD PUSH2 0x18E5 JUMP JUMPDEST AND PUSH2 0x2FDD PUSH2 0x300 DUP6 ADD MLOAD PUSH2 0x18E5 JUMP JUMPDEST AND PUSH2 0x2FEC PUSH2 0x320 DUP6 ADD MLOAD PUSH2 0x18E5 JUMP JUMPDEST AND PUSH2 0x2FFB PUSH2 0x340 DUP6 ADD MLOAD PUSH2 0x18E5 JUMP JUMPDEST AND PUSH2 0x300A PUSH2 0x360 DUP6 ADD MLOAD PUSH2 0x18E5 JUMP JUMPDEST AND PUSH2 0x3019 PUSH2 0x380 DUP6 ADD MLOAD PUSH2 0x18E5 JUMP JUMPDEST AND PUSH2 0x3028 PUSH2 0x3A0 DUP6 ADD MLOAD PUSH2 0x18E5 JUMP JUMPDEST AND PUSH2 0x3037 PUSH2 0x3C0 DUP6 ADD MLOAD PUSH2 0x18E5 JUMP JUMPDEST AND PUSH2 0x3046 PUSH2 0x3E0 DUP6 ADD MLOAD PUSH2 0x18E5 JUMP JUMPDEST AND SWAP6 DUP7 ISZERO NOT PUSH2 0x3057 JUMPI JUMPDEST POP POP POP POP POP JUMP JUMPDEST PUSH2 0x3062 SWAP6 SWAP7 POP PUSH2 0x28E7 JUMP JUMPDEST SWAP1 CODESIZE DUP1 DUP1 DUP1 DUP1 PUSH2 0x3050 JUMP INVALID LOG2 PUSH5 0x6970667358 0x22 SLT KECCAK256 0x23 0xDB 0xD ADDRESS TLOAD SWAP6 SIGNEXTEND DELEGATECALL SWAP7 SWAP5 0xCB SWAP3 SHR SWAP15 0xDF EXTCODESIZE CALLDATALOAD 0xDD 0xA7 DIV 0xBE CALLVALUE 0xBC RETURNDATACOPY LOG1 SWAP11 0xCE 0xA9 SELFBALANCE INVALID DUP10 0xC7 PUSH5 0x736F6C6343 STOP ADDMOD SHL STOP CALLER "},"methodIdentifiers":{"ALPHA_X()":"d1fb02a3","ALPHA_Y()":"6a5935a7","BASE_FIELD_SIZE()":"839a60d0","BETA_X1()":"dc05a822","BETA_X2()":"7fdf8fc1","BETA_Y1()":"dd924b47","BETA_Y2()":"1c4d4406","DELTA_X1()":"d70a63cc","DELTA_X2()":"f7a65aae","DELTA_Y1()":"b936325c","DELTA_Y2()":"cc9c92ae","GAMMA_X1()":"901660c4","GAMMA_X2()":"dfcf46f0","GAMMA_Y1()":"3a9e6a4d","GAMMA_Y2()":"acb41936","IC0_X()":"6336ec6c","IC0_Y()":"742797c4","IC10_X()":"11fbfe66","IC10_Y()":"e848dd6f","IC11_X()":"39637503","IC11_Y()":"73354b60","IC12_X()":"a127ed86","IC12_Y()":"ba688175","IC13_X()":"36b397dc","IC13_Y()":"1077f544","IC14_X()":"d8c710e0","IC14_Y()":"e834dbdd","IC15_X()":"4b750a92","IC15_Y()":"30c1731c","IC16_X()":"e11e8ee2","IC16_Y()":"32148d47","IC17_X()":"286f014b","IC17_Y()":"2d527448","IC18_X()":"45ce05a8","IC18_Y()":"d0fdd6af","IC19_X()":"59b396b5","IC19_Y()":"6076d7ed","IC1_X()":"d663b365","IC1_Y()":"a1978c3c","IC20_X()":"02020654","IC20_Y()":"5bf9f093","IC21_X()":"d7aa472a","IC21_Y()":"4e528e9f","IC22_X()":"0c99ab7c","IC22_Y()":"924f0a15","IC23_X()":"0de199a5","IC23_Y()":"08cceecf","IC24_X()":"eb38888b","IC24_Y()":"eeb9f2e4","IC25_X()":"c4c642ef","IC25_Y()":"ac6f103e","IC26_X()":"96836826","IC26_Y()":"63d2f168","IC27_X()":"0d486688","IC27_Y()":"e6626606","IC28_X()":"85b195eb","IC28_Y()":"55061a7a","IC29_X()":"970e6037","IC29_Y()":"5c01e537","IC2_X()":"dce42004","IC2_Y()":"0cbb35c3","IC30_X()":"6e8374dc","IC30_Y()":"34a18522","IC31_X()":"e5525759","IC31_Y()":"9c8b8ac5","IC32_X()":"61bb1795","IC32_Y()":"e1e7dabb","IC3_X()":"4234a1d6","IC3_Y()":"50def905","IC4_X()":"eedee58f","IC4_Y()":"4e890b27","IC5_X()":"898611fd","IC5_Y()":"24934a11","IC6_X()":"aed43349","IC6_Y()":"bf48189e","IC7_X()":"31aa5e26","IC7_Y()":"2c0556ed","IC8_X()":"41fe6a9a","IC8_Y()":"2dacca56","IC9_X()":"dacb4e69","IC9_Y()":"28e44695","P_TOTAL_SIZE()":"a6aca976","SCALAR_FIELD_SIZE()":"0ddec475","verifyProof(uint256[2],uint256[2][2],uint256[2],uint256[32])":"3cc08b24"}}}}}