{"contracts/verifiers/WithdrawCircuitGroth16Verifier.sol":{"WithdrawCircuitGroth16Verifier":{"abi":[{"inputs":[],"name":"ALPHA_X","outputs":[{"internalType":"uint256","name":"","type":"uint256"}],"stateMutability":"view","type":"function"},{"inputs":[],"name":"ALPHA_Y","outputs":[{"internalType":"uint256","name":"","type":"uint256"}],"stateMutability":"view","type":"function"},{"inputs":[],"name":"BASE_FIELD_SIZE","outputs":[{"internalType":"uint256","name":"","type":"uint256"}],"stateMutability":"view","type":"function"},{"inputs":[],"name":"BETA_X1","outputs":[{"internalType":"uint256","name":"","type":"uint256"}],"stateMutability":"view","type":"function"},{"inputs":[],"name":"BETA_X2","outputs":[{"internalType":"uint256","name":"","type":"uint256"}],"stateMutability":"view","type":"function"},{"inputs":[],"name":"BETA_Y1","outputs":[{"internalType":"uint256","name":"","type":"uint256"}],"stateMutability":"view","type":"function"},{"inputs":[],"name":"BETA_Y2","outputs":[{"internalType":"uint256","name":"","type":"uint256"}],"stateMutability":"view","type":"function"},{"inputs":[],"name":"DELTA_X1","outputs":[{"internalType":"uint256","name":"","type":"uint256"}],"stateMutability":"view","type":"function"},{"inputs":[],"name":"DELTA_X2","outputs":[{"internalType":"uint256","name":"","type":"uint256"}],"stateMutability":"view","type":"function"},{"inputs":[],"name":"DELTA_Y1","outputs":[{"internalType":"uint256","name":"","type":"uint256"}],"stateMutability":"view","type":"function"},{"inputs":[],"name":"DELTA_Y2","outputs":[{"internalType":"uint256","name":"","type":"uint256"}],"stateMutability":"view","type":"function"},{"inputs":[],"name":"GAMMA_X1","outputs":[{"internalType":"uint256","name":"","type":"uint256"}],"stateMutability":"view","type":"function"},{"inputs":[],"name":"GAMMA_X2","outputs":[{"internalType":"uint256","name":"","type":"uint256"}],"stateMutability":"view","type":"function"},{"inputs":[],"name":"GAMMA_Y1","outputs":[{"internalType":"uint256","name":"","type":"uint256"}],"stateMutability":"view","type":"function"},{"inputs":[],"name":"GAMMA_Y2","outputs":[{"internalType":"uint256","name":"","type":"uint256"}],"stateMutability":"view","type":"function"},{"inputs":[],"name":"IC0_X","outputs":[{"internalType":"uint256","name":"","type":"uint256"}],"stateMutability":"view","type":"function"},{"inputs":[],"name":"IC0_Y","outputs":[{"internalType":"uint256","name":"","type":"uint256"}],"stateMutability":"view","type":"function"},{"inputs":[],"name":"IC10_X","outputs":[{"internalType":"uint256","name":"","type":"uint256"}],"stateMutability":"view","type":"function"},{"inputs":[],"name":"IC10_Y","outputs":[{"internalType":"uint256","name":"","type":"uint256"}],"stateMutability":"view","type":"function"},{"inputs":[],"name":"IC11_X","outputs":[{"internalType":"uint256","name":"","type":"uint256"}],"stateMutability":"view","type":"function"},{"inputs":[],"name":"IC11_Y","outputs":[{"internalType":"uint256","name":"","type":"uint256"}],"stateMutability":"view","type":"function"},{"inputs":[],"name":"IC12_X","outputs":[{"internalType":"uint256","name":"","type":"uint256"}],"stateMutability":"view","type":"function"},{"inputs":[],"name":"IC12_Y","outputs":[{"internalType":"uint256","name":"","type":"uint256"}],"stateMutability":"view","type":"function"},{"inputs":[],"name":"IC13_X","outputs":[{"internalType":"uint256","name":"","type":"uint256"}],"stateMutability":"view","type":"function"},{"inputs":[],"name":"IC13_Y","outputs":[{"internalType":"uint256","name":"","type":"uint256"}],"stateMutability":"view","type":"function"},{"inputs":[],"name":"IC14_X","outputs":[{"internalType":"uint256","name":"","type":"uint256"}],"stateMutability":"view","type":"function"},{"inputs":[],"name":"IC14_Y","outputs":[{"internalType":"uint256","name":"","type":"uint256"}],"stateMutability":"view","type":"function"},{"inputs":[],"name":"IC15_X","outputs":[{"internalType":"uint256","name":"","type":"uint256"}],"stateMutability":"view","type":"function"},{"inputs":[],"name":"IC15_Y","outputs":[{"internalType":"uint256","name":"","type":"uint256"}],"stateMutability":"view","type":"function"},{"inputs":[],"name":"IC16_X","outputs":[{"internalType":"uint256","name":"","type":"uint256"}],"stateMutability":"view","type":"function"},{"inputs":[],"name":"IC16_Y","outputs":[{"internalType":"uint256","name":"","type":"uint256"}],"stateMutability":"view","type":"function"},{"inputs":[],"name":"IC1_X","outputs":[{"internalType":"uint256","name":"","type":"uint256"}],"stateMutability":"view","type":"function"},{"inputs":[],"name":"IC1_Y","outputs":[{"internalType":"uint256","name":"","type":"uint256"}],"stateMutability":"view","type":"function"},{"inputs":[],"name":"IC2_X","outputs":[{"internalType":"uint256","name":"","type":"uint256"}],"stateMutability":"view","type":"function"},{"inputs":[],"name":"IC2_Y","outputs":[{"internalType":"uint256","name":"","type":"uint256"}],"stateMutability":"view","type":"function"},{"inputs":[],"name":"IC3_X","outputs":[{"internalType":"uint256","name":"","type":"uint256"}],"stateMutability":"view","type":"function"},{"inputs":[],"name":"IC3_Y","outputs":[{"internalType":"uint256","name":"","type":"uint256"}],"stateMutability":"view","type":"function"},{"inputs":[],"name":"IC4_X","outputs":[{"internalType":"uint256","name":"","type":"uint256"}],"stateMutability":"view","type":"function"},{"inputs":[],"name":"IC4_Y","outputs":[{"internalType":"uint256","name":"","type":"uint256"}],"stateMutability":"view","type":"function"},{"inputs":[],"name":"IC5_X","outputs":[{"internalType":"uint256","name":"","type":"uint256"}],"stateMutability":"view","type":"function"},{"inputs":[],"name":"IC5_Y","outputs":[{"internalType":"uint256","name":"","type":"uint256"}],"stateMutability":"view","type":"function"},{"inputs":[],"name":"IC6_X","outputs":[{"internalType":"uint256","name":"","type":"uint256"}],"stateMutability":"view","type":"function"},{"inputs":[],"name":"IC6_Y","outputs":[{"internalType":"uint256","name":"","type":"uint256"}],"stateMutability":"view","type":"function"},{"inputs":[],"name":"IC7_X","outputs":[{"internalType":"uint256","name":"","type":"uint256"}],"stateMutability":"view","type":"function"},{"inputs":[],"name":"IC7_Y","outputs":[{"internalType":"uint256","name":"","type":"uint256"}],"stateMutability":"view","type":"function"},{"inputs":[],"name":"IC8_X","outputs":[{"internalType":"uint256","name":"","type":"uint256"}],"stateMutability":"view","type":"function"},{"inputs":[],"name":"IC8_Y","outputs":[{"internalType":"uint256","name":"","type":"uint256"}],"stateMutability":"view","type":"function"},{"inputs":[],"name":"IC9_X","outputs":[{"internalType":"uint256","name":"","type":"uint256"}],"stateMutability":"view","type":"function"},{"inputs":[],"name":"IC9_Y","outputs":[{"internalType":"uint256","name":"","type":"uint256"}],"stateMutability":"view","type":"function"},{"inputs":[],"name":"P_TOTAL_SIZE","outputs":[{"internalType":"uint256","name":"","type":"uint256"}],"stateMutability":"view","type":"function"},{"inputs":[],"name":"SCALAR_FIELD_SIZE","outputs":[{"internalType":"uint256","name":"","type":"uint256"}],"stateMutability":"view","type":"function"},{"inputs":[{"internalType":"uint256[2]","name":"pointA_","type":"uint256[2]"},{"internalType":"uint256[2][2]","name":"pointB_","type":"uint256[2][2]"},{"internalType":"uint256[2]","name":"pointC_","type":"uint256[2]"},{"internalType":"uint256[16]","name":"publicSignals_","type":"uint256[16]"}],"name":"verifyProof","outputs":[{"internalType":"bool","name":"verified_","type":"bool"}],"stateMutability":"view","type":"function"}],"evm":{"bytecode":{"linkReferences":{},"object":"60808060405234601557611d2b908161001b8239f35b600080fdfe6080604052600436101561001257600080fd5b60003560e01c80630cbb35c3146103435780630ddec4751461033e5780631077f5441461033957806311fbfe66146103345780631c4d44061461032f57806324934a111461032a57806328e44695146103255780632c0556ed146103205780632dacca561461031b57806330c1731c1461031657806331aa5e261461031157806332148d471461030c57806336b397dc1461030757806339637503146103025780633a9e6a4d146102ad57806341fe6a9a146102fd5780634234a1d6146102f85780634b750a92146102f35780634e890b27146102ee57806350def905146102e95780636336ec6c146102e45780636a5935a7146102df57806373354b60146102da578063742797c4146102d55780637fdf8fc1146102d0578063839a60d0146102cb578063898611fd146102c6578063901660c41461028a578063a127ed86146102c1578063a1978c3c146102bc578063a6aca976146102b7578063acb4193614610299578063aed43349146102b2578063b936325c146102ad578063ba688175146102a8578063bf48189e146102a3578063c82febf51461029e578063cc9c92ae14610299578063d1fb02a314610294578063d663b3651461028f578063d70a63cc1461028a578063d8c710e014610285578063dacb4e6914610280578063dc05a8221461027b578063dce4200414610276578063dd924b4714610271578063dfcf46f014610258578063e11e8ee21461026c578063e834dbdd14610267578063e848dd6f14610262578063eedee58f1461025d5763f7a65aae1461025857600080fd5b610e62565b610f4e565b610f13565b610ed8565b610e9d565b610e27565b610dec565b610db1565b610d76565b610d3b565b610980565b610d01565b610cc6565b610a4e565b610c31565b610aff565b610ac4565b610681565b610a89565b610a31565b6109f6565b6109bb565b610945565b61090a565b6108cf565b610894565b610859565b61081e565b6107e3565b6107a8565b61076d565b610732565b6106f7565b6106bc565b610646565b61060b565b6105d0565b610595565b61055a565b61051f565b6104e4565b6104a9565b61046e565b610433565b6103f8565b6103bd565b610382565b3461037d57600036600319011261037d5760206040517e5445b71e11eb1760648665444e84d53f00e776b1a53692d89e3ad636c961f08152f35b600080fd5b3461037d57600036600319011261037d5760206040517f30644e72e131a029b85045b68181585d2833e84879b9709143e1f593f00000018152f35b3461037d57600036600319011261037d5760206040517f0f7c71d134f047ee686698cc879af130a64c9327f8d19a87f701071f6160358e8152f35b3461037d57600036600319011261037d5760206040517f04fd0a7e5fb1e2c1a3502a54598d5411094a25df1f8151b4a4a6cd46d75cda528152f35b3461037d57600036600319011261037d5760206040517f1739c1b1a457a8c7313123d24d2f9192f896b7c63eea05a9d57f06547ad0cec88152f35b3461037d57600036600319011261037d5760206040517f166be3e7ffc1338b4f76b0ecfd8697adb42fcba2699e3d10bc1d6738069143638152f35b3461037d57600036600319011261037d5760206040517f1b7ffb4297c03c264229b1b70e3188815aa5d87fea283b06aaa94a7c7d96e5da8152f35b3461037d57600036600319011261037d5760206040517f22a2e8ceea831d3b69922bc6a7cfe0c0b3349fc348409e3ec96dfe0f292c7a038152f35b3461037d57600036600319011261037d5760206040517f0fad452e46b04b5d3072128015cbc241a25bb1b64ef033b92141322a26a8e4778152f35b3461037d57600036600319011261037d5760206040517f3017ad59e224a25d0deae3f2ef3c74e84f45858732655bc5fc86a430104f171c8152f35b3461037d57600036600319011261037d5760206040517f059e5c8441d29cd77c3fc88b153363291a342db978c123c4d7f6da2d5f8b4f528152f35b3461037d57600036600319011261037d5760206040517f0b7299dfd52bdd8cfa440eb2ec79a60602171629d18bcc44676889362f401e088152f35b3461037d57600036600319011261037d5760206040517f241e5d0148d1b856c89e23d322842768e44bcbe5ad3fca28aa4e26604a1255208152f35b3461037d57600036600319011261037d5760206040517f0ba59a6709f24a24088ad57ba9d35fe709f7db0f398ec3a8fc025a03a9b52cac8152f35b3461037d57600036600319011261037d5760206040517f090689d0585ff075ec9e99ad690c3395bc4b313370b38ef355acdadcd122975b8152f35b3461037d57600036600319011261037d5760206040517f2aeb2405739b7d4c087a2998509917ed48f4beb7b903f6a83fc49cec8a1abaf08152f35b3461037d57600036600319011261037d5760206040517f2261505579b4329587bcba9471ed53522dbc50dc358c553ad32beeaa66b39ba58152f35b3461037d57600036600319011261037d5760206040517f2304bee62953e41673c605de75342266256b393afcd33f7f94587c6b3da23c5b8152f35b3461037d57600036600319011261037d5760206040517f01a1241b2b7c8e021ec2ca418241b12d99dd464e893833c8053e009606b72a748152f35b3461037d57600036600319011261037d5760206040517f2a45c054cb0cd067189c5b09b02d70caf88baf4b815f272c4aab4816280c42ca8152f35b3461037d57600036600319011261037d5760206040517f19cbdf12f27ae4101630a191d5516b265fb37d09894aab07945a96068b0916358152f35b3461037d57600036600319011261037d5760206040517f14bedd503c37ceb061d8ec60209fe345ce89830a19230301f076caff004d19268152f35b3461037d57600036600319011261037d5760206040517f1f0c638c431f62e21b5fccd531c6fca3a838f20edce1c5722dddcbf3060ab2688152f35b3461037d57600036600319011261037d5760206040517f1c5d9874cafe50e921fa3289fef4ba53731282473400d1b360d3ac3b0c864a938152f35b3461037d57600036600319011261037d5760206040517f0e187847ad4c798374d0d6732bf501847dd68bc0e071241e0213bc7fc13db7ab8152f35b3461037d57600036600319011261037d5760206040517f30644e72e131a029b85045b68181585d97816a916871ca8d3c208c16d87cfd478152f35b3461037d57600036600319011261037d5760206040517f2b8156d06d6d6f9f47b40fe5e375e1560a785c81cedcf5536bda3a454ac40aeb8152f35b3461037d57600036600319011261037d5760206040517f198e9393920d483a7260bfb731fb5d25f1aa493335a9e71297e485b7aef312c28152f35b3461037d57600036600319011261037d5760206040517f04c39df1d7bc9b3ac0fbec576aab2e76c92a90ea86cb33efa03f9aa48ac9d7018152f35b3461037d57600036600319011261037d5760206040517f2d1d756b93aefb8d9c261e31b476172db4eb7d946f7c1b1a8c0e759d2a586eed8152f35b3461037d57600036600319011261037d5760206040516103008152f35b3461037d57600036600319011261037d5760206040517f12c85ea5db8c6deb4aab71808dcb408fe3d1e7690c43d37b4ce6cc0166fa7daa8152f35b3461037d57600036600319011261037d5760206040517f2732ad7092ca8221424730475c80882b9619fca38cacbe9110be6bbe356e06328152f35b3461037d57600036600319011261037d5760206040517f2e83fb0b2a4d6621c47484c28bb783a9825087358d2d5789ecb105de4fd50b398152f35b3461037d57600036600319011261037d5760206040517f2f73bf3901da46b4c69a96e5726ce5a4532dcd0cb7e3e17239081c88008153cc8152f35b6040519190601f01601f1916820167ffffffffffffffff811183821017610b6057604052565b634e487b7160e01b600052604160045260246000fd5b9190610b826040610b3a565b9283906040810192831161037d57905b828210610b9e57505050565b8135815260209182019101610b92565b806023121561037d57610bc2906004610b76565b90565b8060e3121561037d57610bc29060c4610b76565b9080601f8301121561037d57610bc291610b76565b80610123121561037d57610c03610200610b3a565b9081906103041161037d57610104905b6103048210610c2157505090565b8135815260209182019101610c13565b3461037d5761030036600319011261037d57610c4c36610bae565b366063121561037d57604090610c6182610b3a565b803660c41161037d576044905b60c48210610cad57610ca985610c988686610c8836610bc5565b90610c9236610bee565b92611bd8565b905190151581529081906020820190565b0390f35b60208591610cbb3685610bd9565b815201910190610c6e565b3461037d57600036600319011261037d5760206040517f2d4d9aa7e302d9df41749d5507949d05dbea33fbb16c643b22f599a2be6df2e28152f35b3461037d57600036600319011261037d5760206040517e455cdaa42ba428501f946e125a4d715c369f3a3d5b9cd38e5d74e47375be9a8152f35b3461037d57600036600319011261037d5760206040517f109a911e190ffd6e63fcea6dd4c93f0986cbee339ebd65add2d9b3306412c4968152f35b3461037d57600036600319011261037d5760206040517f01852e42dc9e52e1a82f020a1dacbc29fa2381bbcc4090550cb7266ee61366948152f35b3461037d57600036600319011261037d5760206040517f0967032fcbf776d1afc985f88877f182d38480a653f2decaa9794cbc3bf3060c8152f35b3461037d57600036600319011261037d5760206040517f18159475473052b89eb5ef006c22ba46c75a03e456d6928cff93947c3088d0358152f35b3461037d57600036600319011261037d5760206040517f304cfbd1e08a704a99f5e847d93f8c3caafddec46b7a0d379da69a4d112346a78152f35b3461037d57600036600319011261037d5760206040517f1800deef121f1e76426a00665e5c4479674322d4f75edadd46debd5cd992f6ed8152f35b3461037d57600036600319011261037d5760206040517f12c373462c5c91e08b630200b4f2a5b3078dc4c4f97237d777eb71639fd9cc2c8152f35b3461037d57600036600319011261037d5760206040517f0f015ced5ad9da41a54b45ffcc8850e5f9cbebb9dcbd47f0156734a387346f8d8152f35b3461037d57600036600319011261037d5760206040517f20e0c374745c0db37a325fbf075c174034ffc6704f5d08b8064bb134249062a48152f35b3461037d57600036600319011261037d5760206040517f1a8637d404b321e45cbdd810f5cad24dcf08ade192498e8b84c0163c95097cd68152f35b7f30644e72e131a029b85045b68181585d2833e84879b9709143e1f593f00000011190565b9190604090818401907e455cdaa42ba428501f946e125a4d715c369f3a3d5b9cd38e5d74e47375be9a82527f2d1d756b93aefb8d9c261e31b476172db4eb7d946f7c1b1a8c0e759d2a586eed606086015260808501526060816007611770fa3d15151691821561102c57604091925060808160066096fa3d15151690565b50565b9190604090818401907f18159475473052b89eb5ef006c22ba46c75a03e456d6928cff93947c3088d03582527e5445b71e11eb1760648665444e84d53f00e776b1a53692d89e3ad636c961f0606086015260808501526060816007611770fa3d15151691821561102c57604091925060808160066096fa3d15151690565b9190604090818401907f2261505579b4329587bcba9471ed53522dbc50dc358c553ad32beeaa66b39ba582527f2a45c054cb0cd067189c5b09b02d70caf88baf4b815f272c4aab4816280c42ca606086015260808501526060816007611770fa3d15151691821561102c57604091925060808160066096fa3d15151690565b9190604090818401907f1a8637d404b321e45cbdd810f5cad24dcf08ade192498e8b84c0163c95097cd682527f01a1241b2b7c8e021ec2ca418241b12d99dd464e893833c8053e009606b72a74606086015260808501526060816007611770fa3d15151691821561102c57604091925060808160066096fa3d15151690565b9190604090818401907f2b8156d06d6d6f9f47b40fe5e375e1560a785c81cedcf5536bda3a454ac40aeb82527f166be3e7ffc1338b4f76b0ecfd8697adb42fcba2699e3d10bc1d673806914363606086015260808501526060816007611770fa3d15151691821561102c57604091925060808160066096fa3d15151690565b9190604090818401907f2732ad7092ca8221424730475c80882b9619fca38cacbe9110be6bbe356e063282527f2f73bf3901da46b4c69a96e5726ce5a4532dcd0cb7e3e17239081c88008153cc606086015260808501526060816007611770fa3d15151691821561102c57604091925060808160066096fa3d15151690565b9190604090818401907f059e5c8441d29cd77c3fc88b153363291a342db978c123c4d7f6da2d5f8b4f5282527f22a2e8ceea831d3b69922bc6a7cfe0c0b3349fc348409e3ec96dfe0f292c7a03606086015260808501526060816007611770fa3d15151691821561102c57604091925060808160066096fa3d15151690565b9190604090818401907f2aeb2405739b7d4c087a2998509917ed48f4beb7b903f6a83fc49cec8a1abaf082527f0fad452e46b04b5d3072128015cbc241a25bb1b64ef033b92141322a26a8e477606086015260808501526060816007611770fa3d15151691821561102c57604091925060808160066096fa3d15151690565b9190604090818401907f01852e42dc9e52e1a82f020a1dacbc29fa2381bbcc4090550cb7266ee613669482527f1b7ffb4297c03c264229b1b70e3188815aa5d87fea283b06aaa94a7c7d96e5da606086015260808501526060816007611770fa3d15151691821561102c57604091925060808160066096fa3d15151690565b9190604090818401907f04fd0a7e5fb1e2c1a3502a54598d5411094a25df1f8151b4a4a6cd46d75cda5282527f20e0c374745c0db37a325fbf075c174034ffc6704f5d08b8064bb134249062a4606086015260808501526060816007611770fa3d15151691821561102c57604091925060808160066096fa3d15151690565b9190604090818401907f0ba59a6709f24a24088ad57ba9d35fe709f7db0f398ec3a8fc025a03a9b52cac82527f1f0c638c431f62e21b5fccd531c6fca3a838f20edce1c5722dddcbf3060ab268606086015260808501526060816007611770fa3d15151691821561102c57604091925060808160066096fa3d15151690565b9190604090818401907f04c39df1d7bc9b3ac0fbec576aab2e76c92a90ea86cb33efa03f9aa48ac9d70182527f2e83fb0b2a4d6621c47484c28bb783a9825087358d2d5789ecb105de4fd50b39606086015260808501526060816007611770fa3d15151691821561102c57604091925060808160066096fa3d15151690565b9190604090818401907f241e5d0148d1b856c89e23d322842768e44bcbe5ad3fca28aa4e26604a12552082527f0f7c71d134f047ee686698cc879af130a64c9327f8d19a87f701071f6160358e606086015260808501526060816007611770fa3d15151691821561102c57604091925060808160066096fa3d15151690565b9190604090818401907f109a911e190ffd6e63fcea6dd4c93f0986cbee339ebd65add2d9b3306412c49682527f0f015ced5ad9da41a54b45ffcc8850e5f9cbebb9dcbd47f0156734a387346f8d606086015260808501526060816007611770fa3d15151691821561102c57604091925060808160066096fa3d15151690565b9190604090818401907f2304bee62953e41673c605de75342266256b393afcd33f7f94587c6b3da23c5b82527f3017ad59e224a25d0deae3f2ef3c74e84f45858732655bc5fc86a430104f171c606086015260808501526060816007611770fa3d15151691821561102c57604091925060808160066096fa3d15151690565b9190604090818401907f12c373462c5c91e08b630200b4f2a5b3078dc4c4f97237d777eb71639fd9cc2c82527f0b7299dfd52bdd8cfa440eb2ec79a60602171629d18bcc44676889362f401e08606086015260808501526060816007611770fa3d15151691821561102c57604091925060808160066096fa3d15151690565b9091926000907f19cbdf12f27ae4101630a191d5516b265fb37d09894aab07945a96068b09163586527f1c5d9874cafe50e921fa3289fef4ba53731282473400d1b360d3ac3b0c864a9360208701526117f9815187610fae565b15611bcf5761180c60208201518761102f565b15611bcf5761181f6040820151876110ad565b15611bcf5761183260608201518761112c565b15611bcf576118456080820151876111ab565b15611bcf5761185860a08201518761122a565b15611bcf5761186b60c0820151876112a9565b15611bcf5761187e60e082015187611328565b15611bcf57611892610100820151876113a7565b15611bcf576118a661012082015187611426565b15611bcf576118ba610140820151876114a5565b15611bcf576118ce61016082015187611524565b15611bcf576118e2610180820151876115a3565b15611bcf576118f66101a082015187611622565b15611bcf5761190a6101c0820151876116a1565b15611bcf576101e061191e91015186611720565b15611bc7575060208093927f30644e72e131a029b85045b68181585d97816a916871ca8d3c208c16d87cfd478280947f198e9393920d483a7260bfb731fb5d25f1aa493335a9e71297e485b7aef312c260408a01527f1800deef121f1e76426a00665e5c4479674322d4f75edadd46debd5cd992f6ed60608a01527f090689d0585ff075ec9e99ad690c3395bc4b313370b38ef355acdadcd122975b60808a01527f12c85ea5db8c6deb4aab71808dcb408fe3d1e7690c43d37b4ce6cc0166fa7daa60a08a0152805160c08a0152015181030660e08701528051516101008701528181510151610120870152018051516101408601525101516101608401527f2d4d9aa7e302d9df41749d5507949d05dbea33fbb16c643b22f599a2be6df2e26101808401527f14bedd503c37ceb061d8ec60209fe345ce89830a19230301f076caff004d19266101a08401527f0967032fcbf776d1afc985f88877f182d38480a653f2decaa9794cbc3bf3060c6101c08401527f0e187847ad4c798374d0d6732bf501847dd68bc0e071241e0213bc7fc13db7ab6101e08401527f304cfbd1e08a704a99f5e847d93f8c3caafddec46b7a0d379da69a4d112346a76102008401527f1739c1b1a457a8c7313123d24d2f9192f896b7c63eea05a9d57f06547ad0cec8610220840152805161024084015201516102608201527f198e9393920d483a7260bfb731fb5d25f1aa493335a9e71297e485b7aef312c26102808201527f1800deef121f1e76426a00665e5c4479674322d4f75edadd46debd5cd992f6ed6102a08201527f090689d0585ff075ec9e99ad690c3395bc4b313370b38ef355acdadcd122975b6102c08201527f12c85ea5db8c6deb4aab71808dcb408fe3d1e7690c43d37b4ce6cc0166fa7daa6102e08201526020816103008160086202c308fa90511690565b949350505050565b50949350505050565b939290916040519261030084016040526001611bf48451610f89565b611c016020860151610f89565b16611c0f6040860151610f89565b16611c1d6060860151610f89565b1616611c2c6080850151610f89565b16611c3a60a0850151610f89565b16611c4860c0850151610f89565b16611c5660e0850151610f89565b16611c65610100850151610f89565b16611c74610120850151610f89565b16611c83610140850151610f89565b16611c92610160850151610f89565b16611ca1610180850151610f89565b16611cb06101a0850151610f89565b16611cbf6101c0850151610f89565b16611cce6101e0850151610f89565b1695861519611cdf575b5050505050565b611cea95965061179f565b903880808080611cd856fea2646970667358221220ba9913689a8cd6b8fc6214bcd08ab8f76e748d3ea86176b439fd54b0c18d7c0564736f6c634300081b0033","opcodes":"PUSH1 0x80 DUP1 PUSH1 0x40 MSTORE CALLVALUE PUSH1 0x15 JUMPI PUSH2 0x1D2B SWAP1 DUP2 PUSH2 0x1B DUP3 CODECOPY RETURN JUMPDEST PUSH1 0x0 DUP1 REVERT INVALID PUSH1 0x80 PUSH1 0x40 MSTORE PUSH1 0x4 CALLDATASIZE LT ISZERO PUSH2 0x12 JUMPI PUSH1 0x0 DUP1 REVERT JUMPDEST PUSH1 0x0 CALLDATALOAD PUSH1 0xE0 SHR DUP1 PUSH4 0xCBB35C3 EQ PUSH2 0x343 JUMPI DUP1 PUSH4 0xDDEC475 EQ PUSH2 0x33E JUMPI DUP1 PUSH4 0x1077F544 EQ PUSH2 0x339 JUMPI DUP1 PUSH4 0x11FBFE66 EQ PUSH2 0x334 JUMPI DUP1 PUSH4 0x1C4D4406 EQ PUSH2 0x32F JUMPI DUP1 PUSH4 0x24934A11 EQ PUSH2 0x32A JUMPI DUP1 PUSH4 0x28E44695 EQ PUSH2 0x325 JUMPI DUP1 PUSH4 0x2C0556ED EQ PUSH2 0x320 JUMPI DUP1 PUSH4 0x2DACCA56 EQ PUSH2 0x31B JUMPI DUP1 PUSH4 0x30C1731C EQ PUSH2 0x316 JUMPI DUP1 PUSH4 0x31AA5E26 EQ PUSH2 0x311 JUMPI DUP1 PUSH4 0x32148D47 EQ PUSH2 0x30C JUMPI DUP1 PUSH4 0x36B397DC EQ PUSH2 0x307 JUMPI DUP1 PUSH4 0x39637503 EQ PUSH2 0x302 JUMPI DUP1 PUSH4 0x3A9E6A4D EQ PUSH2 0x2AD JUMPI DUP1 PUSH4 0x41FE6A9A EQ PUSH2 0x2FD JUMPI DUP1 PUSH4 0x4234A1D6 EQ PUSH2 0x2F8 JUMPI DUP1 PUSH4 0x4B750A92 EQ PUSH2 0x2F3 JUMPI DUP1 PUSH4 0x4E890B27 EQ PUSH2 0x2EE JUMPI DUP1 PUSH4 0x50DEF905 EQ PUSH2 0x2E9 JUMPI DUP1 PUSH4 0x6336EC6C EQ PUSH2 0x2E4 JUMPI DUP1 PUSH4 0x6A5935A7 EQ PUSH2 0x2DF JUMPI DUP1 PUSH4 0x73354B60 EQ PUSH2 0x2DA JUMPI DUP1 PUSH4 0x742797C4 EQ PUSH2 0x2D5 JUMPI DUP1 PUSH4 0x7FDF8FC1 EQ PUSH2 0x2D0 JUMPI DUP1 PUSH4 0x839A60D0 EQ PUSH2 0x2CB JUMPI DUP1 PUSH4 0x898611FD EQ PUSH2 0x2C6 JUMPI DUP1 PUSH4 0x901660C4 EQ PUSH2 0x28A JUMPI DUP1 PUSH4 0xA127ED86 EQ PUSH2 0x2C1 JUMPI DUP1 PUSH4 0xA1978C3C EQ PUSH2 0x2BC JUMPI DUP1 PUSH4 0xA6ACA976 EQ PUSH2 0x2B7 JUMPI DUP1 PUSH4 0xACB41936 EQ PUSH2 0x299 JUMPI DUP1 PUSH4 0xAED43349 EQ PUSH2 0x2B2 JUMPI DUP1 PUSH4 0xB936325C EQ PUSH2 0x2AD JUMPI DUP1 PUSH4 0xBA688175 EQ PUSH2 0x2A8 JUMPI DUP1 PUSH4 0xBF48189E EQ PUSH2 0x2A3 JUMPI DUP1 PUSH4 0xC82FEBF5 EQ PUSH2 0x29E JUMPI DUP1 PUSH4 0xCC9C92AE EQ PUSH2 0x299 JUMPI DUP1 PUSH4 0xD1FB02A3 EQ PUSH2 0x294 JUMPI DUP1 PUSH4 0xD663B365 EQ PUSH2 0x28F JUMPI DUP1 PUSH4 0xD70A63CC EQ PUSH2 0x28A JUMPI DUP1 PUSH4 0xD8C710E0 EQ PUSH2 0x285 JUMPI DUP1 PUSH4 0xDACB4E69 EQ PUSH2 0x280 JUMPI DUP1 PUSH4 0xDC05A822 EQ PUSH2 0x27B JUMPI DUP1 PUSH4 0xDCE42004 EQ PUSH2 0x276 JUMPI DUP1 PUSH4 0xDD924B47 EQ PUSH2 0x271 JUMPI DUP1 PUSH4 0xDFCF46F0 EQ PUSH2 0x258 JUMPI DUP1 PUSH4 0xE11E8EE2 EQ PUSH2 0x26C JUMPI DUP1 PUSH4 0xE834DBDD EQ PUSH2 0x267 JUMPI DUP1 PUSH4 0xE848DD6F EQ PUSH2 0x262 JUMPI DUP1 PUSH4 0xEEDEE58F EQ PUSH2 0x25D JUMPI PUSH4 0xF7A65AAE EQ PUSH2 0x258 JUMPI PUSH1 0x0 DUP1 REVERT JUMPDEST PUSH2 0xE62 JUMP JUMPDEST PUSH2 0xF4E JUMP JUMPDEST PUSH2 0xF13 JUMP JUMPDEST PUSH2 0xED8 JUMP JUMPDEST PUSH2 0xE9D JUMP JUMPDEST PUSH2 0xE27 JUMP JUMPDEST PUSH2 0xDEC JUMP JUMPDEST PUSH2 0xDB1 JUMP JUMPDEST PUSH2 0xD76 JUMP JUMPDEST PUSH2 0xD3B JUMP JUMPDEST PUSH2 0x980 JUMP JUMPDEST PUSH2 0xD01 JUMP JUMPDEST PUSH2 0xCC6 JUMP JUMPDEST PUSH2 0xA4E JUMP JUMPDEST PUSH2 0xC31 JUMP JUMPDEST PUSH2 0xAFF JUMP JUMPDEST PUSH2 0xAC4 JUMP JUMPDEST PUSH2 0x681 JUMP JUMPDEST PUSH2 0xA89 JUMP JUMPDEST PUSH2 0xA31 JUMP JUMPDEST PUSH2 0x9F6 JUMP JUMPDEST PUSH2 0x9BB JUMP JUMPDEST PUSH2 0x945 JUMP JUMPDEST PUSH2 0x90A JUMP JUMPDEST PUSH2 0x8CF JUMP JUMPDEST PUSH2 0x894 JUMP JUMPDEST PUSH2 0x859 JUMP JUMPDEST PUSH2 0x81E JUMP JUMPDEST PUSH2 0x7E3 JUMP JUMPDEST PUSH2 0x7A8 JUMP JUMPDEST PUSH2 0x76D JUMP JUMPDEST PUSH2 0x732 JUMP JUMPDEST PUSH2 0x6F7 JUMP JUMPDEST PUSH2 0x6BC JUMP JUMPDEST PUSH2 0x646 JUMP JUMPDEST PUSH2 0x60B JUMP JUMPDEST PUSH2 0x5D0 JUMP JUMPDEST PUSH2 0x595 JUMP JUMPDEST PUSH2 0x55A JUMP JUMPDEST PUSH2 0x51F JUMP JUMPDEST PUSH2 0x4E4 JUMP JUMPDEST PUSH2 0x4A9 JUMP JUMPDEST PUSH2 0x46E JUMP JUMPDEST PUSH2 0x433 JUMP JUMPDEST PUSH2 0x3F8 JUMP JUMPDEST PUSH2 0x3BD JUMP JUMPDEST PUSH2 0x382 JUMP JUMPDEST CALLVALUE PUSH2 0x37D JUMPI PUSH1 0x0 CALLDATASIZE PUSH1 0x3 NOT ADD SLT PUSH2 0x37D JUMPI PUSH1 0x20 PUSH1 0x40 MLOAD PUSH31 0x5445B71E11EB1760648665444E84D53F00E776B1A53692D89E3AD636C961F0 DUP2 MSTORE RETURN JUMPDEST PUSH1 0x0 DUP1 REVERT JUMPDEST CALLVALUE PUSH2 0x37D JUMPI PUSH1 0x0 CALLDATASIZE PUSH1 0x3 NOT ADD SLT PUSH2 0x37D JUMPI PUSH1 0x20 PUSH1 0x40 MLOAD PUSH32 0x30644E72E131A029B85045B68181585D2833E84879B9709143E1F593F0000001 DUP2 MSTORE RETURN JUMPDEST CALLVALUE PUSH2 0x37D JUMPI PUSH1 0x0 CALLDATASIZE PUSH1 0x3 NOT ADD SLT PUSH2 0x37D JUMPI PUSH1 0x20 PUSH1 0x40 MLOAD PUSH32 0xF7C71D134F047EE686698CC879AF130A64C9327F8D19A87F701071F6160358E DUP2 MSTORE RETURN JUMPDEST CALLVALUE PUSH2 0x37D JUMPI PUSH1 0x0 CALLDATASIZE PUSH1 0x3 NOT ADD SLT PUSH2 0x37D JUMPI PUSH1 0x20 PUSH1 0x40 MLOAD PUSH32 0x4FD0A7E5FB1E2C1A3502A54598D5411094A25DF1F8151B4A4A6CD46D75CDA52 DUP2 MSTORE RETURN JUMPDEST CALLVALUE PUSH2 0x37D JUMPI PUSH1 0x0 CALLDATASIZE PUSH1 0x3 NOT ADD SLT PUSH2 0x37D JUMPI PUSH1 0x20 PUSH1 0x40 MLOAD PUSH32 0x1739C1B1A457A8C7313123D24D2F9192F896B7C63EEA05A9D57F06547AD0CEC8 DUP2 MSTORE RETURN JUMPDEST CALLVALUE PUSH2 0x37D JUMPI PUSH1 0x0 CALLDATASIZE PUSH1 0x3 NOT ADD SLT PUSH2 0x37D JUMPI PUSH1 0x20 PUSH1 0x40 MLOAD PUSH32 0x166BE3E7FFC1338B4F76B0ECFD8697ADB42FCBA2699E3D10BC1D673806914363 DUP2 MSTORE RETURN JUMPDEST CALLVALUE PUSH2 0x37D JUMPI PUSH1 0x0 CALLDATASIZE PUSH1 0x3 NOT ADD SLT PUSH2 0x37D JUMPI PUSH1 0x20 PUSH1 0x40 MLOAD PUSH32 0x1B7FFB4297C03C264229B1B70E3188815AA5D87FEA283B06AAA94A7C7D96E5DA DUP2 MSTORE RETURN JUMPDEST CALLVALUE PUSH2 0x37D JUMPI PUSH1 0x0 CALLDATASIZE PUSH1 0x3 NOT ADD SLT PUSH2 0x37D JUMPI PUSH1 0x20 PUSH1 0x40 MLOAD PUSH32 0x22A2E8CEEA831D3B69922BC6A7CFE0C0B3349FC348409E3EC96DFE0F292C7A03 DUP2 MSTORE RETURN JUMPDEST CALLVALUE PUSH2 0x37D JUMPI PUSH1 0x0 CALLDATASIZE PUSH1 0x3 NOT ADD SLT PUSH2 0x37D JUMPI PUSH1 0x20 PUSH1 0x40 MLOAD PUSH32 0xFAD452E46B04B5D3072128015CBC241A25BB1B64EF033B92141322A26A8E477 DUP2 MSTORE RETURN JUMPDEST CALLVALUE PUSH2 0x37D JUMPI PUSH1 0x0 CALLDATASIZE PUSH1 0x3 NOT ADD SLT PUSH2 0x37D JUMPI PUSH1 0x20 PUSH1 0x40 MLOAD PUSH32 0x3017AD59E224A25D0DEAE3F2EF3C74E84F45858732655BC5FC86A430104F171C DUP2 MSTORE RETURN JUMPDEST CALLVALUE PUSH2 0x37D JUMPI PUSH1 0x0 CALLDATASIZE PUSH1 0x3 NOT ADD SLT PUSH2 0x37D JUMPI PUSH1 0x20 PUSH1 0x40 MLOAD PUSH32 0x59E5C8441D29CD77C3FC88B153363291A342DB978C123C4D7F6DA2D5F8B4F52 DUP2 MSTORE RETURN JUMPDEST CALLVALUE PUSH2 0x37D JUMPI PUSH1 0x0 CALLDATASIZE PUSH1 0x3 NOT ADD SLT PUSH2 0x37D JUMPI PUSH1 0x20 PUSH1 0x40 MLOAD PUSH32 0xB7299DFD52BDD8CFA440EB2EC79A60602171629D18BCC44676889362F401E08 DUP2 MSTORE RETURN JUMPDEST CALLVALUE PUSH2 0x37D JUMPI PUSH1 0x0 CALLDATASIZE PUSH1 0x3 NOT ADD SLT PUSH2 0x37D JUMPI PUSH1 0x20 PUSH1 0x40 MLOAD PUSH32 0x241E5D0148D1B856C89E23D322842768E44BCBE5AD3FCA28AA4E26604A125520 DUP2 MSTORE RETURN JUMPDEST CALLVALUE PUSH2 0x37D JUMPI PUSH1 0x0 CALLDATASIZE PUSH1 0x3 NOT ADD SLT PUSH2 0x37D JUMPI PUSH1 0x20 PUSH1 0x40 MLOAD PUSH32 0xBA59A6709F24A24088AD57BA9D35FE709F7DB0F398EC3A8FC025A03A9B52CAC DUP2 MSTORE RETURN JUMPDEST CALLVALUE PUSH2 0x37D JUMPI PUSH1 0x0 CALLDATASIZE PUSH1 0x3 NOT ADD SLT PUSH2 0x37D JUMPI PUSH1 0x20 PUSH1 0x40 MLOAD PUSH32 0x90689D0585FF075EC9E99AD690C3395BC4B313370B38EF355ACDADCD122975B DUP2 MSTORE RETURN JUMPDEST CALLVALUE PUSH2 0x37D JUMPI PUSH1 0x0 CALLDATASIZE PUSH1 0x3 NOT ADD SLT PUSH2 0x37D JUMPI PUSH1 0x20 PUSH1 0x40 MLOAD PUSH32 0x2AEB2405739B7D4C087A2998509917ED48F4BEB7B903F6A83FC49CEC8A1ABAF0 DUP2 MSTORE RETURN JUMPDEST CALLVALUE PUSH2 0x37D JUMPI PUSH1 0x0 CALLDATASIZE PUSH1 0x3 NOT ADD SLT PUSH2 0x37D JUMPI PUSH1 0x20 PUSH1 0x40 MLOAD PUSH32 0x2261505579B4329587BCBA9471ED53522DBC50DC358C553AD32BEEAA66B39BA5 DUP2 MSTORE RETURN JUMPDEST CALLVALUE PUSH2 0x37D JUMPI PUSH1 0x0 CALLDATASIZE PUSH1 0x3 NOT ADD SLT PUSH2 0x37D JUMPI PUSH1 0x20 PUSH1 0x40 MLOAD PUSH32 0x2304BEE62953E41673C605DE75342266256B393AFCD33F7F94587C6B3DA23C5B DUP2 MSTORE RETURN JUMPDEST CALLVALUE PUSH2 0x37D JUMPI PUSH1 0x0 CALLDATASIZE PUSH1 0x3 NOT ADD SLT PUSH2 0x37D JUMPI PUSH1 0x20 PUSH1 0x40 MLOAD PUSH32 0x1A1241B2B7C8E021EC2CA418241B12D99DD464E893833C8053E009606B72A74 DUP2 MSTORE RETURN JUMPDEST CALLVALUE PUSH2 0x37D JUMPI PUSH1 0x0 CALLDATASIZE PUSH1 0x3 NOT ADD SLT PUSH2 0x37D JUMPI PUSH1 0x20 PUSH1 0x40 MLOAD PUSH32 0x2A45C054CB0CD067189C5B09B02D70CAF88BAF4B815F272C4AAB4816280C42CA DUP2 MSTORE RETURN JUMPDEST CALLVALUE PUSH2 0x37D JUMPI PUSH1 0x0 CALLDATASIZE PUSH1 0x3 NOT ADD SLT PUSH2 0x37D JUMPI PUSH1 0x20 PUSH1 0x40 MLOAD PUSH32 0x19CBDF12F27AE4101630A191D5516B265FB37D09894AAB07945A96068B091635 DUP2 MSTORE RETURN JUMPDEST CALLVALUE PUSH2 0x37D JUMPI PUSH1 0x0 CALLDATASIZE PUSH1 0x3 NOT ADD SLT PUSH2 0x37D JUMPI PUSH1 0x20 PUSH1 0x40 MLOAD PUSH32 0x14BEDD503C37CEB061D8EC60209FE345CE89830A19230301F076CAFF004D1926 DUP2 MSTORE RETURN JUMPDEST CALLVALUE PUSH2 0x37D JUMPI PUSH1 0x0 CALLDATASIZE PUSH1 0x3 NOT ADD SLT PUSH2 0x37D JUMPI PUSH1 0x20 PUSH1 0x40 MLOAD PUSH32 0x1F0C638C431F62E21B5FCCD531C6FCA3A838F20EDCE1C5722DDDCBF3060AB268 DUP2 MSTORE RETURN JUMPDEST CALLVALUE PUSH2 0x37D JUMPI PUSH1 0x0 CALLDATASIZE PUSH1 0x3 NOT ADD SLT PUSH2 0x37D JUMPI PUSH1 0x20 PUSH1 0x40 MLOAD PUSH32 0x1C5D9874CAFE50E921FA3289FEF4BA53731282473400D1B360D3AC3B0C864A93 DUP2 MSTORE RETURN JUMPDEST CALLVALUE PUSH2 0x37D JUMPI PUSH1 0x0 CALLDATASIZE PUSH1 0x3 NOT ADD SLT PUSH2 0x37D JUMPI PUSH1 0x20 PUSH1 0x40 MLOAD PUSH32 0xE187847AD4C798374D0D6732BF501847DD68BC0E071241E0213BC7FC13DB7AB DUP2 MSTORE RETURN JUMPDEST CALLVALUE PUSH2 0x37D JUMPI PUSH1 0x0 CALLDATASIZE PUSH1 0x3 NOT ADD SLT PUSH2 0x37D JUMPI PUSH1 0x20 PUSH1 0x40 MLOAD PUSH32 0x30644E72E131A029B85045B68181585D97816A916871CA8D3C208C16D87CFD47 DUP2 MSTORE RETURN JUMPDEST CALLVALUE PUSH2 0x37D JUMPI PUSH1 0x0 CALLDATASIZE PUSH1 0x3 NOT ADD SLT PUSH2 0x37D JUMPI PUSH1 0x20 PUSH1 0x40 MLOAD PUSH32 0x2B8156D06D6D6F9F47B40FE5E375E1560A785C81CEDCF5536BDA3A454AC40AEB DUP2 MSTORE RETURN JUMPDEST CALLVALUE PUSH2 0x37D JUMPI PUSH1 0x0 CALLDATASIZE PUSH1 0x3 NOT ADD SLT PUSH2 0x37D JUMPI PUSH1 0x20 PUSH1 0x40 MLOAD PUSH32 0x198E9393920D483A7260BFB731FB5D25F1AA493335A9E71297E485B7AEF312C2 DUP2 MSTORE RETURN JUMPDEST CALLVALUE PUSH2 0x37D JUMPI PUSH1 0x0 CALLDATASIZE PUSH1 0x3 NOT ADD SLT PUSH2 0x37D JUMPI PUSH1 0x20 PUSH1 0x40 MLOAD PUSH32 0x4C39DF1D7BC9B3AC0FBEC576AAB2E76C92A90EA86CB33EFA03F9AA48AC9D701 DUP2 MSTORE RETURN JUMPDEST CALLVALUE PUSH2 0x37D JUMPI PUSH1 0x0 CALLDATASIZE PUSH1 0x3 NOT ADD SLT PUSH2 0x37D JUMPI PUSH1 0x20 PUSH1 0x40 MLOAD PUSH32 0x2D1D756B93AEFB8D9C261E31B476172DB4EB7D946F7C1B1A8C0E759D2A586EED DUP2 MSTORE RETURN JUMPDEST CALLVALUE PUSH2 0x37D JUMPI PUSH1 0x0 CALLDATASIZE PUSH1 0x3 NOT ADD SLT PUSH2 0x37D JUMPI PUSH1 0x20 PUSH1 0x40 MLOAD PUSH2 0x300 DUP2 MSTORE RETURN JUMPDEST CALLVALUE PUSH2 0x37D JUMPI PUSH1 0x0 CALLDATASIZE PUSH1 0x3 NOT ADD SLT PUSH2 0x37D JUMPI PUSH1 0x20 PUSH1 0x40 MLOAD PUSH32 0x12C85EA5DB8C6DEB4AAB71808DCB408FE3D1E7690C43D37B4CE6CC0166FA7DAA DUP2 MSTORE RETURN JUMPDEST CALLVALUE PUSH2 0x37D JUMPI PUSH1 0x0 CALLDATASIZE PUSH1 0x3 NOT ADD SLT PUSH2 0x37D JUMPI PUSH1 0x20 PUSH1 0x40 MLOAD PUSH32 0x2732AD7092CA8221424730475C80882B9619FCA38CACBE9110BE6BBE356E0632 DUP2 MSTORE RETURN JUMPDEST CALLVALUE PUSH2 0x37D JUMPI PUSH1 0x0 CALLDATASIZE PUSH1 0x3 NOT ADD SLT PUSH2 0x37D JUMPI PUSH1 0x20 PUSH1 0x40 MLOAD PUSH32 0x2E83FB0B2A4D6621C47484C28BB783A9825087358D2D5789ECB105DE4FD50B39 DUP2 MSTORE RETURN JUMPDEST CALLVALUE PUSH2 0x37D JUMPI PUSH1 0x0 CALLDATASIZE PUSH1 0x3 NOT ADD SLT PUSH2 0x37D JUMPI PUSH1 0x20 PUSH1 0x40 MLOAD PUSH32 0x2F73BF3901DA46B4C69A96E5726CE5A4532DCD0CB7E3E17239081C88008153CC DUP2 MSTORE RETURN JUMPDEST PUSH1 0x40 MLOAD SWAP2 SWAP1 PUSH1 0x1F ADD PUSH1 0x1F NOT AND DUP3 ADD PUSH8 0xFFFFFFFFFFFFFFFF DUP2 GT DUP4 DUP3 LT OR PUSH2 0xB60 JUMPI PUSH1 0x40 MSTORE JUMP JUMPDEST PUSH4 0x4E487B71 PUSH1 0xE0 SHL PUSH1 0x0 MSTORE PUSH1 0x41 PUSH1 0x4 MSTORE PUSH1 0x24 PUSH1 0x0 REVERT JUMPDEST SWAP2 SWAP1 PUSH2 0xB82 PUSH1 0x40 PUSH2 0xB3A JUMP JUMPDEST SWAP3 DUP4 SWAP1 PUSH1 0x40 DUP2 ADD SWAP3 DUP4 GT PUSH2 0x37D JUMPI SWAP1 JUMPDEST DUP3 DUP3 LT PUSH2 0xB9E JUMPI POP POP POP JUMP JUMPDEST DUP2 CALLDATALOAD DUP2 MSTORE PUSH1 0x20 SWAP2 DUP3 ADD SWAP2 ADD PUSH2 0xB92 JUMP JUMPDEST DUP1 PUSH1 0x23 SLT ISZERO PUSH2 0x37D JUMPI PUSH2 0xBC2 SWAP1 PUSH1 0x4 PUSH2 0xB76 JUMP JUMPDEST SWAP1 JUMP JUMPDEST DUP1 PUSH1 0xE3 SLT ISZERO PUSH2 0x37D JUMPI PUSH2 0xBC2 SWAP1 PUSH1 0xC4 PUSH2 0xB76 JUMP JUMPDEST SWAP1 DUP1 PUSH1 0x1F DUP4 ADD SLT ISZERO PUSH2 0x37D JUMPI PUSH2 0xBC2 SWAP2 PUSH2 0xB76 JUMP JUMPDEST DUP1 PUSH2 0x123 SLT ISZERO PUSH2 0x37D JUMPI PUSH2 0xC03 PUSH2 0x200 PUSH2 0xB3A JUMP JUMPDEST SWAP1 DUP2 SWAP1 PUSH2 0x304 GT PUSH2 0x37D JUMPI PUSH2 0x104 SWAP1 JUMPDEST PUSH2 0x304 DUP3 LT PUSH2 0xC21 JUMPI POP POP SWAP1 JUMP JUMPDEST DUP2 CALLDATALOAD DUP2 MSTORE PUSH1 0x20 SWAP2 DUP3 ADD SWAP2 ADD PUSH2 0xC13 JUMP JUMPDEST CALLVALUE PUSH2 0x37D JUMPI PUSH2 0x300 CALLDATASIZE PUSH1 0x3 NOT ADD SLT PUSH2 0x37D JUMPI PUSH2 0xC4C CALLDATASIZE PUSH2 0xBAE JUMP JUMPDEST CALLDATASIZE PUSH1 0x63 SLT ISZERO PUSH2 0x37D JUMPI PUSH1 0x40 SWAP1 PUSH2 0xC61 DUP3 PUSH2 0xB3A JUMP JUMPDEST DUP1 CALLDATASIZE PUSH1 0xC4 GT PUSH2 0x37D JUMPI PUSH1 0x44 SWAP1 JUMPDEST PUSH1 0xC4 DUP3 LT PUSH2 0xCAD JUMPI PUSH2 0xCA9 DUP6 PUSH2 0xC98 DUP7 DUP7 PUSH2 0xC88 CALLDATASIZE PUSH2 0xBC5 JUMP JUMPDEST SWAP1 PUSH2 0xC92 CALLDATASIZE PUSH2 0xBEE JUMP JUMPDEST SWAP3 PUSH2 0x1BD8 JUMP JUMPDEST SWAP1 MLOAD SWAP1 ISZERO ISZERO DUP2 MSTORE SWAP1 DUP2 SWAP1 PUSH1 0x20 DUP3 ADD SWAP1 JUMP JUMPDEST SUB SWAP1 RETURN JUMPDEST PUSH1 0x20 DUP6 SWAP2 PUSH2 0xCBB CALLDATASIZE DUP6 PUSH2 0xBD9 JUMP JUMPDEST DUP2 MSTORE ADD SWAP2 ADD SWAP1 PUSH2 0xC6E JUMP JUMPDEST CALLVALUE PUSH2 0x37D JUMPI PUSH1 0x0 CALLDATASIZE PUSH1 0x3 NOT ADD SLT PUSH2 0x37D JUMPI PUSH1 0x20 PUSH1 0x40 MLOAD PUSH32 0x2D4D9AA7E302D9DF41749D5507949D05DBEA33FBB16C643B22F599A2BE6DF2E2 DUP2 MSTORE RETURN JUMPDEST CALLVALUE PUSH2 0x37D JUMPI PUSH1 0x0 CALLDATASIZE PUSH1 0x3 NOT ADD SLT PUSH2 0x37D JUMPI PUSH1 0x20 PUSH1 0x40 MLOAD PUSH31 0x455CDAA42BA428501F946E125A4D715C369F3A3D5B9CD38E5D74E47375BE9A DUP2 MSTORE RETURN JUMPDEST CALLVALUE PUSH2 0x37D JUMPI PUSH1 0x0 CALLDATASIZE PUSH1 0x3 NOT ADD SLT PUSH2 0x37D JUMPI PUSH1 0x20 PUSH1 0x40 MLOAD PUSH32 0x109A911E190FFD6E63FCEA6DD4C93F0986CBEE339EBD65ADD2D9B3306412C496 DUP2 MSTORE RETURN JUMPDEST CALLVALUE PUSH2 0x37D JUMPI PUSH1 0x0 CALLDATASIZE PUSH1 0x3 NOT ADD SLT PUSH2 0x37D JUMPI PUSH1 0x20 PUSH1 0x40 MLOAD PUSH32 0x1852E42DC9E52E1A82F020A1DACBC29FA2381BBCC4090550CB7266EE6136694 DUP2 MSTORE RETURN JUMPDEST CALLVALUE PUSH2 0x37D JUMPI PUSH1 0x0 CALLDATASIZE PUSH1 0x3 NOT ADD SLT PUSH2 0x37D JUMPI PUSH1 0x20 PUSH1 0x40 MLOAD PUSH32 0x967032FCBF776D1AFC985F88877F182D38480A653F2DECAA9794CBC3BF3060C DUP2 MSTORE RETURN JUMPDEST CALLVALUE PUSH2 0x37D JUMPI PUSH1 0x0 CALLDATASIZE PUSH1 0x3 NOT ADD SLT PUSH2 0x37D JUMPI PUSH1 0x20 PUSH1 0x40 MLOAD PUSH32 0x18159475473052B89EB5EF006C22BA46C75A03E456D6928CFF93947C3088D035 DUP2 MSTORE RETURN JUMPDEST CALLVALUE PUSH2 0x37D JUMPI PUSH1 0x0 CALLDATASIZE PUSH1 0x3 NOT ADD SLT PUSH2 0x37D JUMPI PUSH1 0x20 PUSH1 0x40 MLOAD PUSH32 0x304CFBD1E08A704A99F5E847D93F8C3CAAFDDEC46B7A0D379DA69A4D112346A7 DUP2 MSTORE RETURN JUMPDEST CALLVALUE PUSH2 0x37D JUMPI PUSH1 0x0 CALLDATASIZE PUSH1 0x3 NOT ADD SLT PUSH2 0x37D JUMPI PUSH1 0x20 PUSH1 0x40 MLOAD PUSH32 0x1800DEEF121F1E76426A00665E5C4479674322D4F75EDADD46DEBD5CD992F6ED DUP2 MSTORE RETURN JUMPDEST CALLVALUE PUSH2 0x37D JUMPI PUSH1 0x0 CALLDATASIZE PUSH1 0x3 NOT ADD SLT PUSH2 0x37D JUMPI PUSH1 0x20 PUSH1 0x40 MLOAD PUSH32 0x12C373462C5C91E08B630200B4F2A5B3078DC4C4F97237D777EB71639FD9CC2C DUP2 MSTORE RETURN JUMPDEST CALLVALUE PUSH2 0x37D JUMPI PUSH1 0x0 CALLDATASIZE PUSH1 0x3 NOT ADD SLT PUSH2 0x37D JUMPI PUSH1 0x20 PUSH1 0x40 MLOAD PUSH32 0xF015CED5AD9DA41A54B45FFCC8850E5F9CBEBB9DCBD47F0156734A387346F8D DUP2 MSTORE RETURN JUMPDEST CALLVALUE PUSH2 0x37D JUMPI PUSH1 0x0 CALLDATASIZE PUSH1 0x3 NOT ADD SLT PUSH2 0x37D JUMPI PUSH1 0x20 PUSH1 0x40 MLOAD PUSH32 0x20E0C374745C0DB37A325FBF075C174034FFC6704F5D08B8064BB134249062A4 DUP2 MSTORE RETURN JUMPDEST CALLVALUE PUSH2 0x37D JUMPI PUSH1 0x0 CALLDATASIZE PUSH1 0x3 NOT ADD SLT PUSH2 0x37D JUMPI PUSH1 0x20 PUSH1 0x40 MLOAD PUSH32 0x1A8637D404B321E45CBDD810F5CAD24DCF08ADE192498E8B84C0163C95097CD6 DUP2 MSTORE RETURN JUMPDEST PUSH32 0x30644E72E131A029B85045B68181585D2833E84879B9709143E1F593F0000001 GT SWAP1 JUMP JUMPDEST SWAP2 SWAP1 PUSH1 0x40 SWAP1 DUP2 DUP5 ADD SWAP1 PUSH31 0x455CDAA42BA428501F946E125A4D715C369F3A3D5B9CD38E5D74E47375BE9A DUP3 MSTORE PUSH32 0x2D1D756B93AEFB8D9C261E31B476172DB4EB7D946F7C1B1A8C0E759D2A586EED PUSH1 0x60 DUP7 ADD MSTORE PUSH1 0x80 DUP6 ADD MSTORE PUSH1 0x60 DUP2 PUSH1 0x7 PUSH2 0x1770 STATICCALL RETURNDATASIZE ISZERO ISZERO AND SWAP2 DUP3 ISZERO PUSH2 0x102C JUMPI PUSH1 0x40 SWAP2 SWAP3 POP PUSH1 0x80 DUP2 PUSH1 0x6 PUSH1 0x96 STATICCALL RETURNDATASIZE ISZERO ISZERO AND SWAP1 JUMP JUMPDEST POP JUMP JUMPDEST SWAP2 SWAP1 PUSH1 0x40 SWAP1 DUP2 DUP5 ADD SWAP1 PUSH32 0x18159475473052B89EB5EF006C22BA46C75A03E456D6928CFF93947C3088D035 DUP3 MSTORE PUSH31 0x5445B71E11EB1760648665444E84D53F00E776B1A53692D89E3AD636C961F0 PUSH1 0x60 DUP7 ADD MSTORE PUSH1 0x80 DUP6 ADD MSTORE PUSH1 0x60 DUP2 PUSH1 0x7 PUSH2 0x1770 STATICCALL RETURNDATASIZE ISZERO ISZERO AND SWAP2 DUP3 ISZERO PUSH2 0x102C JUMPI PUSH1 0x40 SWAP2 SWAP3 POP PUSH1 0x80 DUP2 PUSH1 0x6 PUSH1 0x96 STATICCALL RETURNDATASIZE ISZERO ISZERO AND SWAP1 JUMP JUMPDEST SWAP2 SWAP1 PUSH1 0x40 SWAP1 DUP2 DUP5 ADD SWAP1 PUSH32 0x2261505579B4329587BCBA9471ED53522DBC50DC358C553AD32BEEAA66B39BA5 DUP3 MSTORE PUSH32 0x2A45C054CB0CD067189C5B09B02D70CAF88BAF4B815F272C4AAB4816280C42CA PUSH1 0x60 DUP7 ADD MSTORE PUSH1 0x80 DUP6 ADD MSTORE PUSH1 0x60 DUP2 PUSH1 0x7 PUSH2 0x1770 STATICCALL RETURNDATASIZE ISZERO ISZERO AND SWAP2 DUP3 ISZERO PUSH2 0x102C JUMPI PUSH1 0x40 SWAP2 SWAP3 POP PUSH1 0x80 DUP2 PUSH1 0x6 PUSH1 0x96 STATICCALL RETURNDATASIZE ISZERO ISZERO AND SWAP1 JUMP JUMPDEST SWAP2 SWAP1 PUSH1 0x40 SWAP1 DUP2 DUP5 ADD SWAP1 PUSH32 0x1A8637D404B321E45CBDD810F5CAD24DCF08ADE192498E8B84C0163C95097CD6 DUP3 MSTORE PUSH32 0x1A1241B2B7C8E021EC2CA418241B12D99DD464E893833C8053E009606B72A74 PUSH1 0x60 DUP7 ADD MSTORE PUSH1 0x80 DUP6 ADD MSTORE PUSH1 0x60 DUP2 PUSH1 0x7 PUSH2 0x1770 STATICCALL RETURNDATASIZE ISZERO ISZERO AND SWAP2 DUP3 ISZERO PUSH2 0x102C JUMPI PUSH1 0x40 SWAP2 SWAP3 POP PUSH1 0x80 DUP2 PUSH1 0x6 PUSH1 0x96 STATICCALL RETURNDATASIZE ISZERO ISZERO AND SWAP1 JUMP JUMPDEST SWAP2 SWAP1 PUSH1 0x40 SWAP1 DUP2 DUP5 ADD SWAP1 PUSH32 0x2B8156D06D6D6F9F47B40FE5E375E1560A785C81CEDCF5536BDA3A454AC40AEB DUP3 MSTORE PUSH32 0x166BE3E7FFC1338B4F76B0ECFD8697ADB42FCBA2699E3D10BC1D673806914363 PUSH1 0x60 DUP7 ADD MSTORE PUSH1 0x80 DUP6 ADD MSTORE PUSH1 0x60 DUP2 PUSH1 0x7 PUSH2 0x1770 STATICCALL RETURNDATASIZE ISZERO ISZERO AND SWAP2 DUP3 ISZERO PUSH2 0x102C JUMPI PUSH1 0x40 SWAP2 SWAP3 POP PUSH1 0x80 DUP2 PUSH1 0x6 PUSH1 0x96 STATICCALL RETURNDATASIZE ISZERO ISZERO AND SWAP1 JUMP JUMPDEST SWAP2 SWAP1 PUSH1 0x40 SWAP1 DUP2 DUP5 ADD SWAP1 PUSH32 0x2732AD7092CA8221424730475C80882B9619FCA38CACBE9110BE6BBE356E0632 DUP3 MSTORE PUSH32 0x2F73BF3901DA46B4C69A96E5726CE5A4532DCD0CB7E3E17239081C88008153CC PUSH1 0x60 DUP7 ADD MSTORE PUSH1 0x80 DUP6 ADD MSTORE PUSH1 0x60 DUP2 PUSH1 0x7 PUSH2 0x1770 STATICCALL RETURNDATASIZE ISZERO ISZERO AND SWAP2 DUP3 ISZERO PUSH2 0x102C JUMPI PUSH1 0x40 SWAP2 SWAP3 POP PUSH1 0x80 DUP2 PUSH1 0x6 PUSH1 0x96 STATICCALL RETURNDATASIZE ISZERO ISZERO AND SWAP1 JUMP JUMPDEST SWAP2 SWAP1 PUSH1 0x40 SWAP1 DUP2 DUP5 ADD SWAP1 PUSH32 0x59E5C8441D29CD77C3FC88B153363291A342DB978C123C4D7F6DA2D5F8B4F52 DUP3 MSTORE PUSH32 0x22A2E8CEEA831D3B69922BC6A7CFE0C0B3349FC348409E3EC96DFE0F292C7A03 PUSH1 0x60 DUP7 ADD MSTORE PUSH1 0x80 DUP6 ADD MSTORE PUSH1 0x60 DUP2 PUSH1 0x7 PUSH2 0x1770 STATICCALL RETURNDATASIZE ISZERO ISZERO AND SWAP2 DUP3 ISZERO PUSH2 0x102C JUMPI PUSH1 0x40 SWAP2 SWAP3 POP PUSH1 0x80 DUP2 PUSH1 0x6 PUSH1 0x96 STATICCALL RETURNDATASIZE ISZERO ISZERO AND SWAP1 JUMP JUMPDEST SWAP2 SWAP1 PUSH1 0x40 SWAP1 DUP2 DUP5 ADD SWAP1 PUSH32 0x2AEB2405739B7D4C087A2998509917ED48F4BEB7B903F6A83FC49CEC8A1ABAF0 DUP3 MSTORE PUSH32 0xFAD452E46B04B5D3072128015CBC241A25BB1B64EF033B92141322A26A8E477 PUSH1 0x60 DUP7 ADD MSTORE PUSH1 0x80 DUP6 ADD MSTORE PUSH1 0x60 DUP2 PUSH1 0x7 PUSH2 0x1770 STATICCALL RETURNDATASIZE ISZERO ISZERO AND SWAP2 DUP3 ISZERO PUSH2 0x102C JUMPI PUSH1 0x40 SWAP2 SWAP3 POP PUSH1 0x80 DUP2 PUSH1 0x6 PUSH1 0x96 STATICCALL RETURNDATASIZE ISZERO ISZERO AND SWAP1 JUMP JUMPDEST SWAP2 SWAP1 PUSH1 0x40 SWAP1 DUP2 DUP5 ADD SWAP1 PUSH32 0x1852E42DC9E52E1A82F020A1DACBC29FA2381BBCC4090550CB7266EE6136694 DUP3 MSTORE PUSH32 0x1B7FFB4297C03C264229B1B70E3188815AA5D87FEA283B06AAA94A7C7D96E5DA PUSH1 0x60 DUP7 ADD MSTORE PUSH1 0x80 DUP6 ADD MSTORE PUSH1 0x60 DUP2 PUSH1 0x7 PUSH2 0x1770 STATICCALL RETURNDATASIZE ISZERO ISZERO AND SWAP2 DUP3 ISZERO PUSH2 0x102C JUMPI PUSH1 0x40 SWAP2 SWAP3 POP PUSH1 0x80 DUP2 PUSH1 0x6 PUSH1 0x96 STATICCALL RETURNDATASIZE ISZERO ISZERO AND SWAP1 JUMP JUMPDEST SWAP2 SWAP1 PUSH1 0x40 SWAP1 DUP2 DUP5 ADD SWAP1 PUSH32 0x4FD0A7E5FB1E2C1A3502A54598D5411094A25DF1F8151B4A4A6CD46D75CDA52 DUP3 MSTORE PUSH32 0x20E0C374745C0DB37A325FBF075C174034FFC6704F5D08B8064BB134249062A4 PUSH1 0x60 DUP7 ADD MSTORE PUSH1 0x80 DUP6 ADD MSTORE PUSH1 0x60 DUP2 PUSH1 0x7 PUSH2 0x1770 STATICCALL RETURNDATASIZE ISZERO ISZERO AND SWAP2 DUP3 ISZERO PUSH2 0x102C JUMPI PUSH1 0x40 SWAP2 SWAP3 POP PUSH1 0x80 DUP2 PUSH1 0x6 PUSH1 0x96 STATICCALL RETURNDATASIZE ISZERO ISZERO AND SWAP1 JUMP JUMPDEST SWAP2 SWAP1 PUSH1 0x40 SWAP1 DUP2 DUP5 ADD SWAP1 PUSH32 0xBA59A6709F24A24088AD57BA9D35FE709F7DB0F398EC3A8FC025A03A9B52CAC DUP3 MSTORE PUSH32 0x1F0C638C431F62E21B5FCCD531C6FCA3A838F20EDCE1C5722DDDCBF3060AB268 PUSH1 0x60 DUP7 ADD MSTORE PUSH1 0x80 DUP6 ADD MSTORE PUSH1 0x60 DUP2 PUSH1 0x7 PUSH2 0x1770 STATICCALL RETURNDATASIZE ISZERO ISZERO AND SWAP2 DUP3 ISZERO PUSH2 0x102C JUMPI PUSH1 0x40 SWAP2 SWAP3 POP PUSH1 0x80 DUP2 PUSH1 0x6 PUSH1 0x96 STATICCALL RETURNDATASIZE ISZERO ISZERO AND SWAP1 JUMP JUMPDEST SWAP2 SWAP1 PUSH1 0x40 SWAP1 DUP2 DUP5 ADD SWAP1 PUSH32 0x4C39DF1D7BC9B3AC0FBEC576AAB2E76C92A90EA86CB33EFA03F9AA48AC9D701 DUP3 MSTORE PUSH32 0x2E83FB0B2A4D6621C47484C28BB783A9825087358D2D5789ECB105DE4FD50B39 PUSH1 0x60 DUP7 ADD MSTORE PUSH1 0x80 DUP6 ADD MSTORE PUSH1 0x60 DUP2 PUSH1 0x7 PUSH2 0x1770 STATICCALL RETURNDATASIZE ISZERO ISZERO AND SWAP2 DUP3 ISZERO PUSH2 0x102C JUMPI PUSH1 0x40 SWAP2 SWAP3 POP PUSH1 0x80 DUP2 PUSH1 0x6 PUSH1 0x96 STATICCALL RETURNDATASIZE ISZERO ISZERO AND SWAP1 JUMP JUMPDEST SWAP2 SWAP1 PUSH1 0x40 SWAP1 DUP2 DUP5 ADD SWAP1 PUSH32 0x241E5D0148D1B856C89E23D322842768E44BCBE5AD3FCA28AA4E26604A125520 DUP3 MSTORE PUSH32 0xF7C71D134F047EE686698CC879AF130A64C9327F8D19A87F701071F6160358E PUSH1 0x60 DUP7 ADD MSTORE PUSH1 0x80 DUP6 ADD MSTORE PUSH1 0x60 DUP2 PUSH1 0x7 PUSH2 0x1770 STATICCALL RETURNDATASIZE ISZERO ISZERO AND SWAP2 DUP3 ISZERO PUSH2 0x102C JUMPI PUSH1 0x40 SWAP2 SWAP3 POP PUSH1 0x80 DUP2 PUSH1 0x6 PUSH1 0x96 STATICCALL RETURNDATASIZE ISZERO ISZERO AND SWAP1 JUMP JUMPDEST SWAP2 SWAP1 PUSH1 0x40 SWAP1 DUP2 DUP5 ADD SWAP1 PUSH32 0x109A911E190FFD6E63FCEA6DD4C93F0986CBEE339EBD65ADD2D9B3306412C496 DUP3 MSTORE PUSH32 0xF015CED5AD9DA41A54B45FFCC8850E5F9CBEBB9DCBD47F0156734A387346F8D PUSH1 0x60 DUP7 ADD MSTORE PUSH1 0x80 DUP6 ADD MSTORE PUSH1 0x60 DUP2 PUSH1 0x7 PUSH2 0x1770 STATICCALL RETURNDATASIZE ISZERO ISZERO AND SWAP2 DUP3 ISZERO PUSH2 0x102C JUMPI PUSH1 0x40 SWAP2 SWAP3 POP PUSH1 0x80 DUP2 PUSH1 0x6 PUSH1 0x96 STATICCALL RETURNDATASIZE ISZERO ISZERO AND SWAP1 JUMP JUMPDEST SWAP2 SWAP1 PUSH1 0x40 SWAP1 DUP2 DUP5 ADD SWAP1 PUSH32 0x2304BEE62953E41673C605DE75342266256B393AFCD33F7F94587C6B3DA23C5B DUP3 MSTORE PUSH32 0x3017AD59E224A25D0DEAE3F2EF3C74E84F45858732655BC5FC86A430104F171C PUSH1 0x60 DUP7 ADD MSTORE PUSH1 0x80 DUP6 ADD MSTORE PUSH1 0x60 DUP2 PUSH1 0x7 PUSH2 0x1770 STATICCALL RETURNDATASIZE ISZERO ISZERO AND SWAP2 DUP3 ISZERO PUSH2 0x102C JUMPI PUSH1 0x40 SWAP2 SWAP3 POP PUSH1 0x80 DUP2 PUSH1 0x6 PUSH1 0x96 STATICCALL RETURNDATASIZE ISZERO ISZERO AND SWAP1 JUMP JUMPDEST SWAP2 SWAP1 PUSH1 0x40 SWAP1 DUP2 DUP5 ADD SWAP1 PUSH32 0x12C373462C5C91E08B630200B4F2A5B3078DC4C4F97237D777EB71639FD9CC2C DUP3 MSTORE PUSH32 0xB7299DFD52BDD8CFA440EB2EC79A60602171629D18BCC44676889362F401E08 PUSH1 0x60 DUP7 ADD MSTORE PUSH1 0x80 DUP6 ADD MSTORE PUSH1 0x60 DUP2 PUSH1 0x7 PUSH2 0x1770 STATICCALL RETURNDATASIZE ISZERO ISZERO AND SWAP2 DUP3 ISZERO PUSH2 0x102C JUMPI PUSH1 0x40 SWAP2 SWAP3 POP PUSH1 0x80 DUP2 PUSH1 0x6 PUSH1 0x96 STATICCALL RETURNDATASIZE ISZERO ISZERO AND SWAP1 JUMP JUMPDEST SWAP1 SWAP2 SWAP3 PUSH1 0x0 SWAP1 PUSH32 0x19CBDF12F27AE4101630A191D5516B265FB37D09894AAB07945A96068B091635 DUP7 MSTORE PUSH32 0x1C5D9874CAFE50E921FA3289FEF4BA53731282473400D1B360D3AC3B0C864A93 PUSH1 0x20 DUP8 ADD MSTORE PUSH2 0x17F9 DUP2 MLOAD DUP8 PUSH2 0xFAE JUMP JUMPDEST ISZERO PUSH2 0x1BCF JUMPI PUSH2 0x180C PUSH1 0x20 DUP3 ADD MLOAD DUP8 PUSH2 0x102F JUMP JUMPDEST ISZERO PUSH2 0x1BCF JUMPI PUSH2 0x181F PUSH1 0x40 DUP3 ADD MLOAD DUP8 PUSH2 0x10AD JUMP JUMPDEST ISZERO PUSH2 0x1BCF JUMPI PUSH2 0x1832 PUSH1 0x60 DUP3 ADD MLOAD DUP8 PUSH2 0x112C JUMP JUMPDEST ISZERO PUSH2 0x1BCF JUMPI PUSH2 0x1845 PUSH1 0x80 DUP3 ADD MLOAD DUP8 PUSH2 0x11AB JUMP JUMPDEST ISZERO PUSH2 0x1BCF JUMPI PUSH2 0x1858 PUSH1 0xA0 DUP3 ADD MLOAD DUP8 PUSH2 0x122A JUMP JUMPDEST ISZERO PUSH2 0x1BCF JUMPI PUSH2 0x186B PUSH1 0xC0 DUP3 ADD MLOAD DUP8 PUSH2 0x12A9 JUMP JUMPDEST ISZERO PUSH2 0x1BCF JUMPI PUSH2 0x187E PUSH1 0xE0 DUP3 ADD MLOAD DUP8 PUSH2 0x1328 JUMP JUMPDEST ISZERO PUSH2 0x1BCF JUMPI PUSH2 0x1892 PUSH2 0x100 DUP3 ADD MLOAD DUP8 PUSH2 0x13A7 JUMP JUMPDEST ISZERO PUSH2 0x1BCF JUMPI PUSH2 0x18A6 PUSH2 0x120 DUP3 ADD MLOAD DUP8 PUSH2 0x1426 JUMP JUMPDEST ISZERO PUSH2 0x1BCF JUMPI PUSH2 0x18BA PUSH2 0x140 DUP3 ADD MLOAD DUP8 PUSH2 0x14A5 JUMP JUMPDEST ISZERO PUSH2 0x1BCF JUMPI PUSH2 0x18CE PUSH2 0x160 DUP3 ADD MLOAD DUP8 PUSH2 0x1524 JUMP JUMPDEST ISZERO PUSH2 0x1BCF JUMPI PUSH2 0x18E2 PUSH2 0x180 DUP3 ADD MLOAD DUP8 PUSH2 0x15A3 JUMP JUMPDEST ISZERO PUSH2 0x1BCF JUMPI PUSH2 0x18F6 PUSH2 0x1A0 DUP3 ADD MLOAD DUP8 PUSH2 0x1622 JUMP JUMPDEST ISZERO PUSH2 0x1BCF JUMPI PUSH2 0x190A PUSH2 0x1C0 DUP3 ADD MLOAD DUP8 PUSH2 0x16A1 JUMP JUMPDEST ISZERO PUSH2 0x1BCF JUMPI PUSH2 0x1E0 PUSH2 0x191E SWAP2 ADD MLOAD DUP7 PUSH2 0x1720 JUMP JUMPDEST ISZERO PUSH2 0x1BC7 JUMPI POP PUSH1 0x20 DUP1 SWAP4 SWAP3 PUSH32 0x30644E72E131A029B85045B68181585D97816A916871CA8D3C208C16D87CFD47 DUP3 DUP1 SWAP5 PUSH32 0x198E9393920D483A7260BFB731FB5D25F1AA493335A9E71297E485B7AEF312C2 PUSH1 0x40 DUP11 ADD MSTORE PUSH32 0x1800DEEF121F1E76426A00665E5C4479674322D4F75EDADD46DEBD5CD992F6ED PUSH1 0x60 DUP11 ADD MSTORE PUSH32 0x90689D0585FF075EC9E99AD690C3395BC4B313370B38EF355ACDADCD122975B PUSH1 0x80 DUP11 ADD MSTORE PUSH32 0x12C85EA5DB8C6DEB4AAB71808DCB408FE3D1E7690C43D37B4CE6CC0166FA7DAA PUSH1 0xA0 DUP11 ADD MSTORE DUP1 MLOAD PUSH1 0xC0 DUP11 ADD MSTORE ADD MLOAD DUP2 SUB MOD PUSH1 0xE0 DUP8 ADD MSTORE DUP1 MLOAD MLOAD PUSH2 0x100 DUP8 ADD MSTORE DUP2 DUP2 MLOAD ADD MLOAD PUSH2 0x120 DUP8 ADD MSTORE ADD DUP1 MLOAD MLOAD PUSH2 0x140 DUP7 ADD MSTORE MLOAD ADD MLOAD PUSH2 0x160 DUP5 ADD MSTORE PUSH32 0x2D4D9AA7E302D9DF41749D5507949D05DBEA33FBB16C643B22F599A2BE6DF2E2 PUSH2 0x180 DUP5 ADD MSTORE PUSH32 0x14BEDD503C37CEB061D8EC60209FE345CE89830A19230301F076CAFF004D1926 PUSH2 0x1A0 DUP5 ADD MSTORE PUSH32 0x967032FCBF776D1AFC985F88877F182D38480A653F2DECAA9794CBC3BF3060C PUSH2 0x1C0 DUP5 ADD MSTORE PUSH32 0xE187847AD4C798374D0D6732BF501847DD68BC0E071241E0213BC7FC13DB7AB PUSH2 0x1E0 DUP5 ADD MSTORE PUSH32 0x304CFBD1E08A704A99F5E847D93F8C3CAAFDDEC46B7A0D379DA69A4D112346A7 PUSH2 0x200 DUP5 ADD MSTORE PUSH32 0x1739C1B1A457A8C7313123D24D2F9192F896B7C63EEA05A9D57F06547AD0CEC8 PUSH2 0x220 DUP5 ADD MSTORE DUP1 MLOAD PUSH2 0x240 DUP5 ADD MSTORE ADD MLOAD PUSH2 0x260 DUP3 ADD MSTORE PUSH32 0x198E9393920D483A7260BFB731FB5D25F1AA493335A9E71297E485B7AEF312C2 PUSH2 0x280 DUP3 ADD MSTORE PUSH32 0x1800DEEF121F1E76426A00665E5C4479674322D4F75EDADD46DEBD5CD992F6ED PUSH2 0x2A0 DUP3 ADD MSTORE PUSH32 0x90689D0585FF075EC9E99AD690C3395BC4B313370B38EF355ACDADCD122975B PUSH2 0x2C0 DUP3 ADD MSTORE PUSH32 0x12C85EA5DB8C6DEB4AAB71808DCB408FE3D1E7690C43D37B4CE6CC0166FA7DAA PUSH2 0x2E0 DUP3 ADD MSTORE PUSH1 0x20 DUP2 PUSH2 0x300 DUP2 PUSH1 0x8 PUSH3 0x2C308 STATICCALL SWAP1 MLOAD AND SWAP1 JUMP JUMPDEST SWAP5 SWAP4 POP POP POP POP JUMP JUMPDEST POP SWAP5 SWAP4 POP POP POP POP JUMP JUMPDEST SWAP4 SWAP3 SWAP1 SWAP2 PUSH1 0x40 MLOAD SWAP3 PUSH2 0x300 DUP5 ADD PUSH1 0x40 MSTORE PUSH1 0x1 PUSH2 0x1BF4 DUP5 MLOAD PUSH2 0xF89 JUMP JUMPDEST PUSH2 0x1C01 PUSH1 0x20 DUP7 ADD MLOAD PUSH2 0xF89 JUMP JUMPDEST AND PUSH2 0x1C0F PUSH1 0x40 DUP7 ADD MLOAD PUSH2 0xF89 JUMP JUMPDEST AND PUSH2 0x1C1D PUSH1 0x60 DUP7 ADD MLOAD PUSH2 0xF89 JUMP JUMPDEST AND AND PUSH2 0x1C2C PUSH1 0x80 DUP6 ADD MLOAD PUSH2 0xF89 JUMP JUMPDEST AND PUSH2 0x1C3A PUSH1 0xA0 DUP6 ADD MLOAD PUSH2 0xF89 JUMP JUMPDEST AND PUSH2 0x1C48 PUSH1 0xC0 DUP6 ADD MLOAD PUSH2 0xF89 JUMP JUMPDEST AND PUSH2 0x1C56 PUSH1 0xE0 DUP6 ADD MLOAD PUSH2 0xF89 JUMP JUMPDEST AND PUSH2 0x1C65 PUSH2 0x100 DUP6 ADD MLOAD PUSH2 0xF89 JUMP JUMPDEST AND PUSH2 0x1C74 PUSH2 0x120 DUP6 ADD MLOAD PUSH2 0xF89 JUMP JUMPDEST AND PUSH2 0x1C83 PUSH2 0x140 DUP6 ADD MLOAD PUSH2 0xF89 JUMP JUMPDEST AND PUSH2 0x1C92 PUSH2 0x160 DUP6 ADD MLOAD PUSH2 0xF89 JUMP JUMPDEST AND PUSH2 0x1CA1 PUSH2 0x180 DUP6 ADD MLOAD PUSH2 0xF89 JUMP JUMPDEST AND PUSH2 0x1CB0 PUSH2 0x1A0 DUP6 ADD MLOAD PUSH2 0xF89 JUMP JUMPDEST AND PUSH2 0x1CBF PUSH2 0x1C0 DUP6 ADD MLOAD PUSH2 0xF89 JUMP JUMPDEST AND PUSH2 0x1CCE PUSH2 0x1E0 DUP6 ADD MLOAD PUSH2 0xF89 JUMP JUMPDEST AND SWAP6 DUP7 ISZERO NOT PUSH2 0x1CDF JUMPI JUMPDEST POP POP POP POP POP JUMP JUMPDEST PUSH2 0x1CEA SWAP6 SWAP7 POP PUSH2 0x179F JUMP JUMPDEST SWAP1 CODESIZE DUP1 DUP1 DUP1 DUP1 PUSH2 0x1CD8 JUMP INVALID LOG2 PUSH5 0x6970667358 0x22 SLT KECCAK256 0xBA SWAP10 SGT PUSH9 0x9A8CD6B8FC6214BCD0 DUP11 0xB8 0xF7 PUSH15 0x748D3EA86176B439FD54B0C18D7C05 PUSH5 0x736F6C6343 STOP ADDMOD SHL STOP CALLER "},"methodIdentifiers":{"ALPHA_X()":"d1fb02a3","ALPHA_Y()":"6a5935a7","BASE_FIELD_SIZE()":"839a60d0","BETA_X1()":"dc05a822","BETA_X2()":"7fdf8fc1","BETA_Y1()":"dd924b47","BETA_Y2()":"1c4d4406","DELTA_X1()":"d70a63cc","DELTA_X2()":"f7a65aae","DELTA_Y1()":"b936325c","DELTA_Y2()":"cc9c92ae","GAMMA_X1()":"901660c4","GAMMA_X2()":"dfcf46f0","GAMMA_Y1()":"3a9e6a4d","GAMMA_Y2()":"acb41936","IC0_X()":"6336ec6c","IC0_Y()":"742797c4","IC10_X()":"11fbfe66","IC10_Y()":"e848dd6f","IC11_X()":"39637503","IC11_Y()":"73354b60","IC12_X()":"a127ed86","IC12_Y()":"ba688175","IC13_X()":"36b397dc","IC13_Y()":"1077f544","IC14_X()":"d8c710e0","IC14_Y()":"e834dbdd","IC15_X()":"4b750a92","IC15_Y()":"30c1731c","IC16_X()":"e11e8ee2","IC16_Y()":"32148d47","IC1_X()":"d663b365","IC1_Y()":"a1978c3c","IC2_X()":"dce42004","IC2_Y()":"0cbb35c3","IC3_X()":"4234a1d6","IC3_Y()":"50def905","IC4_X()":"eedee58f","IC4_Y()":"4e890b27","IC5_X()":"898611fd","IC5_Y()":"24934a11","IC6_X()":"aed43349","IC6_Y()":"bf48189e","IC7_X()":"31aa5e26","IC7_Y()":"2c0556ed","IC8_X()":"41fe6a9a","IC8_Y()":"2dacca56","IC9_X()":"dacb4e69","IC9_Y()":"28e44695","P_TOTAL_SIZE()":"a6aca976","SCALAR_FIELD_SIZE()":"0ddec475","verifyProof(uint256[2],uint256[2][2],uint256[2],uint256[16])":"c82febf5"}}}}}