{"contracts/core/Registrar.sol":{"Registrar":{"abi":[{"inputs":[{"internalType":"address","name":"registrationVerifier_","type":"address"}],"stateMutability":"nonpayable","type":"constructor"},{"inputs":[],"name":"InvalidChainId","type":"error"},{"inputs":[],"name":"InvalidProof","type":"error"},{"inputs":[],"name":"InvalidRegistrationHash","type":"error"},{"inputs":[],"name":"InvalidSender","type":"error"},{"inputs":[],"name":"UserAlreadyRegistered","type":"error"},{"anonymous":false,"inputs":[{"indexed":true,"internalType":"address","name":"user","type":"address"},{"components":[{"internalType":"uint256","name":"x","type":"uint256"},{"internalType":"uint256","name":"y","type":"uint256"}],"indexed":false,"internalType":"struct Point","name":"publicKey","type":"tuple"}],"name":"Register","type":"event"},{"inputs":[{"internalType":"address","name":"user","type":"address"}],"name":"getUserPublicKey","outputs":[{"internalType":"uint256[2]","name":"publicKey","type":"uint256[2]"}],"stateMutability":"view","type":"function"},{"inputs":[{"internalType":"uint256","name":"registrationHash","type":"uint256"}],"name":"isRegistered","outputs":[{"internalType":"bool","name":"isRegistered","type":"bool"}],"stateMutability":"view","type":"function"},{"inputs":[{"internalType":"address","name":"user","type":"address"}],"name":"isUserRegistered","outputs":[{"internalType":"bool","name":"","type":"bool"}],"stateMutability":"view","type":"function"},{"inputs":[{"components":[{"components":[{"internalType":"uint256[2]","name":"a","type":"uint256[2]"},{"internalType":"uint256[2][2]","name":"b","type":"uint256[2][2]"},{"internalType":"uint256[2]","name":"c","type":"uint256[2]"}],"internalType":"struct ProofPoints","name":"proofPoints","type":"tuple"},{"internalType":"uint256[5]","name":"publicSignals","type":"uint256[5]"}],"internalType":"struct RegisterProof","name":"proof","type":"tuple"}],"name":"register","outputs":[],"stateMutability":"nonpayable","type":"function"},{"inputs":[],"name":"registrationVerifier","outputs":[{"internalType":"contract IRegistrationVerifier","name":"","type":"address"}],"stateMutability":"view","type":"function"},{"inputs":[{"internalType":"address","name":"userAddress","type":"address"}],"name":"userPublicKeys","outputs":[{"internalType":"uint256","name":"x","type":"uint256"},{"internalType":"uint256","name":"y","type":"uint256"}],"stateMutability":"view","type":"function"}],"evm":{"bytecode":{"linkReferences":{},"object":"608034607057601f61072638819003918201601f19168301916001600160401b03831184841017607557808492602094604052833981010312607057516001600160a01b03811690819003607057600080546001600160a01b03191691909117905560405161069a908161008c8239f35b600080fd5b634e487b7160e01b600052604160045260246000fdfe6080604052600436101561001257600080fd5b60003560e01c806311231fe0146104f8578063163f7522146104bf57806337729b5c146101045780634cd1f470146100bd578063579a69881461008c576392d05a851461005e57600080fd5b34610087576000366003190112610087576000546040516001600160a01b039091168152602090f35b600080fd5b34610087576020366003190112610087576004356000526002602052602060ff604060002054166040519015158152f35b34610087576020366003190112610087576004356001600160a01b038116908190036100875760005260016020526040806000206001815491015482519182526020820152f35b34610087576101a036600319011261008757600061012136610628565b60408101516001600160a01b031690338290036104b057606081015146036104a1576080810151907f30644e72e131a029b85045b68181585d2833e84879b9709143e1f593f000000182101561049257818452600260205260ff60408520541680610483575b61047457600260051b9160405161019e84826105ca565b8036604411610470576004905b604482106104605750506040938451906101c586836105ca565b813660c4116103ce576000906044905b60c482106103e65750506103d2576101ef865191826105ca565b8036610104116103ce5760c4905b61010482106103be5750509161023b9261021636610628565b9060018060a01b038a54169388519586946334baeab960e01b86526004860190610570565b8a604485015b600282106103775750505061025a9060c4840190610570565b8861010483015b6005821061035d575050506101a4816020935afa908115610353578691610314575b501561030557907fa29f706235c83d457380cf21ecc4ba909fa846879eea28d1b12e4e3b82aa7590929160208251920151908351926102c184610598565b8352602083019182528587526001602052838720835181556001835191015586526002602052828620600160ff19825416179055825191518252516020820152a280f35b6309bde33960e01b8552600485fd5b90506020813d60201161034b575b8161032f602093836105ca565b81010312610347575180151581036103475786610283565b8580fd5b3d9150610322565b84513d88823e3d90fd5b829350602080916001939451815201930191018492610261565b9091929394508983518d839190915b600283106103a557505050602090600192019301910186949392610241565b815181528d935060019092019160209182019101610386565b81358152602091820191016101fd565b8880fd5b634e487b7160e01b88526041600452602488fd5b36601f8301121561045c578261044857885161040285826105ca565b808a840136811161044457918b9285949294905b80821061042e575050815292019160200190506101d5565b813586526020958601958e955090910190610416565b8d80fd5b634e487b7160e01b8b52604160045260248bfd5b8a80fd5b81358152602091820191016101ab565b8680fd5b634f2532fb60e11b8452600484fd5b5061048d836105ec565b610187565b638c45c0ad60e01b8452600484fd5b633d23e4d160e11b8352600483fd5b636edaef2f60e11b8352600483fd5b34610087576020366003190112610087576004356001600160a01b0381168103610087576104ee6020916105ec565b6040519015158152f35b34610087576020366003190112610087576004356001600160a01b038116908190036100875760409081805161052e82826105ca565b36903781519061053d82610598565b8060005260016020528260002054825260005260016020526001826000200154602082015261056e82518092610570565bf35b906000905b6002821061058257505050565b6020806001928551815201930191019091610575565b6040810190811067ffffffffffffffff8211176105b457604052565b634e487b7160e01b600052604160045260246000fd5b90601f8019910116810190811067ffffffffffffffff8211176105b457604052565b6001600160a01b031660008181526001602052604090205415159081610610575090565b90506000526001602052600160406000200154151590565b906040519161063860a0846105ca565b82906101a41161008757610104905b6101a48210610654575050565b813581526020918201910161064756fea264697066735822122050a2695e28c333823ec10ecf9e4147e058f8193705ecacee7ba8f183d668f73764736f6c634300081b0033","opcodes":"PUSH1 0x80 CALLVALUE PUSH1 0x70 JUMPI PUSH1 0x1F PUSH2 0x726 CODESIZE DUP2 SWAP1 SUB SWAP2 DUP3 ADD PUSH1 0x1F NOT AND DUP4 ADD SWAP2 PUSH1 0x1 PUSH1 0x1 PUSH1 0x40 SHL SUB DUP4 GT DUP5 DUP5 LT OR PUSH1 0x75 JUMPI DUP1 DUP5 SWAP3 PUSH1 0x20 SWAP5 PUSH1 0x40 MSTORE DUP4 CODECOPY DUP2 ADD SUB SLT PUSH1 0x70 JUMPI MLOAD PUSH1 0x1 PUSH1 0x1 PUSH1 0xA0 SHL SUB DUP2 AND SWAP1 DUP2 SWAP1 SUB PUSH1 0x70 JUMPI PUSH1 0x0 DUP1 SLOAD PUSH1 0x1 PUSH1 0x1 PUSH1 0xA0 SHL SUB NOT AND SWAP2 SWAP1 SWAP2 OR SWAP1 SSTORE PUSH1 0x40 MLOAD PUSH2 0x69A SWAP1 DUP2 PUSH2 0x8C DUP3 CODECOPY RETURN JUMPDEST PUSH1 0x0 DUP1 REVERT JUMPDEST PUSH4 0x4E487B71 PUSH1 0xE0 SHL PUSH1 0x0 MSTORE PUSH1 0x41 PUSH1 0x4 MSTORE PUSH1 0x24 PUSH1 0x0 REVERT INVALID PUSH1 0x80 PUSH1 0x40 MSTORE PUSH1 0x4 CALLDATASIZE LT ISZERO PUSH2 0x12 JUMPI PUSH1 0x0 DUP1 REVERT JUMPDEST PUSH1 0x0 CALLDATALOAD PUSH1 0xE0 SHR DUP1 PUSH4 0x11231FE0 EQ PUSH2 0x4F8 JUMPI DUP1 PUSH4 0x163F7522 EQ PUSH2 0x4BF JUMPI DUP1 PUSH4 0x37729B5C EQ PUSH2 0x104 JUMPI DUP1 PUSH4 0x4CD1F470 EQ PUSH2 0xBD JUMPI DUP1 PUSH4 0x579A6988 EQ PUSH2 0x8C JUMPI PUSH4 0x92D05A85 EQ PUSH2 0x5E JUMPI PUSH1 0x0 DUP1 REVERT JUMPDEST CALLVALUE PUSH2 0x87 JUMPI PUSH1 0x0 CALLDATASIZE PUSH1 0x3 NOT ADD SLT PUSH2 0x87 JUMPI PUSH1 0x0 SLOAD PUSH1 0x40 MLOAD PUSH1 0x1 PUSH1 0x1 PUSH1 0xA0 SHL SUB SWAP1 SWAP2 AND DUP2 MSTORE PUSH1 0x20 SWAP1 RETURN JUMPDEST PUSH1 0x0 DUP1 REVERT JUMPDEST CALLVALUE PUSH2 0x87 JUMPI PUSH1 0x20 CALLDATASIZE PUSH1 0x3 NOT ADD SLT PUSH2 0x87 JUMPI PUSH1 0x4 CALLDATALOAD PUSH1 0x0 MSTORE PUSH1 0x2 PUSH1 0x20 MSTORE PUSH1 0x20 PUSH1 0xFF PUSH1 0x40 PUSH1 0x0 KECCAK256 SLOAD AND PUSH1 0x40 MLOAD SWAP1 ISZERO ISZERO DUP2 MSTORE RETURN JUMPDEST CALLVALUE PUSH2 0x87 JUMPI PUSH1 0x20 CALLDATASIZE PUSH1 0x3 NOT ADD SLT PUSH2 0x87 JUMPI PUSH1 0x4 CALLDATALOAD PUSH1 0x1 PUSH1 0x1 PUSH1 0xA0 SHL SUB DUP2 AND SWAP1 DUP2 SWAP1 SUB PUSH2 0x87 JUMPI PUSH1 0x0 MSTORE PUSH1 0x1 PUSH1 0x20 MSTORE PUSH1 0x40 DUP1 PUSH1 0x0 KECCAK256 PUSH1 0x1 DUP2 SLOAD SWAP2 ADD SLOAD DUP3 MLOAD SWAP2 DUP3 MSTORE PUSH1 0x20 DUP3 ADD MSTORE RETURN JUMPDEST CALLVALUE PUSH2 0x87 JUMPI PUSH2 0x1A0 CALLDATASIZE PUSH1 0x3 NOT ADD SLT PUSH2 0x87 JUMPI PUSH1 0x0 PUSH2 0x121 CALLDATASIZE PUSH2 0x628 JUMP JUMPDEST PUSH1 0x40 DUP2 ADD MLOAD PUSH1 0x1 PUSH1 0x1 PUSH1 0xA0 SHL SUB AND SWAP1 CALLER DUP3 SWAP1 SUB PUSH2 0x4B0 JUMPI PUSH1 0x60 DUP2 ADD MLOAD CHAINID SUB PUSH2 0x4A1 JUMPI PUSH1 0x80 DUP2 ADD MLOAD SWAP1 PUSH32 0x30644E72E131A029B85045B68181585D2833E84879B9709143E1F593F0000001 DUP3 LT ISZERO PUSH2 0x492 JUMPI DUP2 DUP5 MSTORE PUSH1 0x2 PUSH1 0x20 MSTORE PUSH1 0xFF PUSH1 0x40 DUP6 KECCAK256 SLOAD AND DUP1 PUSH2 0x483 JUMPI JUMPDEST PUSH2 0x474 JUMPI PUSH1 0x2 PUSH1 0x5 SHL SWAP2 PUSH1 0x40 MLOAD PUSH2 0x19E DUP5 DUP3 PUSH2 0x5CA JUMP JUMPDEST DUP1 CALLDATASIZE PUSH1 0x44 GT PUSH2 0x470 JUMPI PUSH1 0x4 SWAP1 JUMPDEST PUSH1 0x44 DUP3 LT PUSH2 0x460 JUMPI POP POP PUSH1 0x40 SWAP4 DUP5 MLOAD SWAP1 PUSH2 0x1C5 DUP7 DUP4 PUSH2 0x5CA JUMP JUMPDEST DUP2 CALLDATASIZE PUSH1 0xC4 GT PUSH2 0x3CE JUMPI PUSH1 0x0 SWAP1 PUSH1 0x44 SWAP1 JUMPDEST PUSH1 0xC4 DUP3 LT PUSH2 0x3E6 JUMPI POP POP PUSH2 0x3D2 JUMPI PUSH2 0x1EF DUP7 MLOAD SWAP2 DUP3 PUSH2 0x5CA JUMP JUMPDEST DUP1 CALLDATASIZE PUSH2 0x104 GT PUSH2 0x3CE JUMPI PUSH1 0xC4 SWAP1 JUMPDEST PUSH2 0x104 DUP3 LT PUSH2 0x3BE JUMPI POP POP SWAP2 PUSH2 0x23B SWAP3 PUSH2 0x216 CALLDATASIZE PUSH2 0x628 JUMP JUMPDEST SWAP1 PUSH1 0x1 DUP1 PUSH1 0xA0 SHL SUB DUP11 SLOAD AND SWAP4 DUP9 MLOAD SWAP6 DUP7 SWAP5 PUSH4 0x34BAEAB9 PUSH1 0xE0 SHL DUP7 MSTORE PUSH1 0x4 DUP7 ADD SWAP1 PUSH2 0x570 JUMP JUMPDEST DUP11 PUSH1 0x44 DUP6 ADD JUMPDEST PUSH1 0x2 DUP3 LT PUSH2 0x377 JUMPI POP POP POP PUSH2 0x25A SWAP1 PUSH1 0xC4 DUP5 ADD SWAP1 PUSH2 0x570 JUMP JUMPDEST DUP9 PUSH2 0x104 DUP4 ADD JUMPDEST PUSH1 0x5 DUP3 LT PUSH2 0x35D JUMPI POP POP POP PUSH2 0x1A4 DUP2 PUSH1 0x20 SWAP4 GAS STATICCALL SWAP1 DUP2 ISZERO PUSH2 0x353 JUMPI DUP7 SWAP2 PUSH2 0x314 JUMPI JUMPDEST POP ISZERO PUSH2 0x305 JUMPI SWAP1 PUSH32 0xA29F706235C83D457380CF21ECC4BA909FA846879EEA28D1B12E4E3B82AA7590 SWAP3 SWAP2 PUSH1 0x20 DUP3 MLOAD SWAP3 ADD MLOAD SWAP1 DUP4 MLOAD SWAP3 PUSH2 0x2C1 DUP5 PUSH2 0x598 JUMP JUMPDEST DUP4 MSTORE PUSH1 0x20 DUP4 ADD SWAP2 DUP3 MSTORE DUP6 DUP8 MSTORE PUSH1 0x1 PUSH1 0x20 MSTORE DUP4 DUP8 KECCAK256 DUP4 MLOAD DUP2 SSTORE PUSH1 0x1 DUP4 MLOAD SWAP2 ADD SSTORE DUP7 MSTORE PUSH1 0x2 PUSH1 0x20 MSTORE DUP3 DUP7 KECCAK256 PUSH1 0x1 PUSH1 0xFF NOT DUP3 SLOAD AND OR SWAP1 SSTORE DUP3 MLOAD SWAP2 MLOAD DUP3 MSTORE MLOAD PUSH1 0x20 DUP3 ADD MSTORE LOG2 DUP1 RETURN JUMPDEST PUSH4 0x9BDE339 PUSH1 0xE0 SHL DUP6 MSTORE PUSH1 0x4 DUP6 REVERT JUMPDEST SWAP1 POP PUSH1 0x20 DUP2 RETURNDATASIZE PUSH1 0x20 GT PUSH2 0x34B JUMPI JUMPDEST DUP2 PUSH2 0x32F PUSH1 0x20 SWAP4 DUP4 PUSH2 0x5CA JUMP JUMPDEST DUP2 ADD SUB SLT PUSH2 0x347 JUMPI MLOAD DUP1 ISZERO ISZERO DUP2 SUB PUSH2 0x347 JUMPI DUP7 PUSH2 0x283 JUMP JUMPDEST DUP6 DUP1 REVERT JUMPDEST RETURNDATASIZE SWAP2 POP PUSH2 0x322 JUMP JUMPDEST DUP5 MLOAD RETURNDATASIZE DUP9 DUP3 RETURNDATACOPY RETURNDATASIZE SWAP1 REVERT JUMPDEST DUP3 SWAP4 POP PUSH1 0x20 DUP1 SWAP2 PUSH1 0x1 SWAP4 SWAP5 MLOAD DUP2 MSTORE ADD SWAP4 ADD SWAP2 ADD DUP5 SWAP3 PUSH2 0x261 JUMP JUMPDEST SWAP1 SWAP2 SWAP3 SWAP4 SWAP5 POP DUP10 DUP4 MLOAD DUP14 DUP4 SWAP2 SWAP1 SWAP2 JUMPDEST PUSH1 0x2 DUP4 LT PUSH2 0x3A5 JUMPI POP POP POP PUSH1 0x20 SWAP1 PUSH1 0x1 SWAP3 ADD SWAP4 ADD SWAP2 ADD DUP7 SWAP5 SWAP4 SWAP3 PUSH2 0x241 JUMP JUMPDEST DUP2 MLOAD DUP2 MSTORE DUP14 SWAP4 POP PUSH1 0x1 SWAP1 SWAP3 ADD SWAP2 PUSH1 0x20 SWAP2 DUP3 ADD SWAP2 ADD PUSH2 0x386 JUMP JUMPDEST DUP2 CALLDATALOAD DUP2 MSTORE PUSH1 0x20 SWAP2 DUP3 ADD SWAP2 ADD PUSH2 0x1FD JUMP JUMPDEST DUP9 DUP1 REVERT JUMPDEST PUSH4 0x4E487B71 PUSH1 0xE0 SHL DUP9 MSTORE PUSH1 0x41 PUSH1 0x4 MSTORE PUSH1 0x24 DUP9 REVERT JUMPDEST CALLDATASIZE PUSH1 0x1F DUP4 ADD SLT ISZERO PUSH2 0x45C JUMPI DUP3 PUSH2 0x448 JUMPI DUP9 MLOAD PUSH2 0x402 DUP6 DUP3 PUSH2 0x5CA JUMP JUMPDEST DUP1 DUP11 DUP5 ADD CALLDATASIZE DUP2 GT PUSH2 0x444 JUMPI SWAP2 DUP12 SWAP3 DUP6 SWAP5 SWAP3 SWAP5 SWAP1 JUMPDEST DUP1 DUP3 LT PUSH2 0x42E JUMPI POP POP DUP2 MSTORE SWAP3 ADD SWAP2 PUSH1 0x20 ADD SWAP1 POP PUSH2 0x1D5 JUMP JUMPDEST DUP2 CALLDATALOAD DUP7 MSTORE PUSH1 0x20 SWAP6 DUP7 ADD SWAP6 DUP15 SWAP6 POP SWAP1 SWAP2 ADD SWAP1 PUSH2 0x416 JUMP JUMPDEST DUP14 DUP1 REVERT JUMPDEST PUSH4 0x4E487B71 PUSH1 0xE0 SHL DUP12 MSTORE PUSH1 0x41 PUSH1 0x4 MSTORE PUSH1 0x24 DUP12 REVERT JUMPDEST DUP11 DUP1 REVERT JUMPDEST DUP2 CALLDATALOAD DUP2 MSTORE PUSH1 0x20 SWAP2 DUP3 ADD SWAP2 ADD PUSH2 0x1AB JUMP JUMPDEST DUP7 DUP1 REVERT JUMPDEST PUSH4 0x4F2532FB PUSH1 0xE1 SHL DUP5 MSTORE PUSH1 0x4 DUP5 REVERT JUMPDEST POP PUSH2 0x48D DUP4 PUSH2 0x5EC JUMP JUMPDEST PUSH2 0x187 JUMP JUMPDEST PUSH4 0x8C45C0AD PUSH1 0xE0 SHL DUP5 MSTORE PUSH1 0x4 DUP5 REVERT JUMPDEST PUSH4 0x3D23E4D1 PUSH1 0xE1 SHL DUP4 MSTORE PUSH1 0x4 DUP4 REVERT JUMPDEST PUSH4 0x6EDAEF2F PUSH1 0xE1 SHL DUP4 MSTORE PUSH1 0x4 DUP4 REVERT JUMPDEST CALLVALUE PUSH2 0x87 JUMPI PUSH1 0x20 CALLDATASIZE PUSH1 0x3 NOT ADD SLT PUSH2 0x87 JUMPI PUSH1 0x4 CALLDATALOAD PUSH1 0x1 PUSH1 0x1 PUSH1 0xA0 SHL SUB DUP2 AND DUP2 SUB PUSH2 0x87 JUMPI PUSH2 0x4EE PUSH1 0x20 SWAP2 PUSH2 0x5EC JUMP JUMPDEST PUSH1 0x40 MLOAD SWAP1 ISZERO ISZERO DUP2 MSTORE RETURN JUMPDEST CALLVALUE PUSH2 0x87 JUMPI PUSH1 0x20 CALLDATASIZE PUSH1 0x3 NOT ADD SLT PUSH2 0x87 JUMPI PUSH1 0x4 CALLDATALOAD PUSH1 0x1 PUSH1 0x1 PUSH1 0xA0 SHL SUB DUP2 AND SWAP1 DUP2 SWAP1 SUB PUSH2 0x87 JUMPI PUSH1 0x40 SWAP1 DUP2 DUP1 MLOAD PUSH2 0x52E DUP3 DUP3 PUSH2 0x5CA JUMP JUMPDEST CALLDATASIZE SWAP1 CALLDATACOPY DUP2 MLOAD SWAP1 PUSH2 0x53D DUP3 PUSH2 0x598 JUMP JUMPDEST DUP1 PUSH1 0x0 MSTORE PUSH1 0x1 PUSH1 0x20 MSTORE DUP3 PUSH1 0x0 KECCAK256 SLOAD DUP3 MSTORE PUSH1 0x0 MSTORE PUSH1 0x1 PUSH1 0x20 MSTORE PUSH1 0x1 DUP3 PUSH1 0x0 KECCAK256 ADD SLOAD PUSH1 0x20 DUP3 ADD MSTORE PUSH2 0x56E DUP3 MLOAD DUP1 SWAP3 PUSH2 0x570 JUMP JUMPDEST RETURN JUMPDEST SWAP1 PUSH1 0x0 SWAP1 JUMPDEST PUSH1 0x2 DUP3 LT PUSH2 0x582 JUMPI POP POP POP JUMP JUMPDEST PUSH1 0x20 DUP1 PUSH1 0x1 SWAP3 DUP6 MLOAD DUP2 MSTORE ADD SWAP4 ADD SWAP2 ADD SWAP1 SWAP2 PUSH2 0x575 JUMP JUMPDEST PUSH1 0x40 DUP2 ADD SWAP1 DUP2 LT PUSH8 0xFFFFFFFFFFFFFFFF DUP3 GT OR PUSH2 0x5B4 JUMPI PUSH1 0x40 MSTORE JUMP JUMPDEST PUSH4 0x4E487B71 PUSH1 0xE0 SHL PUSH1 0x0 MSTORE PUSH1 0x41 PUSH1 0x4 MSTORE PUSH1 0x24 PUSH1 0x0 REVERT JUMPDEST SWAP1 PUSH1 0x1F DUP1 NOT SWAP2 ADD AND DUP2 ADD SWAP1 DUP2 LT PUSH8 0xFFFFFFFFFFFFFFFF DUP3 GT OR PUSH2 0x5B4 JUMPI PUSH1 0x40 MSTORE JUMP JUMPDEST PUSH1 0x1 PUSH1 0x1 PUSH1 0xA0 SHL SUB AND PUSH1 0x0 DUP2 DUP2 MSTORE PUSH1 0x1 PUSH1 0x20 MSTORE PUSH1 0x40 SWAP1 KECCAK256 SLOAD ISZERO ISZERO SWAP1 DUP2 PUSH2 0x610 JUMPI POP SWAP1 JUMP JUMPDEST SWAP1 POP PUSH1 0x0 MSTORE PUSH1 0x1 PUSH1 0x20 MSTORE PUSH1 0x1 PUSH1 0x40 PUSH1 0x0 KECCAK256 ADD SLOAD ISZERO ISZERO SWAP1 JUMP JUMPDEST SWAP1 PUSH1 0x40 MLOAD SWAP2 PUSH2 0x638 PUSH1 0xA0 DUP5 PUSH2 0x5CA JUMP JUMPDEST DUP3 SWAP1 PUSH2 0x1A4 GT PUSH2 0x87 JUMPI PUSH2 0x104 SWAP1 JUMPDEST PUSH2 0x1A4 DUP3 LT PUSH2 0x654 JUMPI POP POP JUMP JUMPDEST DUP2 CALLDATALOAD DUP2 MSTORE PUSH1 0x20 SWAP2 DUP3 ADD SWAP2 ADD PUSH2 0x647 JUMP INVALID LOG2 PUSH5 0x6970667358 0x22 SLT KECCAK256 POP LOG2 PUSH10 0x5E28C333823EC10ECF9E COINBASE SELFBALANCE 0xE0 PC 0xF8 NOT CALLDATACOPY SDIV 0xEC 0xAC 0xEE PUSH28 0xA8F183D668F73764736F6C634300081B003300000000000000000000 "},"methodIdentifiers":{"getUserPublicKey(address)":"11231fe0","isRegistered(uint256)":"579a6988","isUserRegistered(address)":"163f7522","register(((uint256[2],uint256[2][2],uint256[2]),uint256[5]))":"37729b5c","registrationVerifier()":"92d05a85","userPublicKeys(address)":"4cd1f470"}}}}}