{"contracts/core/UniversalEncryptedERC.sol":{"UniversalEncryptedERC":{"abi":[{"inputs":[{"components":[{"internalType":"address","name":"registrar","type":"address"},{"internalType":"bool","name":"isConverter","type":"bool"},{"internalType":"string","name":"name","type":"string"},{"internalType":"string","name":"symbol","type":"string"},{"internalType":"uint8","name":"decimals","type":"uint8"},{"internalType":"address","name":"mintVerifier","type":"address"},{"internalType":"address","name":"withdrawVerifier","type":"address"},{"internalType":"address","name":"transferVerifier","type":"address"},{"internalType":"address","name":"burnVerifier","type":"address"}],"internalType":"struct CreateEncryptedERCParams","name":"params","type":"tuple"}],"stateMutability":"nonpayable","type":"constructor"},{"inputs":[],"name":"InvalidChainId","type":"error"},{"inputs":[],"name":"InvalidNullifier","type":"error"},{"inputs":[],"name":"InvalidOperation","type":"error"},{"inputs":[],"name":"InvalidProof","type":"error"},{"inputs":[{"internalType":"address","name":"owner","type":"address"}],"name":"OwnableInvalidOwner","type":"error"},{"inputs":[{"internalType":"address","name":"account","type":"address"}],"name":"OwnableUnauthorizedAccount","type":"error"},{"inputs":[{"internalType":"address","name":"token","type":"address"}],"name":"SafeERC20FailedOperation","type":"error"},{"inputs":[],"name":"TransferFailed","type":"error"},{"inputs":[],"name":"UnknownToken","type":"error"},{"inputs":[],"name":"UserNotRegistered","type":"error"},{"inputs":[],"name":"ZeroAddress","type":"error"},{"anonymous":false,"inputs":[{"indexed":true,"internalType":"address","name":"oldAuditor","type":"address"},{"indexed":true,"internalType":"address","name":"newAuditor","type":"address"}],"name":"AuditorChanged","type":"event"},{"anonymous":false,"inputs":[{"indexed":true,"internalType":"address","name":"user","type":"address"},{"indexed":false,"internalType":"uint256","name":"amount","type":"uint256"},{"indexed":false,"internalType":"uint256","name":"dust","type":"uint256"},{"indexed":false,"internalType":"uint256","name":"tokenId","type":"uint256"},{"indexed":false,"internalType":"enum UniversalEncryptedERC.TokenType","name":"tokenType","type":"uint8"}],"name":"Deposit","type":"event"},{"anonymous":false,"inputs":[{"indexed":true,"internalType":"address","name":"user","type":"address"},{"indexed":false,"internalType":"uint256","name":"amount","type":"uint256"},{"indexed":false,"internalType":"uint256","name":"tokenId","type":"uint256"}],"name":"NativeDeposit","type":"event"},{"anonymous":false,"inputs":[{"indexed":true,"internalType":"address","name":"user","type":"address"},{"indexed":false,"internalType":"uint256","name":"amount","type":"uint256"},{"indexed":false,"internalType":"uint256","name":"tokenId","type":"uint256"}],"name":"NativeWithdraw","type":"event"},{"anonymous":false,"inputs":[{"indexed":true,"internalType":"address","name":"previousOwner","type":"address"},{"indexed":true,"internalType":"address","name":"newOwner","type":"address"}],"name":"OwnershipTransferStarted","type":"event"},{"anonymous":false,"inputs":[{"indexed":true,"internalType":"address","name":"previousOwner","type":"address"},{"indexed":true,"internalType":"address","name":"newOwner","type":"address"}],"name":"OwnershipTransferred","type":"event"},{"anonymous":false,"inputs":[{"indexed":true,"internalType":"address","name":"user","type":"address"},{"indexed":false,"internalType":"uint256[7]","name":"auditorPCT","type":"uint256[7]"},{"indexed":true,"internalType":"address","name":"auditorAddress","type":"address"}],"name":"PrivateBurn","type":"event"},{"anonymous":false,"inputs":[{"indexed":true,"internalType":"address","name":"user","type":"address"},{"indexed":false,"internalType":"uint256[7]","name":"auditorPCT","type":"uint256[7]"},{"indexed":true,"internalType":"address","name":"auditorAddress","type":"address"}],"name":"PrivateMint","type":"event"},{"anonymous":false,"inputs":[{"indexed":true,"internalType":"address","name":"from","type":"address"},{"indexed":true,"internalType":"address","name":"to","type":"address"},{"indexed":false,"internalType":"uint256[7]","name":"auditorPCT","type":"uint256[7]"},{"indexed":true,"internalType":"address","name":"auditorAddress","type":"address"}],"name":"PrivateTransfer","type":"event"},{"anonymous":false,"inputs":[{"indexed":true,"internalType":"address","name":"user","type":"address"},{"indexed":false,"internalType":"uint256","name":"amount","type":"uint256"},{"indexed":false,"internalType":"uint256","name":"tokenId","type":"uint256"},{"indexed":false,"internalType":"uint256[7]","name":"auditorPCT","type":"uint256[7]"},{"indexed":true,"internalType":"address","name":"auditorAddress","type":"address"}],"name":"Withdraw","type":"event"},{"inputs":[],"name":"acceptOwnership","outputs":[],"stateMutability":"nonpayable","type":"function"},{"inputs":[{"internalType":"uint256","name":"mintNullifier","type":"uint256"}],"name":"alreadyMinted","outputs":[{"internalType":"bool","name":"isUsed","type":"bool"}],"stateMutability":"view","type":"function"},{"inputs":[],"name":"auditor","outputs":[{"internalType":"address","name":"","type":"address"}],"stateMutability":"view","type":"function"},{"inputs":[],"name":"auditorPublicKey","outputs":[{"internalType":"uint256","name":"x","type":"uint256"},{"internalType":"uint256","name":"y","type":"uint256"}],"stateMutability":"view","type":"function"},{"inputs":[{"internalType":"address","name":"user","type":"address"},{"internalType":"uint256","name":"tokenId","type":"uint256"}],"name":"balanceOf","outputs":[{"components":[{"components":[{"internalType":"uint256","name":"x","type":"uint256"},{"internalType":"uint256","name":"y","type":"uint256"}],"internalType":"struct Point","name":"c1","type":"tuple"},{"components":[{"internalType":"uint256","name":"x","type":"uint256"},{"internalType":"uint256","name":"y","type":"uint256"}],"internalType":"struct Point","name":"c2","type":"tuple"}],"internalType":"struct EGCT","name":"eGCT","type":"tuple"},{"internalType":"uint256","name":"nonce","type":"uint256"},{"components":[{"internalType":"uint256[7]","name":"pct","type":"uint256[7]"},{"internalType":"uint256","name":"index","type":"uint256"}],"internalType":"struct AmountPCT[]","name":"amountPCTs","type":"tuple[]"},{"internalType":"uint256[7]","name":"balancePCT","type":"uint256[7]"},{"internalType":"uint256","name":"transactionIndex","type":"uint256"}],"stateMutability":"view","type":"function"},{"inputs":[{"internalType":"address","name":"user","type":"address"}],"name":"balanceOfStandalone","outputs":[{"components":[{"components":[{"internalType":"uint256","name":"x","type":"uint256"},{"internalType":"uint256","name":"y","type":"uint256"}],"internalType":"struct Point","name":"c1","type":"tuple"},{"components":[{"internalType":"uint256","name":"x","type":"uint256"},{"internalType":"uint256","name":"y","type":"uint256"}],"internalType":"struct Point","name":"c2","type":"tuple"}],"internalType":"struct EGCT","name":"eGCT","type":"tuple"},{"internalType":"uint256","name":"nonce","type":"uint256"},{"components":[{"internalType":"uint256[7]","name":"pct","type":"uint256[7]"},{"internalType":"uint256","name":"index","type":"uint256"}],"internalType":"struct AmountPCT[]","name":"amountPCTs","type":"tuple[]"},{"internalType":"uint256[7]","name":"balancePCT","type":"uint256[7]"},{"internalType":"uint256","name":"transactionIndex","type":"uint256"}],"stateMutability":"view","type":"function"},{"inputs":[{"internalType":"address","name":"user","type":"address"},{"internalType":"uint256","name":"tokenId","type":"uint256"}],"name":"balances","outputs":[{"components":[{"components":[{"internalType":"uint256","name":"x","type":"uint256"},{"internalType":"uint256","name":"y","type":"uint256"}],"internalType":"struct Point","name":"c1","type":"tuple"},{"components":[{"internalType":"uint256","name":"x","type":"uint256"},{"internalType":"uint256","name":"y","type":"uint256"}],"internalType":"struct Point","name":"c2","type":"tuple"}],"internalType":"struct EGCT","name":"eGCT","type":"tuple"},{"internalType":"uint256","name":"nonce","type":"uint256"},{"internalType":"uint256","name":"transactionIndex","type":"uint256"}],"stateMutability":"view","type":"function"},{"inputs":[{"internalType":"address","name":"tokenAddress","type":"address"}],"name":"blacklistedTokens","outputs":[{"internalType":"bool","name":"isBlacklisted","type":"bool"}],"stateMutability":"view","type":"function"},{"inputs":[],"name":"burnVerifier","outputs":[{"internalType":"contract IBurnVerifier","name":"","type":"address"}],"stateMutability":"view","type":"function"},{"inputs":[],"name":"decimals","outputs":[{"internalType":"uint8","name":"","type":"uint8"}],"stateMutability":"view","type":"function"},{"inputs":[{"internalType":"uint256","name":"amount","type":"uint256"},{"internalType":"address","name":"tokenAddress","type":"address"},{"internalType":"uint256[7]","name":"amountPCT","type":"uint256[7]"}],"name":"deposit","outputs":[],"stateMutability":"payable","type":"function"},{"inputs":[{"internalType":"address","name":"user","type":"address"},{"internalType":"address","name":"tokenAddress","type":"address"}],"name":"getBalanceFromTokenAddress","outputs":[{"components":[{"components":[{"internalType":"uint256","name":"x","type":"uint256"},{"internalType":"uint256","name":"y","type":"uint256"}],"internalType":"struct Point","name":"c1","type":"tuple"},{"components":[{"internalType":"uint256","name":"x","type":"uint256"},{"internalType":"uint256","name":"y","type":"uint256"}],"internalType":"struct Point","name":"c2","type":"tuple"}],"internalType":"struct EGCT","name":"eGCT","type":"tuple"},{"internalType":"uint256","name":"nonce","type":"uint256"},{"components":[{"internalType":"uint256[7]","name":"pct","type":"uint256[7]"},{"internalType":"uint256","name":"index","type":"uint256"}],"internalType":"struct AmountPCT[]","name":"amountPCTs","type":"tuple[]"},{"internalType":"uint256[7]","name":"balancePCT","type":"uint256[7]"},{"internalType":"uint256","name":"transactionIndex","type":"uint256"}],"stateMutability":"view","type":"function"},{"inputs":[{"internalType":"address","name":"user","type":"address"}],"name":"getNativeBalance","outputs":[{"internalType":"uint256","name":"","type":"uint256"}],"stateMutability":"view","type":"function"},{"inputs":[],"name":"getTokens","outputs":[{"internalType":"address[]","name":"","type":"address[]"}],"stateMutability":"view","type":"function"},{"inputs":[],"name":"isAuditorKeySet","outputs":[{"internalType":"bool","name":"","type":"bool"}],"stateMutability":"view","type":"function"},{"inputs":[],"name":"isConverter","outputs":[{"internalType":"bool","name":"","type":"bool"}],"stateMutability":"view","type":"function"},{"inputs":[],"name":"mintVerifier","outputs":[{"internalType":"contract IMintVerifier","name":"","type":"address"}],"stateMutability":"view","type":"function"},{"inputs":[],"name":"name","outputs":[{"internalType":"string","name":"","type":"string"}],"stateMutability":"view","type":"function"},{"inputs":[{"internalType":"address","name":"","type":"address"}],"name":"nativeBalances","outputs":[{"internalType":"uint256","name":"","type":"uint256"}],"stateMutability":"view","type":"function"},{"inputs":[],"name":"nextTokenId","outputs":[{"internalType":"uint256","name":"","type":"uint256"}],"stateMutability":"view","type":"function"},{"inputs":[],"name":"owner","outputs":[{"internalType":"address","name":"","type":"address"}],"stateMutability":"view","type":"function"},{"inputs":[],"name":"pendingOwner","outputs":[{"internalType":"address","name":"","type":"address"}],"stateMutability":"view","type":"function"},{"inputs":[{"components":[{"components":[{"internalType":"uint256[2]","name":"a","type":"uint256[2]"},{"internalType":"uint256[2][2]","name":"b","type":"uint256[2][2]"},{"internalType":"uint256[2]","name":"c","type":"uint256[2]"}],"internalType":"struct ProofPoints","name":"proofPoints","type":"tuple"},{"internalType":"uint256[19]","name":"publicSignals","type":"uint256[19]"}],"internalType":"struct BurnProof","name":"proof","type":"tuple"},{"internalType":"uint256[7]","name":"balancePCT","type":"uint256[7]"}],"name":"privateBurn","outputs":[],"stateMutability":"nonpayable","type":"function"},{"inputs":[{"internalType":"address","name":"user","type":"address"},{"components":[{"components":[{"internalType":"uint256[2]","name":"a","type":"uint256[2]"},{"internalType":"uint256[2][2]","name":"b","type":"uint256[2][2]"},{"internalType":"uint256[2]","name":"c","type":"uint256[2]"}],"internalType":"struct ProofPoints","name":"proofPoints","type":"tuple"},{"internalType":"uint256[24]","name":"publicSignals","type":"uint256[24]"}],"internalType":"struct MintProof","name":"proof","type":"tuple"}],"name":"privateMint","outputs":[],"stateMutability":"nonpayable","type":"function"},{"inputs":[{"internalType":"address","name":"tokenAddress","type":"address"},{"internalType":"enum UniversalEncryptedERC.TokenType","name":"tokenType","type":"uint8"}],"name":"registerTokenType","outputs":[],"stateMutability":"nonpayable","type":"function"},{"inputs":[],"name":"registrar","outputs":[{"internalType":"contract IRegistrar","name":"","type":"address"}],"stateMutability":"view","type":"function"},{"inputs":[],"name":"renounceOwnership","outputs":[],"stateMutability":"nonpayable","type":"function"},{"inputs":[{"internalType":"address","name":"user","type":"address"}],"name":"setAuditorPublicKey","outputs":[],"stateMutability":"nonpayable","type":"function"},{"inputs":[{"internalType":"address","name":"token","type":"address"},{"internalType":"bool","name":"blacklisted","type":"bool"}],"name":"setTokenBlacklist","outputs":[],"stateMutability":"nonpayable","type":"function"},{"inputs":[],"name":"symbol","outputs":[{"internalType":"string","name":"","type":"string"}],"stateMutability":"view","type":"function"},{"inputs":[{"internalType":"uint256","name":"tokenId","type":"uint256"}],"name":"tokenAddresses","outputs":[{"internalType":"address","name":"tokenAddress","type":"address"}],"stateMutability":"view","type":"function"},{"inputs":[{"internalType":"address","name":"tokenAddress","type":"address"}],"name":"tokenIds","outputs":[{"internalType":"uint256","name":"tokenId","type":"uint256"}],"stateMutability":"view","type":"function"},{"inputs":[{"internalType":"address","name":"","type":"address"}],"name":"tokenTypes","outputs":[{"internalType":"enum UniversalEncryptedERC.TokenType","name":"","type":"uint8"}],"stateMutability":"view","type":"function"},{"inputs":[{"internalType":"uint256","name":"","type":"uint256"}],"name":"tokens","outputs":[{"internalType":"address","name":"","type":"address"}],"stateMutability":"view","type":"function"},{"inputs":[{"internalType":"address","name":"to","type":"address"},{"internalType":"uint256","name":"tokenId","type":"uint256"},{"components":[{"components":[{"internalType":"uint256[2]","name":"a","type":"uint256[2]"},{"internalType":"uint256[2][2]","name":"b","type":"uint256[2][2]"},{"internalType":"uint256[2]","name":"c","type":"uint256[2]"}],"internalType":"struct ProofPoints","name":"proofPoints","type":"tuple"},{"internalType":"uint256[32]","name":"publicSignals","type":"uint256[32]"}],"internalType":"struct TransferProof","name":"proof","type":"tuple"},{"internalType":"uint256[7]","name":"balancePCT","type":"uint256[7]"}],"name":"transfer","outputs":[],"stateMutability":"nonpayable","type":"function"},{"inputs":[{"internalType":"address","name":"newOwner","type":"address"}],"name":"transferOwnership","outputs":[],"stateMutability":"nonpayable","type":"function"},{"inputs":[],"name":"transferVerifier","outputs":[{"internalType":"contract ITransferVerifier","name":"","type":"address"}],"stateMutability":"view","type":"function"},{"inputs":[{"internalType":"uint256","name":"tokenId","type":"uint256"},{"components":[{"components":[{"internalType":"uint256[2]","name":"a","type":"uint256[2]"},{"internalType":"uint256[2][2]","name":"b","type":"uint256[2][2]"},{"internalType":"uint256[2]","name":"c","type":"uint256[2]"}],"internalType":"struct ProofPoints","name":"proofPoints","type":"tuple"},{"internalType":"uint256[16]","name":"publicSignals","type":"uint256[16]"}],"internalType":"struct WithdrawProof","name":"proof","type":"tuple"},{"internalType":"uint256[7]","name":"balancePCT","type":"uint256[7]"}],"name":"withdraw","outputs":[],"stateMutability":"nonpayable","type":"function"},{"inputs":[],"name":"withdrawVerifier","outputs":[{"internalType":"contract IWithdrawVerifier","name":"","type":"address"}],"stateMutability":"view","type":"function"}],"evm":{"bytecode":{"linkReferences":{"contracts/libraries/BabyJubJub.sol":{"BabyJubJub":[{"length":20,"start":2949},{"length":20,"start":8299},{"length":20,"start":9968},{"length":20,"start":13994},{"length":20,"start":14547},{"length":20,"start":15440},{"length":20,"start":16586},{"length":20,"start":17690}]}},"object":"60a06040523461061957614824803803806100198161061e565b928339810190602081830312610619578051906001600160401b038211610619570161012081830312610619576040519161012083016001600160401b038111848210176104b35760405261006d82610643565b835260208201518015158103610619576020840190815260408301516001600160401b03811161061957826100a3918501610657565b60408501908152606084015190926001600160401b038211610619576100ca918501610657565b936060810194855260808401519360ff8516850361061957608082019485526100f560a08201610643565b60a0830190815261010860c08301610643565b9060c0840191825261013061010061012260e08601610643565b9460e0870195865201610643565b93610100810194855285511515331561060357600180546001600160a01b03199081169091556000805433928116831782556001600160a01b0316907f8be0079c531659141344cd1fd0a4f28419497f9722a3daafe3b4186f6b6457e09080a3600160025560ff80196003541691161760035560018060a01b0319600954166009556040516040810181811060018060401b038211176104b35760405260008082526020909101819052600a819055600b5580516001600160a01b03161580156105f1575b80156105df575b80156105cd575b80156105bb575b6105aa5751600c80546001600160a01b03199081166001600160a01b03938416179091559151600d805484169183169190911790559151600e805483169184169190911790559151600f80548416918316919091179055915160108054909216921691909117905551156102e3575b815160ff166080526000805260146020527f4f26c3876aa9f4b92579780beea1161a61f87ebf1ec6ee865b299e447ecba99c805460ff1916600117905560405161416190816106c382396080518181816113df015281816130470152818161395e0152613d950152f35b5180519092906001600160401b0381116104b357601154600181811c911680156105a0575b602082101461049357601f811161053b575b506020601f82116001146104d457819293946000926104c9575b50508160011b916000199060031b1c1916176011555b51805191906001600160401b0383116104b357601254600181811c911680156104a9575b602082101461049357601f811161042e575b50602090601f84116001146103c35760ff9391600091836103b8575b50508160011b916000199060031b1c1916176012555b38610279565b01519050388061039c565b90601f198416916012600052816000209260005b818110610416575091600193918660ff9794106103fd575b505050811b016012556103b2565b015160001960f88460031b161c191690553880806103ef565b929360206001819287860151815501950193016103d7565b60126000527fbb8a6a4669ba250d26cd7a459eca9d215f8307e33aebe50379bc5a3617ec3444601f850160051c81019160208610610489575b601f0160051c01905b81811061047d5750610380565b60008155600101610470565b9091508190610467565b634e487b7160e01b600052602260045260246000fd5b90607f169061036e565b634e487b7160e01b600052604160045260246000fd5b015190503880610334565b601f198216906011600052806000209160005b8181106105235750958360019596971061050a575b505050811b0160115561034a565b015160001960f88460031b161c191690553880806104fc565b9192602060018192868b0151815501940192016104e7565b60116000527f31ecc21a745e3968a04e9570e4425bc18fa8019c68028196b546d1669c200c68601f830160051c81019160208410610596575b601f0160051c01905b81811061058a575061031a565b6000815560010161057d565b9091508190610574565b90607f1690610308565b63d92e233d60e01b60005260046000fd5b5084516001600160a01b03161561020a565b5083516001600160a01b031615610203565b5082516001600160a01b0316156101fc565b5081516001600160a01b0316156101f5565b631e4fbdf760e01b600052600060045260246000fd5b600080fd5b6040519190601f01601f191682016001600160401b038111838210176104b357604052565b51906001600160a01b038216820361061957565b81601f82011215610619578051906001600160401b0382116104b357610686601f8301601f191660200161061e565b92828452602083830101116106195760005b8281106106ad57505060206000918301015290565b8060208092840101518282870101520161069856fe608080604052600436101561001357600080fd5b60003560e01c908162b0938d1461256757508062fdd58e1461253f578063034a1c181461250957806306fdde031461244a57806313a4f0db146122eb57806314dda7fd1461227b5780631ff0769a14612224578063204ac7cc14611c345780632b20e39714611c0b5780632d94761014611403578063313ce567146113c55780633ec045a61461139c5780634f64b2be1461135a5780635c8b5f441461131b57806361832767146112f8578063715018a61461129357806375794a3c1461127557806379ba5097146111ec57806382f09ea214611114578063864eb164146110eb5780638da5cb5b146110c25780638daed5281461109957806391584d491461107457806395ad89e61461098957806395d89b4114610f6d578063a5566e2514610da5578063a865d5b214610c82578063aa6ca80814610bb6578063b39f252d14610b5a578063b7365f1f14610b29578063ba48747314610ad4578063c3a716eb14610aab578063cbf1304d14610a20578063e30c3978146109f7578063e5df8b84146109c3578063efd8be6214610989578063f2fde38b1461091a578063f4b2be44146102095763fc97a303146101ca57600080fd5b34610204576020366003190112610204576001600160a01b036101eb61258b565b1660005260046020526020604060002054604051908152f35b600080fd5b346102045736600319016104408112610204576103601361020457366104441161020457600a5415158061090d575b61024190612a05565b600954610258906001600160a01b03161515612a51565b60ff600354166108fc57600c54604051630b1fba9160e11b815233600482015290602090829060249082906001600160a01b03165afa9081156108a6576000916108dd575b50156108cc576102c76040516102b28161269e565b610104358152610124356020820152336133a7565b6102ea6040516102d68161269e565b610244358152610264356020820152613430565b601054604080516379f9173960e11b8152916001600160a01b03169060048084013781604460008183015b600282106108b25750505061036481602093604060c480840137610260610104808401375afa9081156108a657600091610877575b50156108665760405161035c8161269e565b6101443581526101643560208201526040516103778161269e565b6101843581526101a4356020820152604051916103938361269e565b825260208201526040516103a68161269e565b6101c43581526101e4356020820152604051906103c28261269e565b610204358252610224356020830152604051906103de8261269e565b815260208101918252604051906103f660e0836126d6565b600093610364835b6104448210610840575050610412906140ae565b3385526008602052604085208580526020526005604086200154604051906020820192835260408201526040815261044b6060826126d6565b519020903385526008602052604085208580526020526004604086200182865260205260ff6001604087200154169133865260086020526040862086805260205260046040872001908652602052604085205491156108315733855260086020526040852085805260205260408520936104f1604073__$3599097dbd61087c0ceb2349e224575c52$__93518151809381926327d3c56d60e11b83528a600484016137f8565b0381865af49081156108265787916107dd575b508051865560200151600186015551604080516327d3c56d60e11b81529260028701928491908290819061053c9087600484016137f8565b03915af49081156107d2578691610791575b6020925081519055015160038401553384526008602052604084208480526020526040842090600e82018054805b610678575050506005016105908154613907565b905561059c8333613fa3565b825b6007811061066157836040516105b560e0826126d6565b60e0368237815b60078110610607575060018060a01b0360095416906105de60405180926125b7565b7f047fabd75c92ead101dbbb10dd37a09c205f633da9db8ce7078c2f33e84710e560e03392a380f35b80600c0180600c1161064d576013811015610639579060019160051b61010401356106328285612aa0565b52016105bc565b634e487b7160e01b84526032600452602484fd5b634e487b7160e01b84526011600452602484fd5b60019060208351930192600782860101550161059e565b600019810181811161077d578360076106918386613881565b50015411156106c0575b5080156106ac57600019018061057c565b634e487b7160e01b87526011600452602487fd5b82546000198101908111610769576106db6106e39185613881565b509184613881565b9190916107275780820361074f575b50508154801561073b576000190161070a8184613881565b610727578061071e60078b9301809261389d565b5582558761069b565b634e487b7160e01b89526004899052602489fd5b634e487b7160e01b88526031600452602488fd5b60078161075d8293856140f3565b015491015587806106f2565b634e487b7160e01b89526011600452602489fd5b634e487b7160e01b88526011600452602488fd5b905060403d6040116107cb575b6107a881846126d6565b8201916040818403126107c7576020926107c191613465565b9061054e565b8680fd5b503d61079e565b6040513d88823e3d90fd5b905060403d60401161081f575b6107f481836126d6565b81019260408285031261081b57602061081261053c95604094613465565b92505092610504565b8780fd5b503d6107ea565b6040513d89823e3d90fd5b6309bde33960e01b8552600485fd5b81358152602091820191016103fe565b634e487b7160e01b600052604160045260246000fd5b6309bde33960e01b60005260046000fd5b610899915060203d60201161089f575b61089181836126d6565b81019061299e565b8161034a565b503d610887565b6040513d6000823e3d90fd5b829350604081816001949581943701930191018492610315565b632163950f60e01b60005260046000fd5b6108f6915060203d60201161089f5761089181836126d6565b8161029d565b631cc6a69960e11b60005260046000fd5b50600b5460011415610238565b346102045760203660031901126102045761093361258b565b61093b613393565b60018060a01b0316806001600160601b0360a01b600154161760015560018060a01b03600054167f38d16b8cac22d99fc7c124b9cd0de2d3fa1faef420bfe791d8c362d765e22700600080a3005b34610204576020366003190112610204576001600160a01b036109aa61258b565b1660005260156020526020604060002054604051908152f35b34610204576020366003190112610204576004356000526005602052602060018060a01b0360406000205416604051908152f35b34610204576000366003190112610204576001546040516001600160a01b039091168152602090f35b34610204576040366003190112610204576001600160a01b03610a4161258b565b166000526008602052604060002060243560005260205260c06040600020610a6881612814565b906006600582015491015490610a9f6040518094602080606092818151805187520151828601520151805160408501520151910152565b608083015260a0820152f35b34610204576000366003190112610204576010546040516001600160a01b039091168152602090f35b3461020457604036600319011261020457610aed61258b565b60243590600382101561020457610b02613393565b60018060a01b0316600052601460205260406000209060ff80198354169116179055600080f35b34610204576020366003190112610204576004356000526013602052602060ff604060002054166040519015158152f35b34610204576020366003190112610204576001600160a01b03610b7b61258b565b16600052601460205260ff604060002054166040516003821015610ba0576020918152f35b634e487b7160e01b600052602160045260246000fd5b34610204576000366003190112610204576040518060206006549283815201809260066000527ff652222313e28459528d920b65115c16c04f3efc82aaedc97be59f3f377c0d3f9060005b818110610c635750505081610c179103826126d6565b6040519182916020830190602084525180915260408301919060005b818110610c41575050500390f35b82516001600160a01b0316845285945060209384019390920191600101610c33565b82546001600160a01b0316845260209093019260019283019201610c01565b34610204576020366003190112610204576040610c9d61258b565b610ca5612840565b5060e090818351610cb682826126d6565b369037600091610cc4612840565b508351610cd182826126d6565b3690376001600160a01b031681526008602090815282822082805290522060058101546006820154600e83019290610d0882612814565b9184549067ffffffffffffffff82116108505760405191610d2f60208260051b01846126d6565b80835260208301966000526020600020966000905b828210610d705750505090610d5f6007610d6c949301612884565b90604051958695866125df565b0390f35b60086020600192604051610d838161269e565b610d8c8d612884565b815260078d015483820152815201990191019097610d44565b346102045761040036600319011261020457366023190161030081126102045761010060405191610dd58361269e565b1261020457604051610de6816126ba565b610df136602461277d565b81523660831215610204576040908151610e0b83826126d6565b803660e41161020457836064915b60e48310610f53575050506020820152610e343660e461277d565b828201528252366101431215610204578051610e52610200826126d6565b80366103241161020457610124905b6103248210610f43575050602083015236610343121561020457610e8736610324612741565b90600a54151580610f36575b610e9c90612a05565b600954610eb3906001600160a01b03161515612a51565b60ff60035416156108fc57600c548151630b1fba9160e11b815233600482015290602090829060249082906001600160a01b03165afa918215610f2c5750600091610f0d575b50156108cc57610f0b91600435612e38565b005b610f26915060203d60201161089f5761089181836126d6565b83610ef9565b513d6000823e3d90fd5b50600b5460011415610e93565b8135815260209182019101610e61565b602090610f60368561277d565b8152019101908490610e19565b346102045760003660031901126102045760006040519080601254908160011c9160018116801561106a575b6020841081146110565783865290811561102f5750600114610fd2575b610d6c84610fc6818603826126d6565b604051918291826126f8565b601281527fbb8a6a4669ba250d26cd7a459eca9d215f8307e33aebe50379bc5a3617ec3444939250905b80821061101557509091508101602001610fc682610fb6565b919260018160209254838588010152019101909291610ffc565b60ff191660208087019190915292151560051b85019092019250610fc69150839050610fb6565b634e487b7160e01b83526022600452602483fd5b92607f1692610f99565b34610204576000366003190112610204576040600a54600b5482519182526020820152f35b3461020457600036600319011261020457600f546040516001600160a01b039091168152602090f35b34610204576000366003190112610204576000546040516001600160a01b039091168152602090f35b3461020457600036600319011261020457600e546040516001600160a01b039091168152602090f35b610120366003190112610204576111296125a1565b36606312156102045761113d366044612741565b600a541515806111df575b61115190612a05565b600954611168906001600160a01b03161515612a51565b60ff60035416156108fc57600c54604051630b1fba9160e11b815233600482015290602090829060249082906001600160a01b03165afa9081156108a6576000916111c0575b50156108cc57610f0b91600435612b1a565b6111d9915060203d60201161089f5761089181836126d6565b836111ae565b50600b5460011415611148565b3461020457600036600319011261020457600154336001600160a01b039091160361126057600180546001600160a01b03199081169091556000805433928116831782556001600160a01b0316907f8be0079c531659141344cd1fd0a4f28419497f9722a3daafe3b4186f6b6457e09080a3005b63118cdaa760e01b6000523360045260246000fd5b34610204576000366003190112610204576020600254604051908152f35b34610204576000366003190112610204576112ac613393565b600180546001600160a01b0319908116909155600080549182168155906001600160a01b03167f8be0079c531659141344cd1fd0a4f28419497f9722a3daafe3b4186f6b6457e08280a3005b3461020457600036600319011261020457602060ff600354166040519015158152f35b34610204576020366003190112610204576001600160a01b0361133c61258b565b166000526007602052602060ff604060002054166040519015158152f35b3461020457602036600319011261020457600435600654811015610204576113836020916127c5565b905460405160039290921b1c6001600160a01b03168152f35b34610204576000366003190112610204576009546040516001600160a01b039091168152602090f35b3461020457600036600319011261020457602060405160ff7f0000000000000000000000000000000000000000000000000000000000000000168152f35b34610204576106203660031901126102045761141d61258b565b6024359036604319016105008112610204576101006040519161143f8361269e565b126102045760405191611451836126ba565b61145c36604461277d565b83523660a3121561020457604092835161147685826126d6565b80366101041161020457856084915b6101048310611bf15750505060208201526114a23661010461277d565b8482015282523661016312156102045782516114c0610400826126d6565b80366105441161020457610144905b6105448210611be157505060208301908152366106241161020457600a54151580611bd4575b6114fe90612a05565b600954611515906001600160a01b03161515612a51565b600c548451630b1fba9160e11b81523360048201526001600160a01b039091169390602081602481885afa908115611baa57600091611bb5575b50156108cc578451630b1fba9160e11b81526001600160a01b0384166004820181905294602090829060249082905afa908115611baa57600091611b8b575b50156108cc57816115e46116459351946115c088516115ac8161269e565b8751815260208801516020820152336133a7565b8751906115cc8261269e565b610140870151825261016087015160208301526133a7565b61160a86516115f28161269e565b6102e086015181526103008601516020820152613430565b60018060a01b03600f5416915161165981519261164f8960208501519401519151938a51978896630f3022c960e21b88526004880190612ac2565b6044860190612aea565b60c4840190612ac2565b600061010483015b60208210611b7157505050610504816020935afa908115611b6657600091611b47575b50156108665782516080810181811067ffffffffffffffff8211176108505784526116ad612840565b815260208101946116bc612840565b8652848201906116ca612840565b82526060830160e09387516116df86826126d6565b8536823782528786015160608701518951916116fa8361269e565b82526020820152608087015160a08801518a51916117178361269e565b8252602082015289519161172a8361269e565b82526020820152815260c0860151858701518951916117488361269e565b825260208201526101008701516101208801518a51916117678361269e565b8252602082015289519161177a8361269e565b8252602082015289526101808601516101a087015189519161179b8361269e565b825260208201526101c08701516101e08801518a51916117ba8361269e565b825260208201528951916117cd8361269e565b82526020820152845260005b60078110611b05575051975192519051928751906117f860e0836126d6565b600099610544835b6106248210611af557505090611818929185336134e3565b85885260086020528688208289526020528688209081541580611ae9575b156119a657602080828160039451805187550151600186015501518051600285015501519101555b848752600860205285872090875260205261191385872091600e600584015461188e61188986612814565b6140ae565b90895190602082019283528a8201528981526118ab6060826126d6565b519020936118f88a600160068401978c8954938151946118ca8661269e565b85526020850192848452815260048701602052209251835551151591019060ff801983541691151516179055565b84548951936119068561269e565b84526020840152016138b4565b61191d8154613907565b905583519161192c82846126d6565b81368437855b6007811061197b5750507f1fe42c57a12ee7d4848276c111f82c24fe213a94a603b21da88785cd882c9ccf9061197560018060a01b0360095416955180946125b7565b3392a480f35b806019018060191161077d579061199460019284612ab1565b5161199f8287612aa0565b5201611932565b73__$3599097dbd61087c0ceb2349e224575c52$__90886119dd818351815180938192637bb10bcb60e01b835289600484016137f8565b0381875af4908115611adf578c91611a9b575b5092602084611a2895518755015160018601556020600286019301519082518080968194637bb10bcb60e01b835287600484016137f8565b03915af4918215611a91578a92611a4f575b5081602091600393519055015191015561185e565b9150883d8a11611a8a575b611a6481846126d6565b8201908983830312611a8657611a7e602092600394613465565b925090611a3a565b8a80fd5b503d611a5a565b89513d8c823e3d90fd5b9190503d8b11611ad8575b611ab081836126d6565b8101928a82850312611ad4576020611acc611a28958d94613465565b9194506119f0565b8b80fd5b503d611aa6565b82513d8e823e3d90fd5b50600182015415611836565b8135815260209182019101611800565b806010019081601011611b3157611b1e60019289612ab1565b51611b2a828651612aa0565b52016117d9565b634e487b7160e01b600052601160045260246000fd5b611b60915060203d60201161089f5761089181836126d6565b85611684565b84513d6000823e3d90fd5b829350602080916001939451815201930191018492611661565b611ba4915060203d60201161089f5761089181836126d6565b8761158e565b86513d6000823e3d90fd5b611bce915060203d60201161089f5761089181836126d6565b8761154f565b50600b54600114156114f5565b81358152602091820191016114cf565b602090611bfe368561277d565b8152019101908690611485565b3461020457600036600319011261020457600c546040516001600160a01b039091168152602090f35b346102045761042036600319011261020457611c4e61258b565b61040036602319011261020457611c63613393565b600a54151580612217575b611c7790612a05565b600954611c8e906001600160a01b03161515612a51565b60ff600354166108fc57600c54604051630b1fba9160e11b81526001600160a01b03838116600483018190529260209183916024918391165afa9081156108a6576000916121f8575b50156108cc5760405191611ced610300846126d6565b82366104241161020457610124905b61042482106121e8575050825146036121d757604051611d3591611d1f8261269e565b60408501518252606085015160208301526133a7565b611d5c604051611d448161269e565b6101e084015181526102008401516020820152613430565b60208201517f30644e72e131a029b85045b68181585d2833e84879b9709143e1f593f00000018110156121c65780600052601360205260ff6040600020541661086657600d54604080516302680e2d60e51b8152916001600160a01b031690602460048401378160646000604483015b600282106121ac5750505061040481602093604060e460c48401376103006101246101048401375afa9081156108a65760009161218d575b50156108665760808301519060a084015160405192611e228461269e565b8352602083015260c08401519160e085015160405193611e418561269e565b8452602084015260405190611e558261269e565b81526020810192835260e09260405191611e6f85846126d6565b8436843760005b60078110612162575085600052600860205260406000206000805260205260406000209182541580612156575b156120265760209081600393518051865501516001850155518051600285015501519101555b836000526008602052604060002060008052602052611f7a604060002091600e6005840154611efa61188986612814565b906040519060208201928352604082015260408152611f1a6060826126d6565b51902093611f6b6006820195600187549160405192611f388461269e565b835260208301908282526000526004850160205260406000209251835551151591019060ff801983541691151516179055565b8454604051936119068561269e565b611f848154613907565b905560005260136020526040600020600160ff1982541617905560405192611fac82856126d6565b8136853760005b60078110611ffb5750507f0d78494055b7f1585d1e50d778838efd294162edeaf41569996739183722254b9060018060a01b036009541693611ff860405180926125b7565ba3005b806011019081601111611b315761201460019284612a8f565b5161201f8288612aa0565b5201611fb3565b61205c604073__$3599097dbd61087c0ceb2349e224575c52$__9351815180938192637bb10bcb60e01b835288600484016137f8565b0381865af49081156108a657600091612111575b50805184556020015160018401555160408051637bb10bcb60e01b8152926002850192849190829081906120a89087600484016137f8565b03915af49182156108a6576000926120d0575b50816020916003935190550151910155611ec9565b915060403d60401161210a575b6120e781846126d6565b82019060408383031261020457612102602092600394613465565b9250906120bb565b503d6120dd565b905060403d60401161214f575b61212881836126d6565b8101926040828503126102045760206121466120a895604094613465565b92505092612070565b503d61211e565b50600183015415611ea3565b806008019081600811611b315761217b6001928a612a8f565b516121868287612aa0565b5201611e76565b6121a6915060203d60201161089f5761089181836126d6565b84611e04565b829350604081816001949581943701930191018492611dcc565b632ec8265960e11b60005260046000fd5b633d23e4d160e11b60005260046000fd5b8135815260209182019101611cfc565b612211915060203d60201161089f5761089181836126d6565b83611cd7565b50600b5460011415611c6e565b346102045760403660031901126102045761223d61258b565b602435801515810361020457610f0b91612255613393565b60018060a01b0316600052600760205260406000209060ff801983541691151516179055565b3461020457604036600319011261020457610d6c6122db61229a61258b565b6122a26125a1565b6122aa612840565b5060e06040516122ba82826126d6565b3690376001600160a01b0316600090815260046020526040902054906128bb565b91604095939551958695866125df565b346102045760203660031901126102045761230461258b565b61230c613393565b600c54604051630b1fba9160e11b81526001600160a01b03928316600482018190529290911690602081602481855afa9081156108a65760009161242b575b50156108cc576040602491815192838092628918ff60e51b82528660048301525afa9081156108a6576000916123fc575b506009549082156123eb57826001600160601b0360a01b83161760095560208151910151908160206040516123b08161269e565b8381520152600a55600b556001600160a01b03167fdbeeb2970745c839058876b084c0d772566ff6b5aaa47938c394cd171a38c24c600080a3005b63d92e233d60e01b60005260046000fd5b61241e915060403d604011612424575b61241681836126d6565b8101906129b6565b8261237c565b503d61240c565b612444915060203d60201161089f5761089181836126d6565b8361234b565b346102045760003660031901126102045760006040519080601154908160011c916001811680156124ff575b6020841081146110565783865290811561102f57506001146124a257610d6c84610fc6818603826126d6565b601181527f31ecc21a745e3968a04e9570e4425bc18fa8019c68028196b546d1669c200c68939250905b8082106124e557509091508101602001610fc682610fb6565b9192600181602092548385880101520191019092916124cc565b92607f1692612476565b3461020457600036600319011261020457600a54151580612532575b6020906040519015158152f35b50600b5460011415612525565b3461020457604036600319011261020457610d6c6122db61255e61258b565b602435906128bb565b3461020457600036600319011261020457600d546001600160a01b03168152602090f35b600435906001600160a01b038216820361020457565b602435906001600160a01b038216820361020457565b906000905b600782106125c957505050565b60208060019285518152019301910190916125bc565b929195949395612612846101c0810193602080606092818151805187520151828601520151805160408501520151910152565b60808401526101c060a0840152815180915260206101e0840192019060005b818110612652575050509061264e6101a0929560c08301906125b7565b0152565b9091928351805182906000915b600783106126885750505061010060019260208093015160e08201520194019101919091612631565b602080600192845181520192019201919061265f565b6040810190811067ffffffffffffffff82111761085057604052565b6060810190811067ffffffffffffffff82111761085057604052565b90601f8019910116810190811067ffffffffffffffff82111761085057604052565b91909160208152825180602083015260005b81811061272b575060409293506000838284010152601f8019910116010190565b806020809287010151604082860101520161270a565b91906040519261275260e0856126d6565b839060e0810192831161020457905b82821061276d57505050565b8135815260209182019101612761565b9080601f830112156102045760408051929061279990846126d6565b82906040810192831161020457905b8282106127b55750505090565b81358152602091820191016127a8565b6006548110156127e057600660005260206000200190600090565b634e487b7160e01b600052603260045260246000fd5b906040516128038161269e565b602060018294805484520154910152565b906040516128218161269e565b602061283b60028395612833816127f6565b8552016127f6565b910152565b6040519061284d8261269e565b8160405161285a8161269e565b600081526000602082015281526020604051916128768361269e565b600083526000828401520152565b60405191906000835b600782106128a5575050506128a360e0836126d6565b565b600160208192855481520193019101909161288d565b6128c3612840565b5060e06040516128d382826126d6565b36903760018060a01b03166000526008602052604060002090600052602052604060002090600582015491600e81019160068201549061291283612814565b9493805467ffffffffffffffff8111610850576040519161293960208360051b01846126d6565b818352602083019060005260206000206000915b83831061296957505050506007612965919401612884565b9190565b6008602060019260405161297c8161269e565b61298586612884565b815260078601548382015281520192019201919061294d565b90816020910312610204575180151581036102045790565b906040828203126102045780601f830112156102045760408051926129db82856126d6565b8391810192831161020457905b8282106129f55750505090565b81518152602091820191016129e8565b15612a0c57565b60405162461bcd60e51b815260206004820152601a60248201527f41756469746f72207075626c6963206b6579206e6f74207365740000000000006044820152606490fd5b15612a5857565b60405162461bcd60e51b815260206004820152600f60248201526e105d591a5d1bdc881b9bdd081cd95d608a1b6044820152606490fd5b9060188110156127e05760051b0190565b9060078110156127e05760051b0190565b9060208110156127e05760051b0190565b906000905b60028210612ad457505050565b6020806001928551815201930191019091612ac7565b906000905b60028210612afc57505050565b6020604082612b0e6001948751612ac2565b01930191019091612aef565b916001600160a01b03821691908215612d045782600052600760205260ff60406000205416612cc8576040516370a0823160e01b8152306004820152602081602481875afa9081156108a657600091612c96575b50612ba96040516323b872dd60e01b602082015233602482015230604482015286606482015260648152612ba36084826126d6565b85614053565b6040516370a0823160e01b815230600482015290602082602481885afa80156108a6578692600091612c5d575b5090612be191613458565b03612c4c57612bf1918433613d5c565b918180612c3a575b505060405192835260208301526040820152600060608201527fd3b8abedf9b219788ce9c4431056d7d4b83973b9f7072ac174e1fe2479d1a2e760803392a2565b612c45913390613f55565b3881612bf9565b6312171d8360e31b60005260046000fd5b919250506020813d602011612c8e575b81612c7a602093836126d6565b810103126102045751859190612be1612bd6565b3d9150612c6d565b90506020813d602011612cc0575b81612cb1602093836126d6565b81010312610204575138612b6e565b3d9150612ca4565b60405162461bcd60e51b8152602060048201526014602482015273151bdad95b881a5cc8189b1858dadb1a5cdd195960621b6044820152606490fd5b915050813410612de2573360005260156020526040600020908154838101809111611b3157612d3592558233613916565b90823411612daf575b6040518381528260208201527f2d45cf213b0878e6582a0bddc676c202f8f57ed3cd74e8ccf8955ce1359bd42760403392a260405192835260208301526040820152600160608201527fd3b8abedf9b219788ce9c4431056d7d4b83973b9f7072ac174e1fe2479d1a2e760803392a2565b6000808080612dbe8734613458565b818115612dd9575b3390f1612d3e576040513d6000823e3d90fd5b506108fc612dc6565b60405162461bcd60e51b815260206004820152601e60248201527f496e73756666696369656e74206e617469766520746f6b656e2073656e7400006044820152606490fd5b9060108110156127e05760051b0190565b91906020810180519182519361164560405192612e548461269e565b602086019485518552612e72604088019586516020820152336133a7565b612e98604051612e818161269e565b60e089015181526101008901516020820152613430565b60018060a01b03600e54169151612ed581519261164f6040602085015194015191519360405197889663c82febf560e01b88526004880190612ac2565b600061010483015b6010821061337957505050610304816020935afa9081156108a65760009161335a575b50156108665760008681526005602052604090205485906001600160a01b0316156131ce57506000868152600560205260409020546001600160a01b03169283156131bd57608086612fe3946060880151938389015160405195612f638761269e565b8652602086015260a089015160c08a015160405191612f818361269e565b8252602082015260405195612f958761269e565b8652602086015251905160405191612fac8361269e565b825260208201908152604051630203469d60e11b815291516004830152516024820152604481019190915293849081906064820190565b038173__$3599097dbd61087c0ceb2349e224575c52$__5af49081156108a6576130179360009261318c575b5087336134e3565b60405163313ce56760e01b815290602082600481845afa9182156108a6576130999260ff9160009161315d575b507f000000000000000000000000000000000000000000000000000000000000000060ff169116858282111561312b57506130856130909261308a92613458565b613f95565b85613844565b905b3390613f55565b6040519060e06130a981846126d6565b36833760005b600781106131005750506009546040516001600160a01b039091169333937fae09dce9b789cf9600e6765940d134d8247429396faf72db0f7b33ed5ca8294c9383926130fb92846134c4565b0390a3565b806009019081600911611b315761311960019284612e27565b516131248286612aa0565b52016130af565b929180821061313c575b5050613092565b61315592935061314f9161308591613458565b85613857565b903880613135565b61317f915060203d602011613185575b61317781836126d6565b810190613d43565b38613044565b503d61316d565b6131af91925060803d6080116131b6575b6131a781836126d6565b81019061348d565b903861300f565b503d61319d565b638698bf3760e01b60005260046000fd5b60809061320c94929360608701519383880151604051956131ee8761269e565b8652602086015260a088015160c089015160405191612f818361269e565b038173__$3599097dbd61087c0ceb2349e224575c52$__5af49081156108a65761324093600092613339575b5086336134e3565b3360005260156020526040600020613259838254613458565b90558160008115613330575b600080809381933390f1156108a6576040519060e061328481846126d6565b36833760005b600781106133055750507fae09dce9b789cf9600e6765940d134d8247429396faf72db0f7b33ed5ca8294c906040518381528460208201527f02a25615d4309b997a752e7e0e81a331709124ed95ead4d561a1cd277785b54160403392a260018060a01b0360095416936130fb6040519283923396846134c4565b806009019081600911611b315761331e60019284612e27565b516133298286612aa0565b520161328a565b506108fc613265565b61335391925060803d6080116131b6576131a781836126d6565b9038613238565b613373915060203d60201161089f5761089181836126d6565b38612f00565b829350602080916001939451815201930191018492612edd565b6000546001600160a01b0316330361126057565b600c5460408051628918ff60e51b81526001600160a01b0393841660048201529392909184916024918391165afa9182156108a65760009261340f575b508151815114918215926133fb575b505061086657565b6020919250810151910151141538806133f3565b61342991925060403d6040116124245761241681836126d6565b90386133e4565b600a5481511490811591613446575b5061086657565b90506020600b5491015114153861343f565b91908203918211611b3157565b91908260409103126102045760405161347d8161269e565b6020808294805184520151910152565b90608082820312610204576134bc9060408051936134aa8561269e565b6134b48382613465565b855201613465565b602082015290565b6040906128a393959492956101208201968252602082015201906125b7565b90916134f1909493946140ae565b60018060a01b0382169081600052600860205260406000208460005260205260056040600020015460405190602082019283526040820152604081526135386060826126d6565b51902060008281526008602090815260408083208784528252808320938352600490930190522060018101549054919060ff16156108665780600052600860205260406000208460005260205260406000209573__$3599097dbd61087c0ceb2349e224575c52$__906135c2604082518151809381926327d3c56d60e11b83528d600484016137f8565b0381865af49081156108a6576000916137b3575b5061361092602082604093518c55015160018b0155602060028b0193015190825180809681946327d3c56d60e11b835287600484016137f8565b03915af49081156108a657600091613776575b6020925081519055015160038701556000526008602052604060002083600052602052604060002090600e82018054805b61369c5750505090600561367593920161366e8154613907565b9055613fa3565b60005b6007811061368557505050565b600190602083519301926007828601015501613678565b6000198101818111611b31578360076136b58386613881565b50015411156136d0575b508015611b31576000190180613654565b82546000198101908111611b31576106db6136eb9185613881565b9190916137305780820361375c575b50508154801561374657600019016137128184613881565b6137305780613727600760009301809261389d565b558255386136bf565b634e487b7160e01b600052600060045260246000fd5b634e487b7160e01b600052603160045260246000fd5b60078161376a8293856140f3565b015491015538806136fa565b905060403d6040116137ac575b61378d81846126d6565b820191604081840312610204576020926137a691613465565b90613623565b503d613783565b905060403d6040116137f1575b6137ca81836126d6565b8101926040828503126102045760206137e861361095604094613465565b925050926135d6565b503d6137c0565b90929160206060916001608085019680548652015482850152805160408501520151910152565b9060ff8091169116039060ff8211611b3157565b60ff16604d8111611b3157600a0a90565b81810292918115918404141715611b3157565b8115613861570490565b634e487b7160e01b600052601260045260246000fd5b8115613861570690565b80548210156127e05760005260206000209060031b0190600090565b8181106138a8575050565b6000815560010161389d565b8054600160401b811015610850576138d191600182018155613881565b91909161373057805160005b600781106138f357505060206007910151910155565b6001906020835193019281860155016138dd565b6000198114611b315760010190565b90929160008052600460205260406000205415613cbb575b600080805260046020527f17ef568e3e12ab5b9c7254a8d58478811de00f9e6eb34345acd53bf8fd09d3ec5494907f000000000000000000000000000000000000000000000000000000000000000060ff1690826012831015613c7957505060120360ff8111611b31576139a46139b491613833565b6139ae8184613857565b92613877565b925b8115613c7257600c5460408051628918ff60e51b81526001600160a01b038481166004830181905291959391929186916024918391165afa9182156108a657613a6694600093613c4e575b5060809073__$3599097dbd61087c0ceb2349e224575c52$__936020815191015160405191613a2f8361269e565b825260208201908152604051630203469d60e11b815291516004830152516024820152604481019190915294859081906064820190565b0381855af49081156108a6578894600092613c2d575b50600052600860205260406000208460005260205260406000209182541580613c21575b15613af05750612965946020808381613ae695518051885501516001870155015180516002860155015160038401555b600e60068401938454604051936119068561269e565b61366e8154613907565b9350613b1360408251815180938192637bb10bcb60e01b835287600484016137f8565b0381885af49081156108a657600091613bdc575b50613b6194602082604093518655015160018501556020600285019301519082518080988194637bb10bcb60e01b835287600484016137f8565b03915af49081156108a6578894600092613b91575b508151905560200151600382015561296593613ae690613ad0565b9150935060403d604011613bd5575b613baa81836126d6565b8101946040828703126102045760208995613bcb61296598613ae695613465565b9350919650613b76565b503d613ba0565b905060403d604011613c1a575b613bf381836126d6565b810194604082870312610204576020613c11613b6197604094613465565b92505094613b27565b503d613be9565b50600183015415613aa0565b613c4791925060803d6080116131b6576131a781836126d6565b9038613a7c565b6080919350613c6b9060403d6040116124245761241681836126d6565b9290613a01565b5050509190565b9290949180601210613c8d575b50506139b6565b9194509150601119019060ff8211611b3157613cab613cb192613833565b90613844565b6000923880613c86565b6002547f17ef568e3e12ab5b9c7254a8d58478811de00f9e6eb34345acd53bf8fd09d3ec819055600090815260056020526040902080546001600160a01b0319169055600654600160401b81101561085057806001613d1d92016006556127c5565b81549060018060a01b039060031b1b19169055613d3b600254613907565b60025561392e565b90816020910312610204575160ff811681036102045790565b60405163313ce56760e01b81529094936001600160a01b03909316929190602081600481875afa9081156108a657600091613f36575b507f00000000000000000000000000000000000000000000000000000000000000009060008360ff80851690841681811115613f005750505050613ddc613de1926139a49261381f565b613833565b925b80600052600460205260406000205415613e7f575b6000526004602052604060002054948115613c7257600c5460408051628918ff60e51b81526001600160a01b038481166004830181905291959391929186916024918391165afa9182156108a657613a6694600093613c4e575060809073__$3599097dbd61087c0ceb2349e224575c52$__936020815191015160405191613a2f8361269e565b6002548160005260046020528060406000205560005260056020526040600020816001600160601b0360a01b825416179055600654600160401b81101561085057806001613ed092016006556127c5565b81546001600160a01b0360039290921b91821b19169083901b179055600254613ef890613907565b600255613df8565b9794919593929710613f15575b505050613de3565b613cab92939650613f2b945090613ddc9161381f565b600092388080613f0d565b613f4f915060203d6020116131855761317781836126d6565b38613d92565b60405163a9059cbb60e01b60208201526001600160a01b0390921660248301526044808301939093529181526128a391613f906064836126d6565b614053565b604d8111611b3157600a0a90565b60018060a01b0316600052600860205260406000209060005260205260406000206140456005820154613fd861188984612814565b906040519060208201928352604082015260408152613ff86060826126d6565b51902091600160068201936004855493604051946140158661269e565b855260208501928484526000520160205260406000209251835551151591019060ff801983541691151516179055565b61404f8154613907565b9055565b906000602091828151910182855af1156108a6576000513d6140a557506001600160a01b0381163b155b6140845750565b635274afe760e01b60009081526001600160a01b0391909116600452602490fd5b6001141561407d565b805190602080835193015191015160208151910151906040519260208401948552604084015260608301526080820152608081526140ed60a0826126d6565b51902090565b9080821461412757908154906000915b600783106141115750505050565b6001809194019283549481840155019192614103565b505056fea264697066735822122085e0f42827e944e9ef4a5a757b2a583ff2eb317904066941e27efd3645e8430b64736f6c634300081b0033","opcodes":"PUSH1 0xA0 PUSH1 0x40 MSTORE CALLVALUE PUSH2 0x619 JUMPI PUSH2 0x4824 DUP1 CODESIZE SUB DUP1 PUSH2 0x19 DUP2 PUSH2 0x61E JUMP JUMPDEST SWAP3 DUP4 CODECOPY DUP2 ADD SWAP1 PUSH1 0x20 DUP2 DUP4 SUB SLT PUSH2 0x619 JUMPI DUP1 MLOAD SWAP1 PUSH1 0x1 PUSH1 0x1 PUSH1 0x40 SHL SUB DUP3 GT PUSH2 0x619 JUMPI ADD PUSH2 0x120 DUP2 DUP4 SUB SLT PUSH2 0x619 JUMPI PUSH1 0x40 MLOAD SWAP2 PUSH2 0x120 DUP4 ADD PUSH1 0x1 PUSH1 0x1 PUSH1 0x40 SHL SUB DUP2 GT DUP5 DUP3 LT OR PUSH2 0x4B3 JUMPI PUSH1 0x40 MSTORE PUSH2 0x6D DUP3 PUSH2 0x643 JUMP JUMPDEST DUP4 MSTORE PUSH1 0x20 DUP3 ADD MLOAD DUP1 ISZERO ISZERO DUP2 SUB PUSH2 0x619 JUMPI PUSH1 0x20 DUP5 ADD SWAP1 DUP2 MSTORE PUSH1 0x40 DUP4 ADD MLOAD PUSH1 0x1 PUSH1 0x1 PUSH1 0x40 SHL SUB DUP2 GT PUSH2 0x619 JUMPI DUP3 PUSH2 0xA3 SWAP2 DUP6 ADD PUSH2 0x657 JUMP JUMPDEST PUSH1 0x40 DUP6 ADD SWAP1 DUP2 MSTORE PUSH1 0x60 DUP5 ADD MLOAD SWAP1 SWAP3 PUSH1 0x1 PUSH1 0x1 PUSH1 0x40 SHL SUB DUP3 GT PUSH2 0x619 JUMPI PUSH2 0xCA SWAP2 DUP6 ADD PUSH2 0x657 JUMP JUMPDEST SWAP4 PUSH1 0x60 DUP2 ADD SWAP5 DUP6 MSTORE PUSH1 0x80 DUP5 ADD MLOAD SWAP4 PUSH1 0xFF DUP6 AND DUP6 SUB PUSH2 0x619 JUMPI PUSH1 0x80 DUP3 ADD SWAP5 DUP6 MSTORE PUSH2 0xF5 PUSH1 0xA0 DUP3 ADD PUSH2 0x643 JUMP JUMPDEST PUSH1 0xA0 DUP4 ADD SWAP1 DUP2 MSTORE PUSH2 0x108 PUSH1 0xC0 DUP4 ADD PUSH2 0x643 JUMP JUMPDEST SWAP1 PUSH1 0xC0 DUP5 ADD SWAP2 DUP3 MSTORE PUSH2 0x130 PUSH2 0x100 PUSH2 0x122 PUSH1 0xE0 DUP7 ADD PUSH2 0x643 JUMP JUMPDEST SWAP5 PUSH1 0xE0 DUP8 ADD SWAP6 DUP7 MSTORE ADD PUSH2 0x643 JUMP JUMPDEST SWAP4 PUSH2 0x100 DUP2 ADD SWAP5 DUP6 MSTORE DUP6 MLOAD ISZERO ISZERO CALLER ISZERO PUSH2 0x603 JUMPI PUSH1 0x1 DUP1 SLOAD PUSH1 0x1 PUSH1 0x1 PUSH1 0xA0 SHL SUB NOT SWAP1 DUP2 AND SWAP1 SWAP2 SSTORE PUSH1 0x0 DUP1 SLOAD CALLER SWAP3 DUP2 AND DUP4 OR DUP3 SSTORE PUSH1 0x1 PUSH1 0x1 PUSH1 0xA0 SHL SUB AND SWAP1 PUSH32 0x8BE0079C531659141344CD1FD0A4F28419497F9722A3DAAFE3B4186F6B6457E0 SWAP1 DUP1 LOG3 PUSH1 0x1 PUSH1 0x2 SSTORE PUSH1 0xFF DUP1 NOT PUSH1 0x3 SLOAD AND SWAP2 AND OR PUSH1 0x3 SSTORE PUSH1 0x1 DUP1 PUSH1 0xA0 SHL SUB NOT PUSH1 0x9 SLOAD AND PUSH1 0x9 SSTORE PUSH1 0x40 MLOAD PUSH1 0x40 DUP2 ADD DUP2 DUP2 LT PUSH1 0x1 DUP1 PUSH1 0x40 SHL SUB DUP3 GT OR PUSH2 0x4B3 JUMPI PUSH1 0x40 MSTORE PUSH1 0x0 DUP1 DUP3 MSTORE PUSH1 0x20 SWAP1 SWAP2 ADD DUP2 SWAP1 MSTORE PUSH1 0xA DUP2 SWAP1 SSTORE PUSH1 0xB SSTORE DUP1 MLOAD PUSH1 0x1 PUSH1 0x1 PUSH1 0xA0 SHL SUB AND ISZERO DUP1 ISZERO PUSH2 0x5F1 JUMPI JUMPDEST DUP1 ISZERO PUSH2 0x5DF JUMPI JUMPDEST DUP1 ISZERO PUSH2 0x5CD JUMPI JUMPDEST DUP1 ISZERO PUSH2 0x5BB JUMPI JUMPDEST PUSH2 0x5AA JUMPI MLOAD PUSH1 0xC DUP1 SLOAD PUSH1 0x1 PUSH1 0x1 PUSH1 0xA0 SHL SUB NOT SWAP1 DUP2 AND PUSH1 0x1 PUSH1 0x1 PUSH1 0xA0 SHL SUB SWAP4 DUP5 AND OR SWAP1 SWAP2 SSTORE SWAP2 MLOAD PUSH1 0xD DUP1 SLOAD DUP5 AND SWAP2 DUP4 AND SWAP2 SWAP1 SWAP2 OR SWAP1 SSTORE SWAP2 MLOAD PUSH1 0xE DUP1 SLOAD DUP4 AND SWAP2 DUP5 AND SWAP2 SWAP1 SWAP2 OR SWAP1 SSTORE SWAP2 MLOAD PUSH1 0xF DUP1 SLOAD DUP5 AND SWAP2 DUP4 AND SWAP2 SWAP1 SWAP2 OR SWAP1 SSTORE SWAP2 MLOAD PUSH1 0x10 DUP1 SLOAD SWAP1 SWAP3 AND SWAP3 AND SWAP2 SWAP1 SWAP2 OR SWAP1 SSTORE MLOAD ISZERO PUSH2 0x2E3 JUMPI JUMPDEST DUP2 MLOAD PUSH1 0xFF AND PUSH1 0x80 MSTORE PUSH1 0x0 DUP1 MSTORE PUSH1 0x14 PUSH1 0x20 MSTORE PUSH32 0x4F26C3876AA9F4B92579780BEEA1161A61F87EBF1EC6EE865B299E447ECBA99C DUP1 SLOAD PUSH1 0xFF NOT AND PUSH1 0x1 OR SWAP1 SSTORE PUSH1 0x40 MLOAD PUSH2 0x4161 SWAP1 DUP2 PUSH2 0x6C3 DUP3 CODECOPY PUSH1 0x80 MLOAD DUP2 DUP2 DUP2 PUSH2 0x13DF ADD MSTORE DUP2 DUP2 PUSH2 0x3047 ADD MSTORE DUP2 DUP2 PUSH2 0x395E ADD MSTORE PUSH2 0x3D95 ADD MSTORE RETURN JUMPDEST MLOAD DUP1 MLOAD SWAP1 SWAP3 SWAP1 PUSH1 0x1 PUSH1 0x1 PUSH1 0x40 SHL SUB DUP2 GT PUSH2 0x4B3 JUMPI PUSH1 0x11 SLOAD PUSH1 0x1 DUP2 DUP2 SHR SWAP2 AND DUP1 ISZERO PUSH2 0x5A0 JUMPI JUMPDEST PUSH1 0x20 DUP3 LT EQ PUSH2 0x493 JUMPI PUSH1 0x1F DUP2 GT PUSH2 0x53B JUMPI JUMPDEST POP PUSH1 0x20 PUSH1 0x1F DUP3 GT PUSH1 0x1 EQ PUSH2 0x4D4 JUMPI DUP2 SWAP3 SWAP4 SWAP5 PUSH1 0x0 SWAP3 PUSH2 0x4C9 JUMPI JUMPDEST POP POP DUP2 PUSH1 0x1 SHL SWAP2 PUSH1 0x0 NOT SWAP1 PUSH1 0x3 SHL SHR NOT AND OR PUSH1 0x11 SSTORE JUMPDEST MLOAD DUP1 MLOAD SWAP2 SWAP1 PUSH1 0x1 PUSH1 0x1 PUSH1 0x40 SHL SUB DUP4 GT PUSH2 0x4B3 JUMPI PUSH1 0x12 SLOAD PUSH1 0x1 DUP2 DUP2 SHR SWAP2 AND DUP1 ISZERO PUSH2 0x4A9 JUMPI JUMPDEST PUSH1 0x20 DUP3 LT EQ PUSH2 0x493 JUMPI PUSH1 0x1F DUP2 GT PUSH2 0x42E JUMPI JUMPDEST POP PUSH1 0x20 SWAP1 PUSH1 0x1F DUP5 GT PUSH1 0x1 EQ PUSH2 0x3C3 JUMPI PUSH1 0xFF SWAP4 SWAP2 PUSH1 0x0 SWAP2 DUP4 PUSH2 0x3B8 JUMPI JUMPDEST POP POP DUP2 PUSH1 0x1 SHL SWAP2 PUSH1 0x0 NOT SWAP1 PUSH1 0x3 SHL SHR NOT AND OR PUSH1 0x12 SSTORE JUMPDEST CODESIZE PUSH2 0x279 JUMP JUMPDEST ADD MLOAD SWAP1 POP CODESIZE DUP1 PUSH2 0x39C JUMP JUMPDEST SWAP1 PUSH1 0x1F NOT DUP5 AND SWAP2 PUSH1 0x12 PUSH1 0x0 MSTORE DUP2 PUSH1 0x0 KECCAK256 SWAP3 PUSH1 0x0 JUMPDEST DUP2 DUP2 LT PUSH2 0x416 JUMPI POP SWAP2 PUSH1 0x1 SWAP4 SWAP2 DUP7 PUSH1 0xFF SWAP8 SWAP5 LT PUSH2 0x3FD JUMPI JUMPDEST POP POP POP DUP2 SHL ADD PUSH1 0x12 SSTORE PUSH2 0x3B2 JUMP JUMPDEST ADD MLOAD PUSH1 0x0 NOT PUSH1 0xF8 DUP5 PUSH1 0x3 SHL AND SHR NOT AND SWAP1 SSTORE CODESIZE DUP1 DUP1 PUSH2 0x3EF JUMP JUMPDEST SWAP3 SWAP4 PUSH1 0x20 PUSH1 0x1 DUP2 SWAP3 DUP8 DUP7 ADD MLOAD DUP2 SSTORE ADD SWAP6 ADD SWAP4 ADD PUSH2 0x3D7 JUMP JUMPDEST PUSH1 0x12 PUSH1 0x0 MSTORE PUSH32 0xBB8A6A4669BA250D26CD7A459ECA9D215F8307E33AEBE50379BC5A3617EC3444 PUSH1 0x1F DUP6 ADD PUSH1 0x5 SHR DUP2 ADD SWAP2 PUSH1 0x20 DUP7 LT PUSH2 0x489 JUMPI JUMPDEST PUSH1 0x1F ADD PUSH1 0x5 SHR ADD SWAP1 JUMPDEST DUP2 DUP2 LT PUSH2 0x47D JUMPI POP PUSH2 0x380 JUMP JUMPDEST PUSH1 0x0 DUP2 SSTORE PUSH1 0x1 ADD PUSH2 0x470 JUMP JUMPDEST SWAP1 SWAP2 POP DUP2 SWAP1 PUSH2 0x467 JUMP JUMPDEST PUSH4 0x4E487B71 PUSH1 0xE0 SHL PUSH1 0x0 MSTORE PUSH1 0x22 PUSH1 0x4 MSTORE PUSH1 0x24 PUSH1 0x0 REVERT JUMPDEST SWAP1 PUSH1 0x7F AND SWAP1 PUSH2 0x36E JUMP JUMPDEST PUSH4 0x4E487B71 PUSH1 0xE0 SHL PUSH1 0x0 MSTORE PUSH1 0x41 PUSH1 0x4 MSTORE PUSH1 0x24 PUSH1 0x0 REVERT JUMPDEST ADD MLOAD SWAP1 POP CODESIZE DUP1 PUSH2 0x334 JUMP JUMPDEST PUSH1 0x1F NOT DUP3 AND SWAP1 PUSH1 0x11 PUSH1 0x0 MSTORE DUP1 PUSH1 0x0 KECCAK256 SWAP2 PUSH1 0x0 JUMPDEST DUP2 DUP2 LT PUSH2 0x523 JUMPI POP SWAP6 DUP4 PUSH1 0x1 SWAP6 SWAP7 SWAP8 LT PUSH2 0x50A JUMPI JUMPDEST POP POP POP DUP2 SHL ADD PUSH1 0x11 SSTORE PUSH2 0x34A JUMP JUMPDEST ADD MLOAD PUSH1 0x0 NOT PUSH1 0xF8 DUP5 PUSH1 0x3 SHL AND SHR NOT AND SWAP1 SSTORE CODESIZE DUP1 DUP1 PUSH2 0x4FC JUMP JUMPDEST SWAP2 SWAP3 PUSH1 0x20 PUSH1 0x1 DUP2 SWAP3 DUP7 DUP12 ADD MLOAD DUP2 SSTORE ADD SWAP5 ADD SWAP3 ADD PUSH2 0x4E7 JUMP JUMPDEST PUSH1 0x11 PUSH1 0x0 MSTORE PUSH32 0x31ECC21A745E3968A04E9570E4425BC18FA8019C68028196B546D1669C200C68 PUSH1 0x1F DUP4 ADD PUSH1 0x5 SHR DUP2 ADD SWAP2 PUSH1 0x20 DUP5 LT PUSH2 0x596 JUMPI JUMPDEST PUSH1 0x1F ADD PUSH1 0x5 SHR ADD SWAP1 JUMPDEST DUP2 DUP2 LT PUSH2 0x58A JUMPI POP PUSH2 0x31A JUMP JUMPDEST PUSH1 0x0 DUP2 SSTORE PUSH1 0x1 ADD PUSH2 0x57D JUMP JUMPDEST SWAP1 SWAP2 POP DUP2 SWAP1 PUSH2 0x574 JUMP JUMPDEST SWAP1 PUSH1 0x7F AND SWAP1 PUSH2 0x308 JUMP JUMPDEST PUSH4 0xD92E233D PUSH1 0xE0 SHL PUSH1 0x0 MSTORE PUSH1 0x4 PUSH1 0x0 REVERT JUMPDEST POP DUP5 MLOAD PUSH1 0x1 PUSH1 0x1 PUSH1 0xA0 SHL SUB AND ISZERO PUSH2 0x20A JUMP JUMPDEST POP DUP4 MLOAD PUSH1 0x1 PUSH1 0x1 PUSH1 0xA0 SHL SUB AND ISZERO PUSH2 0x203 JUMP JUMPDEST POP DUP3 MLOAD PUSH1 0x1 PUSH1 0x1 PUSH1 0xA0 SHL SUB AND ISZERO PUSH2 0x1FC JUMP JUMPDEST POP DUP2 MLOAD PUSH1 0x1 PUSH1 0x1 PUSH1 0xA0 SHL SUB AND ISZERO PUSH2 0x1F5 JUMP JUMPDEST PUSH4 0x1E4FBDF7 PUSH1 0xE0 SHL PUSH1 0x0 MSTORE PUSH1 0x0 PUSH1 0x4 MSTORE PUSH1 0x24 PUSH1 0x0 REVERT JUMPDEST PUSH1 0x0 DUP1 REVERT JUMPDEST PUSH1 0x40 MLOAD SWAP2 SWAP1 PUSH1 0x1F ADD PUSH1 0x1F NOT AND DUP3 ADD PUSH1 0x1 PUSH1 0x1 PUSH1 0x40 SHL SUB DUP2 GT DUP4 DUP3 LT OR PUSH2 0x4B3 JUMPI PUSH1 0x40 MSTORE JUMP JUMPDEST MLOAD SWAP1 PUSH1 0x1 PUSH1 0x1 PUSH1 0xA0 SHL SUB DUP3 AND DUP3 SUB PUSH2 0x619 JUMPI JUMP JUMPDEST DUP2 PUSH1 0x1F DUP3 ADD SLT ISZERO PUSH2 0x619 JUMPI DUP1 MLOAD SWAP1 PUSH1 0x1 PUSH1 0x1 PUSH1 0x40 SHL SUB DUP3 GT PUSH2 0x4B3 JUMPI PUSH2 0x686 PUSH1 0x1F DUP4 ADD PUSH1 0x1F NOT AND PUSH1 0x20 ADD PUSH2 0x61E JUMP JUMPDEST SWAP3 DUP3 DUP5 MSTORE PUSH1 0x20 DUP4 DUP4 ADD ADD GT PUSH2 0x619 JUMPI PUSH1 0x0 JUMPDEST DUP3 DUP2 LT PUSH2 0x6AD JUMPI POP POP PUSH1 0x20 PUSH1 0x0 SWAP2 DUP4 ADD ADD MSTORE SWAP1 JUMP JUMPDEST DUP1 PUSH1 0x20 DUP1 SWAP3 DUP5 ADD ADD MLOAD DUP3 DUP3 DUP8 ADD ADD MSTORE ADD PUSH2 0x698 JUMP INVALID PUSH1 0x80 DUP1 PUSH1 0x40 MSTORE PUSH1 0x4 CALLDATASIZE LT ISZERO PUSH2 0x13 JUMPI PUSH1 0x0 DUP1 REVERT JUMPDEST PUSH1 0x0 CALLDATALOAD PUSH1 0xE0 SHR SWAP1 DUP2 PUSH3 0xB0938D EQ PUSH2 0x2567 JUMPI POP DUP1 PUSH3 0xFDD58E EQ PUSH2 0x253F JUMPI DUP1 PUSH4 0x34A1C18 EQ PUSH2 0x2509 JUMPI DUP1 PUSH4 0x6FDDE03 EQ PUSH2 0x244A JUMPI DUP1 PUSH4 0x13A4F0DB EQ PUSH2 0x22EB JUMPI DUP1 PUSH4 0x14DDA7FD EQ PUSH2 0x227B JUMPI DUP1 PUSH4 0x1FF0769A EQ PUSH2 0x2224 JUMPI DUP1 PUSH4 0x204AC7CC EQ PUSH2 0x1C34 JUMPI DUP1 PUSH4 0x2B20E397 EQ PUSH2 0x1C0B JUMPI DUP1 PUSH4 0x2D947610 EQ PUSH2 0x1403 JUMPI DUP1 PUSH4 0x313CE567 EQ PUSH2 0x13C5 JUMPI DUP1 PUSH4 0x3EC045A6 EQ PUSH2 0x139C JUMPI DUP1 PUSH4 0x4F64B2BE EQ PUSH2 0x135A JUMPI DUP1 PUSH4 0x5C8B5F44 EQ PUSH2 0x131B JUMPI DUP1 PUSH4 0x61832767 EQ PUSH2 0x12F8 JUMPI DUP1 PUSH4 0x715018A6 EQ PUSH2 0x1293 JUMPI DUP1 PUSH4 0x75794A3C EQ PUSH2 0x1275 JUMPI DUP1 PUSH4 0x79BA5097 EQ PUSH2 0x11EC JUMPI DUP1 PUSH4 0x82F09EA2 EQ PUSH2 0x1114 JUMPI DUP1 PUSH4 0x864EB164 EQ PUSH2 0x10EB JUMPI DUP1 PUSH4 0x8DA5CB5B EQ PUSH2 0x10C2 JUMPI DUP1 PUSH4 0x8DAED528 EQ PUSH2 0x1099 JUMPI DUP1 PUSH4 0x91584D49 EQ PUSH2 0x1074 JUMPI DUP1 PUSH4 0x95AD89E6 EQ PUSH2 0x989 JUMPI DUP1 PUSH4 0x95D89B41 EQ PUSH2 0xF6D JUMPI DUP1 PUSH4 0xA5566E25 EQ PUSH2 0xDA5 JUMPI DUP1 PUSH4 0xA865D5B2 EQ PUSH2 0xC82 JUMPI DUP1 PUSH4 0xAA6CA808 EQ PUSH2 0xBB6 JUMPI DUP1 PUSH4 0xB39F252D EQ PUSH2 0xB5A JUMPI DUP1 PUSH4 0xB7365F1F EQ PUSH2 0xB29 JUMPI DUP1 PUSH4 0xBA487473 EQ PUSH2 0xAD4 JUMPI DUP1 PUSH4 0xC3A716EB EQ PUSH2 0xAAB JUMPI DUP1 PUSH4 0xCBF1304D EQ PUSH2 0xA20 JUMPI DUP1 PUSH4 0xE30C3978 EQ PUSH2 0x9F7 JUMPI DUP1 PUSH4 0xE5DF8B84 EQ PUSH2 0x9C3 JUMPI DUP1 PUSH4 0xEFD8BE62 EQ PUSH2 0x989 JUMPI DUP1 PUSH4 0xF2FDE38B EQ PUSH2 0x91A JUMPI DUP1 PUSH4 0xF4B2BE44 EQ PUSH2 0x209 JUMPI PUSH4 0xFC97A303 EQ PUSH2 0x1CA JUMPI PUSH1 0x0 DUP1 REVERT JUMPDEST CALLVALUE PUSH2 0x204 JUMPI PUSH1 0x20 CALLDATASIZE PUSH1 0x3 NOT ADD SLT PUSH2 0x204 JUMPI PUSH1 0x1 PUSH1 0x1 PUSH1 0xA0 SHL SUB PUSH2 0x1EB PUSH2 0x258B JUMP JUMPDEST AND PUSH1 0x0 MSTORE PUSH1 0x4 PUSH1 0x20 MSTORE PUSH1 0x20 PUSH1 0x40 PUSH1 0x0 KECCAK256 SLOAD PUSH1 0x40 MLOAD SWAP1 DUP2 MSTORE RETURN JUMPDEST PUSH1 0x0 DUP1 REVERT JUMPDEST CALLVALUE PUSH2 0x204 JUMPI CALLDATASIZE PUSH1 0x3 NOT ADD PUSH2 0x440 DUP2 SLT PUSH2 0x204 JUMPI PUSH2 0x360 SGT PUSH2 0x204 JUMPI CALLDATASIZE PUSH2 0x444 GT PUSH2 0x204 JUMPI PUSH1 0xA SLOAD ISZERO ISZERO DUP1 PUSH2 0x90D JUMPI JUMPDEST PUSH2 0x241 SWAP1 PUSH2 0x2A05 JUMP JUMPDEST PUSH1 0x9 SLOAD PUSH2 0x258 SWAP1 PUSH1 0x1 PUSH1 0x1 PUSH1 0xA0 SHL SUB AND ISZERO ISZERO PUSH2 0x2A51 JUMP JUMPDEST PUSH1 0xFF PUSH1 0x3 SLOAD AND PUSH2 0x8FC JUMPI PUSH1 0xC SLOAD PUSH1 0x40 MLOAD PUSH4 0xB1FBA91 PUSH1 0xE1 SHL DUP2 MSTORE CALLER PUSH1 0x4 DUP3 ADD MSTORE SWAP1 PUSH1 0x20 SWAP1 DUP3 SWAP1 PUSH1 0x24 SWAP1 DUP3 SWAP1 PUSH1 0x1 PUSH1 0x1 PUSH1 0xA0 SHL SUB AND GAS STATICCALL SWAP1 DUP2 ISZERO PUSH2 0x8A6 JUMPI PUSH1 0x0 SWAP2 PUSH2 0x8DD JUMPI JUMPDEST POP ISZERO PUSH2 0x8CC JUMPI PUSH2 0x2C7 PUSH1 0x40 MLOAD PUSH2 0x2B2 DUP2 PUSH2 0x269E JUMP JUMPDEST PUSH2 0x104 CALLDATALOAD DUP2 MSTORE PUSH2 0x124 CALLDATALOAD PUSH1 0x20 DUP3 ADD MSTORE CALLER PUSH2 0x33A7 JUMP JUMPDEST PUSH2 0x2EA PUSH1 0x40 MLOAD PUSH2 0x2D6 DUP2 PUSH2 0x269E JUMP JUMPDEST PUSH2 0x244 CALLDATALOAD DUP2 MSTORE PUSH2 0x264 CALLDATALOAD PUSH1 0x20 DUP3 ADD MSTORE PUSH2 0x3430 JUMP JUMPDEST PUSH1 0x10 SLOAD PUSH1 0x40 DUP1 MLOAD PUSH4 0x79F91739 PUSH1 0xE1 SHL DUP2 MSTORE SWAP2 PUSH1 0x1 PUSH1 0x1 PUSH1 0xA0 SHL SUB AND SWAP1 PUSH1 0x4 DUP1 DUP5 ADD CALLDATACOPY DUP2 PUSH1 0x44 PUSH1 0x0 DUP2 DUP4 ADD JUMPDEST PUSH1 0x2 DUP3 LT PUSH2 0x8B2 JUMPI POP POP POP PUSH2 0x364 DUP2 PUSH1 0x20 SWAP4 PUSH1 0x40 PUSH1 0xC4 DUP1 DUP5 ADD CALLDATACOPY PUSH2 0x260 PUSH2 0x104 DUP1 DUP5 ADD CALLDATACOPY GAS STATICCALL SWAP1 DUP2 ISZERO PUSH2 0x8A6 JUMPI PUSH1 0x0 SWAP2 PUSH2 0x877 JUMPI JUMPDEST POP ISZERO PUSH2 0x866 JUMPI PUSH1 0x40 MLOAD PUSH2 0x35C DUP2 PUSH2 0x269E JUMP JUMPDEST PUSH2 0x144 CALLDATALOAD DUP2 MSTORE PUSH2 0x164 CALLDATALOAD PUSH1 0x20 DUP3 ADD MSTORE PUSH1 0x40 MLOAD PUSH2 0x377 DUP2 PUSH2 0x269E JUMP JUMPDEST PUSH2 0x184 CALLDATALOAD DUP2 MSTORE PUSH2 0x1A4 CALLDATALOAD PUSH1 0x20 DUP3 ADD MSTORE PUSH1 0x40 MLOAD SWAP2 PUSH2 0x393 DUP4 PUSH2 0x269E JUMP JUMPDEST DUP3 MSTORE PUSH1 0x20 DUP3 ADD MSTORE PUSH1 0x40 MLOAD PUSH2 0x3A6 DUP2 PUSH2 0x269E JUMP JUMPDEST PUSH2 0x1C4 CALLDATALOAD DUP2 MSTORE PUSH2 0x1E4 CALLDATALOAD PUSH1 0x20 DUP3 ADD MSTORE PUSH1 0x40 MLOAD SWAP1 PUSH2 0x3C2 DUP3 PUSH2 0x269E JUMP JUMPDEST PUSH2 0x204 CALLDATALOAD DUP3 MSTORE PUSH2 0x224 CALLDATALOAD PUSH1 0x20 DUP4 ADD MSTORE PUSH1 0x40 MLOAD SWAP1 PUSH2 0x3DE DUP3 PUSH2 0x269E JUMP JUMPDEST DUP2 MSTORE PUSH1 0x20 DUP2 ADD SWAP2 DUP3 MSTORE PUSH1 0x40 MLOAD SWAP1 PUSH2 0x3F6 PUSH1 0xE0 DUP4 PUSH2 0x26D6 JUMP JUMPDEST PUSH1 0x0 SWAP4 PUSH2 0x364 DUP4 JUMPDEST PUSH2 0x444 DUP3 LT PUSH2 0x840 JUMPI POP POP PUSH2 0x412 SWAP1 PUSH2 0x40AE JUMP JUMPDEST CALLER DUP6 MSTORE PUSH1 0x8 PUSH1 0x20 MSTORE PUSH1 0x40 DUP6 KECCAK256 DUP6 DUP1 MSTORE PUSH1 0x20 MSTORE PUSH1 0x5 PUSH1 0x40 DUP7 KECCAK256 ADD SLOAD PUSH1 0x40 MLOAD SWAP1 PUSH1 0x20 DUP3 ADD SWAP3 DUP4 MSTORE PUSH1 0x40 DUP3 ADD MSTORE PUSH1 0x40 DUP2 MSTORE PUSH2 0x44B PUSH1 0x60 DUP3 PUSH2 0x26D6 JUMP JUMPDEST MLOAD SWAP1 KECCAK256 SWAP1 CALLER DUP6 MSTORE PUSH1 0x8 PUSH1 0x20 MSTORE PUSH1 0x40 DUP6 KECCAK256 DUP6 DUP1 MSTORE PUSH1 0x20 MSTORE PUSH1 0x4 PUSH1 0x40 DUP7 KECCAK256 ADD DUP3 DUP7 MSTORE PUSH1 0x20 MSTORE PUSH1 0xFF PUSH1 0x1 PUSH1 0x40 DUP8 KECCAK256 ADD SLOAD AND SWAP2 CALLER DUP7 MSTORE PUSH1 0x8 PUSH1 0x20 MSTORE PUSH1 0x40 DUP7 KECCAK256 DUP7 DUP1 MSTORE PUSH1 0x20 MSTORE PUSH1 0x4 PUSH1 0x40 DUP8 KECCAK256 ADD SWAP1 DUP7 MSTORE PUSH1 0x20 MSTORE PUSH1 0x40 DUP6 KECCAK256 SLOAD SWAP2 ISZERO PUSH2 0x831 JUMPI CALLER DUP6 MSTORE PUSH1 0x8 PUSH1 0x20 MSTORE PUSH1 0x40 DUP6 KECCAK256 DUP6 DUP1 MSTORE PUSH1 0x20 MSTORE PUSH1 0x40 DUP6 KECCAK256 SWAP4 PUSH2 0x4F1 PUSH1 0x40 PUSH20 0x0 SWAP4 MLOAD DUP2 MLOAD DUP1 SWAP4 DUP2 SWAP3 PUSH4 0x27D3C56D PUSH1 0xE1 SHL DUP4 MSTORE DUP11 PUSH1 0x4 DUP5 ADD PUSH2 0x37F8 JUMP JUMPDEST SUB DUP2 DUP7 GAS DELEGATECALL SWAP1 DUP2 ISZERO PUSH2 0x826 JUMPI DUP8 SWAP2 PUSH2 0x7DD JUMPI JUMPDEST POP DUP1 MLOAD DUP7 SSTORE PUSH1 0x20 ADD MLOAD PUSH1 0x1 DUP7 ADD SSTORE MLOAD PUSH1 0x40 DUP1 MLOAD PUSH4 0x27D3C56D PUSH1 0xE1 SHL DUP2 MSTORE SWAP3 PUSH1 0x2 DUP8 ADD SWAP3 DUP5 SWAP2 SWAP1 DUP3 SWAP1 DUP2 SWAP1 PUSH2 0x53C SWAP1 DUP8 PUSH1 0x4 DUP5 ADD PUSH2 0x37F8 JUMP JUMPDEST SUB SWAP2 GAS DELEGATECALL SWAP1 DUP2 ISZERO PUSH2 0x7D2 JUMPI DUP7 SWAP2 PUSH2 0x791 JUMPI JUMPDEST PUSH1 0x20 SWAP3 POP DUP2 MLOAD SWAP1 SSTORE ADD MLOAD PUSH1 0x3 DUP5 ADD SSTORE CALLER DUP5 MSTORE PUSH1 0x8 PUSH1 0x20 MSTORE PUSH1 0x40 DUP5 KECCAK256 DUP5 DUP1 MSTORE PUSH1 0x20 MSTORE PUSH1 0x40 DUP5 KECCAK256 SWAP1 PUSH1 0xE DUP3 ADD DUP1 SLOAD DUP1 JUMPDEST PUSH2 0x678 JUMPI POP POP POP PUSH1 0x5 ADD PUSH2 0x590 DUP2 SLOAD PUSH2 0x3907 JUMP JUMPDEST SWAP1 SSTORE PUSH2 0x59C DUP4 CALLER PUSH2 0x3FA3 JUMP JUMPDEST DUP3 JUMPDEST PUSH1 0x7 DUP2 LT PUSH2 0x661 JUMPI DUP4 PUSH1 0x40 MLOAD PUSH2 0x5B5 PUSH1 0xE0 DUP3 PUSH2 0x26D6 JUMP JUMPDEST PUSH1 0xE0 CALLDATASIZE DUP3 CALLDATACOPY DUP2 JUMPDEST PUSH1 0x7 DUP2 LT PUSH2 0x607 JUMPI POP PUSH1 0x1 DUP1 PUSH1 0xA0 SHL SUB PUSH1 0x9 SLOAD AND SWAP1 PUSH2 0x5DE PUSH1 0x40 MLOAD DUP1 SWAP3 PUSH2 0x25B7 JUMP JUMPDEST PUSH32 0x47FABD75C92EAD101DBBB10DD37A09C205F633DA9DB8CE7078C2F33E84710E5 PUSH1 0xE0 CALLER SWAP3 LOG3 DUP1 RETURN JUMPDEST DUP1 PUSH1 0xC ADD DUP1 PUSH1 0xC GT PUSH2 0x64D JUMPI PUSH1 0x13 DUP2 LT ISZERO PUSH2 0x639 JUMPI SWAP1 PUSH1 0x1 SWAP2 PUSH1 0x5 SHL PUSH2 0x104 ADD CALLDATALOAD PUSH2 0x632 DUP3 DUP6 PUSH2 0x2AA0 JUMP JUMPDEST MSTORE ADD PUSH2 0x5BC JUMP JUMPDEST PUSH4 0x4E487B71 PUSH1 0xE0 SHL DUP5 MSTORE PUSH1 0x32 PUSH1 0x4 MSTORE PUSH1 0x24 DUP5 REVERT JUMPDEST PUSH4 0x4E487B71 PUSH1 0xE0 SHL DUP5 MSTORE PUSH1 0x11 PUSH1 0x4 MSTORE PUSH1 0x24 DUP5 REVERT JUMPDEST PUSH1 0x1 SWAP1 PUSH1 0x20 DUP4 MLOAD SWAP4 ADD SWAP3 PUSH1 0x7 DUP3 DUP7 ADD ADD SSTORE ADD PUSH2 0x59E JUMP JUMPDEST PUSH1 0x0 NOT DUP2 ADD DUP2 DUP2 GT PUSH2 0x77D JUMPI DUP4 PUSH1 0x7 PUSH2 0x691 DUP4 DUP7 PUSH2 0x3881 JUMP JUMPDEST POP ADD SLOAD GT ISZERO PUSH2 0x6C0 JUMPI JUMPDEST POP DUP1 ISZERO PUSH2 0x6AC JUMPI PUSH1 0x0 NOT ADD DUP1 PUSH2 0x57C JUMP JUMPDEST PUSH4 0x4E487B71 PUSH1 0xE0 SHL DUP8 MSTORE PUSH1 0x11 PUSH1 0x4 MSTORE PUSH1 0x24 DUP8 REVERT JUMPDEST DUP3 SLOAD PUSH1 0x0 NOT DUP2 ADD SWAP1 DUP2 GT PUSH2 0x769 JUMPI PUSH2 0x6DB PUSH2 0x6E3 SWAP2 DUP6 PUSH2 0x3881 JUMP JUMPDEST POP SWAP2 DUP5 PUSH2 0x3881 JUMP JUMPDEST SWAP2 SWAP1 SWAP2 PUSH2 0x727 JUMPI DUP1 DUP3 SUB PUSH2 0x74F JUMPI JUMPDEST POP POP DUP2 SLOAD DUP1 ISZERO PUSH2 0x73B JUMPI PUSH1 0x0 NOT ADD PUSH2 0x70A DUP2 DUP5 PUSH2 0x3881 JUMP JUMPDEST PUSH2 0x727 JUMPI DUP1 PUSH2 0x71E PUSH1 0x7 DUP12 SWAP4 ADD DUP1 SWAP3 PUSH2 0x389D JUMP JUMPDEST SSTORE DUP3 SSTORE DUP8 PUSH2 0x69B JUMP JUMPDEST PUSH4 0x4E487B71 PUSH1 0xE0 SHL DUP10 MSTORE PUSH1 0x4 DUP10 SWAP1 MSTORE PUSH1 0x24 DUP10 REVERT JUMPDEST PUSH4 0x4E487B71 PUSH1 0xE0 SHL DUP9 MSTORE PUSH1 0x31 PUSH1 0x4 MSTORE PUSH1 0x24 DUP9 REVERT JUMPDEST PUSH1 0x7 DUP2 PUSH2 0x75D DUP3 SWAP4 DUP6 PUSH2 0x40F3 JUMP JUMPDEST ADD SLOAD SWAP2 ADD SSTORE DUP8 DUP1 PUSH2 0x6F2 JUMP JUMPDEST PUSH4 0x4E487B71 PUSH1 0xE0 SHL DUP10 MSTORE PUSH1 0x11 PUSH1 0x4 MSTORE PUSH1 0x24 DUP10 REVERT JUMPDEST PUSH4 0x4E487B71 PUSH1 0xE0 SHL DUP9 MSTORE PUSH1 0x11 PUSH1 0x4 MSTORE PUSH1 0x24 DUP9 REVERT JUMPDEST SWAP1 POP PUSH1 0x40 RETURNDATASIZE PUSH1 0x40 GT PUSH2 0x7CB JUMPI JUMPDEST PUSH2 0x7A8 DUP2 DUP5 PUSH2 0x26D6 JUMP JUMPDEST DUP3 ADD SWAP2 PUSH1 0x40 DUP2 DUP5 SUB SLT PUSH2 0x7C7 JUMPI PUSH1 0x20 SWAP3 PUSH2 0x7C1 SWAP2 PUSH2 0x3465 JUMP JUMPDEST SWAP1 PUSH2 0x54E JUMP JUMPDEST DUP7 DUP1 REVERT JUMPDEST POP RETURNDATASIZE PUSH2 0x79E JUMP JUMPDEST PUSH1 0x40 MLOAD RETURNDATASIZE DUP9 DUP3 RETURNDATACOPY RETURNDATASIZE SWAP1 REVERT JUMPDEST SWAP1 POP PUSH1 0x40 RETURNDATASIZE PUSH1 0x40 GT PUSH2 0x81F JUMPI JUMPDEST PUSH2 0x7F4 DUP2 DUP4 PUSH2 0x26D6 JUMP JUMPDEST DUP2 ADD SWAP3 PUSH1 0x40 DUP3 DUP6 SUB SLT PUSH2 0x81B JUMPI PUSH1 0x20 PUSH2 0x812 PUSH2 0x53C SWAP6 PUSH1 0x40 SWAP5 PUSH2 0x3465 JUMP JUMPDEST SWAP3 POP POP SWAP3 PUSH2 0x504 JUMP JUMPDEST DUP8 DUP1 REVERT JUMPDEST POP RETURNDATASIZE PUSH2 0x7EA JUMP JUMPDEST PUSH1 0x40 MLOAD RETURNDATASIZE DUP10 DUP3 RETURNDATACOPY RETURNDATASIZE SWAP1 REVERT JUMPDEST PUSH4 0x9BDE339 PUSH1 0xE0 SHL DUP6 MSTORE PUSH1 0x4 DUP6 REVERT JUMPDEST DUP2 CALLDATALOAD DUP2 MSTORE PUSH1 0x20 SWAP2 DUP3 ADD SWAP2 ADD PUSH2 0x3FE JUMP JUMPDEST PUSH4 0x4E487B71 PUSH1 0xE0 SHL PUSH1 0x0 MSTORE PUSH1 0x41 PUSH1 0x4 MSTORE PUSH1 0x24 PUSH1 0x0 REVERT JUMPDEST PUSH4 0x9BDE339 PUSH1 0xE0 SHL PUSH1 0x0 MSTORE PUSH1 0x4 PUSH1 0x0 REVERT JUMPDEST PUSH2 0x899 SWAP2 POP PUSH1 0x20 RETURNDATASIZE PUSH1 0x20 GT PUSH2 0x89F JUMPI JUMPDEST PUSH2 0x891 DUP2 DUP4 PUSH2 0x26D6 JUMP JUMPDEST DUP2 ADD SWAP1 PUSH2 0x299E JUMP JUMPDEST DUP2 PUSH2 0x34A JUMP JUMPDEST POP RETURNDATASIZE PUSH2 0x887 JUMP JUMPDEST PUSH1 0x40 MLOAD RETURNDATASIZE PUSH1 0x0 DUP3 RETURNDATACOPY RETURNDATASIZE SWAP1 REVERT JUMPDEST DUP3 SWAP4 POP PUSH1 0x40 DUP2 DUP2 PUSH1 0x1 SWAP5 SWAP6 DUP2 SWAP5 CALLDATACOPY ADD SWAP4 ADD SWAP2 ADD DUP5 SWAP3 PUSH2 0x315 JUMP JUMPDEST PUSH4 0x2163950F PUSH1 0xE0 SHL PUSH1 0x0 MSTORE PUSH1 0x4 PUSH1 0x0 REVERT JUMPDEST PUSH2 0x8F6 SWAP2 POP PUSH1 0x20 RETURNDATASIZE PUSH1 0x20 GT PUSH2 0x89F JUMPI PUSH2 0x891 DUP2 DUP4 PUSH2 0x26D6 JUMP JUMPDEST DUP2 PUSH2 0x29D JUMP JUMPDEST PUSH4 0x1CC6A699 PUSH1 0xE1 SHL PUSH1 0x0 MSTORE PUSH1 0x4 PUSH1 0x0 REVERT JUMPDEST POP PUSH1 0xB SLOAD PUSH1 0x1 EQ ISZERO PUSH2 0x238 JUMP JUMPDEST CALLVALUE PUSH2 0x204 JUMPI PUSH1 0x20 CALLDATASIZE PUSH1 0x3 NOT ADD SLT PUSH2 0x204 JUMPI PUSH2 0x933 PUSH2 0x258B JUMP JUMPDEST PUSH2 0x93B PUSH2 0x3393 JUMP JUMPDEST PUSH1 0x1 DUP1 PUSH1 0xA0 SHL SUB AND DUP1 PUSH1 0x1 PUSH1 0x1 PUSH1 0x60 SHL SUB PUSH1 0xA0 SHL PUSH1 0x1 SLOAD AND OR PUSH1 0x1 SSTORE PUSH1 0x1 DUP1 PUSH1 0xA0 SHL SUB PUSH1 0x0 SLOAD AND PUSH32 0x38D16B8CAC22D99FC7C124B9CD0DE2D3FA1FAEF420BFE791D8C362D765E22700 PUSH1 0x0 DUP1 LOG3 STOP JUMPDEST CALLVALUE PUSH2 0x204 JUMPI PUSH1 0x20 CALLDATASIZE PUSH1 0x3 NOT ADD SLT PUSH2 0x204 JUMPI PUSH1 0x1 PUSH1 0x1 PUSH1 0xA0 SHL SUB PUSH2 0x9AA PUSH2 0x258B JUMP JUMPDEST AND PUSH1 0x0 MSTORE PUSH1 0x15 PUSH1 0x20 MSTORE PUSH1 0x20 PUSH1 0x40 PUSH1 0x0 KECCAK256 SLOAD PUSH1 0x40 MLOAD SWAP1 DUP2 MSTORE RETURN JUMPDEST CALLVALUE PUSH2 0x204 JUMPI PUSH1 0x20 CALLDATASIZE PUSH1 0x3 NOT ADD SLT PUSH2 0x204 JUMPI PUSH1 0x4 CALLDATALOAD PUSH1 0x0 MSTORE PUSH1 0x5 PUSH1 0x20 MSTORE PUSH1 0x20 PUSH1 0x1 DUP1 PUSH1 0xA0 SHL SUB PUSH1 0x40 PUSH1 0x0 KECCAK256 SLOAD AND PUSH1 0x40 MLOAD SWAP1 DUP2 MSTORE RETURN JUMPDEST CALLVALUE PUSH2 0x204 JUMPI PUSH1 0x0 CALLDATASIZE PUSH1 0x3 NOT ADD SLT PUSH2 0x204 JUMPI PUSH1 0x1 SLOAD PUSH1 0x40 MLOAD PUSH1 0x1 PUSH1 0x1 PUSH1 0xA0 SHL SUB SWAP1 SWAP2 AND DUP2 MSTORE PUSH1 0x20 SWAP1 RETURN JUMPDEST CALLVALUE PUSH2 0x204 JUMPI PUSH1 0x40 CALLDATASIZE PUSH1 0x3 NOT ADD SLT PUSH2 0x204 JUMPI PUSH1 0x1 PUSH1 0x1 PUSH1 0xA0 SHL SUB PUSH2 0xA41 PUSH2 0x258B JUMP JUMPDEST AND PUSH1 0x0 MSTORE PUSH1 0x8 PUSH1 0x20 MSTORE PUSH1 0x40 PUSH1 0x0 KECCAK256 PUSH1 0x24 CALLDATALOAD PUSH1 0x0 MSTORE PUSH1 0x20 MSTORE PUSH1 0xC0 PUSH1 0x40 PUSH1 0x0 KECCAK256 PUSH2 0xA68 DUP2 PUSH2 0x2814 JUMP JUMPDEST SWAP1 PUSH1 0x6 PUSH1 0x5 DUP3 ADD SLOAD SWAP2 ADD SLOAD SWAP1 PUSH2 0xA9F PUSH1 0x40 MLOAD DUP1 SWAP5 PUSH1 0x20 DUP1 PUSH1 0x60 SWAP3 DUP2 DUP2 MLOAD DUP1 MLOAD DUP8 MSTORE ADD MLOAD DUP3 DUP7 ADD MSTORE ADD MLOAD DUP1 MLOAD PUSH1 0x40 DUP6 ADD MSTORE ADD MLOAD SWAP2 ADD MSTORE JUMP JUMPDEST PUSH1 0x80 DUP4 ADD MSTORE PUSH1 0xA0 DUP3 ADD MSTORE RETURN JUMPDEST CALLVALUE PUSH2 0x204 JUMPI PUSH1 0x0 CALLDATASIZE PUSH1 0x3 NOT ADD SLT PUSH2 0x204 JUMPI PUSH1 0x10 SLOAD PUSH1 0x40 MLOAD PUSH1 0x1 PUSH1 0x1 PUSH1 0xA0 SHL SUB SWAP1 SWAP2 AND DUP2 MSTORE PUSH1 0x20 SWAP1 RETURN JUMPDEST CALLVALUE PUSH2 0x204 JUMPI PUSH1 0x40 CALLDATASIZE PUSH1 0x3 NOT ADD SLT PUSH2 0x204 JUMPI PUSH2 0xAED PUSH2 0x258B JUMP JUMPDEST PUSH1 0x24 CALLDATALOAD SWAP1 PUSH1 0x3 DUP3 LT ISZERO PUSH2 0x204 JUMPI PUSH2 0xB02 PUSH2 0x3393 JUMP JUMPDEST PUSH1 0x1 DUP1 PUSH1 0xA0 SHL SUB AND PUSH1 0x0 MSTORE PUSH1 0x14 PUSH1 0x20 MSTORE PUSH1 0x40 PUSH1 0x0 KECCAK256 SWAP1 PUSH1 0xFF DUP1 NOT DUP4 SLOAD AND SWAP2 AND OR SWAP1 SSTORE PUSH1 0x0 DUP1 RETURN JUMPDEST CALLVALUE PUSH2 0x204 JUMPI PUSH1 0x20 CALLDATASIZE PUSH1 0x3 NOT ADD SLT PUSH2 0x204 JUMPI PUSH1 0x4 CALLDATALOAD PUSH1 0x0 MSTORE PUSH1 0x13 PUSH1 0x20 MSTORE PUSH1 0x20 PUSH1 0xFF PUSH1 0x40 PUSH1 0x0 KECCAK256 SLOAD AND PUSH1 0x40 MLOAD SWAP1 ISZERO ISZERO DUP2 MSTORE RETURN JUMPDEST CALLVALUE PUSH2 0x204 JUMPI PUSH1 0x20 CALLDATASIZE PUSH1 0x3 NOT ADD SLT PUSH2 0x204 JUMPI PUSH1 0x1 PUSH1 0x1 PUSH1 0xA0 SHL SUB PUSH2 0xB7B PUSH2 0x258B JUMP JUMPDEST AND PUSH1 0x0 MSTORE PUSH1 0x14 PUSH1 0x20 MSTORE PUSH1 0xFF PUSH1 0x40 PUSH1 0x0 KECCAK256 SLOAD AND PUSH1 0x40 MLOAD PUSH1 0x3 DUP3 LT ISZERO PUSH2 0xBA0 JUMPI PUSH1 0x20 SWAP2 DUP2 MSTORE RETURN JUMPDEST PUSH4 0x4E487B71 PUSH1 0xE0 SHL PUSH1 0x0 MSTORE PUSH1 0x21 PUSH1 0x4 MSTORE PUSH1 0x24 PUSH1 0x0 REVERT JUMPDEST CALLVALUE PUSH2 0x204 JUMPI PUSH1 0x0 CALLDATASIZE PUSH1 0x3 NOT ADD SLT PUSH2 0x204 JUMPI PUSH1 0x40 MLOAD DUP1 PUSH1 0x20 PUSH1 0x6 SLOAD SWAP3 DUP4 DUP2 MSTORE ADD DUP1 SWAP3 PUSH1 0x6 PUSH1 0x0 MSTORE PUSH32 0xF652222313E28459528D920B65115C16C04F3EFC82AAEDC97BE59F3F377C0D3F SWAP1 PUSH1 0x0 JUMPDEST DUP2 DUP2 LT PUSH2 0xC63 JUMPI POP POP POP DUP2 PUSH2 0xC17 SWAP2 SUB DUP3 PUSH2 0x26D6 JUMP JUMPDEST PUSH1 0x40 MLOAD SWAP2 DUP3 SWAP2 PUSH1 0x20 DUP4 ADD SWAP1 PUSH1 0x20 DUP5 MSTORE MLOAD DUP1 SWAP2 MSTORE PUSH1 0x40 DUP4 ADD SWAP2 SWAP1 PUSH1 0x0 JUMPDEST DUP2 DUP2 LT PUSH2 0xC41 JUMPI POP POP POP SUB SWAP1 RETURN JUMPDEST DUP3 MLOAD PUSH1 0x1 PUSH1 0x1 PUSH1 0xA0 SHL SUB AND DUP5 MSTORE DUP6 SWAP5 POP PUSH1 0x20 SWAP4 DUP5 ADD SWAP4 SWAP1 SWAP3 ADD SWAP2 PUSH1 0x1 ADD PUSH2 0xC33 JUMP JUMPDEST DUP3 SLOAD PUSH1 0x1 PUSH1 0x1 PUSH1 0xA0 SHL SUB AND DUP5 MSTORE PUSH1 0x20 SWAP1 SWAP4 ADD SWAP3 PUSH1 0x1 SWAP3 DUP4 ADD SWAP3 ADD PUSH2 0xC01 JUMP JUMPDEST CALLVALUE PUSH2 0x204 JUMPI PUSH1 0x20 CALLDATASIZE PUSH1 0x3 NOT ADD SLT PUSH2 0x204 JUMPI PUSH1 0x40 PUSH2 0xC9D PUSH2 0x258B JUMP JUMPDEST PUSH2 0xCA5 PUSH2 0x2840 JUMP JUMPDEST POP PUSH1 0xE0 SWAP1 DUP2 DUP4 MLOAD PUSH2 0xCB6 DUP3 DUP3 PUSH2 0x26D6 JUMP JUMPDEST CALLDATASIZE SWAP1 CALLDATACOPY PUSH1 0x0 SWAP2 PUSH2 0xCC4 PUSH2 0x2840 JUMP JUMPDEST POP DUP4 MLOAD PUSH2 0xCD1 DUP3 DUP3 PUSH2 0x26D6 JUMP JUMPDEST CALLDATASIZE SWAP1 CALLDATACOPY PUSH1 0x1 PUSH1 0x1 PUSH1 0xA0 SHL SUB AND DUP2 MSTORE PUSH1 0x8 PUSH1 0x20 SWAP1 DUP2 MSTORE DUP3 DUP3 KECCAK256 DUP3 DUP1 MSTORE SWAP1 MSTORE KECCAK256 PUSH1 0x5 DUP2 ADD SLOAD PUSH1 0x6 DUP3 ADD SLOAD PUSH1 0xE DUP4 ADD SWAP3 SWAP1 PUSH2 0xD08 DUP3 PUSH2 0x2814 JUMP JUMPDEST SWAP2 DUP5 SLOAD SWAP1 PUSH8 0xFFFFFFFFFFFFFFFF DUP3 GT PUSH2 0x850 JUMPI PUSH1 0x40 MLOAD SWAP2 PUSH2 0xD2F PUSH1 0x20 DUP3 PUSH1 0x5 SHL ADD DUP5 PUSH2 0x26D6 JUMP JUMPDEST DUP1 DUP4 MSTORE PUSH1 0x20 DUP4 ADD SWAP7 PUSH1 0x0 MSTORE PUSH1 0x20 PUSH1 0x0 KECCAK256 SWAP7 PUSH1 0x0 SWAP1 JUMPDEST DUP3 DUP3 LT PUSH2 0xD70 JUMPI POP POP POP SWAP1 PUSH2 0xD5F PUSH1 0x7 PUSH2 0xD6C SWAP5 SWAP4 ADD PUSH2 0x2884 JUMP JUMPDEST SWAP1 PUSH1 0x40 MLOAD SWAP6 DUP7 SWAP6 DUP7 PUSH2 0x25DF JUMP JUMPDEST SUB SWAP1 RETURN JUMPDEST PUSH1 0x8 PUSH1 0x20 PUSH1 0x1 SWAP3 PUSH1 0x40 MLOAD PUSH2 0xD83 DUP2 PUSH2 0x269E JUMP JUMPDEST PUSH2 0xD8C DUP14 PUSH2 0x2884 JUMP JUMPDEST DUP2 MSTORE PUSH1 0x7 DUP14 ADD SLOAD DUP4 DUP3 ADD MSTORE DUP2 MSTORE ADD SWAP10 ADD SWAP2 ADD SWAP1 SWAP8 PUSH2 0xD44 JUMP JUMPDEST CALLVALUE PUSH2 0x204 JUMPI PUSH2 0x400 CALLDATASIZE PUSH1 0x3 NOT ADD SLT PUSH2 0x204 JUMPI CALLDATASIZE PUSH1 0x23 NOT ADD PUSH2 0x300 DUP2 SLT PUSH2 0x204 JUMPI PUSH2 0x100 PUSH1 0x40 MLOAD SWAP2 PUSH2 0xDD5 DUP4 PUSH2 0x269E JUMP JUMPDEST SLT PUSH2 0x204 JUMPI PUSH1 0x40 MLOAD PUSH2 0xDE6 DUP2 PUSH2 0x26BA JUMP JUMPDEST PUSH2 0xDF1 CALLDATASIZE PUSH1 0x24 PUSH2 0x277D JUMP JUMPDEST DUP2 MSTORE CALLDATASIZE PUSH1 0x83 SLT ISZERO PUSH2 0x204 JUMPI PUSH1 0x40 SWAP1 DUP2 MLOAD PUSH2 0xE0B DUP4 DUP3 PUSH2 0x26D6 JUMP JUMPDEST DUP1 CALLDATASIZE PUSH1 0xE4 GT PUSH2 0x204 JUMPI DUP4 PUSH1 0x64 SWAP2 JUMPDEST PUSH1 0xE4 DUP4 LT PUSH2 0xF53 JUMPI POP POP POP PUSH1 0x20 DUP3 ADD MSTORE PUSH2 0xE34 CALLDATASIZE PUSH1 0xE4 PUSH2 0x277D JUMP JUMPDEST DUP3 DUP3 ADD MSTORE DUP3 MSTORE CALLDATASIZE PUSH2 0x143 SLT ISZERO PUSH2 0x204 JUMPI DUP1 MLOAD PUSH2 0xE52 PUSH2 0x200 DUP3 PUSH2 0x26D6 JUMP JUMPDEST DUP1 CALLDATASIZE PUSH2 0x324 GT PUSH2 0x204 JUMPI PUSH2 0x124 SWAP1 JUMPDEST PUSH2 0x324 DUP3 LT PUSH2 0xF43 JUMPI POP POP PUSH1 0x20 DUP4 ADD MSTORE CALLDATASIZE PUSH2 0x343 SLT ISZERO PUSH2 0x204 JUMPI PUSH2 0xE87 CALLDATASIZE PUSH2 0x324 PUSH2 0x2741 JUMP JUMPDEST SWAP1 PUSH1 0xA SLOAD ISZERO ISZERO DUP1 PUSH2 0xF36 JUMPI JUMPDEST PUSH2 0xE9C SWAP1 PUSH2 0x2A05 JUMP JUMPDEST PUSH1 0x9 SLOAD PUSH2 0xEB3 SWAP1 PUSH1 0x1 PUSH1 0x1 PUSH1 0xA0 SHL SUB AND ISZERO ISZERO PUSH2 0x2A51 JUMP JUMPDEST PUSH1 0xFF PUSH1 0x3 SLOAD AND ISZERO PUSH2 0x8FC JUMPI PUSH1 0xC SLOAD DUP2 MLOAD PUSH4 0xB1FBA91 PUSH1 0xE1 SHL DUP2 MSTORE CALLER PUSH1 0x4 DUP3 ADD MSTORE SWAP1 PUSH1 0x20 SWAP1 DUP3 SWAP1 PUSH1 0x24 SWAP1 DUP3 SWAP1 PUSH1 0x1 PUSH1 0x1 PUSH1 0xA0 SHL SUB AND GAS STATICCALL SWAP2 DUP3 ISZERO PUSH2 0xF2C JUMPI POP PUSH1 0x0 SWAP2 PUSH2 0xF0D JUMPI JUMPDEST POP ISZERO PUSH2 0x8CC JUMPI PUSH2 0xF0B SWAP2 PUSH1 0x4 CALLDATALOAD PUSH2 0x2E38 JUMP JUMPDEST STOP JUMPDEST PUSH2 0xF26 SWAP2 POP PUSH1 0x20 RETURNDATASIZE PUSH1 0x20 GT PUSH2 0x89F JUMPI PUSH2 0x891 DUP2 DUP4 PUSH2 0x26D6 JUMP JUMPDEST DUP4 PUSH2 0xEF9 JUMP JUMPDEST MLOAD RETURNDATASIZE PUSH1 0x0 DUP3 RETURNDATACOPY RETURNDATASIZE SWAP1 REVERT JUMPDEST POP PUSH1 0xB SLOAD PUSH1 0x1 EQ ISZERO PUSH2 0xE93 JUMP JUMPDEST DUP2 CALLDATALOAD DUP2 MSTORE PUSH1 0x20 SWAP2 DUP3 ADD SWAP2 ADD PUSH2 0xE61 JUMP JUMPDEST PUSH1 0x20 SWAP1 PUSH2 0xF60 CALLDATASIZE DUP6 PUSH2 0x277D JUMP JUMPDEST DUP2 MSTORE ADD SWAP2 ADD SWAP1 DUP5 SWAP1 PUSH2 0xE19 JUMP JUMPDEST CALLVALUE PUSH2 0x204 JUMPI PUSH1 0x0 CALLDATASIZE PUSH1 0x3 NOT ADD SLT PUSH2 0x204 JUMPI PUSH1 0x0 PUSH1 0x40 MLOAD SWAP1 DUP1 PUSH1 0x12 SLOAD SWAP1 DUP2 PUSH1 0x1 SHR SWAP2 PUSH1 0x1 DUP2 AND DUP1 ISZERO PUSH2 0x106A JUMPI JUMPDEST PUSH1 0x20 DUP5 LT DUP2 EQ PUSH2 0x1056 JUMPI DUP4 DUP7 MSTORE SWAP1 DUP2 ISZERO PUSH2 0x102F JUMPI POP PUSH1 0x1 EQ PUSH2 0xFD2 JUMPI JUMPDEST PUSH2 0xD6C DUP5 PUSH2 0xFC6 DUP2 DUP7 SUB DUP3 PUSH2 0x26D6 JUMP JUMPDEST PUSH1 0x40 MLOAD SWAP2 DUP3 SWAP2 DUP3 PUSH2 0x26F8 JUMP JUMPDEST PUSH1 0x12 DUP2 MSTORE PUSH32 0xBB8A6A4669BA250D26CD7A459ECA9D215F8307E33AEBE50379BC5A3617EC3444 SWAP4 SWAP3 POP SWAP1 JUMPDEST DUP1 DUP3 LT PUSH2 0x1015 JUMPI POP SWAP1 SWAP2 POP DUP2 ADD PUSH1 0x20 ADD PUSH2 0xFC6 DUP3 PUSH2 0xFB6 JUMP JUMPDEST SWAP2 SWAP3 PUSH1 0x1 DUP2 PUSH1 0x20 SWAP3 SLOAD DUP4 DUP6 DUP9 ADD ADD MSTORE ADD SWAP2 ADD SWAP1 SWAP3 SWAP2 PUSH2 0xFFC JUMP JUMPDEST PUSH1 0xFF NOT AND PUSH1 0x20 DUP1 DUP8 ADD SWAP2 SWAP1 SWAP2 MSTORE SWAP3 ISZERO ISZERO PUSH1 0x5 SHL DUP6 ADD SWAP1 SWAP3 ADD SWAP3 POP PUSH2 0xFC6 SWAP2 POP DUP4 SWAP1 POP PUSH2 0xFB6 JUMP JUMPDEST PUSH4 0x4E487B71 PUSH1 0xE0 SHL DUP4 MSTORE PUSH1 0x22 PUSH1 0x4 MSTORE PUSH1 0x24 DUP4 REVERT JUMPDEST SWAP3 PUSH1 0x7F AND SWAP3 PUSH2 0xF99 JUMP JUMPDEST CALLVALUE PUSH2 0x204 JUMPI PUSH1 0x0 CALLDATASIZE PUSH1 0x3 NOT ADD SLT PUSH2 0x204 JUMPI PUSH1 0x40 PUSH1 0xA SLOAD PUSH1 0xB SLOAD DUP3 MLOAD SWAP2 DUP3 MSTORE PUSH1 0x20 DUP3 ADD MSTORE RETURN JUMPDEST CALLVALUE PUSH2 0x204 JUMPI PUSH1 0x0 CALLDATASIZE PUSH1 0x3 NOT ADD SLT PUSH2 0x204 JUMPI PUSH1 0xF SLOAD PUSH1 0x40 MLOAD PUSH1 0x1 PUSH1 0x1 PUSH1 0xA0 SHL SUB SWAP1 SWAP2 AND DUP2 MSTORE PUSH1 0x20 SWAP1 RETURN JUMPDEST CALLVALUE PUSH2 0x204 JUMPI PUSH1 0x0 CALLDATASIZE PUSH1 0x3 NOT ADD SLT PUSH2 0x204 JUMPI PUSH1 0x0 SLOAD PUSH1 0x40 MLOAD PUSH1 0x1 PUSH1 0x1 PUSH1 0xA0 SHL SUB SWAP1 SWAP2 AND DUP2 MSTORE PUSH1 0x20 SWAP1 RETURN JUMPDEST CALLVALUE PUSH2 0x204 JUMPI PUSH1 0x0 CALLDATASIZE PUSH1 0x3 NOT ADD SLT PUSH2 0x204 JUMPI PUSH1 0xE SLOAD PUSH1 0x40 MLOAD PUSH1 0x1 PUSH1 0x1 PUSH1 0xA0 SHL SUB SWAP1 SWAP2 AND DUP2 MSTORE PUSH1 0x20 SWAP1 RETURN JUMPDEST PUSH2 0x120 CALLDATASIZE PUSH1 0x3 NOT ADD SLT PUSH2 0x204 JUMPI PUSH2 0x1129 PUSH2 0x25A1 JUMP JUMPDEST CALLDATASIZE PUSH1 0x63 SLT ISZERO PUSH2 0x204 JUMPI PUSH2 0x113D CALLDATASIZE PUSH1 0x44 PUSH2 0x2741 JUMP JUMPDEST PUSH1 0xA SLOAD ISZERO ISZERO DUP1 PUSH2 0x11DF JUMPI JUMPDEST PUSH2 0x1151 SWAP1 PUSH2 0x2A05 JUMP JUMPDEST PUSH1 0x9 SLOAD PUSH2 0x1168 SWAP1 PUSH1 0x1 PUSH1 0x1 PUSH1 0xA0 SHL SUB AND ISZERO ISZERO PUSH2 0x2A51 JUMP JUMPDEST PUSH1 0xFF PUSH1 0x3 SLOAD AND ISZERO PUSH2 0x8FC JUMPI PUSH1 0xC SLOAD PUSH1 0x40 MLOAD PUSH4 0xB1FBA91 PUSH1 0xE1 SHL DUP2 MSTORE CALLER PUSH1 0x4 DUP3 ADD MSTORE SWAP1 PUSH1 0x20 SWAP1 DUP3 SWAP1 PUSH1 0x24 SWAP1 DUP3 SWAP1 PUSH1 0x1 PUSH1 0x1 PUSH1 0xA0 SHL SUB AND GAS STATICCALL SWAP1 DUP2 ISZERO PUSH2 0x8A6 JUMPI PUSH1 0x0 SWAP2 PUSH2 0x11C0 JUMPI JUMPDEST POP ISZERO PUSH2 0x8CC JUMPI PUSH2 0xF0B SWAP2 PUSH1 0x4 CALLDATALOAD PUSH2 0x2B1A JUMP JUMPDEST PUSH2 0x11D9 SWAP2 POP PUSH1 0x20 RETURNDATASIZE PUSH1 0x20 GT PUSH2 0x89F JUMPI PUSH2 0x891 DUP2 DUP4 PUSH2 0x26D6 JUMP JUMPDEST DUP4 PUSH2 0x11AE JUMP JUMPDEST POP PUSH1 0xB SLOAD PUSH1 0x1 EQ ISZERO PUSH2 0x1148 JUMP JUMPDEST CALLVALUE PUSH2 0x204 JUMPI PUSH1 0x0 CALLDATASIZE PUSH1 0x3 NOT ADD SLT PUSH2 0x204 JUMPI PUSH1 0x1 SLOAD CALLER PUSH1 0x1 PUSH1 0x1 PUSH1 0xA0 SHL SUB SWAP1 SWAP2 AND SUB PUSH2 0x1260 JUMPI PUSH1 0x1 DUP1 SLOAD PUSH1 0x1 PUSH1 0x1 PUSH1 0xA0 SHL SUB NOT SWAP1 DUP2 AND SWAP1 SWAP2 SSTORE PUSH1 0x0 DUP1 SLOAD CALLER SWAP3 DUP2 AND DUP4 OR DUP3 SSTORE PUSH1 0x1 PUSH1 0x1 PUSH1 0xA0 SHL SUB AND SWAP1 PUSH32 0x8BE0079C531659141344CD1FD0A4F28419497F9722A3DAAFE3B4186F6B6457E0 SWAP1 DUP1 LOG3 STOP JUMPDEST PUSH4 0x118CDAA7 PUSH1 0xE0 SHL PUSH1 0x0 MSTORE CALLER PUSH1 0x4 MSTORE PUSH1 0x24 PUSH1 0x0 REVERT JUMPDEST CALLVALUE PUSH2 0x204 JUMPI PUSH1 0x0 CALLDATASIZE PUSH1 0x3 NOT ADD SLT PUSH2 0x204 JUMPI PUSH1 0x20 PUSH1 0x2 SLOAD PUSH1 0x40 MLOAD SWAP1 DUP2 MSTORE RETURN JUMPDEST CALLVALUE PUSH2 0x204 JUMPI PUSH1 0x0 CALLDATASIZE PUSH1 0x3 NOT ADD SLT PUSH2 0x204 JUMPI PUSH2 0x12AC PUSH2 0x3393 JUMP JUMPDEST PUSH1 0x1 DUP1 SLOAD PUSH1 0x1 PUSH1 0x1 PUSH1 0xA0 SHL SUB NOT SWAP1 DUP2 AND SWAP1 SWAP2 SSTORE PUSH1 0x0 DUP1 SLOAD SWAP2 DUP3 AND DUP2 SSTORE SWAP1 PUSH1 0x1 PUSH1 0x1 PUSH1 0xA0 SHL SUB AND PUSH32 0x8BE0079C531659141344CD1FD0A4F28419497F9722A3DAAFE3B4186F6B6457E0 DUP3 DUP1 LOG3 STOP JUMPDEST CALLVALUE PUSH2 0x204 JUMPI PUSH1 0x0 CALLDATASIZE PUSH1 0x3 NOT ADD SLT PUSH2 0x204 JUMPI PUSH1 0x20 PUSH1 0xFF PUSH1 0x3 SLOAD AND PUSH1 0x40 MLOAD SWAP1 ISZERO ISZERO DUP2 MSTORE RETURN JUMPDEST CALLVALUE PUSH2 0x204 JUMPI PUSH1 0x20 CALLDATASIZE PUSH1 0x3 NOT ADD SLT PUSH2 0x204 JUMPI PUSH1 0x1 PUSH1 0x1 PUSH1 0xA0 SHL SUB PUSH2 0x133C PUSH2 0x258B JUMP JUMPDEST AND PUSH1 0x0 MSTORE PUSH1 0x7 PUSH1 0x20 MSTORE PUSH1 0x20 PUSH1 0xFF PUSH1 0x40 PUSH1 0x0 KECCAK256 SLOAD AND PUSH1 0x40 MLOAD SWAP1 ISZERO ISZERO DUP2 MSTORE RETURN JUMPDEST CALLVALUE PUSH2 0x204 JUMPI PUSH1 0x20 CALLDATASIZE PUSH1 0x3 NOT ADD SLT PUSH2 0x204 JUMPI PUSH1 0x4 CALLDATALOAD PUSH1 0x6 SLOAD DUP2 LT ISZERO PUSH2 0x204 JUMPI PUSH2 0x1383 PUSH1 0x20 SWAP2 PUSH2 0x27C5 JUMP JUMPDEST SWAP1 SLOAD PUSH1 0x40 MLOAD PUSH1 0x3 SWAP3 SWAP1 SWAP3 SHL SHR PUSH1 0x1 PUSH1 0x1 PUSH1 0xA0 SHL SUB AND DUP2 MSTORE RETURN JUMPDEST CALLVALUE PUSH2 0x204 JUMPI PUSH1 0x0 CALLDATASIZE PUSH1 0x3 NOT ADD SLT PUSH2 0x204 JUMPI PUSH1 0x9 SLOAD PUSH1 0x40 MLOAD PUSH1 0x1 PUSH1 0x1 PUSH1 0xA0 SHL SUB SWAP1 SWAP2 AND DUP2 MSTORE PUSH1 0x20 SWAP1 RETURN JUMPDEST CALLVALUE PUSH2 0x204 JUMPI PUSH1 0x0 CALLDATASIZE PUSH1 0x3 NOT ADD SLT PUSH2 0x204 JUMPI PUSH1 0x20 PUSH1 0x40 MLOAD PUSH1 0xFF PUSH32 0x0 AND DUP2 MSTORE RETURN JUMPDEST CALLVALUE PUSH2 0x204 JUMPI PUSH2 0x620 CALLDATASIZE PUSH1 0x3 NOT ADD SLT PUSH2 0x204 JUMPI PUSH2 0x141D PUSH2 0x258B JUMP JUMPDEST PUSH1 0x24 CALLDATALOAD SWAP1 CALLDATASIZE PUSH1 0x43 NOT ADD PUSH2 0x500 DUP2 SLT PUSH2 0x204 JUMPI PUSH2 0x100 PUSH1 0x40 MLOAD SWAP2 PUSH2 0x143F DUP4 PUSH2 0x269E JUMP JUMPDEST SLT PUSH2 0x204 JUMPI PUSH1 0x40 MLOAD SWAP2 PUSH2 0x1451 DUP4 PUSH2 0x26BA JUMP JUMPDEST PUSH2 0x145C CALLDATASIZE PUSH1 0x44 PUSH2 0x277D JUMP JUMPDEST DUP4 MSTORE CALLDATASIZE PUSH1 0xA3 SLT ISZERO PUSH2 0x204 JUMPI PUSH1 0x40 SWAP3 DUP4 MLOAD PUSH2 0x1476 DUP6 DUP3 PUSH2 0x26D6 JUMP JUMPDEST DUP1 CALLDATASIZE PUSH2 0x104 GT PUSH2 0x204 JUMPI DUP6 PUSH1 0x84 SWAP2 JUMPDEST PUSH2 0x104 DUP4 LT PUSH2 0x1BF1 JUMPI POP POP POP PUSH1 0x20 DUP3 ADD MSTORE PUSH2 0x14A2 CALLDATASIZE PUSH2 0x104 PUSH2 0x277D JUMP JUMPDEST DUP5 DUP3 ADD MSTORE DUP3 MSTORE CALLDATASIZE PUSH2 0x163 SLT ISZERO PUSH2 0x204 JUMPI DUP3 MLOAD PUSH2 0x14C0 PUSH2 0x400 DUP3 PUSH2 0x26D6 JUMP JUMPDEST DUP1 CALLDATASIZE PUSH2 0x544 GT PUSH2 0x204 JUMPI PUSH2 0x144 SWAP1 JUMPDEST PUSH2 0x544 DUP3 LT PUSH2 0x1BE1 JUMPI POP POP PUSH1 0x20 DUP4 ADD SWAP1 DUP2 MSTORE CALLDATASIZE PUSH2 0x624 GT PUSH2 0x204 JUMPI PUSH1 0xA SLOAD ISZERO ISZERO DUP1 PUSH2 0x1BD4 JUMPI JUMPDEST PUSH2 0x14FE SWAP1 PUSH2 0x2A05 JUMP JUMPDEST PUSH1 0x9 SLOAD PUSH2 0x1515 SWAP1 PUSH1 0x1 PUSH1 0x1 PUSH1 0xA0 SHL SUB AND ISZERO ISZERO PUSH2 0x2A51 JUMP JUMPDEST PUSH1 0xC SLOAD DUP5 MLOAD PUSH4 0xB1FBA91 PUSH1 0xE1 SHL DUP2 MSTORE CALLER PUSH1 0x4 DUP3 ADD MSTORE PUSH1 0x1 PUSH1 0x1 PUSH1 0xA0 SHL SUB SWAP1 SWAP2 AND SWAP4 SWAP1 PUSH1 0x20 DUP2 PUSH1 0x24 DUP2 DUP9 GAS STATICCALL SWAP1 DUP2 ISZERO PUSH2 0x1BAA JUMPI PUSH1 0x0 SWAP2 PUSH2 0x1BB5 JUMPI JUMPDEST POP ISZERO PUSH2 0x8CC JUMPI DUP5 MLOAD PUSH4 0xB1FBA91 PUSH1 0xE1 SHL DUP2 MSTORE PUSH1 0x1 PUSH1 0x1 PUSH1 0xA0 SHL SUB DUP5 AND PUSH1 0x4 DUP3 ADD DUP2 SWAP1 MSTORE SWAP5 PUSH1 0x20 SWAP1 DUP3 SWAP1 PUSH1 0x24 SWAP1 DUP3 SWAP1 GAS STATICCALL SWAP1 DUP2 ISZERO PUSH2 0x1BAA JUMPI PUSH1 0x0 SWAP2 PUSH2 0x1B8B JUMPI JUMPDEST POP ISZERO PUSH2 0x8CC JUMPI DUP2 PUSH2 0x15E4 PUSH2 0x1645 SWAP4 MLOAD SWAP5 PUSH2 0x15C0 DUP9 MLOAD PUSH2 0x15AC DUP2 PUSH2 0x269E JUMP JUMPDEST DUP8 MLOAD DUP2 MSTORE PUSH1 0x20 DUP9 ADD MLOAD PUSH1 0x20 DUP3 ADD MSTORE CALLER PUSH2 0x33A7 JUMP JUMPDEST DUP8 MLOAD SWAP1 PUSH2 0x15CC DUP3 PUSH2 0x269E JUMP JUMPDEST PUSH2 0x140 DUP8 ADD MLOAD DUP3 MSTORE PUSH2 0x160 DUP8 ADD MLOAD PUSH1 0x20 DUP4 ADD MSTORE PUSH2 0x33A7 JUMP JUMPDEST PUSH2 0x160A DUP7 MLOAD PUSH2 0x15F2 DUP2 PUSH2 0x269E JUMP JUMPDEST PUSH2 0x2E0 DUP7 ADD MLOAD DUP2 MSTORE PUSH2 0x300 DUP7 ADD MLOAD PUSH1 0x20 DUP3 ADD MSTORE PUSH2 0x3430 JUMP JUMPDEST PUSH1 0x1 DUP1 PUSH1 0xA0 SHL SUB PUSH1 0xF SLOAD AND SWAP2 MLOAD PUSH2 0x1659 DUP2 MLOAD SWAP3 PUSH2 0x164F DUP10 PUSH1 0x20 DUP6 ADD MLOAD SWAP5 ADD MLOAD SWAP2 MLOAD SWAP4 DUP11 MLOAD SWAP8 DUP9 SWAP7 PUSH4 0xF3022C9 PUSH1 0xE2 SHL DUP9 MSTORE PUSH1 0x4 DUP9 ADD SWAP1 PUSH2 0x2AC2 JUMP JUMPDEST PUSH1 0x44 DUP7 ADD SWAP1 PUSH2 0x2AEA JUMP JUMPDEST PUSH1 0xC4 DUP5 ADD SWAP1 PUSH2 0x2AC2 JUMP JUMPDEST PUSH1 0x0 PUSH2 0x104 DUP4 ADD JUMPDEST PUSH1 0x20 DUP3 LT PUSH2 0x1B71 JUMPI POP POP POP PUSH2 0x504 DUP2 PUSH1 0x20 SWAP4 GAS STATICCALL SWAP1 DUP2 ISZERO PUSH2 0x1B66 JUMPI PUSH1 0x0 SWAP2 PUSH2 0x1B47 JUMPI JUMPDEST POP ISZERO PUSH2 0x866 JUMPI DUP3 MLOAD PUSH1 0x80 DUP2 ADD DUP2 DUP2 LT PUSH8 0xFFFFFFFFFFFFFFFF DUP3 GT OR PUSH2 0x850 JUMPI DUP5 MSTORE PUSH2 0x16AD PUSH2 0x2840 JUMP JUMPDEST DUP2 MSTORE PUSH1 0x20 DUP2 ADD SWAP5 PUSH2 0x16BC PUSH2 0x2840 JUMP JUMPDEST DUP7 MSTORE DUP5 DUP3 ADD SWAP1 PUSH2 0x16CA PUSH2 0x2840 JUMP JUMPDEST DUP3 MSTORE PUSH1 0x60 DUP4 ADD PUSH1 0xE0 SWAP4 DUP8 MLOAD PUSH2 0x16DF DUP7 DUP3 PUSH2 0x26D6 JUMP JUMPDEST DUP6 CALLDATASIZE DUP3 CALLDATACOPY DUP3 MSTORE DUP8 DUP7 ADD MLOAD PUSH1 0x60 DUP8 ADD MLOAD DUP10 MLOAD SWAP2 PUSH2 0x16FA DUP4 PUSH2 0x269E JUMP JUMPDEST DUP3 MSTORE PUSH1 0x20 DUP3 ADD MSTORE PUSH1 0x80 DUP8 ADD MLOAD PUSH1 0xA0 DUP9 ADD MLOAD DUP11 MLOAD SWAP2 PUSH2 0x1717 DUP4 PUSH2 0x269E JUMP JUMPDEST DUP3 MSTORE PUSH1 0x20 DUP3 ADD MSTORE DUP10 MLOAD SWAP2 PUSH2 0x172A DUP4 PUSH2 0x269E JUMP JUMPDEST DUP3 MSTORE PUSH1 0x20 DUP3 ADD MSTORE DUP2 MSTORE PUSH1 0xC0 DUP7 ADD MLOAD DUP6 DUP8 ADD MLOAD DUP10 MLOAD SWAP2 PUSH2 0x1748 DUP4 PUSH2 0x269E JUMP JUMPDEST DUP3 MSTORE PUSH1 0x20 DUP3 ADD MSTORE PUSH2 0x100 DUP8 ADD MLOAD PUSH2 0x120 DUP9 ADD MLOAD DUP11 MLOAD SWAP2 PUSH2 0x1767 DUP4 PUSH2 0x269E JUMP JUMPDEST DUP3 MSTORE PUSH1 0x20 DUP3 ADD MSTORE DUP10 MLOAD SWAP2 PUSH2 0x177A DUP4 PUSH2 0x269E JUMP JUMPDEST DUP3 MSTORE PUSH1 0x20 DUP3 ADD MSTORE DUP10 MSTORE PUSH2 0x180 DUP7 ADD MLOAD PUSH2 0x1A0 DUP8 ADD MLOAD DUP10 MLOAD SWAP2 PUSH2 0x179B DUP4 PUSH2 0x269E JUMP JUMPDEST DUP3 MSTORE PUSH1 0x20 DUP3 ADD MSTORE PUSH2 0x1C0 DUP8 ADD MLOAD PUSH2 0x1E0 DUP9 ADD MLOAD DUP11 MLOAD SWAP2 PUSH2 0x17BA DUP4 PUSH2 0x269E JUMP JUMPDEST DUP3 MSTORE PUSH1 0x20 DUP3 ADD MSTORE DUP10 MLOAD SWAP2 PUSH2 0x17CD DUP4 PUSH2 0x269E JUMP JUMPDEST DUP3 MSTORE PUSH1 0x20 DUP3 ADD MSTORE DUP5 MSTORE PUSH1 0x0 JUMPDEST PUSH1 0x7 DUP2 LT PUSH2 0x1B05 JUMPI POP MLOAD SWAP8 MLOAD SWAP3 MLOAD SWAP1 MLOAD SWAP3 DUP8 MLOAD SWAP1 PUSH2 0x17F8 PUSH1 0xE0 DUP4 PUSH2 0x26D6 JUMP JUMPDEST PUSH1 0x0 SWAP10 PUSH2 0x544 DUP4 JUMPDEST PUSH2 0x624 DUP3 LT PUSH2 0x1AF5 JUMPI POP POP SWAP1 PUSH2 0x1818 SWAP3 SWAP2 DUP6 CALLER PUSH2 0x34E3 JUMP JUMPDEST DUP6 DUP9 MSTORE PUSH1 0x8 PUSH1 0x20 MSTORE DUP7 DUP9 KECCAK256 DUP3 DUP10 MSTORE PUSH1 0x20 MSTORE DUP7 DUP9 KECCAK256 SWAP1 DUP2 SLOAD ISZERO DUP1 PUSH2 0x1AE9 JUMPI JUMPDEST ISZERO PUSH2 0x19A6 JUMPI PUSH1 0x20 DUP1 DUP3 DUP2 PUSH1 0x3 SWAP5 MLOAD DUP1 MLOAD DUP8 SSTORE ADD MLOAD PUSH1 0x1 DUP7 ADD SSTORE ADD MLOAD DUP1 MLOAD PUSH1 0x2 DUP6 ADD SSTORE ADD MLOAD SWAP2 ADD SSTORE JUMPDEST DUP5 DUP8 MSTORE PUSH1 0x8 PUSH1 0x20 MSTORE DUP6 DUP8 KECCAK256 SWAP1 DUP8 MSTORE PUSH1 0x20 MSTORE PUSH2 0x1913 DUP6 DUP8 KECCAK256 SWAP2 PUSH1 0xE PUSH1 0x5 DUP5 ADD SLOAD PUSH2 0x188E PUSH2 0x1889 DUP7 PUSH2 0x2814 JUMP JUMPDEST PUSH2 0x40AE JUMP JUMPDEST SWAP1 DUP10 MLOAD SWAP1 PUSH1 0x20 DUP3 ADD SWAP3 DUP4 MSTORE DUP11 DUP3 ADD MSTORE DUP10 DUP2 MSTORE PUSH2 0x18AB PUSH1 0x60 DUP3 PUSH2 0x26D6 JUMP JUMPDEST MLOAD SWAP1 KECCAK256 SWAP4 PUSH2 0x18F8 DUP11 PUSH1 0x1 PUSH1 0x6 DUP5 ADD SWAP8 DUP13 DUP10 SLOAD SWAP4 DUP2 MLOAD SWAP5 PUSH2 0x18CA DUP7 PUSH2 0x269E JUMP JUMPDEST DUP6 MSTORE PUSH1 0x20 DUP6 ADD SWAP3 DUP5 DUP5 MSTORE DUP2 MSTORE PUSH1 0x4 DUP8 ADD PUSH1 0x20 MSTORE KECCAK256 SWAP3 MLOAD DUP4 SSTORE MLOAD ISZERO ISZERO SWAP2 ADD SWAP1 PUSH1 0xFF DUP1 NOT DUP4 SLOAD AND SWAP2 ISZERO ISZERO AND OR SWAP1 SSTORE JUMP JUMPDEST DUP5 SLOAD DUP10 MLOAD SWAP4 PUSH2 0x1906 DUP6 PUSH2 0x269E JUMP JUMPDEST DUP5 MSTORE PUSH1 0x20 DUP5 ADD MSTORE ADD PUSH2 0x38B4 JUMP JUMPDEST PUSH2 0x191D DUP2 SLOAD PUSH2 0x3907 JUMP JUMPDEST SWAP1 SSTORE DUP4 MLOAD SWAP2 PUSH2 0x192C DUP3 DUP5 PUSH2 0x26D6 JUMP JUMPDEST DUP2 CALLDATASIZE DUP5 CALLDATACOPY DUP6 JUMPDEST PUSH1 0x7 DUP2 LT PUSH2 0x197B JUMPI POP POP PUSH32 0x1FE42C57A12EE7D4848276C111F82C24FE213A94A603B21DA88785CD882C9CCF SWAP1 PUSH2 0x1975 PUSH1 0x1 DUP1 PUSH1 0xA0 SHL SUB PUSH1 0x9 SLOAD AND SWAP6 MLOAD DUP1 SWAP5 PUSH2 0x25B7 JUMP JUMPDEST CALLER SWAP3 LOG4 DUP1 RETURN JUMPDEST DUP1 PUSH1 0x19 ADD DUP1 PUSH1 0x19 GT PUSH2 0x77D JUMPI SWAP1 PUSH2 0x1994 PUSH1 0x1 SWAP3 DUP5 PUSH2 0x2AB1 JUMP JUMPDEST MLOAD PUSH2 0x199F DUP3 DUP8 PUSH2 0x2AA0 JUMP JUMPDEST MSTORE ADD PUSH2 0x1932 JUMP JUMPDEST PUSH20 0x0 SWAP1 DUP9 PUSH2 0x19DD DUP2 DUP4 MLOAD DUP2 MLOAD DUP1 SWAP4 DUP2 SWAP3 PUSH4 0x7BB10BCB PUSH1 0xE0 SHL DUP4 MSTORE DUP10 PUSH1 0x4 DUP5 ADD PUSH2 0x37F8 JUMP JUMPDEST SUB DUP2 DUP8 GAS DELEGATECALL SWAP1 DUP2 ISZERO PUSH2 0x1ADF JUMPI DUP13 SWAP2 PUSH2 0x1A9B JUMPI JUMPDEST POP SWAP3 PUSH1 0x20 DUP5 PUSH2 0x1A28 SWAP6 MLOAD DUP8 SSTORE ADD MLOAD PUSH1 0x1 DUP7 ADD SSTORE PUSH1 0x20 PUSH1 0x2 DUP7 ADD SWAP4 ADD MLOAD SWAP1 DUP3 MLOAD DUP1 DUP1 SWAP7 DUP2 SWAP5 PUSH4 0x7BB10BCB PUSH1 0xE0 SHL DUP4 MSTORE DUP8 PUSH1 0x4 DUP5 ADD PUSH2 0x37F8 JUMP JUMPDEST SUB SWAP2 GAS DELEGATECALL SWAP2 DUP3 ISZERO PUSH2 0x1A91 JUMPI DUP11 SWAP3 PUSH2 0x1A4F JUMPI JUMPDEST POP DUP2 PUSH1 0x20 SWAP2 PUSH1 0x3 SWAP4 MLOAD SWAP1 SSTORE ADD MLOAD SWAP2 ADD SSTORE PUSH2 0x185E JUMP JUMPDEST SWAP2 POP DUP9 RETURNDATASIZE DUP11 GT PUSH2 0x1A8A JUMPI JUMPDEST PUSH2 0x1A64 DUP2 DUP5 PUSH2 0x26D6 JUMP JUMPDEST DUP3 ADD SWAP1 DUP10 DUP4 DUP4 SUB SLT PUSH2 0x1A86 JUMPI PUSH2 0x1A7E PUSH1 0x20 SWAP3 PUSH1 0x3 SWAP5 PUSH2 0x3465 JUMP JUMPDEST SWAP3 POP SWAP1 PUSH2 0x1A3A JUMP JUMPDEST DUP11 DUP1 REVERT JUMPDEST POP RETURNDATASIZE PUSH2 0x1A5A JUMP JUMPDEST DUP10 MLOAD RETURNDATASIZE DUP13 DUP3 RETURNDATACOPY RETURNDATASIZE SWAP1 REVERT JUMPDEST SWAP2 SWAP1 POP RETURNDATASIZE DUP12 GT PUSH2 0x1AD8 JUMPI JUMPDEST PUSH2 0x1AB0 DUP2 DUP4 PUSH2 0x26D6 JUMP JUMPDEST DUP2 ADD SWAP3 DUP11 DUP3 DUP6 SUB SLT PUSH2 0x1AD4 JUMPI PUSH1 0x20 PUSH2 0x1ACC PUSH2 0x1A28 SWAP6 DUP14 SWAP5 PUSH2 0x3465 JUMP JUMPDEST SWAP2 SWAP5 POP PUSH2 0x19F0 JUMP JUMPDEST DUP12 DUP1 REVERT JUMPDEST POP RETURNDATASIZE PUSH2 0x1AA6 JUMP JUMPDEST DUP3 MLOAD RETURNDATASIZE DUP15 DUP3 RETURNDATACOPY RETURNDATASIZE SWAP1 REVERT JUMPDEST POP PUSH1 0x1 DUP3 ADD SLOAD ISZERO PUSH2 0x1836 JUMP JUMPDEST DUP2 CALLDATALOAD DUP2 MSTORE PUSH1 0x20 SWAP2 DUP3 ADD SWAP2 ADD PUSH2 0x1800 JUMP JUMPDEST DUP1 PUSH1 0x10 ADD SWAP1 DUP2 PUSH1 0x10 GT PUSH2 0x1B31 JUMPI PUSH2 0x1B1E PUSH1 0x1 SWAP3 DUP10 PUSH2 0x2AB1 JUMP JUMPDEST MLOAD PUSH2 0x1B2A DUP3 DUP7 MLOAD PUSH2 0x2AA0 JUMP JUMPDEST MSTORE ADD PUSH2 0x17D9 JUMP JUMPDEST PUSH4 0x4E487B71 PUSH1 0xE0 SHL PUSH1 0x0 MSTORE PUSH1 0x11 PUSH1 0x4 MSTORE PUSH1 0x24 PUSH1 0x0 REVERT JUMPDEST PUSH2 0x1B60 SWAP2 POP PUSH1 0x20 RETURNDATASIZE PUSH1 0x20 GT PUSH2 0x89F JUMPI PUSH2 0x891 DUP2 DUP4 PUSH2 0x26D6 JUMP JUMPDEST DUP6 PUSH2 0x1684 JUMP JUMPDEST DUP5 MLOAD RETURNDATASIZE PUSH1 0x0 DUP3 RETURNDATACOPY RETURNDATASIZE SWAP1 REVERT JUMPDEST DUP3 SWAP4 POP PUSH1 0x20 DUP1 SWAP2 PUSH1 0x1 SWAP4 SWAP5 MLOAD DUP2 MSTORE ADD SWAP4 ADD SWAP2 ADD DUP5 SWAP3 PUSH2 0x1661 JUMP JUMPDEST PUSH2 0x1BA4 SWAP2 POP PUSH1 0x20 RETURNDATASIZE PUSH1 0x20 GT PUSH2 0x89F JUMPI PUSH2 0x891 DUP2 DUP4 PUSH2 0x26D6 JUMP JUMPDEST DUP8 PUSH2 0x158E JUMP JUMPDEST DUP7 MLOAD RETURNDATASIZE PUSH1 0x0 DUP3 RETURNDATACOPY RETURNDATASIZE SWAP1 REVERT JUMPDEST PUSH2 0x1BCE SWAP2 POP PUSH1 0x20 RETURNDATASIZE PUSH1 0x20 GT PUSH2 0x89F JUMPI PUSH2 0x891 DUP2 DUP4 PUSH2 0x26D6 JUMP JUMPDEST DUP8 PUSH2 0x154F JUMP JUMPDEST POP PUSH1 0xB SLOAD PUSH1 0x1 EQ ISZERO PUSH2 0x14F5 JUMP JUMPDEST DUP2 CALLDATALOAD DUP2 MSTORE PUSH1 0x20 SWAP2 DUP3 ADD SWAP2 ADD PUSH2 0x14CF JUMP JUMPDEST PUSH1 0x20 SWAP1 PUSH2 0x1BFE CALLDATASIZE DUP6 PUSH2 0x277D JUMP JUMPDEST DUP2 MSTORE ADD SWAP2 ADD SWAP1 DUP7 SWAP1 PUSH2 0x1485 JUMP JUMPDEST CALLVALUE PUSH2 0x204 JUMPI PUSH1 0x0 CALLDATASIZE PUSH1 0x3 NOT ADD SLT PUSH2 0x204 JUMPI PUSH1 0xC SLOAD PUSH1 0x40 MLOAD PUSH1 0x1 PUSH1 0x1 PUSH1 0xA0 SHL SUB SWAP1 SWAP2 AND DUP2 MSTORE PUSH1 0x20 SWAP1 RETURN JUMPDEST CALLVALUE PUSH2 0x204 JUMPI PUSH2 0x420 CALLDATASIZE PUSH1 0x3 NOT ADD SLT PUSH2 0x204 JUMPI PUSH2 0x1C4E PUSH2 0x258B JUMP JUMPDEST PUSH2 0x400 CALLDATASIZE PUSH1 0x23 NOT ADD SLT PUSH2 0x204 JUMPI PUSH2 0x1C63 PUSH2 0x3393 JUMP JUMPDEST PUSH1 0xA SLOAD ISZERO ISZERO DUP1 PUSH2 0x2217 JUMPI JUMPDEST PUSH2 0x1C77 SWAP1 PUSH2 0x2A05 JUMP JUMPDEST PUSH1 0x9 SLOAD PUSH2 0x1C8E SWAP1 PUSH1 0x1 PUSH1 0x1 PUSH1 0xA0 SHL SUB AND ISZERO ISZERO PUSH2 0x2A51 JUMP JUMPDEST PUSH1 0xFF PUSH1 0x3 SLOAD AND PUSH2 0x8FC JUMPI PUSH1 0xC SLOAD PUSH1 0x40 MLOAD PUSH4 0xB1FBA91 PUSH1 0xE1 SHL DUP2 MSTORE PUSH1 0x1 PUSH1 0x1 PUSH1 0xA0 SHL SUB DUP4 DUP2 AND PUSH1 0x4 DUP4 ADD DUP2 SWAP1 MSTORE SWAP3 PUSH1 0x20 SWAP2 DUP4 SWAP2 PUSH1 0x24 SWAP2 DUP4 SWAP2 AND GAS STATICCALL SWAP1 DUP2 ISZERO PUSH2 0x8A6 JUMPI PUSH1 0x0 SWAP2 PUSH2 0x21F8 JUMPI JUMPDEST POP ISZERO PUSH2 0x8CC JUMPI PUSH1 0x40 MLOAD SWAP2 PUSH2 0x1CED PUSH2 0x300 DUP5 PUSH2 0x26D6 JUMP JUMPDEST DUP3 CALLDATASIZE PUSH2 0x424 GT PUSH2 0x204 JUMPI PUSH2 0x124 SWAP1 JUMPDEST PUSH2 0x424 DUP3 LT PUSH2 0x21E8 JUMPI POP POP DUP3 MLOAD CHAINID SUB PUSH2 0x21D7 JUMPI PUSH1 0x40 MLOAD PUSH2 0x1D35 SWAP2 PUSH2 0x1D1F DUP3 PUSH2 0x269E JUMP JUMPDEST PUSH1 0x40 DUP6 ADD MLOAD DUP3 MSTORE PUSH1 0x60 DUP6 ADD MLOAD PUSH1 0x20 DUP4 ADD MSTORE PUSH2 0x33A7 JUMP JUMPDEST PUSH2 0x1D5C PUSH1 0x40 MLOAD PUSH2 0x1D44 DUP2 PUSH2 0x269E JUMP JUMPDEST PUSH2 0x1E0 DUP5 ADD MLOAD DUP2 MSTORE PUSH2 0x200 DUP5 ADD MLOAD PUSH1 0x20 DUP3 ADD MSTORE PUSH2 0x3430 JUMP JUMPDEST PUSH1 0x20 DUP3 ADD MLOAD PUSH32 0x30644E72E131A029B85045B68181585D2833E84879B9709143E1F593F0000001 DUP2 LT ISZERO PUSH2 0x21C6 JUMPI DUP1 PUSH1 0x0 MSTORE PUSH1 0x13 PUSH1 0x20 MSTORE PUSH1 0xFF PUSH1 0x40 PUSH1 0x0 KECCAK256 SLOAD AND PUSH2 0x866 JUMPI PUSH1 0xD SLOAD PUSH1 0x40 DUP1 MLOAD PUSH4 0x2680E2D PUSH1 0xE5 SHL DUP2 MSTORE SWAP2 PUSH1 0x1 PUSH1 0x1 PUSH1 0xA0 SHL SUB AND SWAP1 PUSH1 0x24 PUSH1 0x4 DUP5 ADD CALLDATACOPY DUP2 PUSH1 0x64 PUSH1 0x0 PUSH1 0x44 DUP4 ADD JUMPDEST PUSH1 0x2 DUP3 LT PUSH2 0x21AC JUMPI POP POP POP PUSH2 0x404 DUP2 PUSH1 0x20 SWAP4 PUSH1 0x40 PUSH1 0xE4 PUSH1 0xC4 DUP5 ADD CALLDATACOPY PUSH2 0x300 PUSH2 0x124 PUSH2 0x104 DUP5 ADD CALLDATACOPY GAS STATICCALL SWAP1 DUP2 ISZERO PUSH2 0x8A6 JUMPI PUSH1 0x0 SWAP2 PUSH2 0x218D JUMPI JUMPDEST POP ISZERO PUSH2 0x866 JUMPI PUSH1 0x80 DUP4 ADD MLOAD SWAP1 PUSH1 0xA0 DUP5 ADD MLOAD PUSH1 0x40 MLOAD SWAP3 PUSH2 0x1E22 DUP5 PUSH2 0x269E JUMP JUMPDEST DUP4 MSTORE PUSH1 0x20 DUP4 ADD MSTORE PUSH1 0xC0 DUP5 ADD MLOAD SWAP2 PUSH1 0xE0 DUP6 ADD MLOAD PUSH1 0x40 MLOAD SWAP4 PUSH2 0x1E41 DUP6 PUSH2 0x269E JUMP JUMPDEST DUP5 MSTORE PUSH1 0x20 DUP5 ADD MSTORE PUSH1 0x40 MLOAD SWAP1 PUSH2 0x1E55 DUP3 PUSH2 0x269E JUMP JUMPDEST DUP2 MSTORE PUSH1 0x20 DUP2 ADD SWAP3 DUP4 MSTORE PUSH1 0xE0 SWAP3 PUSH1 0x40 MLOAD SWAP2 PUSH2 0x1E6F DUP6 DUP5 PUSH2 0x26D6 JUMP JUMPDEST DUP5 CALLDATASIZE DUP5 CALLDATACOPY PUSH1 0x0 JUMPDEST PUSH1 0x7 DUP2 LT PUSH2 0x2162 JUMPI POP DUP6 PUSH1 0x0 MSTORE PUSH1 0x8 PUSH1 0x20 MSTORE PUSH1 0x40 PUSH1 0x0 KECCAK256 PUSH1 0x0 DUP1 MSTORE PUSH1 0x20 MSTORE PUSH1 0x40 PUSH1 0x0 KECCAK256 SWAP2 DUP3 SLOAD ISZERO DUP1 PUSH2 0x2156 JUMPI JUMPDEST ISZERO PUSH2 0x2026 JUMPI PUSH1 0x20 SWAP1 DUP2 PUSH1 0x3 SWAP4 MLOAD DUP1 MLOAD DUP7 SSTORE ADD MLOAD PUSH1 0x1 DUP6 ADD SSTORE MLOAD DUP1 MLOAD PUSH1 0x2 DUP6 ADD SSTORE ADD MLOAD SWAP2 ADD SSTORE JUMPDEST DUP4 PUSH1 0x0 MSTORE PUSH1 0x8 PUSH1 0x20 MSTORE PUSH1 0x40 PUSH1 0x0 KECCAK256 PUSH1 0x0 DUP1 MSTORE PUSH1 0x20 MSTORE PUSH2 0x1F7A PUSH1 0x40 PUSH1 0x0 KECCAK256 SWAP2 PUSH1 0xE PUSH1 0x5 DUP5 ADD SLOAD PUSH2 0x1EFA PUSH2 0x1889 DUP7 PUSH2 0x2814 JUMP JUMPDEST SWAP1 PUSH1 0x40 MLOAD SWAP1 PUSH1 0x20 DUP3 ADD SWAP3 DUP4 MSTORE PUSH1 0x40 DUP3 ADD MSTORE PUSH1 0x40 DUP2 MSTORE PUSH2 0x1F1A PUSH1 0x60 DUP3 PUSH2 0x26D6 JUMP JUMPDEST MLOAD SWAP1 KECCAK256 SWAP4 PUSH2 0x1F6B PUSH1 0x6 DUP3 ADD SWAP6 PUSH1 0x1 DUP8 SLOAD SWAP2 PUSH1 0x40 MLOAD SWAP3 PUSH2 0x1F38 DUP5 PUSH2 0x269E JUMP JUMPDEST DUP4 MSTORE PUSH1 0x20 DUP4 ADD SWAP1 DUP3 DUP3 MSTORE PUSH1 0x0 MSTORE PUSH1 0x4 DUP6 ADD PUSH1 0x20 MSTORE PUSH1 0x40 PUSH1 0x0 KECCAK256 SWAP3 MLOAD DUP4 SSTORE MLOAD ISZERO ISZERO SWAP2 ADD SWAP1 PUSH1 0xFF DUP1 NOT DUP4 SLOAD AND SWAP2 ISZERO ISZERO AND OR SWAP1 SSTORE JUMP JUMPDEST DUP5 SLOAD PUSH1 0x40 MLOAD SWAP4 PUSH2 0x1906 DUP6 PUSH2 0x269E JUMP JUMPDEST PUSH2 0x1F84 DUP2 SLOAD PUSH2 0x3907 JUMP JUMPDEST SWAP1 SSTORE PUSH1 0x0 MSTORE PUSH1 0x13 PUSH1 0x20 MSTORE PUSH1 0x40 PUSH1 0x0 KECCAK256 PUSH1 0x1 PUSH1 0xFF NOT DUP3 SLOAD AND OR SWAP1 SSTORE PUSH1 0x40 MLOAD SWAP3 PUSH2 0x1FAC DUP3 DUP6 PUSH2 0x26D6 JUMP JUMPDEST DUP2 CALLDATASIZE DUP6 CALLDATACOPY PUSH1 0x0 JUMPDEST PUSH1 0x7 DUP2 LT PUSH2 0x1FFB JUMPI POP POP PUSH32 0xD78494055B7F1585D1E50D778838EFD294162EDEAF41569996739183722254B SWAP1 PUSH1 0x1 DUP1 PUSH1 0xA0 SHL SUB PUSH1 0x9 SLOAD AND SWAP4 PUSH2 0x1FF8 PUSH1 0x40 MLOAD DUP1 SWAP3 PUSH2 0x25B7 JUMP JUMPDEST LOG3 STOP JUMPDEST DUP1 PUSH1 0x11 ADD SWAP1 DUP2 PUSH1 0x11 GT PUSH2 0x1B31 JUMPI PUSH2 0x2014 PUSH1 0x1 SWAP3 DUP5 PUSH2 0x2A8F JUMP JUMPDEST MLOAD PUSH2 0x201F DUP3 DUP9 PUSH2 0x2AA0 JUMP JUMPDEST MSTORE ADD PUSH2 0x1FB3 JUMP JUMPDEST PUSH2 0x205C PUSH1 0x40 PUSH20 0x0 SWAP4 MLOAD DUP2 MLOAD DUP1 SWAP4 DUP2 SWAP3 PUSH4 0x7BB10BCB PUSH1 0xE0 SHL DUP4 MSTORE DUP9 PUSH1 0x4 DUP5 ADD PUSH2 0x37F8 JUMP JUMPDEST SUB DUP2 DUP7 GAS DELEGATECALL SWAP1 DUP2 ISZERO PUSH2 0x8A6 JUMPI PUSH1 0x0 SWAP2 PUSH2 0x2111 JUMPI JUMPDEST POP DUP1 MLOAD DUP5 SSTORE PUSH1 0x20 ADD MLOAD PUSH1 0x1 DUP5 ADD SSTORE MLOAD PUSH1 0x40 DUP1 MLOAD PUSH4 0x7BB10BCB PUSH1 0xE0 SHL DUP2 MSTORE SWAP3 PUSH1 0x2 DUP6 ADD SWAP3 DUP5 SWAP2 SWAP1 DUP3 SWAP1 DUP2 SWAP1 PUSH2 0x20A8 SWAP1 DUP8 PUSH1 0x4 DUP5 ADD PUSH2 0x37F8 JUMP JUMPDEST SUB SWAP2 GAS DELEGATECALL SWAP2 DUP3 ISZERO PUSH2 0x8A6 JUMPI PUSH1 0x0 SWAP3 PUSH2 0x20D0 JUMPI JUMPDEST POP DUP2 PUSH1 0x20 SWAP2 PUSH1 0x3 SWAP4 MLOAD SWAP1 SSTORE ADD MLOAD SWAP2 ADD SSTORE PUSH2 0x1EC9 JUMP JUMPDEST SWAP2 POP PUSH1 0x40 RETURNDATASIZE PUSH1 0x40 GT PUSH2 0x210A JUMPI JUMPDEST PUSH2 0x20E7 DUP2 DUP5 PUSH2 0x26D6 JUMP JUMPDEST DUP3 ADD SWAP1 PUSH1 0x40 DUP4 DUP4 SUB SLT PUSH2 0x204 JUMPI PUSH2 0x2102 PUSH1 0x20 SWAP3 PUSH1 0x3 SWAP5 PUSH2 0x3465 JUMP JUMPDEST SWAP3 POP SWAP1 PUSH2 0x20BB JUMP JUMPDEST POP RETURNDATASIZE PUSH2 0x20DD JUMP JUMPDEST SWAP1 POP PUSH1 0x40 RETURNDATASIZE PUSH1 0x40 GT PUSH2 0x214F JUMPI JUMPDEST PUSH2 0x2128 DUP2 DUP4 PUSH2 0x26D6 JUMP JUMPDEST DUP2 ADD SWAP3 PUSH1 0x40 DUP3 DUP6 SUB SLT PUSH2 0x204 JUMPI PUSH1 0x20 PUSH2 0x2146 PUSH2 0x20A8 SWAP6 PUSH1 0x40 SWAP5 PUSH2 0x3465 JUMP JUMPDEST SWAP3 POP POP SWAP3 PUSH2 0x2070 JUMP JUMPDEST POP RETURNDATASIZE PUSH2 0x211E JUMP JUMPDEST POP PUSH1 0x1 DUP4 ADD SLOAD ISZERO PUSH2 0x1EA3 JUMP JUMPDEST DUP1 PUSH1 0x8 ADD SWAP1 DUP2 PUSH1 0x8 GT PUSH2 0x1B31 JUMPI PUSH2 0x217B PUSH1 0x1 SWAP3 DUP11 PUSH2 0x2A8F JUMP JUMPDEST MLOAD PUSH2 0x2186 DUP3 DUP8 PUSH2 0x2AA0 JUMP JUMPDEST MSTORE ADD PUSH2 0x1E76 JUMP JUMPDEST PUSH2 0x21A6 SWAP2 POP PUSH1 0x20 RETURNDATASIZE PUSH1 0x20 GT PUSH2 0x89F JUMPI PUSH2 0x891 DUP2 DUP4 PUSH2 0x26D6 JUMP JUMPDEST DUP5 PUSH2 0x1E04 JUMP JUMPDEST DUP3 SWAP4 POP PUSH1 0x40 DUP2 DUP2 PUSH1 0x1 SWAP5 SWAP6 DUP2 SWAP5 CALLDATACOPY ADD SWAP4 ADD SWAP2 ADD DUP5 SWAP3 PUSH2 0x1DCC JUMP JUMPDEST PUSH4 0x2EC82659 PUSH1 0xE1 SHL PUSH1 0x0 MSTORE PUSH1 0x4 PUSH1 0x0 REVERT JUMPDEST PUSH4 0x3D23E4D1 PUSH1 0xE1 SHL PUSH1 0x0 MSTORE PUSH1 0x4 PUSH1 0x0 REVERT JUMPDEST DUP2 CALLDATALOAD DUP2 MSTORE PUSH1 0x20 SWAP2 DUP3 ADD SWAP2 ADD PUSH2 0x1CFC JUMP JUMPDEST PUSH2 0x2211 SWAP2 POP PUSH1 0x20 RETURNDATASIZE PUSH1 0x20 GT PUSH2 0x89F JUMPI PUSH2 0x891 DUP2 DUP4 PUSH2 0x26D6 JUMP JUMPDEST DUP4 PUSH2 0x1CD7 JUMP JUMPDEST POP PUSH1 0xB SLOAD PUSH1 0x1 EQ ISZERO PUSH2 0x1C6E JUMP JUMPDEST CALLVALUE PUSH2 0x204 JUMPI PUSH1 0x40 CALLDATASIZE PUSH1 0x3 NOT ADD SLT PUSH2 0x204 JUMPI PUSH2 0x223D PUSH2 0x258B JUMP JUMPDEST PUSH1 0x24 CALLDATALOAD DUP1 ISZERO ISZERO DUP2 SUB PUSH2 0x204 JUMPI PUSH2 0xF0B SWAP2 PUSH2 0x2255 PUSH2 0x3393 JUMP JUMPDEST PUSH1 0x1 DUP1 PUSH1 0xA0 SHL SUB AND PUSH1 0x0 MSTORE PUSH1 0x7 PUSH1 0x20 MSTORE PUSH1 0x40 PUSH1 0x0 KECCAK256 SWAP1 PUSH1 0xFF DUP1 NOT DUP4 SLOAD AND SWAP2 ISZERO ISZERO AND OR SWAP1 SSTORE JUMP JUMPDEST CALLVALUE PUSH2 0x204 JUMPI PUSH1 0x40 CALLDATASIZE PUSH1 0x3 NOT ADD SLT PUSH2 0x204 JUMPI PUSH2 0xD6C PUSH2 0x22DB PUSH2 0x229A PUSH2 0x258B JUMP JUMPDEST PUSH2 0x22A2 PUSH2 0x25A1 JUMP JUMPDEST PUSH2 0x22AA PUSH2 0x2840 JUMP JUMPDEST POP PUSH1 0xE0 PUSH1 0x40 MLOAD PUSH2 0x22BA DUP3 DUP3 PUSH2 0x26D6 JUMP JUMPDEST CALLDATASIZE SWAP1 CALLDATACOPY PUSH1 0x1 PUSH1 0x1 PUSH1 0xA0 SHL SUB AND PUSH1 0x0 SWAP1 DUP2 MSTORE PUSH1 0x4 PUSH1 0x20 MSTORE PUSH1 0x40 SWAP1 KECCAK256 SLOAD SWAP1 PUSH2 0x28BB JUMP JUMPDEST SWAP2 PUSH1 0x40 SWAP6 SWAP4 SWAP6 MLOAD SWAP6 DUP7 SWAP6 DUP7 PUSH2 0x25DF JUMP JUMPDEST CALLVALUE PUSH2 0x204 JUMPI PUSH1 0x20 CALLDATASIZE PUSH1 0x3 NOT ADD SLT PUSH2 0x204 JUMPI PUSH2 0x2304 PUSH2 0x258B JUMP JUMPDEST PUSH2 0x230C PUSH2 0x3393 JUMP JUMPDEST PUSH1 0xC SLOAD PUSH1 0x40 MLOAD PUSH4 0xB1FBA91 PUSH1 0xE1 SHL DUP2 MSTORE PUSH1 0x1 PUSH1 0x1 PUSH1 0xA0 SHL SUB SWAP3 DUP4 AND PUSH1 0x4 DUP3 ADD DUP2 SWAP1 MSTORE SWAP3 SWAP1 SWAP2 AND SWAP1 PUSH1 0x20 DUP2 PUSH1 0x24 DUP2 DUP6 GAS STATICCALL SWAP1 DUP2 ISZERO PUSH2 0x8A6 JUMPI PUSH1 0x0 SWAP2 PUSH2 0x242B JUMPI JUMPDEST POP ISZERO PUSH2 0x8CC JUMPI PUSH1 0x40 PUSH1 0x24 SWAP2 DUP2 MLOAD SWAP3 DUP4 DUP1 SWAP3 PUSH3 0x8918FF PUSH1 0xE5 SHL DUP3 MSTORE DUP7 PUSH1 0x4 DUP4 ADD MSTORE GAS STATICCALL SWAP1 DUP2 ISZERO PUSH2 0x8A6 JUMPI PUSH1 0x0 SWAP2 PUSH2 0x23FC JUMPI JUMPDEST POP PUSH1 0x9 SLOAD SWAP1 DUP3 ISZERO PUSH2 0x23EB JUMPI DUP3 PUSH1 0x1 PUSH1 0x1 PUSH1 0x60 SHL SUB PUSH1 0xA0 SHL DUP4 AND OR PUSH1 0x9 SSTORE PUSH1 0x20 DUP2 MLOAD SWAP2 ADD MLOAD SWAP1 DUP2 PUSH1 0x20 PUSH1 0x40 MLOAD PUSH2 0x23B0 DUP2 PUSH2 0x269E JUMP JUMPDEST DUP4 DUP2 MSTORE ADD MSTORE PUSH1 0xA SSTORE PUSH1 0xB SSTORE PUSH1 0x1 PUSH1 0x1 PUSH1 0xA0 SHL SUB AND PUSH32 0xDBEEB2970745C839058876B084C0D772566FF6B5AAA47938C394CD171A38C24C PUSH1 0x0 DUP1 LOG3 STOP JUMPDEST PUSH4 0xD92E233D PUSH1 0xE0 SHL PUSH1 0x0 MSTORE PUSH1 0x4 PUSH1 0x0 REVERT JUMPDEST PUSH2 0x241E SWAP2 POP PUSH1 0x40 RETURNDATASIZE PUSH1 0x40 GT PUSH2 0x2424 JUMPI JUMPDEST PUSH2 0x2416 DUP2 DUP4 PUSH2 0x26D6 JUMP JUMPDEST DUP2 ADD SWAP1 PUSH2 0x29B6 JUMP JUMPDEST DUP3 PUSH2 0x237C JUMP JUMPDEST POP RETURNDATASIZE PUSH2 0x240C JUMP JUMPDEST PUSH2 0x2444 SWAP2 POP PUSH1 0x20 RETURNDATASIZE PUSH1 0x20 GT PUSH2 0x89F JUMPI PUSH2 0x891 DUP2 DUP4 PUSH2 0x26D6 JUMP JUMPDEST DUP4 PUSH2 0x234B JUMP JUMPDEST CALLVALUE PUSH2 0x204 JUMPI PUSH1 0x0 CALLDATASIZE PUSH1 0x3 NOT ADD SLT PUSH2 0x204 JUMPI PUSH1 0x0 PUSH1 0x40 MLOAD SWAP1 DUP1 PUSH1 0x11 SLOAD SWAP1 DUP2 PUSH1 0x1 SHR SWAP2 PUSH1 0x1 DUP2 AND DUP1 ISZERO PUSH2 0x24FF JUMPI JUMPDEST PUSH1 0x20 DUP5 LT DUP2 EQ PUSH2 0x1056 JUMPI DUP4 DUP7 MSTORE SWAP1 DUP2 ISZERO PUSH2 0x102F JUMPI POP PUSH1 0x1 EQ PUSH2 0x24A2 JUMPI PUSH2 0xD6C DUP5 PUSH2 0xFC6 DUP2 DUP7 SUB DUP3 PUSH2 0x26D6 JUMP JUMPDEST PUSH1 0x11 DUP2 MSTORE PUSH32 0x31ECC21A745E3968A04E9570E4425BC18FA8019C68028196B546D1669C200C68 SWAP4 SWAP3 POP SWAP1 JUMPDEST DUP1 DUP3 LT PUSH2 0x24E5 JUMPI POP SWAP1 SWAP2 POP DUP2 ADD PUSH1 0x20 ADD PUSH2 0xFC6 DUP3 PUSH2 0xFB6 JUMP JUMPDEST SWAP2 SWAP3 PUSH1 0x1 DUP2 PUSH1 0x20 SWAP3 SLOAD DUP4 DUP6 DUP9 ADD ADD MSTORE ADD SWAP2 ADD SWAP1 SWAP3 SWAP2 PUSH2 0x24CC JUMP JUMPDEST SWAP3 PUSH1 0x7F AND SWAP3 PUSH2 0x2476 JUMP JUMPDEST CALLVALUE PUSH2 0x204 JUMPI PUSH1 0x0 CALLDATASIZE PUSH1 0x3 NOT ADD SLT PUSH2 0x204 JUMPI PUSH1 0xA SLOAD ISZERO ISZERO DUP1 PUSH2 0x2532 JUMPI JUMPDEST PUSH1 0x20 SWAP1 PUSH1 0x40 MLOAD SWAP1 ISZERO ISZERO DUP2 MSTORE RETURN JUMPDEST POP PUSH1 0xB SLOAD PUSH1 0x1 EQ ISZERO PUSH2 0x2525 JUMP JUMPDEST CALLVALUE PUSH2 0x204 JUMPI PUSH1 0x40 CALLDATASIZE PUSH1 0x3 NOT ADD SLT PUSH2 0x204 JUMPI PUSH2 0xD6C PUSH2 0x22DB PUSH2 0x255E PUSH2 0x258B JUMP JUMPDEST PUSH1 0x24 CALLDATALOAD SWAP1 PUSH2 0x28BB JUMP JUMPDEST CALLVALUE PUSH2 0x204 JUMPI PUSH1 0x0 CALLDATASIZE PUSH1 0x3 NOT ADD SLT PUSH2 0x204 JUMPI PUSH1 0xD SLOAD PUSH1 0x1 PUSH1 0x1 PUSH1 0xA0 SHL SUB AND DUP2 MSTORE PUSH1 0x20 SWAP1 RETURN JUMPDEST PUSH1 0x4 CALLDATALOAD SWAP1 PUSH1 0x1 PUSH1 0x1 PUSH1 0xA0 SHL SUB DUP3 AND DUP3 SUB PUSH2 0x204 JUMPI JUMP JUMPDEST PUSH1 0x24 CALLDATALOAD SWAP1 PUSH1 0x1 PUSH1 0x1 PUSH1 0xA0 SHL SUB DUP3 AND DUP3 SUB PUSH2 0x204 JUMPI JUMP JUMPDEST SWAP1 PUSH1 0x0 SWAP1 JUMPDEST PUSH1 0x7 DUP3 LT PUSH2 0x25C9 JUMPI POP POP POP JUMP JUMPDEST PUSH1 0x20 DUP1 PUSH1 0x1 SWAP3 DUP6 MLOAD DUP2 MSTORE ADD SWAP4 ADD SWAP2 ADD SWAP1 SWAP2 PUSH2 0x25BC JUMP JUMPDEST SWAP3 SWAP2 SWAP6 SWAP5 SWAP4 SWAP6 PUSH2 0x2612 DUP5 PUSH2 0x1C0 DUP2 ADD SWAP4 PUSH1 0x20 DUP1 PUSH1 0x60 SWAP3 DUP2 DUP2 MLOAD DUP1 MLOAD DUP8 MSTORE ADD MLOAD DUP3 DUP7 ADD MSTORE ADD MLOAD DUP1 MLOAD PUSH1 0x40 DUP6 ADD MSTORE ADD MLOAD SWAP2 ADD MSTORE JUMP JUMPDEST PUSH1 0x80 DUP5 ADD MSTORE PUSH2 0x1C0 PUSH1 0xA0 DUP5 ADD MSTORE DUP2 MLOAD DUP1 SWAP2 MSTORE PUSH1 0x20 PUSH2 0x1E0 DUP5 ADD SWAP3 ADD SWAP1 PUSH1 0x0 JUMPDEST DUP2 DUP2 LT PUSH2 0x2652 JUMPI POP POP POP SWAP1 PUSH2 0x264E PUSH2 0x1A0 SWAP3 SWAP6 PUSH1 0xC0 DUP4 ADD SWAP1 PUSH2 0x25B7 JUMP JUMPDEST ADD MSTORE JUMP JUMPDEST SWAP1 SWAP2 SWAP3 DUP4 MLOAD DUP1 MLOAD DUP3 SWAP1 PUSH1 0x0 SWAP2 JUMPDEST PUSH1 0x7 DUP4 LT PUSH2 0x2688 JUMPI POP POP POP PUSH2 0x100 PUSH1 0x1 SWAP3 PUSH1 0x20 DUP1 SWAP4 ADD MLOAD PUSH1 0xE0 DUP3 ADD MSTORE ADD SWAP5 ADD SWAP2 ADD SWAP2 SWAP1 SWAP2 PUSH2 0x2631 JUMP JUMPDEST PUSH1 0x20 DUP1 PUSH1 0x1 SWAP3 DUP5 MLOAD DUP2 MSTORE ADD SWAP3 ADD SWAP3 ADD SWAP2 SWAP1 PUSH2 0x265F JUMP JUMPDEST PUSH1 0x40 DUP2 ADD SWAP1 DUP2 LT PUSH8 0xFFFFFFFFFFFFFFFF DUP3 GT OR PUSH2 0x850 JUMPI PUSH1 0x40 MSTORE JUMP JUMPDEST PUSH1 0x60 DUP2 ADD SWAP1 DUP2 LT PUSH8 0xFFFFFFFFFFFFFFFF DUP3 GT OR PUSH2 0x850 JUMPI PUSH1 0x40 MSTORE JUMP JUMPDEST SWAP1 PUSH1 0x1F DUP1 NOT SWAP2 ADD AND DUP2 ADD SWAP1 DUP2 LT PUSH8 0xFFFFFFFFFFFFFFFF DUP3 GT OR PUSH2 0x850 JUMPI PUSH1 0x40 MSTORE JUMP JUMPDEST SWAP2 SWAP1 SWAP2 PUSH1 0x20 DUP2 MSTORE DUP3 MLOAD DUP1 PUSH1 0x20 DUP4 ADD MSTORE PUSH1 0x0 JUMPDEST DUP2 DUP2 LT PUSH2 0x272B JUMPI POP PUSH1 0x40 SWAP3 SWAP4 POP PUSH1 0x0 DUP4 DUP3 DUP5 ADD ADD MSTORE PUSH1 0x1F DUP1 NOT SWAP2 ADD AND ADD ADD SWAP1 JUMP JUMPDEST DUP1 PUSH1 0x20 DUP1 SWAP3 DUP8 ADD ADD MLOAD PUSH1 0x40 DUP3 DUP7 ADD ADD MSTORE ADD PUSH2 0x270A JUMP JUMPDEST SWAP2 SWAP1 PUSH1 0x40 MLOAD SWAP3 PUSH2 0x2752 PUSH1 0xE0 DUP6 PUSH2 0x26D6 JUMP JUMPDEST DUP4 SWAP1 PUSH1 0xE0 DUP2 ADD SWAP3 DUP4 GT PUSH2 0x204 JUMPI SWAP1 JUMPDEST DUP3 DUP3 LT PUSH2 0x276D JUMPI POP POP POP JUMP JUMPDEST DUP2 CALLDATALOAD DUP2 MSTORE PUSH1 0x20 SWAP2 DUP3 ADD SWAP2 ADD PUSH2 0x2761 JUMP JUMPDEST SWAP1 DUP1 PUSH1 0x1F DUP4 ADD SLT ISZERO PUSH2 0x204 JUMPI PUSH1 0x40 DUP1 MLOAD SWAP3 SWAP1 PUSH2 0x2799 SWAP1 DUP5 PUSH2 0x26D6 JUMP JUMPDEST DUP3 SWAP1 PUSH1 0x40 DUP2 ADD SWAP3 DUP4 GT PUSH2 0x204 JUMPI SWAP1 JUMPDEST DUP3 DUP3 LT PUSH2 0x27B5 JUMPI POP POP POP SWAP1 JUMP JUMPDEST DUP2 CALLDATALOAD DUP2 MSTORE PUSH1 0x20 SWAP2 DUP3 ADD SWAP2 ADD PUSH2 0x27A8 JUMP JUMPDEST PUSH1 0x6 SLOAD DUP2 LT ISZERO PUSH2 0x27E0 JUMPI PUSH1 0x6 PUSH1 0x0 MSTORE PUSH1 0x20 PUSH1 0x0 KECCAK256 ADD SWAP1 PUSH1 0x0 SWAP1 JUMP JUMPDEST PUSH4 0x4E487B71 PUSH1 0xE0 SHL PUSH1 0x0 MSTORE PUSH1 0x32 PUSH1 0x4 MSTORE PUSH1 0x24 PUSH1 0x0 REVERT JUMPDEST SWAP1 PUSH1 0x40 MLOAD PUSH2 0x2803 DUP2 PUSH2 0x269E JUMP JUMPDEST PUSH1 0x20 PUSH1 0x1 DUP3 SWAP5 DUP1 SLOAD DUP5 MSTORE ADD SLOAD SWAP2 ADD MSTORE JUMP JUMPDEST SWAP1 PUSH1 0x40 MLOAD PUSH2 0x2821 DUP2 PUSH2 0x269E JUMP JUMPDEST PUSH1 0x20 PUSH2 0x283B PUSH1 0x2 DUP4 SWAP6 PUSH2 0x2833 DUP2 PUSH2 0x27F6 JUMP JUMPDEST DUP6 MSTORE ADD PUSH2 0x27F6 JUMP JUMPDEST SWAP2 ADD MSTORE JUMP JUMPDEST PUSH1 0x40 MLOAD SWAP1 PUSH2 0x284D DUP3 PUSH2 0x269E JUMP JUMPDEST DUP2 PUSH1 0x40 MLOAD PUSH2 0x285A DUP2 PUSH2 0x269E JUMP JUMPDEST PUSH1 0x0 DUP2 MSTORE PUSH1 0x0 PUSH1 0x20 DUP3 ADD MSTORE DUP2 MSTORE PUSH1 0x20 PUSH1 0x40 MLOAD SWAP2 PUSH2 0x2876 DUP4 PUSH2 0x269E JUMP JUMPDEST PUSH1 0x0 DUP4 MSTORE PUSH1 0x0 DUP3 DUP5 ADD MSTORE ADD MSTORE JUMP JUMPDEST PUSH1 0x40 MLOAD SWAP2 SWAP1 PUSH1 0x0 DUP4 JUMPDEST PUSH1 0x7 DUP3 LT PUSH2 0x28A5 JUMPI POP POP POP PUSH2 0x28A3 PUSH1 0xE0 DUP4 PUSH2 0x26D6 JUMP JUMPDEST JUMP JUMPDEST PUSH1 0x1 PUSH1 0x20 DUP2 SWAP3 DUP6 SLOAD DUP2 MSTORE ADD SWAP4 ADD SWAP2 ADD SWAP1 SWAP2 PUSH2 0x288D JUMP JUMPDEST PUSH2 0x28C3 PUSH2 0x2840 JUMP JUMPDEST POP PUSH1 0xE0 PUSH1 0x40 MLOAD PUSH2 0x28D3 DUP3 DUP3 PUSH2 0x26D6 JUMP JUMPDEST CALLDATASIZE SWAP1 CALLDATACOPY PUSH1 0x1 DUP1 PUSH1 0xA0 SHL SUB AND PUSH1 0x0 MSTORE PUSH1 0x8 PUSH1 0x20 MSTORE PUSH1 0x40 PUSH1 0x0 KECCAK256 SWAP1 PUSH1 0x0 MSTORE PUSH1 0x20 MSTORE PUSH1 0x40 PUSH1 0x0 KECCAK256 SWAP1 PUSH1 0x5 DUP3 ADD SLOAD SWAP2 PUSH1 0xE DUP2 ADD SWAP2 PUSH1 0x6 DUP3 ADD SLOAD SWAP1 PUSH2 0x2912 DUP4 PUSH2 0x2814 JUMP JUMPDEST SWAP5 SWAP4 DUP1 SLOAD PUSH8 0xFFFFFFFFFFFFFFFF DUP2 GT PUSH2 0x850 JUMPI PUSH1 0x40 MLOAD SWAP2 PUSH2 0x2939 PUSH1 0x20 DUP4 PUSH1 0x5 SHL ADD DUP5 PUSH2 0x26D6 JUMP JUMPDEST DUP2 DUP4 MSTORE PUSH1 0x20 DUP4 ADD SWAP1 PUSH1 0x0 MSTORE PUSH1 0x20 PUSH1 0x0 KECCAK256 PUSH1 0x0 SWAP2 JUMPDEST DUP4 DUP4 LT PUSH2 0x2969 JUMPI POP POP POP POP PUSH1 0x7 PUSH2 0x2965 SWAP2 SWAP5 ADD PUSH2 0x2884 JUMP JUMPDEST SWAP2 SWAP1 JUMP JUMPDEST PUSH1 0x8 PUSH1 0x20 PUSH1 0x1 SWAP3 PUSH1 0x40 MLOAD PUSH2 0x297C DUP2 PUSH2 0x269E JUMP JUMPDEST PUSH2 0x2985 DUP7 PUSH2 0x2884 JUMP JUMPDEST DUP2 MSTORE PUSH1 0x7 DUP7 ADD SLOAD DUP4 DUP3 ADD MSTORE DUP2 MSTORE ADD SWAP3 ADD SWAP3 ADD SWAP2 SWAP1 PUSH2 0x294D JUMP JUMPDEST SWAP1 DUP2 PUSH1 0x20 SWAP2 SUB SLT PUSH2 0x204 JUMPI MLOAD DUP1 ISZERO ISZERO DUP2 SUB PUSH2 0x204 JUMPI SWAP1 JUMP JUMPDEST SWAP1 PUSH1 0x40 DUP3 DUP3 SUB SLT PUSH2 0x204 JUMPI DUP1 PUSH1 0x1F DUP4 ADD SLT ISZERO PUSH2 0x204 JUMPI PUSH1 0x40 DUP1 MLOAD SWAP3 PUSH2 0x29DB DUP3 DUP6 PUSH2 0x26D6 JUMP JUMPDEST DUP4 SWAP2 DUP2 ADD SWAP3 DUP4 GT PUSH2 0x204 JUMPI SWAP1 JUMPDEST DUP3 DUP3 LT PUSH2 0x29F5 JUMPI POP POP POP SWAP1 JUMP JUMPDEST DUP2 MLOAD DUP2 MSTORE PUSH1 0x20 SWAP2 DUP3 ADD SWAP2 ADD PUSH2 0x29E8 JUMP JUMPDEST ISZERO PUSH2 0x2A0C JUMPI JUMP JUMPDEST PUSH1 0x40 MLOAD PUSH3 0x461BCD PUSH1 0xE5 SHL DUP2 MSTORE PUSH1 0x20 PUSH1 0x4 DUP3 ADD MSTORE PUSH1 0x1A PUSH1 0x24 DUP3 ADD MSTORE PUSH32 0x41756469746F72207075626C6963206B6579206E6F7420736574000000000000 PUSH1 0x44 DUP3 ADD MSTORE PUSH1 0x64 SWAP1 REVERT JUMPDEST ISZERO PUSH2 0x2A58 JUMPI JUMP JUMPDEST PUSH1 0x40 MLOAD PUSH3 0x461BCD PUSH1 0xE5 SHL DUP2 MSTORE PUSH1 0x20 PUSH1 0x4 DUP3 ADD MSTORE PUSH1 0xF PUSH1 0x24 DUP3 ADD MSTORE PUSH15 0x105D591A5D1BDC881B9BDD081CD95D PUSH1 0x8A SHL PUSH1 0x44 DUP3 ADD MSTORE PUSH1 0x64 SWAP1 REVERT JUMPDEST SWAP1 PUSH1 0x18 DUP2 LT ISZERO PUSH2 0x27E0 JUMPI PUSH1 0x5 SHL ADD SWAP1 JUMP JUMPDEST SWAP1 PUSH1 0x7 DUP2 LT ISZERO PUSH2 0x27E0 JUMPI PUSH1 0x5 SHL ADD SWAP1 JUMP JUMPDEST SWAP1 PUSH1 0x20 DUP2 LT ISZERO PUSH2 0x27E0 JUMPI PUSH1 0x5 SHL ADD SWAP1 JUMP JUMPDEST SWAP1 PUSH1 0x0 SWAP1 JUMPDEST PUSH1 0x2 DUP3 LT PUSH2 0x2AD4 JUMPI POP POP POP JUMP JUMPDEST PUSH1 0x20 DUP1 PUSH1 0x1 SWAP3 DUP6 MLOAD DUP2 MSTORE ADD SWAP4 ADD SWAP2 ADD SWAP1 SWAP2 PUSH2 0x2AC7 JUMP JUMPDEST SWAP1 PUSH1 0x0 SWAP1 JUMPDEST PUSH1 0x2 DUP3 LT PUSH2 0x2AFC JUMPI POP POP POP JUMP JUMPDEST PUSH1 0x20 PUSH1 0x40 DUP3 PUSH2 0x2B0E PUSH1 0x1 SWAP5 DUP8 MLOAD PUSH2 0x2AC2 JUMP JUMPDEST ADD SWAP4 ADD SWAP2 ADD SWAP1 SWAP2 PUSH2 0x2AEF JUMP JUMPDEST SWAP2 PUSH1 0x1 PUSH1 0x1 PUSH1 0xA0 SHL SUB DUP3 AND SWAP2 SWAP1 DUP3 ISZERO PUSH2 0x2D04 JUMPI DUP3 PUSH1 0x0 MSTORE PUSH1 0x7 PUSH1 0x20 MSTORE PUSH1 0xFF PUSH1 0x40 PUSH1 0x0 KECCAK256 SLOAD AND PUSH2 0x2CC8 JUMPI PUSH1 0x40 MLOAD PUSH4 0x70A08231 PUSH1 0xE0 SHL DUP2 MSTORE ADDRESS PUSH1 0x4 DUP3 ADD MSTORE PUSH1 0x20 DUP2 PUSH1 0x24 DUP2 DUP8 GAS STATICCALL SWAP1 DUP2 ISZERO PUSH2 0x8A6 JUMPI PUSH1 0x0 SWAP2 PUSH2 0x2C96 JUMPI JUMPDEST POP PUSH2 0x2BA9 PUSH1 0x40 MLOAD PUSH4 0x23B872DD PUSH1 0xE0 SHL PUSH1 0x20 DUP3 ADD MSTORE CALLER PUSH1 0x24 DUP3 ADD MSTORE ADDRESS PUSH1 0x44 DUP3 ADD MSTORE DUP7 PUSH1 0x64 DUP3 ADD MSTORE PUSH1 0x64 DUP2 MSTORE PUSH2 0x2BA3 PUSH1 0x84 DUP3 PUSH2 0x26D6 JUMP JUMPDEST DUP6 PUSH2 0x4053 JUMP JUMPDEST PUSH1 0x40 MLOAD PUSH4 0x70A08231 PUSH1 0xE0 SHL DUP2 MSTORE ADDRESS PUSH1 0x4 DUP3 ADD MSTORE SWAP1 PUSH1 0x20 DUP3 PUSH1 0x24 DUP2 DUP9 GAS STATICCALL DUP1 ISZERO PUSH2 0x8A6 JUMPI DUP7 SWAP3 PUSH1 0x0 SWAP2 PUSH2 0x2C5D JUMPI JUMPDEST POP SWAP1 PUSH2 0x2BE1 SWAP2 PUSH2 0x3458 JUMP JUMPDEST SUB PUSH2 0x2C4C JUMPI PUSH2 0x2BF1 SWAP2 DUP5 CALLER PUSH2 0x3D5C JUMP JUMPDEST SWAP2 DUP2 DUP1 PUSH2 0x2C3A JUMPI JUMPDEST POP POP PUSH1 0x40 MLOAD SWAP3 DUP4 MSTORE PUSH1 0x20 DUP4 ADD MSTORE PUSH1 0x40 DUP3 ADD MSTORE PUSH1 0x0 PUSH1 0x60 DUP3 ADD MSTORE PUSH32 0xD3B8ABEDF9B219788CE9C4431056D7D4B83973B9F7072AC174E1FE2479D1A2E7 PUSH1 0x80 CALLER SWAP3 LOG2 JUMP JUMPDEST PUSH2 0x2C45 SWAP2 CALLER SWAP1 PUSH2 0x3F55 JUMP JUMPDEST CODESIZE DUP2 PUSH2 0x2BF9 JUMP JUMPDEST PUSH4 0x12171D83 PUSH1 0xE3 SHL PUSH1 0x0 MSTORE PUSH1 0x4 PUSH1 0x0 REVERT JUMPDEST SWAP2 SWAP3 POP POP PUSH1 0x20 DUP2 RETURNDATASIZE PUSH1 0x20 GT PUSH2 0x2C8E JUMPI JUMPDEST DUP2 PUSH2 0x2C7A PUSH1 0x20 SWAP4 DUP4 PUSH2 0x26D6 JUMP JUMPDEST DUP2 ADD SUB SLT PUSH2 0x204 JUMPI MLOAD DUP6 SWAP2 SWAP1 PUSH2 0x2BE1 PUSH2 0x2BD6 JUMP JUMPDEST RETURNDATASIZE SWAP2 POP PUSH2 0x2C6D JUMP JUMPDEST SWAP1 POP PUSH1 0x20 DUP2 RETURNDATASIZE PUSH1 0x20 GT PUSH2 0x2CC0 JUMPI JUMPDEST DUP2 PUSH2 0x2CB1 PUSH1 0x20 SWAP4 DUP4 PUSH2 0x26D6 JUMP JUMPDEST DUP2 ADD SUB SLT PUSH2 0x204 JUMPI MLOAD CODESIZE PUSH2 0x2B6E JUMP JUMPDEST RETURNDATASIZE SWAP2 POP PUSH2 0x2CA4 JUMP JUMPDEST PUSH1 0x40 MLOAD PUSH3 0x461BCD PUSH1 0xE5 SHL DUP2 MSTORE PUSH1 0x20 PUSH1 0x4 DUP3 ADD MSTORE PUSH1 0x14 PUSH1 0x24 DUP3 ADD MSTORE PUSH20 0x151BDAD95B881A5CC8189B1858DADB1A5CDD1959 PUSH1 0x62 SHL PUSH1 0x44 DUP3 ADD MSTORE PUSH1 0x64 SWAP1 REVERT JUMPDEST SWAP2 POP POP DUP2 CALLVALUE LT PUSH2 0x2DE2 JUMPI CALLER PUSH1 0x0 MSTORE PUSH1 0x15 PUSH1 0x20 MSTORE PUSH1 0x40 PUSH1 0x0 KECCAK256 SWAP1 DUP2 SLOAD DUP4 DUP2 ADD DUP1 SWAP2 GT PUSH2 0x1B31 JUMPI PUSH2 0x2D35 SWAP3 SSTORE DUP3 CALLER PUSH2 0x3916 JUMP JUMPDEST SWAP1 DUP3 CALLVALUE GT PUSH2 0x2DAF JUMPI JUMPDEST PUSH1 0x40 MLOAD DUP4 DUP2 MSTORE DUP3 PUSH1 0x20 DUP3 ADD MSTORE PUSH32 0x2D45CF213B0878E6582A0BDDC676C202F8F57ED3CD74E8CCF8955CE1359BD427 PUSH1 0x40 CALLER SWAP3 LOG2 PUSH1 0x40 MLOAD SWAP3 DUP4 MSTORE PUSH1 0x20 DUP4 ADD MSTORE PUSH1 0x40 DUP3 ADD MSTORE PUSH1 0x1 PUSH1 0x60 DUP3 ADD MSTORE PUSH32 0xD3B8ABEDF9B219788CE9C4431056D7D4B83973B9F7072AC174E1FE2479D1A2E7 PUSH1 0x80 CALLER SWAP3 LOG2 JUMP JUMPDEST PUSH1 0x0 DUP1 DUP1 DUP1 PUSH2 0x2DBE DUP8 CALLVALUE PUSH2 0x3458 JUMP JUMPDEST DUP2 DUP2 ISZERO PUSH2 0x2DD9 JUMPI JUMPDEST CALLER SWAP1 CALL PUSH2 0x2D3E JUMPI PUSH1 0x40 MLOAD RETURNDATASIZE PUSH1 0x0 DUP3 RETURNDATACOPY RETURNDATASIZE SWAP1 REVERT JUMPDEST POP PUSH2 0x8FC PUSH2 0x2DC6 JUMP JUMPDEST PUSH1 0x40 MLOAD PUSH3 0x461BCD PUSH1 0xE5 SHL DUP2 MSTORE PUSH1 0x20 PUSH1 0x4 DUP3 ADD MSTORE PUSH1 0x1E PUSH1 0x24 DUP3 ADD MSTORE PUSH32 0x496E73756666696369656E74206E617469766520746F6B656E2073656E740000 PUSH1 0x44 DUP3 ADD MSTORE PUSH1 0x64 SWAP1 REVERT JUMPDEST SWAP1 PUSH1 0x10 DUP2 LT ISZERO PUSH2 0x27E0 JUMPI PUSH1 0x5 SHL ADD SWAP1 JUMP JUMPDEST SWAP2 SWAP1 PUSH1 0x20 DUP2 ADD DUP1 MLOAD SWAP2 DUP3 MLOAD SWAP4 PUSH2 0x1645 PUSH1 0x40 MLOAD SWAP3 PUSH2 0x2E54 DUP5 PUSH2 0x269E JUMP JUMPDEST PUSH1 0x20 DUP7 ADD SWAP5 DUP6 MLOAD DUP6 MSTORE PUSH2 0x2E72 PUSH1 0x40 DUP9 ADD SWAP6 DUP7 MLOAD PUSH1 0x20 DUP3 ADD MSTORE CALLER PUSH2 0x33A7 JUMP JUMPDEST PUSH2 0x2E98 PUSH1 0x40 MLOAD PUSH2 0x2E81 DUP2 PUSH2 0x269E JUMP JUMPDEST PUSH1 0xE0 DUP10 ADD MLOAD DUP2 MSTORE PUSH2 0x100 DUP10 ADD MLOAD PUSH1 0x20 DUP3 ADD MSTORE PUSH2 0x3430 JUMP JUMPDEST PUSH1 0x1 DUP1 PUSH1 0xA0 SHL SUB PUSH1 0xE SLOAD AND SWAP2 MLOAD PUSH2 0x2ED5 DUP2 MLOAD SWAP3 PUSH2 0x164F PUSH1 0x40 PUSH1 0x20 DUP6 ADD MLOAD SWAP5 ADD MLOAD SWAP2 MLOAD SWAP4 PUSH1 0x40 MLOAD SWAP8 DUP9 SWAP7 PUSH4 0xC82FEBF5 PUSH1 0xE0 SHL DUP9 MSTORE PUSH1 0x4 DUP9 ADD SWAP1 PUSH2 0x2AC2 JUMP JUMPDEST PUSH1 0x0 PUSH2 0x104 DUP4 ADD JUMPDEST PUSH1 0x10 DUP3 LT PUSH2 0x3379 JUMPI POP POP POP PUSH2 0x304 DUP2 PUSH1 0x20 SWAP4 GAS STATICCALL SWAP1 DUP2 ISZERO PUSH2 0x8A6 JUMPI PUSH1 0x0 SWAP2 PUSH2 0x335A JUMPI JUMPDEST POP ISZERO PUSH2 0x866 JUMPI PUSH1 0x0 DUP7 DUP2 MSTORE PUSH1 0x5 PUSH1 0x20 MSTORE PUSH1 0x40 SWAP1 KECCAK256 SLOAD DUP6 SWAP1 PUSH1 0x1 PUSH1 0x1 PUSH1 0xA0 SHL SUB AND ISZERO PUSH2 0x31CE JUMPI POP PUSH1 0x0 DUP7 DUP2 MSTORE PUSH1 0x5 PUSH1 0x20 MSTORE PUSH1 0x40 SWAP1 KECCAK256 SLOAD PUSH1 0x1 PUSH1 0x1 PUSH1 0xA0 SHL SUB AND SWAP3 DUP4 ISZERO PUSH2 0x31BD JUMPI PUSH1 0x80 DUP7 PUSH2 0x2FE3 SWAP5 PUSH1 0x60 DUP9 ADD MLOAD SWAP4 DUP4 DUP10 ADD MLOAD PUSH1 0x40 MLOAD SWAP6 PUSH2 0x2F63 DUP8 PUSH2 0x269E JUMP JUMPDEST DUP7 MSTORE PUSH1 0x20 DUP7 ADD MSTORE PUSH1 0xA0 DUP10 ADD MLOAD PUSH1 0xC0 DUP11 ADD MLOAD PUSH1 0x40 MLOAD SWAP2 PUSH2 0x2F81 DUP4 PUSH2 0x269E JUMP JUMPDEST DUP3 MSTORE PUSH1 0x20 DUP3 ADD MSTORE PUSH1 0x40 MLOAD SWAP6 PUSH2 0x2F95 DUP8 PUSH2 0x269E JUMP JUMPDEST DUP7 MSTORE PUSH1 0x20 DUP7 ADD MSTORE MLOAD SWAP1 MLOAD PUSH1 0x40 MLOAD SWAP2 PUSH2 0x2FAC DUP4 PUSH2 0x269E JUMP JUMPDEST DUP3 MSTORE PUSH1 0x20 DUP3 ADD SWAP1 DUP2 MSTORE PUSH1 0x40 MLOAD PUSH4 0x203469D PUSH1 0xE1 SHL DUP2 MSTORE SWAP2 MLOAD PUSH1 0x4 DUP4 ADD MSTORE MLOAD PUSH1 0x24 DUP3 ADD MSTORE PUSH1 0x44 DUP2 ADD SWAP2 SWAP1 SWAP2 MSTORE SWAP4 DUP5 SWAP1 DUP2 SWAP1 PUSH1 0x64 DUP3 ADD SWAP1 JUMP JUMPDEST SUB DUP2 PUSH20 0x0 GAS DELEGATECALL SWAP1 DUP2 ISZERO PUSH2 0x8A6 JUMPI PUSH2 0x3017 SWAP4 PUSH1 0x0 SWAP3 PUSH2 0x318C JUMPI JUMPDEST POP DUP8 CALLER PUSH2 0x34E3 JUMP JUMPDEST PUSH1 0x40 MLOAD PUSH4 0x313CE567 PUSH1 0xE0 SHL DUP2 MSTORE SWAP1 PUSH1 0x20 DUP3 PUSH1 0x4 DUP2 DUP5 GAS STATICCALL SWAP2 DUP3 ISZERO PUSH2 0x8A6 JUMPI PUSH2 0x3099 SWAP3 PUSH1 0xFF SWAP2 PUSH1 0x0 SWAP2 PUSH2 0x315D JUMPI JUMPDEST POP PUSH32 0x0 PUSH1 0xFF AND SWAP2 AND DUP6 DUP3 DUP3 GT ISZERO PUSH2 0x312B JUMPI POP PUSH2 0x3085 PUSH2 0x3090 SWAP3 PUSH2 0x308A SWAP3 PUSH2 0x3458 JUMP JUMPDEST PUSH2 0x3F95 JUMP JUMPDEST DUP6 PUSH2 0x3844 JUMP JUMPDEST SWAP1 JUMPDEST CALLER SWAP1 PUSH2 0x3F55 JUMP JUMPDEST PUSH1 0x40 MLOAD SWAP1 PUSH1 0xE0 PUSH2 0x30A9 DUP2 DUP5 PUSH2 0x26D6 JUMP JUMPDEST CALLDATASIZE DUP4 CALLDATACOPY PUSH1 0x0 JUMPDEST PUSH1 0x7 DUP2 LT PUSH2 0x3100 JUMPI POP POP PUSH1 0x9 SLOAD PUSH1 0x40 MLOAD PUSH1 0x1 PUSH1 0x1 PUSH1 0xA0 SHL SUB SWAP1 SWAP2 AND SWAP4 CALLER SWAP4 PUSH32 0xAE09DCE9B789CF9600E6765940D134D8247429396FAF72DB0F7B33ED5CA8294C SWAP4 DUP4 SWAP3 PUSH2 0x30FB SWAP3 DUP5 PUSH2 0x34C4 JUMP JUMPDEST SUB SWAP1 LOG3 JUMP JUMPDEST DUP1 PUSH1 0x9 ADD SWAP1 DUP2 PUSH1 0x9 GT PUSH2 0x1B31 JUMPI PUSH2 0x3119 PUSH1 0x1 SWAP3 DUP5 PUSH2 0x2E27 JUMP JUMPDEST MLOAD PUSH2 0x3124 DUP3 DUP7 PUSH2 0x2AA0 JUMP JUMPDEST MSTORE ADD PUSH2 0x30AF JUMP JUMPDEST SWAP3 SWAP2 DUP1 DUP3 LT PUSH2 0x313C JUMPI JUMPDEST POP POP PUSH2 0x3092 JUMP JUMPDEST PUSH2 0x3155 SWAP3 SWAP4 POP PUSH2 0x314F SWAP2 PUSH2 0x3085 SWAP2 PUSH2 0x3458 JUMP JUMPDEST DUP6 PUSH2 0x3857 JUMP JUMPDEST SWAP1 CODESIZE DUP1 PUSH2 0x3135 JUMP JUMPDEST PUSH2 0x317F SWAP2 POP PUSH1 0x20 RETURNDATASIZE PUSH1 0x20 GT PUSH2 0x3185 JUMPI JUMPDEST PUSH2 0x3177 DUP2 DUP4 PUSH2 0x26D6 JUMP JUMPDEST DUP2 ADD SWAP1 PUSH2 0x3D43 JUMP JUMPDEST CODESIZE PUSH2 0x3044 JUMP JUMPDEST POP RETURNDATASIZE PUSH2 0x316D JUMP JUMPDEST PUSH2 0x31AF SWAP2 SWAP3 POP PUSH1 0x80 RETURNDATASIZE PUSH1 0x80 GT PUSH2 0x31B6 JUMPI JUMPDEST PUSH2 0x31A7 DUP2 DUP4 PUSH2 0x26D6 JUMP JUMPDEST DUP2 ADD SWAP1 PUSH2 0x348D JUMP JUMPDEST SWAP1 CODESIZE PUSH2 0x300F JUMP JUMPDEST POP RETURNDATASIZE PUSH2 0x319D JUMP JUMPDEST PUSH4 0x8698BF37 PUSH1 0xE0 SHL PUSH1 0x0 MSTORE PUSH1 0x4 PUSH1 0x0 REVERT JUMPDEST PUSH1 0x80 SWAP1 PUSH2 0x320C SWAP5 SWAP3 SWAP4 PUSH1 0x60 DUP8 ADD MLOAD SWAP4 DUP4 DUP9 ADD MLOAD PUSH1 0x40 MLOAD SWAP6 PUSH2 0x31EE DUP8 PUSH2 0x269E JUMP JUMPDEST DUP7 MSTORE PUSH1 0x20 DUP7 ADD MSTORE PUSH1 0xA0 DUP9 ADD MLOAD PUSH1 0xC0 DUP10 ADD MLOAD PUSH1 0x40 MLOAD SWAP2 PUSH2 0x2F81 DUP4 PUSH2 0x269E JUMP JUMPDEST SUB DUP2 PUSH20 0x0 GAS DELEGATECALL SWAP1 DUP2 ISZERO PUSH2 0x8A6 JUMPI PUSH2 0x3240 SWAP4 PUSH1 0x0 SWAP3 PUSH2 0x3339 JUMPI JUMPDEST POP DUP7 CALLER PUSH2 0x34E3 JUMP JUMPDEST CALLER PUSH1 0x0 MSTORE PUSH1 0x15 PUSH1 0x20 MSTORE PUSH1 0x40 PUSH1 0x0 KECCAK256 PUSH2 0x3259 DUP4 DUP3 SLOAD PUSH2 0x3458 JUMP JUMPDEST SWAP1 SSTORE DUP2 PUSH1 0x0 DUP2 ISZERO PUSH2 0x3330 JUMPI JUMPDEST PUSH1 0x0 DUP1 DUP1 SWAP4 DUP2 SWAP4 CALLER SWAP1 CALL ISZERO PUSH2 0x8A6 JUMPI PUSH1 0x40 MLOAD SWAP1 PUSH1 0xE0 PUSH2 0x3284 DUP2 DUP5 PUSH2 0x26D6 JUMP JUMPDEST CALLDATASIZE DUP4 CALLDATACOPY PUSH1 0x0 JUMPDEST PUSH1 0x7 DUP2 LT PUSH2 0x3305 JUMPI POP POP PUSH32 0xAE09DCE9B789CF9600E6765940D134D8247429396FAF72DB0F7B33ED5CA8294C SWAP1 PUSH1 0x40 MLOAD DUP4 DUP2 MSTORE DUP5 PUSH1 0x20 DUP3 ADD MSTORE PUSH32 0x2A25615D4309B997A752E7E0E81A331709124ED95EAD4D561A1CD277785B541 PUSH1 0x40 CALLER SWAP3 LOG2 PUSH1 0x1 DUP1 PUSH1 0xA0 SHL SUB PUSH1 0x9 SLOAD AND SWAP4 PUSH2 0x30FB PUSH1 0x40 MLOAD SWAP3 DUP4 SWAP3 CALLER SWAP7 DUP5 PUSH2 0x34C4 JUMP JUMPDEST DUP1 PUSH1 0x9 ADD SWAP1 DUP2 PUSH1 0x9 GT PUSH2 0x1B31 JUMPI PUSH2 0x331E PUSH1 0x1 SWAP3 DUP5 PUSH2 0x2E27 JUMP JUMPDEST MLOAD PUSH2 0x3329 DUP3 DUP7 PUSH2 0x2AA0 JUMP JUMPDEST MSTORE ADD PUSH2 0x328A JUMP JUMPDEST POP PUSH2 0x8FC PUSH2 0x3265 JUMP JUMPDEST PUSH2 0x3353 SWAP2 SWAP3 POP PUSH1 0x80 RETURNDATASIZE PUSH1 0x80 GT PUSH2 0x31B6 JUMPI PUSH2 0x31A7 DUP2 DUP4 PUSH2 0x26D6 JUMP JUMPDEST SWAP1 CODESIZE PUSH2 0x3238 JUMP JUMPDEST PUSH2 0x3373 SWAP2 POP PUSH1 0x20 RETURNDATASIZE PUSH1 0x20 GT PUSH2 0x89F JUMPI PUSH2 0x891 DUP2 DUP4 PUSH2 0x26D6 JUMP JUMPDEST CODESIZE PUSH2 0x2F00 JUMP JUMPDEST DUP3 SWAP4 POP PUSH1 0x20 DUP1 SWAP2 PUSH1 0x1 SWAP4 SWAP5 MLOAD DUP2 MSTORE ADD SWAP4 ADD SWAP2 ADD DUP5 SWAP3 PUSH2 0x2EDD JUMP JUMPDEST PUSH1 0x0 SLOAD PUSH1 0x1 PUSH1 0x1 PUSH1 0xA0 SHL SUB AND CALLER SUB PUSH2 0x1260 JUMPI JUMP JUMPDEST PUSH1 0xC SLOAD PUSH1 0x40 DUP1 MLOAD PUSH3 0x8918FF PUSH1 0xE5 SHL DUP2 MSTORE PUSH1 0x1 PUSH1 0x1 PUSH1 0xA0 SHL SUB SWAP4 DUP5 AND PUSH1 0x4 DUP3 ADD MSTORE SWAP4 SWAP3 SWAP1 SWAP2 DUP5 SWAP2 PUSH1 0x24 SWAP2 DUP4 SWAP2 AND GAS STATICCALL SWAP2 DUP3 ISZERO PUSH2 0x8A6 JUMPI PUSH1 0x0 SWAP3 PUSH2 0x340F JUMPI JUMPDEST POP DUP2 MLOAD DUP2 MLOAD EQ SWAP2 DUP3 ISZERO SWAP3 PUSH2 0x33FB JUMPI JUMPDEST POP POP PUSH2 0x866 JUMPI JUMP JUMPDEST PUSH1 0x20 SWAP2 SWAP3 POP DUP2 ADD MLOAD SWAP2 ADD MLOAD EQ ISZERO CODESIZE DUP1 PUSH2 0x33F3 JUMP JUMPDEST PUSH2 0x3429 SWAP2 SWAP3 POP PUSH1 0x40 RETURNDATASIZE PUSH1 0x40 GT PUSH2 0x2424 JUMPI PUSH2 0x2416 DUP2 DUP4 PUSH2 0x26D6 JUMP JUMPDEST SWAP1 CODESIZE PUSH2 0x33E4 JUMP JUMPDEST PUSH1 0xA SLOAD DUP2 MLOAD EQ SWAP1 DUP2 ISZERO SWAP2 PUSH2 0x3446 JUMPI JUMPDEST POP PUSH2 0x866 JUMPI JUMP JUMPDEST SWAP1 POP PUSH1 0x20 PUSH1 0xB SLOAD SWAP2 ADD MLOAD EQ ISZERO CODESIZE PUSH2 0x343F JUMP JUMPDEST SWAP2 SWAP1 DUP3 SUB SWAP2 DUP3 GT PUSH2 0x1B31 JUMPI JUMP JUMPDEST SWAP2 SWAP1 DUP3 PUSH1 0x40 SWAP2 SUB SLT PUSH2 0x204 JUMPI PUSH1 0x40 MLOAD PUSH2 0x347D DUP2 PUSH2 0x269E JUMP JUMPDEST PUSH1 0x20 DUP1 DUP3 SWAP5 DUP1 MLOAD DUP5 MSTORE ADD MLOAD SWAP2 ADD MSTORE JUMP JUMPDEST SWAP1 PUSH1 0x80 DUP3 DUP3 SUB SLT PUSH2 0x204 JUMPI PUSH2 0x34BC SWAP1 PUSH1 0x40 DUP1 MLOAD SWAP4 PUSH2 0x34AA DUP6 PUSH2 0x269E JUMP JUMPDEST PUSH2 0x34B4 DUP4 DUP3 PUSH2 0x3465 JUMP JUMPDEST DUP6 MSTORE ADD PUSH2 0x3465 JUMP JUMPDEST PUSH1 0x20 DUP3 ADD MSTORE SWAP1 JUMP JUMPDEST PUSH1 0x40 SWAP1 PUSH2 0x28A3 SWAP4 SWAP6 SWAP5 SWAP3 SWAP6 PUSH2 0x120 DUP3 ADD SWAP7 DUP3 MSTORE PUSH1 0x20 DUP3 ADD MSTORE ADD SWAP1 PUSH2 0x25B7 JUMP JUMPDEST SWAP1 SWAP2 PUSH2 0x34F1 SWAP1 SWAP5 SWAP4 SWAP5 PUSH2 0x40AE JUMP JUMPDEST PUSH1 0x1 DUP1 PUSH1 0xA0 SHL SUB DUP3 AND SWAP1 DUP2 PUSH1 0x0 MSTORE PUSH1 0x8 PUSH1 0x20 MSTORE PUSH1 0x40 PUSH1 0x0 KECCAK256 DUP5 PUSH1 0x0 MSTORE PUSH1 0x20 MSTORE PUSH1 0x5 PUSH1 0x40 PUSH1 0x0 KECCAK256 ADD SLOAD PUSH1 0x40 MLOAD SWAP1 PUSH1 0x20 DUP3 ADD SWAP3 DUP4 MSTORE PUSH1 0x40 DUP3 ADD MSTORE PUSH1 0x40 DUP2 MSTORE PUSH2 0x3538 PUSH1 0x60 DUP3 PUSH2 0x26D6 JUMP JUMPDEST MLOAD SWAP1 KECCAK256 PUSH1 0x0 DUP3 DUP2 MSTORE PUSH1 0x8 PUSH1 0x20 SWAP1 DUP2 MSTORE PUSH1 0x40 DUP1 DUP4 KECCAK256 DUP8 DUP5 MSTORE DUP3 MSTORE DUP1 DUP4 KECCAK256 SWAP4 DUP4 MSTORE PUSH1 0x4 SWAP1 SWAP4 ADD SWAP1 MSTORE KECCAK256 PUSH1 0x1 DUP2 ADD SLOAD SWAP1 SLOAD SWAP2 SWAP1 PUSH1 0xFF AND ISZERO PUSH2 0x866 JUMPI DUP1 PUSH1 0x0 MSTORE PUSH1 0x8 PUSH1 0x20 MSTORE PUSH1 0x40 PUSH1 0x0 KECCAK256 DUP5 PUSH1 0x0 MSTORE PUSH1 0x20 MSTORE PUSH1 0x40 PUSH1 0x0 KECCAK256 SWAP6 PUSH20 0x0 SWAP1 PUSH2 0x35C2 PUSH1 0x40 DUP3 MLOAD DUP2 MLOAD DUP1 SWAP4 DUP2 SWAP3 PUSH4 0x27D3C56D PUSH1 0xE1 SHL DUP4 MSTORE DUP14 PUSH1 0x4 DUP5 ADD PUSH2 0x37F8 JUMP JUMPDEST SUB DUP2 DUP7 GAS DELEGATECALL SWAP1 DUP2 ISZERO PUSH2 0x8A6 JUMPI PUSH1 0x0 SWAP2 PUSH2 0x37B3 JUMPI JUMPDEST POP PUSH2 0x3610 SWAP3 PUSH1 0x20 DUP3 PUSH1 0x40 SWAP4 MLOAD DUP13 SSTORE ADD MLOAD PUSH1 0x1 DUP12 ADD SSTORE PUSH1 0x20 PUSH1 0x2 DUP12 ADD SWAP4 ADD MLOAD SWAP1 DUP3 MLOAD DUP1 DUP1 SWAP7 DUP2 SWAP5 PUSH4 0x27D3C56D PUSH1 0xE1 SHL DUP4 MSTORE DUP8 PUSH1 0x4 DUP5 ADD PUSH2 0x37F8 JUMP JUMPDEST SUB SWAP2 GAS DELEGATECALL SWAP1 DUP2 ISZERO PUSH2 0x8A6 JUMPI PUSH1 0x0 SWAP2 PUSH2 0x3776 JUMPI JUMPDEST PUSH1 0x20 SWAP3 POP DUP2 MLOAD SWAP1 SSTORE ADD MLOAD PUSH1 0x3 DUP8 ADD SSTORE PUSH1 0x0 MSTORE PUSH1 0x8 PUSH1 0x20 MSTORE PUSH1 0x40 PUSH1 0x0 KECCAK256 DUP4 PUSH1 0x0 MSTORE PUSH1 0x20 MSTORE PUSH1 0x40 PUSH1 0x0 KECCAK256 SWAP1 PUSH1 0xE DUP3 ADD DUP1 SLOAD DUP1 JUMPDEST PUSH2 0x369C JUMPI POP POP POP SWAP1 PUSH1 0x5 PUSH2 0x3675 SWAP4 SWAP3 ADD PUSH2 0x366E DUP2 SLOAD PUSH2 0x3907 JUMP JUMPDEST SWAP1 SSTORE PUSH2 0x3FA3 JUMP JUMPDEST PUSH1 0x0 JUMPDEST PUSH1 0x7 DUP2 LT PUSH2 0x3685 JUMPI POP POP POP JUMP JUMPDEST PUSH1 0x1 SWAP1 PUSH1 0x20 DUP4 MLOAD SWAP4 ADD SWAP3 PUSH1 0x7 DUP3 DUP7 ADD ADD SSTORE ADD PUSH2 0x3678 JUMP JUMPDEST PUSH1 0x0 NOT DUP2 ADD DUP2 DUP2 GT PUSH2 0x1B31 JUMPI DUP4 PUSH1 0x7 PUSH2 0x36B5 DUP4 DUP7 PUSH2 0x3881 JUMP JUMPDEST POP ADD SLOAD GT ISZERO PUSH2 0x36D0 JUMPI JUMPDEST POP DUP1 ISZERO PUSH2 0x1B31 JUMPI PUSH1 0x0 NOT ADD DUP1 PUSH2 0x3654 JUMP JUMPDEST DUP3 SLOAD PUSH1 0x0 NOT DUP2 ADD SWAP1 DUP2 GT PUSH2 0x1B31 JUMPI PUSH2 0x6DB PUSH2 0x36EB SWAP2 DUP6 PUSH2 0x3881 JUMP JUMPDEST SWAP2 SWAP1 SWAP2 PUSH2 0x3730 JUMPI DUP1 DUP3 SUB PUSH2 0x375C JUMPI JUMPDEST POP POP DUP2 SLOAD DUP1 ISZERO PUSH2 0x3746 JUMPI PUSH1 0x0 NOT ADD PUSH2 0x3712 DUP2 DUP5 PUSH2 0x3881 JUMP JUMPDEST PUSH2 0x3730 JUMPI DUP1 PUSH2 0x3727 PUSH1 0x7 PUSH1 0x0 SWAP4 ADD DUP1 SWAP3 PUSH2 0x389D JUMP JUMPDEST SSTORE DUP3 SSTORE CODESIZE PUSH2 0x36BF JUMP JUMPDEST PUSH4 0x4E487B71 PUSH1 0xE0 SHL PUSH1 0x0 MSTORE PUSH1 0x0 PUSH1 0x4 MSTORE PUSH1 0x24 PUSH1 0x0 REVERT JUMPDEST PUSH4 0x4E487B71 PUSH1 0xE0 SHL PUSH1 0x0 MSTORE PUSH1 0x31 PUSH1 0x4 MSTORE PUSH1 0x24 PUSH1 0x0 REVERT JUMPDEST PUSH1 0x7 DUP2 PUSH2 0x376A DUP3 SWAP4 DUP6 PUSH2 0x40F3 JUMP JUMPDEST ADD SLOAD SWAP2 ADD SSTORE CODESIZE DUP1 PUSH2 0x36FA JUMP JUMPDEST SWAP1 POP PUSH1 0x40 RETURNDATASIZE PUSH1 0x40 GT PUSH2 0x37AC JUMPI JUMPDEST PUSH2 0x378D DUP2 DUP5 PUSH2 0x26D6 JUMP JUMPDEST DUP3 ADD SWAP2 PUSH1 0x40 DUP2 DUP5 SUB SLT PUSH2 0x204 JUMPI PUSH1 0x20 SWAP3 PUSH2 0x37A6 SWAP2 PUSH2 0x3465 JUMP JUMPDEST SWAP1 PUSH2 0x3623 JUMP JUMPDEST POP RETURNDATASIZE PUSH2 0x3783 JUMP JUMPDEST SWAP1 POP PUSH1 0x40 RETURNDATASIZE PUSH1 0x40 GT PUSH2 0x37F1 JUMPI JUMPDEST PUSH2 0x37CA DUP2 DUP4 PUSH2 0x26D6 JUMP JUMPDEST DUP2 ADD SWAP3 PUSH1 0x40 DUP3 DUP6 SUB SLT PUSH2 0x204 JUMPI PUSH1 0x20 PUSH2 0x37E8 PUSH2 0x3610 SWAP6 PUSH1 0x40 SWAP5 PUSH2 0x3465 JUMP JUMPDEST SWAP3 POP POP SWAP3 PUSH2 0x35D6 JUMP JUMPDEST POP RETURNDATASIZE PUSH2 0x37C0 JUMP JUMPDEST SWAP1 SWAP3 SWAP2 PUSH1 0x20 PUSH1 0x60 SWAP2 PUSH1 0x1 PUSH1 0x80 DUP6 ADD SWAP7 DUP1 SLOAD DUP7 MSTORE ADD SLOAD DUP3 DUP6 ADD MSTORE DUP1 MLOAD PUSH1 0x40 DUP6 ADD MSTORE ADD MLOAD SWAP2 ADD MSTORE JUMP JUMPDEST SWAP1 PUSH1 0xFF DUP1 SWAP2 AND SWAP2 AND SUB SWAP1 PUSH1 0xFF DUP3 GT PUSH2 0x1B31 JUMPI JUMP JUMPDEST PUSH1 0xFF AND PUSH1 0x4D DUP2 GT PUSH2 0x1B31 JUMPI PUSH1 0xA EXP SWAP1 JUMP JUMPDEST DUP2 DUP2 MUL SWAP3 SWAP2 DUP2 ISZERO SWAP2 DUP5 DIV EQ OR ISZERO PUSH2 0x1B31 JUMPI JUMP JUMPDEST DUP2 ISZERO PUSH2 0x3861 JUMPI DIV SWAP1 JUMP JUMPDEST PUSH4 0x4E487B71 PUSH1 0xE0 SHL PUSH1 0x0 MSTORE PUSH1 0x12 PUSH1 0x4 MSTORE PUSH1 0x24 PUSH1 0x0 REVERT JUMPDEST DUP2 ISZERO PUSH2 0x3861 JUMPI MOD SWAP1 JUMP JUMPDEST DUP1 SLOAD DUP3 LT ISZERO PUSH2 0x27E0 JUMPI PUSH1 0x0 MSTORE PUSH1 0x20 PUSH1 0x0 KECCAK256 SWAP1 PUSH1 0x3 SHL ADD SWAP1 PUSH1 0x0 SWAP1 JUMP JUMPDEST DUP2 DUP2 LT PUSH2 0x38A8 JUMPI POP POP JUMP JUMPDEST PUSH1 0x0 DUP2 SSTORE PUSH1 0x1 ADD PUSH2 0x389D JUMP JUMPDEST DUP1 SLOAD PUSH1 0x1 PUSH1 0x40 SHL DUP2 LT ISZERO PUSH2 0x850 JUMPI PUSH2 0x38D1 SWAP2 PUSH1 0x1 DUP3 ADD DUP2 SSTORE PUSH2 0x3881 JUMP JUMPDEST SWAP2 SWAP1 SWAP2 PUSH2 0x3730 JUMPI DUP1 MLOAD PUSH1 0x0 JUMPDEST PUSH1 0x7 DUP2 LT PUSH2 0x38F3 JUMPI POP POP PUSH1 0x20 PUSH1 0x7 SWAP2 ADD MLOAD SWAP2 ADD SSTORE JUMP JUMPDEST PUSH1 0x1 SWAP1 PUSH1 0x20 DUP4 MLOAD SWAP4 ADD SWAP3 DUP2 DUP7 ADD SSTORE ADD PUSH2 0x38DD JUMP JUMPDEST PUSH1 0x0 NOT DUP2 EQ PUSH2 0x1B31 JUMPI PUSH1 0x1 ADD SWAP1 JUMP JUMPDEST SWAP1 SWAP3 SWAP2 PUSH1 0x0 DUP1 MSTORE PUSH1 0x4 PUSH1 0x20 MSTORE PUSH1 0x40 PUSH1 0x0 KECCAK256 SLOAD ISZERO PUSH2 0x3CBB JUMPI JUMPDEST PUSH1 0x0 DUP1 DUP1 MSTORE PUSH1 0x4 PUSH1 0x20 MSTORE PUSH32 0x17EF568E3E12AB5B9C7254A8D58478811DE00F9E6EB34345ACD53BF8FD09D3EC SLOAD SWAP5 SWAP1 PUSH32 0x0 PUSH1 0xFF AND SWAP1 DUP3 PUSH1 0x12 DUP4 LT ISZERO PUSH2 0x3C79 JUMPI POP POP PUSH1 0x12 SUB PUSH1 0xFF DUP2 GT PUSH2 0x1B31 JUMPI PUSH2 0x39A4 PUSH2 0x39B4 SWAP2 PUSH2 0x3833 JUMP JUMPDEST PUSH2 0x39AE DUP2 DUP5 PUSH2 0x3857 JUMP JUMPDEST SWAP3 PUSH2 0x3877 JUMP JUMPDEST SWAP3 JUMPDEST DUP2 ISZERO PUSH2 0x3C72 JUMPI PUSH1 0xC SLOAD PUSH1 0x40 DUP1 MLOAD PUSH3 0x8918FF PUSH1 0xE5 SHL DUP2 MSTORE PUSH1 0x1 PUSH1 0x1 PUSH1 0xA0 SHL SUB DUP5 DUP2 AND PUSH1 0x4 DUP4 ADD DUP2 SWAP1 MSTORE SWAP2 SWAP6 SWAP4 SWAP2 SWAP3 SWAP2 DUP7 SWAP2 PUSH1 0x24 SWAP2 DUP4 SWAP2 AND GAS STATICCALL SWAP2 DUP3 ISZERO PUSH2 0x8A6 JUMPI PUSH2 0x3A66 SWAP5 PUSH1 0x0 SWAP4 PUSH2 0x3C4E JUMPI JUMPDEST POP PUSH1 0x80 SWAP1 PUSH20 0x0 SWAP4 PUSH1 0x20 DUP2 MLOAD SWAP2 ADD MLOAD PUSH1 0x40 MLOAD SWAP2 PUSH2 0x3A2F DUP4 PUSH2 0x269E JUMP JUMPDEST DUP3 MSTORE PUSH1 0x20 DUP3 ADD SWAP1 DUP2 MSTORE PUSH1 0x40 MLOAD PUSH4 0x203469D PUSH1 0xE1 SHL DUP2 MSTORE SWAP2 MLOAD PUSH1 0x4 DUP4 ADD MSTORE MLOAD PUSH1 0x24 DUP3 ADD MSTORE PUSH1 0x44 DUP2 ADD SWAP2 SWAP1 SWAP2 MSTORE SWAP5 DUP6 SWAP1 DUP2 SWAP1 PUSH1 0x64 DUP3 ADD SWAP1 JUMP JUMPDEST SUB DUP2 DUP6 GAS DELEGATECALL SWAP1 DUP2 ISZERO PUSH2 0x8A6 JUMPI DUP9 SWAP5 PUSH1 0x0 SWAP3 PUSH2 0x3C2D JUMPI JUMPDEST POP PUSH1 0x0 MSTORE PUSH1 0x8 PUSH1 0x20 MSTORE PUSH1 0x40 PUSH1 0x0 KECCAK256 DUP5 PUSH1 0x0 MSTORE PUSH1 0x20 MSTORE PUSH1 0x40 PUSH1 0x0 KECCAK256 SWAP2 DUP3 SLOAD ISZERO DUP1 PUSH2 0x3C21 JUMPI JUMPDEST ISZERO PUSH2 0x3AF0 JUMPI POP PUSH2 0x2965 SWAP5 PUSH1 0x20 DUP1 DUP4 DUP2 PUSH2 0x3AE6 SWAP6 MLOAD DUP1 MLOAD DUP9 SSTORE ADD MLOAD PUSH1 0x1 DUP8 ADD SSTORE ADD MLOAD DUP1 MLOAD PUSH1 0x2 DUP7 ADD SSTORE ADD MLOAD PUSH1 0x3 DUP5 ADD SSTORE JUMPDEST PUSH1 0xE PUSH1 0x6 DUP5 ADD SWAP4 DUP5 SLOAD PUSH1 0x40 MLOAD SWAP4 PUSH2 0x1906 DUP6 PUSH2 0x269E JUMP JUMPDEST PUSH2 0x366E DUP2 SLOAD PUSH2 0x3907 JUMP JUMPDEST SWAP4 POP PUSH2 0x3B13 PUSH1 0x40 DUP3 MLOAD DUP2 MLOAD DUP1 SWAP4 DUP2 SWAP3 PUSH4 0x7BB10BCB PUSH1 0xE0 SHL DUP4 MSTORE DUP8 PUSH1 0x4 DUP5 ADD PUSH2 0x37F8 JUMP JUMPDEST SUB DUP2 DUP9 GAS DELEGATECALL SWAP1 DUP2 ISZERO PUSH2 0x8A6 JUMPI PUSH1 0x0 SWAP2 PUSH2 0x3BDC JUMPI JUMPDEST POP PUSH2 0x3B61 SWAP5 PUSH1 0x20 DUP3 PUSH1 0x40 SWAP4 MLOAD DUP7 SSTORE ADD MLOAD PUSH1 0x1 DUP6 ADD SSTORE PUSH1 0x20 PUSH1 0x2 DUP6 ADD SWAP4 ADD MLOAD SWAP1 DUP3 MLOAD DUP1 DUP1 SWAP9 DUP2 SWAP5 PUSH4 0x7BB10BCB PUSH1 0xE0 SHL DUP4 MSTORE DUP8 PUSH1 0x4 DUP5 ADD PUSH2 0x37F8 JUMP JUMPDEST SUB SWAP2 GAS DELEGATECALL SWAP1 DUP2 ISZERO PUSH2 0x8A6 JUMPI DUP9 SWAP5 PUSH1 0x0 SWAP3 PUSH2 0x3B91 JUMPI JUMPDEST POP DUP2 MLOAD SWAP1 SSTORE PUSH1 0x20 ADD MLOAD PUSH1 0x3 DUP3 ADD SSTORE PUSH2 0x2965 SWAP4 PUSH2 0x3AE6 SWAP1 PUSH2 0x3AD0 JUMP JUMPDEST SWAP2 POP SWAP4 POP PUSH1 0x40 RETURNDATASIZE PUSH1 0x40 GT PUSH2 0x3BD5 JUMPI JUMPDEST PUSH2 0x3BAA DUP2 DUP4 PUSH2 0x26D6 JUMP JUMPDEST DUP2 ADD SWAP5 PUSH1 0x40 DUP3 DUP8 SUB SLT PUSH2 0x204 JUMPI PUSH1 0x20 DUP10 SWAP6 PUSH2 0x3BCB PUSH2 0x2965 SWAP9 PUSH2 0x3AE6 SWAP6 PUSH2 0x3465 JUMP JUMPDEST SWAP4 POP SWAP2 SWAP7 POP PUSH2 0x3B76 JUMP JUMPDEST POP RETURNDATASIZE PUSH2 0x3BA0 JUMP JUMPDEST SWAP1 POP PUSH1 0x40 RETURNDATASIZE PUSH1 0x40 GT PUSH2 0x3C1A JUMPI JUMPDEST PUSH2 0x3BF3 DUP2 DUP4 PUSH2 0x26D6 JUMP JUMPDEST DUP2 ADD SWAP5 PUSH1 0x40 DUP3 DUP8 SUB SLT PUSH2 0x204 JUMPI PUSH1 0x20 PUSH2 0x3C11 PUSH2 0x3B61 SWAP8 PUSH1 0x40 SWAP5 PUSH2 0x3465 JUMP JUMPDEST SWAP3 POP POP SWAP5 PUSH2 0x3B27 JUMP JUMPDEST POP RETURNDATASIZE PUSH2 0x3BE9 JUMP JUMPDEST POP PUSH1 0x1 DUP4 ADD SLOAD ISZERO PUSH2 0x3AA0 JUMP JUMPDEST PUSH2 0x3C47 SWAP2 SWAP3 POP PUSH1 0x80 RETURNDATASIZE PUSH1 0x80 GT PUSH2 0x31B6 JUMPI PUSH2 0x31A7 DUP2 DUP4 PUSH2 0x26D6 JUMP JUMPDEST SWAP1 CODESIZE PUSH2 0x3A7C JUMP JUMPDEST PUSH1 0x80 SWAP2 SWAP4 POP PUSH2 0x3C6B SWAP1 PUSH1 0x40 RETURNDATASIZE PUSH1 0x40 GT PUSH2 0x2424 JUMPI PUSH2 0x2416 DUP2 DUP4 PUSH2 0x26D6 JUMP JUMPDEST SWAP3 SWAP1 PUSH2 0x3A01 JUMP JUMPDEST POP POP POP SWAP2 SWAP1 JUMP JUMPDEST SWAP3 SWAP1 SWAP5 SWAP2 DUP1 PUSH1 0x12 LT PUSH2 0x3C8D JUMPI JUMPDEST POP POP PUSH2 0x39B6 JUMP JUMPDEST SWAP2 SWAP5 POP SWAP2 POP PUSH1 0x11 NOT ADD SWAP1 PUSH1 0xFF DUP3 GT PUSH2 0x1B31 JUMPI PUSH2 0x3CAB PUSH2 0x3CB1 SWAP3 PUSH2 0x3833 JUMP JUMPDEST SWAP1 PUSH2 0x3844 JUMP JUMPDEST PUSH1 0x0 SWAP3 CODESIZE DUP1 PUSH2 0x3C86 JUMP JUMPDEST PUSH1 0x2 SLOAD PUSH32 0x17EF568E3E12AB5B9C7254A8D58478811DE00F9E6EB34345ACD53BF8FD09D3EC DUP2 SWAP1 SSTORE PUSH1 0x0 SWAP1 DUP2 MSTORE PUSH1 0x5 PUSH1 0x20 MSTORE PUSH1 0x40 SWAP1 KECCAK256 DUP1 SLOAD PUSH1 0x1 PUSH1 0x1 PUSH1 0xA0 SHL SUB NOT AND SWAP1 SSTORE PUSH1 0x6 SLOAD PUSH1 0x1 PUSH1 0x40 SHL DUP2 LT ISZERO PUSH2 0x850 JUMPI DUP1 PUSH1 0x1 PUSH2 0x3D1D SWAP3 ADD PUSH1 0x6 SSTORE PUSH2 0x27C5 JUMP JUMPDEST DUP2 SLOAD SWAP1 PUSH1 0x1 DUP1 PUSH1 0xA0 SHL SUB SWAP1 PUSH1 0x3 SHL SHL NOT AND SWAP1 SSTORE PUSH2 0x3D3B PUSH1 0x2 SLOAD PUSH2 0x3907 JUMP JUMPDEST PUSH1 0x2 SSTORE PUSH2 0x392E JUMP JUMPDEST SWAP1 DUP2 PUSH1 0x20 SWAP2 SUB SLT PUSH2 0x204 JUMPI MLOAD PUSH1 0xFF DUP2 AND DUP2 SUB PUSH2 0x204 JUMPI SWAP1 JUMP JUMPDEST PUSH1 0x40 MLOAD PUSH4 0x313CE567 PUSH1 0xE0 SHL DUP2 MSTORE SWAP1 SWAP5 SWAP4 PUSH1 0x1 PUSH1 0x1 PUSH1 0xA0 SHL SUB SWAP1 SWAP4 AND SWAP3 SWAP2 SWAP1 PUSH1 0x20 DUP2 PUSH1 0x4 DUP2 DUP8 GAS STATICCALL SWAP1 DUP2 ISZERO PUSH2 0x8A6 JUMPI PUSH1 0x0 SWAP2 PUSH2 0x3F36 JUMPI JUMPDEST POP PUSH32 0x0 SWAP1 PUSH1 0x0 DUP4 PUSH1 0xFF DUP1 DUP6 AND SWAP1 DUP5 AND DUP2 DUP2 GT ISZERO PUSH2 0x3F00 JUMPI POP POP POP POP PUSH2 0x3DDC PUSH2 0x3DE1 SWAP3 PUSH2 0x39A4 SWAP3 PUSH2 0x381F JUMP JUMPDEST PUSH2 0x3833 JUMP JUMPDEST SWAP3 JUMPDEST DUP1 PUSH1 0x0 MSTORE PUSH1 0x4 PUSH1 0x20 MSTORE PUSH1 0x40 PUSH1 0x0 KECCAK256 SLOAD ISZERO PUSH2 0x3E7F JUMPI JUMPDEST PUSH1 0x0 MSTORE PUSH1 0x4 PUSH1 0x20 MSTORE PUSH1 0x40 PUSH1 0x0 KECCAK256 SLOAD SWAP5 DUP2 ISZERO PUSH2 0x3C72 JUMPI PUSH1 0xC SLOAD PUSH1 0x40 DUP1 MLOAD PUSH3 0x8918FF PUSH1 0xE5 SHL DUP2 MSTORE PUSH1 0x1 PUSH1 0x1 PUSH1 0xA0 SHL SUB DUP5 DUP2 AND PUSH1 0x4 DUP4 ADD DUP2 SWAP1 MSTORE SWAP2 SWAP6 SWAP4 SWAP2 SWAP3 SWAP2 DUP7 SWAP2 PUSH1 0x24 SWAP2 DUP4 SWAP2 AND GAS STATICCALL SWAP2 DUP3 ISZERO PUSH2 0x8A6 JUMPI PUSH2 0x3A66 SWAP5 PUSH1 0x0 SWAP4 PUSH2 0x3C4E JUMPI POP PUSH1 0x80 SWAP1 PUSH20 0x0 SWAP4 PUSH1 0x20 DUP2 MLOAD SWAP2 ADD MLOAD PUSH1 0x40 MLOAD SWAP2 PUSH2 0x3A2F DUP4 PUSH2 0x269E JUMP JUMPDEST PUSH1 0x2 SLOAD DUP2 PUSH1 0x0 MSTORE PUSH1 0x4 PUSH1 0x20 MSTORE DUP1 PUSH1 0x40 PUSH1 0x0 KECCAK256 SSTORE PUSH1 0x0 MSTORE PUSH1 0x5 PUSH1 0x20 MSTORE PUSH1 0x40 PUSH1 0x0 KECCAK256 DUP2 PUSH1 0x1 PUSH1 0x1 PUSH1 0x60 SHL SUB PUSH1 0xA0 SHL DUP3 SLOAD AND OR SWAP1 SSTORE PUSH1 0x6 SLOAD PUSH1 0x1 PUSH1 0x40 SHL DUP2 LT ISZERO PUSH2 0x850 JUMPI DUP1 PUSH1 0x1 PUSH2 0x3ED0 SWAP3 ADD PUSH1 0x6 SSTORE PUSH2 0x27C5 JUMP JUMPDEST DUP2 SLOAD PUSH1 0x1 PUSH1 0x1 PUSH1 0xA0 SHL SUB PUSH1 0x3 SWAP3 SWAP1 SWAP3 SHL SWAP2 DUP3 SHL NOT AND SWAP1 DUP4 SWAP1 SHL OR SWAP1 SSTORE PUSH1 0x2 SLOAD PUSH2 0x3EF8 SWAP1 PUSH2 0x3907 JUMP JUMPDEST PUSH1 0x2 SSTORE PUSH2 0x3DF8 JUMP JUMPDEST SWAP8 SWAP5 SWAP2 SWAP6 SWAP4 SWAP3 SWAP8 LT PUSH2 0x3F15 JUMPI JUMPDEST POP POP POP PUSH2 0x3DE3 JUMP JUMPDEST PUSH2 0x3CAB SWAP3 SWAP4 SWAP7 POP PUSH2 0x3F2B SWAP5 POP SWAP1 PUSH2 0x3DDC SWAP2 PUSH2 0x381F JUMP JUMPDEST PUSH1 0x0 SWAP3 CODESIZE DUP1 DUP1 PUSH2 0x3F0D JUMP JUMPDEST PUSH2 0x3F4F SWAP2 POP PUSH1 0x20 RETURNDATASIZE PUSH1 0x20 GT PUSH2 0x3185 JUMPI PUSH2 0x3177 DUP2 DUP4 PUSH2 0x26D6 JUMP JUMPDEST CODESIZE PUSH2 0x3D92 JUMP JUMPDEST PUSH1 0x40 MLOAD PUSH4 0xA9059CBB PUSH1 0xE0 SHL PUSH1 0x20 DUP3 ADD MSTORE PUSH1 0x1 PUSH1 0x1 PUSH1 0xA0 SHL SUB SWAP1 SWAP3 AND PUSH1 0x24 DUP4 ADD MSTORE PUSH1 0x44 DUP1 DUP4 ADD SWAP4 SWAP1 SWAP4 MSTORE SWAP2 DUP2 MSTORE PUSH2 0x28A3 SWAP2 PUSH2 0x3F90 PUSH1 0x64 DUP4 PUSH2 0x26D6 JUMP JUMPDEST PUSH2 0x4053 JUMP JUMPDEST PUSH1 0x4D DUP2 GT PUSH2 0x1B31 JUMPI PUSH1 0xA EXP SWAP1 JUMP JUMPDEST PUSH1 0x1 DUP1 PUSH1 0xA0 SHL SUB AND PUSH1 0x0 MSTORE PUSH1 0x8 PUSH1 0x20 MSTORE PUSH1 0x40 PUSH1 0x0 KECCAK256 SWAP1 PUSH1 0x0 MSTORE PUSH1 0x20 MSTORE PUSH1 0x40 PUSH1 0x0 KECCAK256 PUSH2 0x4045 PUSH1 0x5 DUP3 ADD SLOAD PUSH2 0x3FD8 PUSH2 0x1889 DUP5 PUSH2 0x2814 JUMP JUMPDEST SWAP1 PUSH1 0x40 MLOAD SWAP1 PUSH1 0x20 DUP3 ADD SWAP3 DUP4 MSTORE PUSH1 0x40 DUP3 ADD MSTORE PUSH1 0x40 DUP2 MSTORE PUSH2 0x3FF8 PUSH1 0x60 DUP3 PUSH2 0x26D6 JUMP JUMPDEST MLOAD SWAP1 KECCAK256 SWAP2 PUSH1 0x1 PUSH1 0x6 DUP3 ADD SWAP4 PUSH1 0x4 DUP6 SLOAD SWAP4 PUSH1 0x40 MLOAD SWAP5 PUSH2 0x4015 DUP7 PUSH2 0x269E JUMP JUMPDEST DUP6 MSTORE PUSH1 0x20 DUP6 ADD SWAP3 DUP5 DUP5 MSTORE PUSH1 0x0 MSTORE ADD PUSH1 0x20 MSTORE PUSH1 0x40 PUSH1 0x0 KECCAK256 SWAP3 MLOAD DUP4 SSTORE MLOAD ISZERO ISZERO SWAP2 ADD SWAP1 PUSH1 0xFF DUP1 NOT DUP4 SLOAD AND SWAP2 ISZERO ISZERO AND OR SWAP1 SSTORE JUMP JUMPDEST PUSH2 0x404F DUP2 SLOAD PUSH2 0x3907 JUMP JUMPDEST SWAP1 SSTORE JUMP JUMPDEST SWAP1 PUSH1 0x0 PUSH1 0x20 SWAP2 DUP3 DUP2 MLOAD SWAP2 ADD DUP3 DUP6 GAS CALL ISZERO PUSH2 0x8A6 JUMPI PUSH1 0x0 MLOAD RETURNDATASIZE PUSH2 0x40A5 JUMPI POP PUSH1 0x1 PUSH1 0x1 PUSH1 0xA0 SHL SUB DUP2 AND EXTCODESIZE ISZERO JUMPDEST PUSH2 0x4084 JUMPI POP JUMP JUMPDEST PUSH4 0x5274AFE7 PUSH1 0xE0 SHL PUSH1 0x0 SWAP1 DUP2 MSTORE PUSH1 0x1 PUSH1 0x1 PUSH1 0xA0 SHL SUB SWAP2 SWAP1 SWAP2 AND PUSH1 0x4 MSTORE PUSH1 0x24 SWAP1 REVERT JUMPDEST PUSH1 0x1 EQ ISZERO PUSH2 0x407D JUMP JUMPDEST DUP1 MLOAD SWAP1 PUSH1 0x20 DUP1 DUP4 MLOAD SWAP4 ADD MLOAD SWAP2 ADD MLOAD PUSH1 0x20 DUP2 MLOAD SWAP2 ADD MLOAD SWAP1 PUSH1 0x40 MLOAD SWAP3 PUSH1 0x20 DUP5 ADD SWAP5 DUP6 MSTORE PUSH1 0x40 DUP5 ADD MSTORE PUSH1 0x60 DUP4 ADD MSTORE PUSH1 0x80 DUP3 ADD MSTORE PUSH1 0x80 DUP2 MSTORE PUSH2 0x40ED PUSH1 0xA0 DUP3 PUSH2 0x26D6 JUMP JUMPDEST MLOAD SWAP1 KECCAK256 SWAP1 JUMP JUMPDEST SWAP1 DUP1 DUP3 EQ PUSH2 0x4127 JUMPI SWAP1 DUP2 SLOAD SWAP1 PUSH1 0x0 SWAP2 JUMPDEST PUSH1 0x7 DUP4 LT PUSH2 0x4111 JUMPI POP POP POP POP JUMP JUMPDEST PUSH1 0x1 DUP1 SWAP2 SWAP5 ADD SWAP3 DUP4 SLOAD SWAP5 DUP2 DUP5 ADD SSTORE ADD SWAP2 SWAP3 PUSH2 0x4103 JUMP JUMPDEST POP POP JUMP INVALID LOG2 PUSH5 0x6970667358 0x22 SLT KECCAK256 DUP6 0xE0 DELEGATECALL 0x28 0x27 0xE9 PREVRANDAO 0xE9 0xEF BLOBBASEFEE GAS PUSH22 0x7B2A583FF2EB317904066941E27EFD3645E8430B6473 PUSH16 0x6C634300081B00330000000000000000 "},"methodIdentifiers":{"acceptOwnership()":"79ba5097","alreadyMinted(uint256)":"b7365f1f","auditor()":"3ec045a6","auditorPublicKey()":"91584d49","balanceOf(address,uint256)":"00fdd58e","balanceOfStandalone(address)":"a865d5b2","balances(address,uint256)":"cbf1304d","blacklistedTokens(address)":"5c8b5f44","burnVerifier()":"c3a716eb","decimals()":"313ce567","deposit(uint256,address,uint256[7])":"82f09ea2","getBalanceFromTokenAddress(address,address)":"14dda7fd","getNativeBalance(address)":"efd8be62","getTokens()":"aa6ca808","isAuditorKeySet()":"034a1c18","isConverter()":"61832767","mintVerifier()":"00b0938d","name()":"06fdde03","nativeBalances(address)":"95ad89e6","nextTokenId()":"75794a3c","owner()":"8da5cb5b","pendingOwner()":"e30c3978","privateBurn(((uint256[2],uint256[2][2],uint256[2]),uint256[19]),uint256[7])":"f4b2be44","privateMint(address,((uint256[2],uint256[2][2],uint256[2]),uint256[24]))":"204ac7cc","registerTokenType(address,uint8)":"ba487473","registrar()":"2b20e397","renounceOwnership()":"715018a6","setAuditorPublicKey(address)":"13a4f0db","setTokenBlacklist(address,bool)":"1ff0769a","symbol()":"95d89b41","tokenAddresses(uint256)":"e5df8b84","tokenIds(address)":"fc97a303","tokenTypes(address)":"b39f252d","tokens(uint256)":"4f64b2be","transfer(address,uint256,((uint256[2],uint256[2][2],uint256[2]),uint256[32]),uint256[7])":"2d947610","transferOwnership(address)":"f2fde38b","transferVerifier()":"8daed528","withdraw(uint256,((uint256[2],uint256[2][2],uint256[2]),uint256[16]),uint256[7])":"a5566e25","withdrawVerifier()":"864eb164"}}}}}