{"contracts/libraries/BabyJubJub.sol":{"BabyJubJub":{"abi":[{"inputs":[],"name":"Q","outputs":[{"internalType":"uint256","name":"","type":"uint256"}],"stateMutability":"view","type":"function"},{"inputs":[{"components":[{"internalType":"uint256","name":"x","type":"uint256"},{"internalType":"uint256","name":"y","type":"uint256"}],"internalType":"struct Point","name":"_point1","type":"tuple"},{"components":[{"internalType":"uint256","name":"x","type":"uint256"},{"internalType":"uint256","name":"y","type":"uint256"}],"internalType":"struct Point","name":"_point2","type":"tuple"}],"name":"_add","outputs":[{"components":[{"internalType":"uint256","name":"x","type":"uint256"},{"internalType":"uint256","name":"y","type":"uint256"}],"internalType":"struct Point","name":"","type":"tuple"}],"stateMutability":"view","type":"function"},{"inputs":[{"components":[{"internalType":"uint256","name":"x","type":"uint256"},{"internalType":"uint256","name":"y","type":"uint256"}],"internalType":"struct Point","name":"_point1","type":"tuple"},{"components":[{"internalType":"uint256","name":"x","type":"uint256"},{"internalType":"uint256","name":"y","type":"uint256"}],"internalType":"struct Point","name":"_point2","type":"tuple"}],"name":"_sub","outputs":[{"components":[{"internalType":"uint256","name":"x","type":"uint256"},{"internalType":"uint256","name":"y","type":"uint256"}],"internalType":"struct Point","name":"","type":"tuple"}],"stateMutability":"view","type":"function"},{"inputs":[],"name":"base8","outputs":[{"components":[{"internalType":"uint256","name":"x","type":"uint256"},{"internalType":"uint256","name":"y","type":"uint256"}],"internalType":"struct Point","name":"","type":"tuple"}],"stateMutability":"pure","type":"function"},{"inputs":[{"components":[{"internalType":"uint256","name":"x","type":"uint256"},{"internalType":"uint256","name":"y","type":"uint256"}],"internalType":"struct Point","name":"_publicKey","type":"tuple"},{"internalType":"uint256","name":"_msg","type":"uint256"}],"name":"elGamalEncryption","outputs":[{"components":[{"components":[{"internalType":"uint256","name":"x","type":"uint256"},{"internalType":"uint256","name":"y","type":"uint256"}],"internalType":"struct Point","name":"c1","type":"tuple"},{"components":[{"internalType":"uint256","name":"x","type":"uint256"},{"internalType":"uint256","name":"y","type":"uint256"}],"internalType":"struct Point","name":"c2","type":"tuple"}],"internalType":"struct EGCT","name":"","type":"tuple"}],"stateMutability":"view","type":"function"},{"inputs":[{"components":[{"internalType":"uint256","name":"x","type":"uint256"},{"internalType":"uint256","name":"y","type":"uint256"}],"internalType":"struct Point","name":"_publicKey","type":"tuple"},{"internalType":"uint256","name":"_msg","type":"uint256"}],"name":"encrypt","outputs":[{"components":[{"components":[{"internalType":"uint256","name":"x","type":"uint256"},{"internalType":"uint256","name":"y","type":"uint256"}],"internalType":"struct Point","name":"c1","type":"tuple"},{"components":[{"internalType":"uint256","name":"x","type":"uint256"},{"internalType":"uint256","name":"y","type":"uint256"}],"internalType":"struct Point","name":"c2","type":"tuple"}],"internalType":"struct EGCT","name":"","type":"tuple"}],"stateMutability":"view","type":"function"},{"inputs":[{"components":[{"internalType":"uint256","name":"x","type":"uint256"},{"internalType":"uint256","name":"y","type":"uint256"}],"internalType":"struct Point","name":"_point","type":"tuple"},{"internalType":"uint256","name":"_scalar","type":"uint256"}],"name":"scalarMultiply","outputs":[{"components":[{"internalType":"uint256","name":"x","type":"uint256"},{"internalType":"uint256","name":"y","type":"uint256"}],"internalType":"struct Point","name":"","type":"tuple"}],"stateMutability":"view","type":"function"}],"evm":{"bytecode":{"linkReferences":{},"object":"6080806040523460195761065f908161001f823930815050f35b600080fdfe6080604052600436101561001257600080fd5b60003560e01c806304068d3a1461008757806334603b1a146100825780634fa78ada1461007d5780637a634a72146100785780637bb10bcb14610073578063e493ef8c1461006e5763ef69ca3a1461006957600080fd5b610298565b610274565b61024b565b610235565b610190565b61016c565b60603660031901126100e9576100e56100b46100a236610124565b604435906100ae6102d1565b50610309565b6040519182918281518051825260209081015181830152918201518051604083015290910151606082015260800190565b0390f35b600080fd5b604051906040820182811067ffffffffffffffff82111761010e57604052565b634e487b7160e01b600052604160045260246000fd5b60409060031901126100e9576101386100ee565b9060043582526024356020830152565b60409060431901126100e95761015c6100ee565b9060443582526064356020830152565b60603660031901126100e9576100e56100b461018736610124565b60443590610309565b60803660031901126100e9576101a536610124565b6101ae36610148565b6101b66102bb565b506101bf6102bb565b50805160008051602061060a8339815191520360008051602061060a833981519152811161021f5760409260206102079301516101fa6100ee565b92835260208301526103ab565b61021d8251809260208091805184520151910152565bf35b634e487b7160e01b600052601160045260246000fd5b60003660031901126100e957604061020761034e565b60803660031901126100e957604061020761026536610124565b61026e36610148565b906103ab565b60003660031901126100e957602060405160008051602061060a8339815191528152f35b60603660031901126100e95760406102076102b236610124565b604435906104aa565b6102c36100ee565b906000825260006020830152565b6102d96100ee565b906102e26100ee565b600081526000602082015282526102f76100ee565b60008152600060208201526020830152565b9061033b906103166102d1565b5061026e61032261034e565b9161033561032f84610442565b95610442565b926104aa565b6103436100ee565b918252602082015290565b6103566102bb565b5061035f6100ee565b7f0bb77a6ad63e739b4eacb2e09d6277c12ab8d8010534e0b62893f3f6bb95705181527f25797203f7a0b24925572e1cd16bf9edfce0051fb9e133774b3c257a872d7d8b602082015290565b9060008051602061060a83398151915261042d6104288261041281956103cf6102bb565b5082808951835190099687928160208c0191818351818080602086019384519009809a09620292f8099e5190519009925190519009900896620292fc0990610568565b9361042082886001086105a2565b90099461052d565b6105a2565b906104366100ee565b93845209602082015290565b61044a6102bb565b50600180916104576100ee565b6000815260016020820152925b61046d57505090565b60018216610494575b610489906104826102bb565b50806103ab565b9060011c9081610464565b916104a283610489926103ab565b929050610476565b907f060c89ce5c263405370a08b6d0302b0bab3eedb83920ee0a677297dc392126f1906104d56102bb565b500680916104e16100ee565b6000815260016020820152925b6104f757505090565b60018216610517575b61050c906104826102bb565b9060011c90816104ee565b916105258361050c926103ab565b929050610500565b60008051602061060a8339815191520360008051602061060a833981519152811161021f5760008051602061060a8339815191529060010890565b9060008051602061060a8339815191520360008051602061060a833981519152811161021f5760008051602061060a833981519152910890565b60405190602082526020808301526020604083015260608201527f30644e72e131a029b85045b68181585d2833e84879b9709143e1f593efffffff608082015260008051602061060a83398151915260a082015260208160c08160055afa156100e957519056fe30644e72e131a029b85045b68181585d2833e84879b9709143e1f593f0000001a264697066735822122097f3bcbc44bb33568bf37d879ef06ce0c33940a798642ccf725f88db92dddf3264736f6c634300081b0033","opcodes":"PUSH1 0x80 DUP1 PUSH1 0x40 MSTORE CALLVALUE PUSH1 0x19 JUMPI PUSH2 0x65F SWAP1 DUP2 PUSH2 0x1F DUP3 CODECOPY ADDRESS DUP2 POP POP RETURN JUMPDEST PUSH1 0x0 DUP1 REVERT INVALID PUSH1 0x80 PUSH1 0x40 MSTORE PUSH1 0x4 CALLDATASIZE LT ISZERO PUSH2 0x12 JUMPI PUSH1 0x0 DUP1 REVERT JUMPDEST PUSH1 0x0 CALLDATALOAD PUSH1 0xE0 SHR DUP1 PUSH4 0x4068D3A EQ PUSH2 0x87 JUMPI DUP1 PUSH4 0x34603B1A EQ PUSH2 0x82 JUMPI DUP1 PUSH4 0x4FA78ADA EQ PUSH2 0x7D JUMPI DUP1 PUSH4 0x7A634A72 EQ PUSH2 0x78 JUMPI DUP1 PUSH4 0x7BB10BCB EQ PUSH2 0x73 JUMPI DUP1 PUSH4 0xE493EF8C EQ PUSH2 0x6E JUMPI PUSH4 0xEF69CA3A EQ PUSH2 0x69 JUMPI PUSH1 0x0 DUP1 REVERT JUMPDEST PUSH2 0x298 JUMP JUMPDEST PUSH2 0x274 JUMP JUMPDEST PUSH2 0x24B JUMP JUMPDEST PUSH2 0x235 JUMP JUMPDEST PUSH2 0x190 JUMP JUMPDEST PUSH2 0x16C JUMP JUMPDEST PUSH1 0x60 CALLDATASIZE PUSH1 0x3 NOT ADD SLT PUSH2 0xE9 JUMPI PUSH2 0xE5 PUSH2 0xB4 PUSH2 0xA2 CALLDATASIZE PUSH2 0x124 JUMP JUMPDEST PUSH1 0x44 CALLDATALOAD SWAP1 PUSH2 0xAE PUSH2 0x2D1 JUMP JUMPDEST POP PUSH2 0x309 JUMP JUMPDEST PUSH1 0x40 MLOAD SWAP2 DUP3 SWAP2 DUP3 DUP2 MLOAD DUP1 MLOAD DUP3 MSTORE PUSH1 0x20 SWAP1 DUP2 ADD MLOAD DUP2 DUP4 ADD MSTORE SWAP2 DUP3 ADD MLOAD DUP1 MLOAD PUSH1 0x40 DUP4 ADD MSTORE SWAP1 SWAP2 ADD MLOAD PUSH1 0x60 DUP3 ADD MSTORE PUSH1 0x80 ADD SWAP1 JUMP JUMPDEST SUB SWAP1 RETURN JUMPDEST PUSH1 0x0 DUP1 REVERT JUMPDEST PUSH1 0x40 MLOAD SWAP1 PUSH1 0x40 DUP3 ADD DUP3 DUP2 LT PUSH8 0xFFFFFFFFFFFFFFFF DUP3 GT OR PUSH2 0x10E JUMPI PUSH1 0x40 MSTORE JUMP JUMPDEST PUSH4 0x4E487B71 PUSH1 0xE0 SHL PUSH1 0x0 MSTORE PUSH1 0x41 PUSH1 0x4 MSTORE PUSH1 0x24 PUSH1 0x0 REVERT JUMPDEST PUSH1 0x40 SWAP1 PUSH1 0x3 NOT ADD SLT PUSH2 0xE9 JUMPI PUSH2 0x138 PUSH2 0xEE JUMP JUMPDEST SWAP1 PUSH1 0x4 CALLDATALOAD DUP3 MSTORE PUSH1 0x24 CALLDATALOAD PUSH1 0x20 DUP4 ADD MSTORE JUMP JUMPDEST PUSH1 0x40 SWAP1 PUSH1 0x43 NOT ADD SLT PUSH2 0xE9 JUMPI PUSH2 0x15C PUSH2 0xEE JUMP JUMPDEST SWAP1 PUSH1 0x44 CALLDATALOAD DUP3 MSTORE PUSH1 0x64 CALLDATALOAD PUSH1 0x20 DUP4 ADD MSTORE JUMP JUMPDEST PUSH1 0x60 CALLDATASIZE PUSH1 0x3 NOT ADD SLT PUSH2 0xE9 JUMPI PUSH2 0xE5 PUSH2 0xB4 PUSH2 0x187 CALLDATASIZE PUSH2 0x124 JUMP JUMPDEST PUSH1 0x44 CALLDATALOAD SWAP1 PUSH2 0x309 JUMP JUMPDEST PUSH1 0x80 CALLDATASIZE PUSH1 0x3 NOT ADD SLT PUSH2 0xE9 JUMPI PUSH2 0x1A5 CALLDATASIZE PUSH2 0x124 JUMP JUMPDEST PUSH2 0x1AE CALLDATASIZE PUSH2 0x148 JUMP JUMPDEST PUSH2 0x1B6 PUSH2 0x2BB JUMP JUMPDEST POP PUSH2 0x1BF PUSH2 0x2BB JUMP JUMPDEST POP DUP1 MLOAD PUSH1 0x0 DUP1 MLOAD PUSH1 0x20 PUSH2 0x60A DUP4 CODECOPY DUP2 MLOAD SWAP2 MSTORE SUB PUSH1 0x0 DUP1 MLOAD PUSH1 0x20 PUSH2 0x60A DUP4 CODECOPY DUP2 MLOAD SWAP2 MSTORE DUP2 GT PUSH2 0x21F JUMPI PUSH1 0x40 SWAP3 PUSH1 0x20 PUSH2 0x207 SWAP4 ADD MLOAD PUSH2 0x1FA PUSH2 0xEE JUMP JUMPDEST SWAP3 DUP4 MSTORE PUSH1 0x20 DUP4 ADD MSTORE PUSH2 0x3AB JUMP JUMPDEST PUSH2 0x21D DUP3 MLOAD DUP1 SWAP3 PUSH1 0x20 DUP1 SWAP2 DUP1 MLOAD DUP5 MSTORE ADD MLOAD SWAP2 ADD MSTORE JUMP JUMPDEST RETURN JUMPDEST PUSH4 0x4E487B71 PUSH1 0xE0 SHL PUSH1 0x0 MSTORE PUSH1 0x11 PUSH1 0x4 MSTORE PUSH1 0x24 PUSH1 0x0 REVERT JUMPDEST PUSH1 0x0 CALLDATASIZE PUSH1 0x3 NOT ADD SLT PUSH2 0xE9 JUMPI PUSH1 0x40 PUSH2 0x207 PUSH2 0x34E JUMP JUMPDEST PUSH1 0x80 CALLDATASIZE PUSH1 0x3 NOT ADD SLT PUSH2 0xE9 JUMPI PUSH1 0x40 PUSH2 0x207 PUSH2 0x265 CALLDATASIZE PUSH2 0x124 JUMP JUMPDEST PUSH2 0x26E CALLDATASIZE PUSH2 0x148 JUMP JUMPDEST SWAP1 PUSH2 0x3AB JUMP JUMPDEST PUSH1 0x0 CALLDATASIZE PUSH1 0x3 NOT ADD SLT PUSH2 0xE9 JUMPI PUSH1 0x20 PUSH1 0x40 MLOAD PUSH1 0x0 DUP1 MLOAD PUSH1 0x20 PUSH2 0x60A DUP4 CODECOPY DUP2 MLOAD SWAP2 MSTORE DUP2 MSTORE RETURN JUMPDEST PUSH1 0x60 CALLDATASIZE PUSH1 0x3 NOT ADD SLT PUSH2 0xE9 JUMPI PUSH1 0x40 PUSH2 0x207 PUSH2 0x2B2 CALLDATASIZE PUSH2 0x124 JUMP JUMPDEST PUSH1 0x44 CALLDATALOAD SWAP1 PUSH2 0x4AA JUMP JUMPDEST PUSH2 0x2C3 PUSH2 0xEE JUMP JUMPDEST SWAP1 PUSH1 0x0 DUP3 MSTORE PUSH1 0x0 PUSH1 0x20 DUP4 ADD MSTORE JUMP JUMPDEST PUSH2 0x2D9 PUSH2 0xEE JUMP JUMPDEST SWAP1 PUSH2 0x2E2 PUSH2 0xEE JUMP JUMPDEST PUSH1 0x0 DUP2 MSTORE PUSH1 0x0 PUSH1 0x20 DUP3 ADD MSTORE DUP3 MSTORE PUSH2 0x2F7 PUSH2 0xEE JUMP JUMPDEST PUSH1 0x0 DUP2 MSTORE PUSH1 0x0 PUSH1 0x20 DUP3 ADD MSTORE PUSH1 0x20 DUP4 ADD MSTORE JUMP JUMPDEST SWAP1 PUSH2 0x33B SWAP1 PUSH2 0x316 PUSH2 0x2D1 JUMP JUMPDEST POP PUSH2 0x26E PUSH2 0x322 PUSH2 0x34E JUMP JUMPDEST SWAP2 PUSH2 0x335 PUSH2 0x32F DUP5 PUSH2 0x442 JUMP JUMPDEST SWAP6 PUSH2 0x442 JUMP JUMPDEST SWAP3 PUSH2 0x4AA JUMP JUMPDEST PUSH2 0x343 PUSH2 0xEE JUMP JUMPDEST SWAP2 DUP3 MSTORE PUSH1 0x20 DUP3 ADD MSTORE SWAP1 JUMP JUMPDEST PUSH2 0x356 PUSH2 0x2BB JUMP JUMPDEST POP PUSH2 0x35F PUSH2 0xEE JUMP JUMPDEST PUSH32 0xBB77A6AD63E739B4EACB2E09D6277C12AB8D8010534E0B62893F3F6BB957051 DUP2 MSTORE PUSH32 0x25797203F7A0B24925572E1CD16BF9EDFCE0051FB9E133774B3C257A872D7D8B PUSH1 0x20 DUP3 ADD MSTORE SWAP1 JUMP JUMPDEST SWAP1 PUSH1 0x0 DUP1 MLOAD PUSH1 0x20 PUSH2 0x60A DUP4 CODECOPY DUP2 MLOAD SWAP2 MSTORE PUSH2 0x42D PUSH2 0x428 DUP3 PUSH2 0x412 DUP2 SWAP6 PUSH2 0x3CF PUSH2 0x2BB JUMP JUMPDEST POP DUP3 DUP1 DUP10 MLOAD DUP4 MLOAD SWAP1 MULMOD SWAP7 DUP8 SWAP3 DUP2 PUSH1 0x20 DUP13 ADD SWAP2 DUP2 DUP4 MLOAD DUP2 DUP1 DUP1 PUSH1 0x20 DUP7 ADD SWAP4 DUP5 MLOAD SWAP1 MULMOD DUP1 SWAP11 MULMOD PUSH3 0x292F8 MULMOD SWAP15 MLOAD SWAP1 MLOAD SWAP1 MULMOD SWAP3 MLOAD SWAP1 MLOAD SWAP1 MULMOD SWAP1 ADDMOD SWAP7 PUSH3 0x292FC MULMOD SWAP1 PUSH2 0x568 JUMP JUMPDEST SWAP4 PUSH2 0x420 DUP3 DUP9 PUSH1 0x1 ADDMOD PUSH2 0x5A2 JUMP JUMPDEST SWAP1 MULMOD SWAP5 PUSH2 0x52D JUMP JUMPDEST PUSH2 0x5A2 JUMP JUMPDEST SWAP1 PUSH2 0x436 PUSH2 0xEE JUMP JUMPDEST SWAP4 DUP5 MSTORE MULMOD PUSH1 0x20 DUP3 ADD MSTORE SWAP1 JUMP JUMPDEST PUSH2 0x44A PUSH2 0x2BB JUMP JUMPDEST POP PUSH1 0x1 DUP1 SWAP2 PUSH2 0x457 PUSH2 0xEE JUMP JUMPDEST PUSH1 0x0 DUP2 MSTORE PUSH1 0x1 PUSH1 0x20 DUP3 ADD MSTORE SWAP3 JUMPDEST PUSH2 0x46D JUMPI POP POP SWAP1 JUMP JUMPDEST PUSH1 0x1 DUP3 AND PUSH2 0x494 JUMPI JUMPDEST PUSH2 0x489 SWAP1 PUSH2 0x482 PUSH2 0x2BB JUMP JUMPDEST POP DUP1 PUSH2 0x3AB JUMP JUMPDEST SWAP1 PUSH1 0x1 SHR SWAP1 DUP2 PUSH2 0x464 JUMP JUMPDEST SWAP2 PUSH2 0x4A2 DUP4 PUSH2 0x489 SWAP3 PUSH2 0x3AB JUMP JUMPDEST SWAP3 SWAP1 POP PUSH2 0x476 JUMP JUMPDEST SWAP1 PUSH32 0x60C89CE5C263405370A08B6D0302B0BAB3EEDB83920EE0A677297DC392126F1 SWAP1 PUSH2 0x4D5 PUSH2 0x2BB JUMP JUMPDEST POP MOD DUP1 SWAP2 PUSH2 0x4E1 PUSH2 0xEE JUMP JUMPDEST PUSH1 0x0 DUP2 MSTORE PUSH1 0x1 PUSH1 0x20 DUP3 ADD MSTORE SWAP3 JUMPDEST PUSH2 0x4F7 JUMPI POP POP SWAP1 JUMP JUMPDEST PUSH1 0x1 DUP3 AND PUSH2 0x517 JUMPI JUMPDEST PUSH2 0x50C SWAP1 PUSH2 0x482 PUSH2 0x2BB JUMP JUMPDEST SWAP1 PUSH1 0x1 SHR SWAP1 DUP2 PUSH2 0x4EE JUMP JUMPDEST SWAP2 PUSH2 0x525 DUP4 PUSH2 0x50C SWAP3 PUSH2 0x3AB JUMP JUMPDEST SWAP3 SWAP1 POP PUSH2 0x500 JUMP JUMPDEST PUSH1 0x0 DUP1 MLOAD PUSH1 0x20 PUSH2 0x60A DUP4 CODECOPY DUP2 MLOAD SWAP2 MSTORE SUB PUSH1 0x0 DUP1 MLOAD PUSH1 0x20 PUSH2 0x60A DUP4 CODECOPY DUP2 MLOAD SWAP2 MSTORE DUP2 GT PUSH2 0x21F JUMPI PUSH1 0x0 DUP1 MLOAD PUSH1 0x20 PUSH2 0x60A DUP4 CODECOPY DUP2 MLOAD SWAP2 MSTORE SWAP1 PUSH1 0x1 ADDMOD SWAP1 JUMP JUMPDEST SWAP1 PUSH1 0x0 DUP1 MLOAD PUSH1 0x20 PUSH2 0x60A DUP4 CODECOPY DUP2 MLOAD SWAP2 MSTORE SUB PUSH1 0x0 DUP1 MLOAD PUSH1 0x20 PUSH2 0x60A DUP4 CODECOPY DUP2 MLOAD SWAP2 MSTORE DUP2 GT PUSH2 0x21F JUMPI PUSH1 0x0 DUP1 MLOAD PUSH1 0x20 PUSH2 0x60A DUP4 CODECOPY DUP2 MLOAD SWAP2 MSTORE SWAP2 ADDMOD SWAP1 JUMP JUMPDEST PUSH1 0x40 MLOAD SWAP1 PUSH1 0x20 DUP3 MSTORE PUSH1 0x20 DUP1 DUP4 ADD MSTORE PUSH1 0x20 PUSH1 0x40 DUP4 ADD MSTORE PUSH1 0x60 DUP3 ADD MSTORE PUSH32 0x30644E72E131A029B85045B68181585D2833E84879B9709143E1F593EFFFFFFF PUSH1 0x80 DUP3 ADD MSTORE PUSH1 0x0 DUP1 MLOAD PUSH1 0x20 PUSH2 0x60A DUP4 CODECOPY DUP2 MLOAD SWAP2 MSTORE PUSH1 0xA0 DUP3 ADD MSTORE PUSH1 0x20 DUP2 PUSH1 0xC0 DUP2 PUSH1 0x5 GAS STATICCALL ISZERO PUSH2 0xE9 JUMPI MLOAD SWAP1 JUMP INVALID ADDRESS PUSH5 0x4E72E131A0 0x29 0xB8 POP GASLIMIT 0xB6 DUP2 DUP2 PC TSTORE 0x28 CALLER 0xE8 BASEFEE PUSH26 0xB9709143E1F593F0000001A264697066735822122097F3BCBC44 0xBB CALLER JUMP DUP12 RETURN PUSH30 0x879EF06CE0C33940A798642CCF725F88DB92DDDF3264736F6C634300081B STOP CALLER "},"methodIdentifiers":{"Q()":"e493ef8c","_add(Point,Point)":"7bb10bcb","_sub(Point,Point)":"4fa78ada","base8()":"7a634a72","elGamalEncryption(Point,uint256)":"34603b1a","encrypt(Point,uint256)":"04068d3a","scalarMultiply(Point,uint256)":"ef69ca3a"}}}}}