{"contracts/core/EncryptedUserBalances.sol":{"EncryptedUserBalances":{"abi":[{"inputs":[{"internalType":"address","name":"user","type":"address"},{"internalType":"uint256","name":"tokenId","type":"uint256"}],"name":"balanceOf","outputs":[{"components":[{"components":[{"internalType":"uint256","name":"x","type":"uint256"},{"internalType":"uint256","name":"y","type":"uint256"}],"internalType":"struct Point","name":"c1","type":"tuple"},{"components":[{"internalType":"uint256","name":"x","type":"uint256"},{"internalType":"uint256","name":"y","type":"uint256"}],"internalType":"struct Point","name":"c2","type":"tuple"}],"internalType":"struct EGCT","name":"eGCT","type":"tuple"},{"internalType":"uint256","name":"nonce","type":"uint256"},{"components":[{"internalType":"uint256[7]","name":"pct","type":"uint256[7]"},{"internalType":"uint256","name":"index","type":"uint256"}],"internalType":"struct AmountPCT[]","name":"amountPCTs","type":"tuple[]"},{"internalType":"uint256[7]","name":"balancePCT","type":"uint256[7]"},{"internalType":"uint256","name":"transactionIndex","type":"uint256"}],"stateMutability":"view","type":"function"},{"inputs":[{"internalType":"address","name":"user","type":"address"}],"name":"balanceOfStandalone","outputs":[{"components":[{"components":[{"internalType":"uint256","name":"x","type":"uint256"},{"internalType":"uint256","name":"y","type":"uint256"}],"internalType":"struct Point","name":"c1","type":"tuple"},{"components":[{"internalType":"uint256","name":"x","type":"uint256"},{"internalType":"uint256","name":"y","type":"uint256"}],"internalType":"struct Point","name":"c2","type":"tuple"}],"internalType":"struct EGCT","name":"eGCT","type":"tuple"},{"internalType":"uint256","name":"nonce","type":"uint256"},{"components":[{"internalType":"uint256[7]","name":"pct","type":"uint256[7]"},{"internalType":"uint256","name":"index","type":"uint256"}],"internalType":"struct AmountPCT[]","name":"amountPCTs","type":"tuple[]"},{"internalType":"uint256[7]","name":"balancePCT","type":"uint256[7]"},{"internalType":"uint256","name":"transactionIndex","type":"uint256"}],"stateMutability":"view","type":"function"},{"inputs":[{"internalType":"address","name":"user","type":"address"},{"internalType":"uint256","name":"tokenId","type":"uint256"}],"name":"balances","outputs":[{"components":[{"components":[{"internalType":"uint256","name":"x","type":"uint256"},{"internalType":"uint256","name":"y","type":"uint256"}],"internalType":"struct Point","name":"c1","type":"tuple"},{"components":[{"internalType":"uint256","name":"x","type":"uint256"},{"internalType":"uint256","name":"y","type":"uint256"}],"internalType":"struct Point","name":"c2","type":"tuple"}],"internalType":"struct EGCT","name":"eGCT","type":"tuple"},{"internalType":"uint256","name":"nonce","type":"uint256"},{"internalType":"uint256","name":"transactionIndex","type":"uint256"}],"stateMutability":"view","type":"function"}],"evm":{"bytecode":{"linkReferences":{},"object":"60808060405234601557610523908161001b8239f35b600080fdfe6080604052600436101561001257600080fd5b60003560e01c8062fdd58e14610203578063a865d5b2146100cc5763cbf1304d1461003c57600080fd5b346100c75760403660031901126100c7576001600160a01b0361005d6102fb565b166000526000602052604060002060243560005260205260c0604060002061008481610446565b9060066005820154910154906100bb6040518094602080606092818151805187520151828601520151805160408501520151910152565b608083015260a0820152f35b600080fd5b346100c75760203660031901126100c75760406100e76102fb565b6100ef610472565b5060e0908183516101008282610406565b36903760009161010e610472565b50835161011b8282610406565b3690376001600160a01b03168152602081815282822082805290522060058101546006820154600e8301929061015082610446565b9184549067ffffffffffffffff82116101ed576040519161017760208260051b0184610406565b80835260208301966000526020600020966000905b8282106101b857505050906101a760076101b49493016104b6565b9060405195869586610311565b0390f35b600860206001926040516101cb816103ea565b6101d48d6104b6565b815260078d01548382015281520199019101909761018c565b634e487b7160e01b600052604160045260246000fd5b346100c75760403660031901126100c757604061021e6102fb565b600090610229610472565b5060e083516102388282610406565b3690376001600160a01b031681526020818152828220602435835290522060058101546006820154600e8301929061026f82610446565b9184549067ffffffffffffffff82116101ed576040519161029660208260051b0184610406565b80835260208301966000526020600020966000905b8282106102c657505050906101a760076101b49493016104b6565b600860206001926040516102d9816103ea565b6102e28d6104b6565b815260078d0154838201528152019901910190976102ab565b600435906001600160a01b03821682036100c757565b929195949395610344846101c0810193602080606092818151805187520151828601520151805160408501520151910152565b60808401526101c060a0840152815180915260206101e0840192019060005b81811061039e575050509360c082016000905b60078210610388575050506101a00152565b6020806001928551815201930191019091610376565b9091928351805182906000915b600783106103d45750505061010060019260208093015160e08201520194019101919091610363565b60208060019284518152019201920191906103ab565b6040810190811067ffffffffffffffff8211176101ed57604052565b90601f8019910116810190811067ffffffffffffffff8211176101ed57604052565b90604051610435816103ea565b602060018294805484520154910152565b90604051610453816103ea565b602061046d6002839561046581610428565b855201610428565b910152565b6040519061047f826103ea565b8160405161048c816103ea565b600081526000602082015281526020604051916104a8836103ea565b600083526000828401520152565b60405191906000835b600782106104d7575050506104d560e083610406565b565b60016020819285548152019301910190916104bf56fea2646970667358221220ee71062fd9ccea35ef7679aabe68e5bf271a6ba409fc2be2fd737c55c05f69dc64736f6c634300081b0033","opcodes":"PUSH1 0x80 DUP1 PUSH1 0x40 MSTORE CALLVALUE PUSH1 0x15 JUMPI PUSH2 0x523 SWAP1 DUP2 PUSH2 0x1B DUP3 CODECOPY RETURN JUMPDEST PUSH1 0x0 DUP1 REVERT INVALID PUSH1 0x80 PUSH1 0x40 MSTORE PUSH1 0x4 CALLDATASIZE LT ISZERO PUSH2 0x12 JUMPI PUSH1 0x0 DUP1 REVERT JUMPDEST PUSH1 0x0 CALLDATALOAD PUSH1 0xE0 SHR DUP1 PUSH3 0xFDD58E EQ PUSH2 0x203 JUMPI DUP1 PUSH4 0xA865D5B2 EQ PUSH2 0xCC JUMPI PUSH4 0xCBF1304D EQ PUSH2 0x3C JUMPI PUSH1 0x0 DUP1 REVERT JUMPDEST CALLVALUE PUSH2 0xC7 JUMPI PUSH1 0x40 CALLDATASIZE PUSH1 0x3 NOT ADD SLT PUSH2 0xC7 JUMPI PUSH1 0x1 PUSH1 0x1 PUSH1 0xA0 SHL SUB PUSH2 0x5D PUSH2 0x2FB JUMP JUMPDEST AND PUSH1 0x0 MSTORE PUSH1 0x0 PUSH1 0x20 MSTORE PUSH1 0x40 PUSH1 0x0 KECCAK256 PUSH1 0x24 CALLDATALOAD PUSH1 0x0 MSTORE PUSH1 0x20 MSTORE PUSH1 0xC0 PUSH1 0x40 PUSH1 0x0 KECCAK256 PUSH2 0x84 DUP2 PUSH2 0x446 JUMP JUMPDEST SWAP1 PUSH1 0x6 PUSH1 0x5 DUP3 ADD SLOAD SWAP2 ADD SLOAD SWAP1 PUSH2 0xBB PUSH1 0x40 MLOAD DUP1 SWAP5 PUSH1 0x20 DUP1 PUSH1 0x60 SWAP3 DUP2 DUP2 MLOAD DUP1 MLOAD DUP8 MSTORE ADD MLOAD DUP3 DUP7 ADD MSTORE ADD MLOAD DUP1 MLOAD PUSH1 0x40 DUP6 ADD MSTORE ADD MLOAD SWAP2 ADD MSTORE JUMP JUMPDEST PUSH1 0x80 DUP4 ADD MSTORE PUSH1 0xA0 DUP3 ADD MSTORE RETURN JUMPDEST PUSH1 0x0 DUP1 REVERT JUMPDEST CALLVALUE PUSH2 0xC7 JUMPI PUSH1 0x20 CALLDATASIZE PUSH1 0x3 NOT ADD SLT PUSH2 0xC7 JUMPI PUSH1 0x40 PUSH2 0xE7 PUSH2 0x2FB JUMP JUMPDEST PUSH2 0xEF PUSH2 0x472 JUMP JUMPDEST POP PUSH1 0xE0 SWAP1 DUP2 DUP4 MLOAD PUSH2 0x100 DUP3 DUP3 PUSH2 0x406 JUMP JUMPDEST CALLDATASIZE SWAP1 CALLDATACOPY PUSH1 0x0 SWAP2 PUSH2 0x10E PUSH2 0x472 JUMP JUMPDEST POP DUP4 MLOAD PUSH2 0x11B DUP3 DUP3 PUSH2 0x406 JUMP JUMPDEST CALLDATASIZE SWAP1 CALLDATACOPY PUSH1 0x1 PUSH1 0x1 PUSH1 0xA0 SHL SUB AND DUP2 MSTORE PUSH1 0x20 DUP2 DUP2 MSTORE DUP3 DUP3 KECCAK256 DUP3 DUP1 MSTORE SWAP1 MSTORE KECCAK256 PUSH1 0x5 DUP2 ADD SLOAD PUSH1 0x6 DUP3 ADD SLOAD PUSH1 0xE DUP4 ADD SWAP3 SWAP1 PUSH2 0x150 DUP3 PUSH2 0x446 JUMP JUMPDEST SWAP2 DUP5 SLOAD SWAP1 PUSH8 0xFFFFFFFFFFFFFFFF DUP3 GT PUSH2 0x1ED JUMPI PUSH1 0x40 MLOAD SWAP2 PUSH2 0x177 PUSH1 0x20 DUP3 PUSH1 0x5 SHL ADD DUP5 PUSH2 0x406 JUMP JUMPDEST DUP1 DUP4 MSTORE PUSH1 0x20 DUP4 ADD SWAP7 PUSH1 0x0 MSTORE PUSH1 0x20 PUSH1 0x0 KECCAK256 SWAP7 PUSH1 0x0 SWAP1 JUMPDEST DUP3 DUP3 LT PUSH2 0x1B8 JUMPI POP POP POP SWAP1 PUSH2 0x1A7 PUSH1 0x7 PUSH2 0x1B4 SWAP5 SWAP4 ADD PUSH2 0x4B6 JUMP JUMPDEST SWAP1 PUSH1 0x40 MLOAD SWAP6 DUP7 SWAP6 DUP7 PUSH2 0x311 JUMP JUMPDEST SUB SWAP1 RETURN JUMPDEST PUSH1 0x8 PUSH1 0x20 PUSH1 0x1 SWAP3 PUSH1 0x40 MLOAD PUSH2 0x1CB DUP2 PUSH2 0x3EA JUMP JUMPDEST PUSH2 0x1D4 DUP14 PUSH2 0x4B6 JUMP JUMPDEST DUP2 MSTORE PUSH1 0x7 DUP14 ADD SLOAD DUP4 DUP3 ADD MSTORE DUP2 MSTORE ADD SWAP10 ADD SWAP2 ADD SWAP1 SWAP8 PUSH2 0x18C JUMP JUMPDEST PUSH4 0x4E487B71 PUSH1 0xE0 SHL PUSH1 0x0 MSTORE PUSH1 0x41 PUSH1 0x4 MSTORE PUSH1 0x24 PUSH1 0x0 REVERT JUMPDEST CALLVALUE PUSH2 0xC7 JUMPI PUSH1 0x40 CALLDATASIZE PUSH1 0x3 NOT ADD SLT PUSH2 0xC7 JUMPI PUSH1 0x40 PUSH2 0x21E PUSH2 0x2FB JUMP JUMPDEST PUSH1 0x0 SWAP1 PUSH2 0x229 PUSH2 0x472 JUMP JUMPDEST POP PUSH1 0xE0 DUP4 MLOAD PUSH2 0x238 DUP3 DUP3 PUSH2 0x406 JUMP JUMPDEST CALLDATASIZE SWAP1 CALLDATACOPY PUSH1 0x1 PUSH1 0x1 PUSH1 0xA0 SHL SUB AND DUP2 MSTORE PUSH1 0x20 DUP2 DUP2 MSTORE DUP3 DUP3 KECCAK256 PUSH1 0x24 CALLDATALOAD DUP4 MSTORE SWAP1 MSTORE KECCAK256 PUSH1 0x5 DUP2 ADD SLOAD PUSH1 0x6 DUP3 ADD SLOAD PUSH1 0xE DUP4 ADD SWAP3 SWAP1 PUSH2 0x26F DUP3 PUSH2 0x446 JUMP JUMPDEST SWAP2 DUP5 SLOAD SWAP1 PUSH8 0xFFFFFFFFFFFFFFFF DUP3 GT PUSH2 0x1ED JUMPI PUSH1 0x40 MLOAD SWAP2 PUSH2 0x296 PUSH1 0x20 DUP3 PUSH1 0x5 SHL ADD DUP5 PUSH2 0x406 JUMP JUMPDEST DUP1 DUP4 MSTORE PUSH1 0x20 DUP4 ADD SWAP7 PUSH1 0x0 MSTORE PUSH1 0x20 PUSH1 0x0 KECCAK256 SWAP7 PUSH1 0x0 SWAP1 JUMPDEST DUP3 DUP3 LT PUSH2 0x2C6 JUMPI POP POP POP SWAP1 PUSH2 0x1A7 PUSH1 0x7 PUSH2 0x1B4 SWAP5 SWAP4 ADD PUSH2 0x4B6 JUMP JUMPDEST PUSH1 0x8 PUSH1 0x20 PUSH1 0x1 SWAP3 PUSH1 0x40 MLOAD PUSH2 0x2D9 DUP2 PUSH2 0x3EA JUMP JUMPDEST PUSH2 0x2E2 DUP14 PUSH2 0x4B6 JUMP JUMPDEST DUP2 MSTORE PUSH1 0x7 DUP14 ADD SLOAD DUP4 DUP3 ADD MSTORE DUP2 MSTORE ADD SWAP10 ADD SWAP2 ADD SWAP1 SWAP8 PUSH2 0x2AB JUMP JUMPDEST PUSH1 0x4 CALLDATALOAD SWAP1 PUSH1 0x1 PUSH1 0x1 PUSH1 0xA0 SHL SUB DUP3 AND DUP3 SUB PUSH2 0xC7 JUMPI JUMP JUMPDEST SWAP3 SWAP2 SWAP6 SWAP5 SWAP4 SWAP6 PUSH2 0x344 DUP5 PUSH2 0x1C0 DUP2 ADD SWAP4 PUSH1 0x20 DUP1 PUSH1 0x60 SWAP3 DUP2 DUP2 MLOAD DUP1 MLOAD DUP8 MSTORE ADD MLOAD DUP3 DUP7 ADD MSTORE ADD MLOAD DUP1 MLOAD PUSH1 0x40 DUP6 ADD MSTORE ADD MLOAD SWAP2 ADD MSTORE JUMP JUMPDEST PUSH1 0x80 DUP5 ADD MSTORE PUSH2 0x1C0 PUSH1 0xA0 DUP5 ADD MSTORE DUP2 MLOAD DUP1 SWAP2 MSTORE PUSH1 0x20 PUSH2 0x1E0 DUP5 ADD SWAP3 ADD SWAP1 PUSH1 0x0 JUMPDEST DUP2 DUP2 LT PUSH2 0x39E JUMPI POP POP POP SWAP4 PUSH1 0xC0 DUP3 ADD PUSH1 0x0 SWAP1 JUMPDEST PUSH1 0x7 DUP3 LT PUSH2 0x388 JUMPI POP POP POP PUSH2 0x1A0 ADD MSTORE JUMP JUMPDEST PUSH1 0x20 DUP1 PUSH1 0x1 SWAP3 DUP6 MLOAD DUP2 MSTORE ADD SWAP4 ADD SWAP2 ADD SWAP1 SWAP2 PUSH2 0x376 JUMP JUMPDEST SWAP1 SWAP2 SWAP3 DUP4 MLOAD DUP1 MLOAD DUP3 SWAP1 PUSH1 0x0 SWAP2 JUMPDEST PUSH1 0x7 DUP4 LT PUSH2 0x3D4 JUMPI POP POP POP PUSH2 0x100 PUSH1 0x1 SWAP3 PUSH1 0x20 DUP1 SWAP4 ADD MLOAD PUSH1 0xE0 DUP3 ADD MSTORE ADD SWAP5 ADD SWAP2 ADD SWAP2 SWAP1 SWAP2 PUSH2 0x363 JUMP JUMPDEST PUSH1 0x20 DUP1 PUSH1 0x1 SWAP3 DUP5 MLOAD DUP2 MSTORE ADD SWAP3 ADD SWAP3 ADD SWAP2 SWAP1 PUSH2 0x3AB JUMP JUMPDEST PUSH1 0x40 DUP2 ADD SWAP1 DUP2 LT PUSH8 0xFFFFFFFFFFFFFFFF DUP3 GT OR PUSH2 0x1ED JUMPI PUSH1 0x40 MSTORE JUMP JUMPDEST SWAP1 PUSH1 0x1F DUP1 NOT SWAP2 ADD AND DUP2 ADD SWAP1 DUP2 LT PUSH8 0xFFFFFFFFFFFFFFFF DUP3 GT OR PUSH2 0x1ED JUMPI PUSH1 0x40 MSTORE JUMP JUMPDEST SWAP1 PUSH1 0x40 MLOAD PUSH2 0x435 DUP2 PUSH2 0x3EA JUMP JUMPDEST PUSH1 0x20 PUSH1 0x1 DUP3 SWAP5 DUP1 SLOAD DUP5 MSTORE ADD SLOAD SWAP2 ADD MSTORE JUMP JUMPDEST SWAP1 PUSH1 0x40 MLOAD PUSH2 0x453 DUP2 PUSH2 0x3EA JUMP JUMPDEST PUSH1 0x20 PUSH2 0x46D PUSH1 0x2 DUP4 SWAP6 PUSH2 0x465 DUP2 PUSH2 0x428 JUMP JUMPDEST DUP6 MSTORE ADD PUSH2 0x428 JUMP JUMPDEST SWAP2 ADD MSTORE JUMP JUMPDEST PUSH1 0x40 MLOAD SWAP1 PUSH2 0x47F DUP3 PUSH2 0x3EA JUMP JUMPDEST DUP2 PUSH1 0x40 MLOAD PUSH2 0x48C DUP2 PUSH2 0x3EA JUMP JUMPDEST PUSH1 0x0 DUP2 MSTORE PUSH1 0x0 PUSH1 0x20 DUP3 ADD MSTORE DUP2 MSTORE PUSH1 0x20 PUSH1 0x40 MLOAD SWAP2 PUSH2 0x4A8 DUP4 PUSH2 0x3EA JUMP JUMPDEST PUSH1 0x0 DUP4 MSTORE PUSH1 0x0 DUP3 DUP5 ADD MSTORE ADD MSTORE JUMP JUMPDEST PUSH1 0x40 MLOAD SWAP2 SWAP1 PUSH1 0x0 DUP4 JUMPDEST PUSH1 0x7 DUP3 LT PUSH2 0x4D7 JUMPI POP POP POP PUSH2 0x4D5 PUSH1 0xE0 DUP4 PUSH2 0x406 JUMP JUMPDEST JUMP JUMPDEST PUSH1 0x1 PUSH1 0x20 DUP2 SWAP3 DUP6 SLOAD DUP2 MSTORE ADD SWAP4 ADD SWAP2 ADD SWAP1 SWAP2 PUSH2 0x4BF JUMP INVALID LOG2 PUSH5 0x6970667358 0x22 SLT KECCAK256 0xEE PUSH18 0x62FD9CCEA35EF7679AABE68E5BF271A6BA4 MULMOD 0xFC 0x2B 0xE2 REVERT PUSH20 0x7C55C05F69DC64736F6C634300081B0033000000 "},"methodIdentifiers":{"balanceOf(address,uint256)":"00fdd58e","balanceOfStandalone(address)":"a865d5b2","balances(address,uint256)":"cbf1304d"}}}}}