{
  "_format": "hh-sol-artifact-1",
  "contractName": "EncryptedUserBalances",
  "sourceName": "contracts/core/EncryptedUserBalances.sol",
  "abi": [
    {
      "inputs": [
        {
          "internalType": "address",
          "name": "user",
          "type": "address"
        },
        {
          "internalType": "uint256",
          "name": "tokenId",
          "type": "uint256"
        }
      ],
      "name": "balanceOf",
      "outputs": [
        {
          "components": [
            {
              "components": [
                {
                  "internalType": "uint256",
                  "name": "x",
                  "type": "uint256"
                },
                {
                  "internalType": "uint256",
                  "name": "y",
                  "type": "uint256"
                }
              ],
              "internalType": "struct Point",
              "name": "c1",
              "type": "tuple"
            },
            {
              "components": [
                {
                  "internalType": "uint256",
                  "name": "x",
                  "type": "uint256"
                },
                {
                  "internalType": "uint256",
                  "name": "y",
                  "type": "uint256"
                }
              ],
              "internalType": "struct Point",
              "name": "c2",
              "type": "tuple"
            }
          ],
          "internalType": "struct EGCT",
          "name": "eGCT",
          "type": "tuple"
        },
        {
          "internalType": "uint256",
          "name": "nonce",
          "type": "uint256"
        },
        {
          "components": [
            {
              "internalType": "uint256[7]",
              "name": "pct",
              "type": "uint256[7]"
            },
            {
              "internalType": "uint256",
              "name": "index",
              "type": "uint256"
            }
          ],
          "internalType": "struct AmountPCT[]",
          "name": "amountPCTs",
          "type": "tuple[]"
        },
        {
          "internalType": "uint256[7]",
          "name": "balancePCT",
          "type": "uint256[7]"
        },
        {
          "internalType": "uint256",
          "name": "transactionIndex",
          "type": "uint256"
        }
      ],
      "stateMutability": "view",
      "type": "function"
    },
    {
      "inputs": [
        {
          "internalType": "address",
          "name": "user",
          "type": "address"
        }
      ],
      "name": "balanceOfStandalone",
      "outputs": [
        {
          "components": [
            {
              "components": [
                {
                  "internalType": "uint256",
                  "name": "x",
                  "type": "uint256"
                },
                {
                  "internalType": "uint256",
                  "name": "y",
                  "type": "uint256"
                }
              ],
              "internalType": "struct Point",
              "name": "c1",
              "type": "tuple"
            },
            {
              "components": [
                {
                  "internalType": "uint256",
                  "name": "x",
                  "type": "uint256"
                },
                {
                  "internalType": "uint256",
                  "name": "y",
                  "type": "uint256"
                }
              ],
              "internalType": "struct Point",
              "name": "c2",
              "type": "tuple"
            }
          ],
          "internalType": "struct EGCT",
          "name": "eGCT",
          "type": "tuple"
        },
        {
          "internalType": "uint256",
          "name": "nonce",
          "type": "uint256"
        },
        {
          "components": [
            {
              "internalType": "uint256[7]",
              "name": "pct",
              "type": "uint256[7]"
            },
            {
              "internalType": "uint256",
              "name": "index",
              "type": "uint256"
            }
          ],
          "internalType": "struct AmountPCT[]",
          "name": "amountPCTs",
          "type": "tuple[]"
        },
        {
          "internalType": "uint256[7]",
          "name": "balancePCT",
          "type": "uint256[7]"
        },
        {
          "internalType": "uint256",
          "name": "transactionIndex",
          "type": "uint256"
        }
      ],
      "stateMutability": "view",
      "type": "function"
    },
    {
      "inputs": [
        {
          "internalType": "address",
          "name": "user",
          "type": "address"
        },
        {
          "internalType": "uint256",
          "name": "tokenId",
          "type": "uint256"
        }
      ],
      "name": "balances",
      "outputs": [
        {
          "components": [
            {
              "components": [
                {
                  "internalType": "uint256",
                  "name": "x",
                  "type": "uint256"
                },
                {
                  "internalType": "uint256",
                  "name": "y",
                  "type": "uint256"
                }
              ],
              "internalType": "struct Point",
              "name": "c1",
              "type": "tuple"
            },
            {
              "components": [
                {
                  "internalType": "uint256",
                  "name": "x",
                  "type": "uint256"
                },
                {
                  "internalType": "uint256",
                  "name": "y",
                  "type": "uint256"
                }
              ],
              "internalType": "struct Point",
              "name": "c2",
              "type": "tuple"
            }
          ],
          "internalType": "struct EGCT",
          "name": "eGCT",
          "type": "tuple"
        },
        {
          "internalType": "uint256",
          "name": "nonce",
          "type": "uint256"
        },
        {
          "internalType": "uint256",
          "name": "transactionIndex",
          "type": "uint256"
        }
      ],
      "stateMutability": "view",
      "type": "function"
    }
  ],
  "bytecode": "0x60808060405234601557610523908161001b8239f35b600080fdfe6080604052600436101561001257600080fd5b60003560e01c8062fdd58e14610203578063a865d5b2146100cc5763cbf1304d1461003c57600080fd5b346100c75760403660031901126100c7576001600160a01b0361005d6102fb565b166000526000602052604060002060243560005260205260c0604060002061008481610446565b9060066005820154910154906100bb6040518094602080606092818151805187520151828601520151805160408501520151910152565b608083015260a0820152f35b600080fd5b346100c75760203660031901126100c75760406100e76102fb565b6100ef610472565b5060e0908183516101008282610406565b36903760009161010e610472565b50835161011b8282610406565b3690376001600160a01b03168152602081815282822082805290522060058101546006820154600e8301929061015082610446565b9184549067ffffffffffffffff82116101ed576040519161017760208260051b0184610406565b80835260208301966000526020600020966000905b8282106101b857505050906101a760076101b49493016104b6565b9060405195869586610311565b0390f35b600860206001926040516101cb816103ea565b6101d48d6104b6565b815260078d01548382015281520199019101909761018c565b634e487b7160e01b600052604160045260246000fd5b346100c75760403660031901126100c757604061021e6102fb565b600090610229610472565b5060e083516102388282610406565b3690376001600160a01b031681526020818152828220602435835290522060058101546006820154600e8301929061026f82610446565b9184549067ffffffffffffffff82116101ed576040519161029660208260051b0184610406565b80835260208301966000526020600020966000905b8282106102c657505050906101a760076101b49493016104b6565b600860206001926040516102d9816103ea565b6102e28d6104b6565b815260078d0154838201528152019901910190976102ab565b600435906001600160a01b03821682036100c757565b929195949395610344846101c0810193602080606092818151805187520151828601520151805160408501520151910152565b60808401526101c060a0840152815180915260206101e0840192019060005b81811061039e575050509360c082016000905b60078210610388575050506101a00152565b6020806001928551815201930191019091610376565b9091928351805182906000915b600783106103d45750505061010060019260208093015160e08201520194019101919091610363565b60208060019284518152019201920191906103ab565b6040810190811067ffffffffffffffff8211176101ed57604052565b90601f8019910116810190811067ffffffffffffffff8211176101ed57604052565b90604051610435816103ea565b602060018294805484520154910152565b90604051610453816103ea565b602061046d6002839561046581610428565b855201610428565b910152565b6040519061047f826103ea565b8160405161048c816103ea565b600081526000602082015281526020604051916104a8836103ea565b600083526000828401520152565b60405191906000835b600782106104d7575050506104d560e083610406565b565b60016020819285548152019301910190916104bf56fea2646970667358221220ee71062fd9ccea35ef7679aabe68e5bf271a6ba409fc2be2fd737c55c05f69dc64736f6c634300081b0033",
  "linkReferences": {},
  "deployedLinkReferences": {}
}